{
  "abi": [
    {
      "inputs": [],
      "stateMutability": "nonpayable",
      "type": "constructor"
    },
    {
      "inputs": [],
      "name": "AddressZero",
      "type": "error"
    },
    {
      "inputs": [
        {
          "internalType": "bytes32",
          "name": "",
          "type": "bytes32"
        },
        {
          "internalType": "address",
          "name": "",
          "type": "address"
        }
      ],
      "name": "AlreadyClaimed",
      "type": "error"
    },
    {
      "inputs": [],
      "name": "InvalidProof",
      "type": "error"
    },
    {
      "inputs": [],
      "name": "OverCompensated",
      "type": "error"
    },
    {
      "inputs": [],
      "name": "TransferNotAllowed",
      "type": "error"
    },
    {
      "anonymous": false,
      "inputs": [
        {
          "indexed": true,
          "internalType": "address",
          "name": "owner",
          "type": "address"
        },
        {
          "indexed": true,
          "internalType": "address",
          "name": "spender",
          "type": "address"
        },
        {
          "indexed": false,
          "internalType": "uint256",
          "name": "value",
          "type": "uint256"
        }
      ],
      "name": "Approval",
      "type": "event"
    },
    {
      "anonymous": false,
      "inputs": [
        {
          "indexed": false,
          "internalType": "bytes32",
          "name": "proof",
          "type": "bytes32"
        },
        {
          "indexed": false,
          "internalType": "uint256",
          "name": "amount",
          "type": "uint256"
        }
      ],
      "name": "CompensationAdded",
      "type": "event"
    },
    {
      "anonymous": false,
      "inputs": [
        {
          "indexed": true,
          "internalType": "address",
          "name": "user",
          "type": "address"
        },
        {
          "indexed": false,
          "internalType": "uint256",
          "name": "claimed",
          "type": "uint256"
        },
        {
          "indexed": false,
          "internalType": "uint256",
          "name": "userTotal",
          "type": "uint256"
        }
      ],
      "name": "CompensationClaimed",
      "type": "event"
    },
    {
      "anonymous": false,
      "inputs": [
        {
          "indexed": true,
          "internalType": "address",
          "name": "_maintainer",
          "type": "address"
        }
      ],
      "name": "CompensationExecutorSet",
      "type": "event"
    },
    {
      "anonymous": false,
      "inputs": [
        {
          "indexed": false,
          "internalType": "uint8",
          "name": "version",
          "type": "uint8"
        }
      ],
      "name": "Initialized",
      "type": "event"
    },
    {
      "anonymous": false,
      "inputs": [
        {
          "indexed": true,
          "internalType": "address",
          "name": "previousOwner",
          "type": "address"
        },
        {
          "indexed": true,
          "internalType": "address",
          "name": "newOwner",
          "type": "address"
        }
      ],
      "name": "OwnershipTransferred",
      "type": "event"
    },
    {
      "anonymous": false,
      "inputs": [
        {
          "indexed": true,
          "internalType": "address",
          "name": "user",
          "type": "address"
        },
        {
          "indexed": false,
          "internalType": "uint256",
          "name": "amount",
          "type": "uint256"
        }
      ],
      "name": "Staked",
      "type": "event"
    },
    {
      "anonymous": false,
      "inputs": [
        {
          "indexed": true,
          "internalType": "address",
          "name": "from",
          "type": "address"
        },
        {
          "indexed": true,
          "internalType": "address",
          "name": "to",
          "type": "address"
        },
        {
          "indexed": false,
          "internalType": "uint256",
          "name": "value",
          "type": "uint256"
        }
      ],
      "name": "Transfer",
      "type": "event"
    },
    {
      "anonymous": false,
      "inputs": [
        {
          "indexed": true,
          "internalType": "address",
          "name": "user",
          "type": "address"
        },
        {
          "indexed": false,
          "internalType": "uint256",
          "name": "amount",
          "type": "uint256"
        }
      ],
      "name": "Unstaked",
      "type": "event"
    },
    {
      "inputs": [
        {
          "internalType": "address",
          "name": "vault",
          "type": "address"
        },
        {
          "internalType": "bytes32",
          "name": "_newRoot",
          "type": "bytes32"
        },
        {
          "internalType": "uint256",
          "name": "newCompensation",
          "type": "uint256"
        }
      ],
      "name": "addCompensation",
      "outputs": [],
      "stateMutability": "nonpayable",
      "type": "function"
    },
    {
      "inputs": [
        {
          "internalType": "address",
          "name": "owner",
          "type": "address"
        },
        {
          "internalType": "address",
          "name": "spender",
          "type": "address"
        }
      ],
      "name": "allowance",
      "outputs": [
        {
          "internalType": "uint256",
          "name": "",
          "type": "uint256"
        }
      ],
      "stateMutability": "view",
      "type": "function"
    },
    {
      "inputs": [
        {
          "internalType": "address",
          "name": "spender",
          "type": "address"
        },
        {
          "internalType": "uint256",
          "name": "amount",
          "type": "uint256"
        }
      ],
      "name": "approve",
      "outputs": [
        {
          "internalType": "bool",
          "name": "",
          "type": "bool"
        }
      ],
      "stateMutability": "nonpayable",
      "type": "function"
    },
    {
      "inputs": [
        {
          "internalType": "address",
          "name": "account",
          "type": "address"
        }
      ],
      "name": "balanceOf",
      "outputs": [
        {
          "internalType": "uint256",
          "name": "",
          "type": "uint256"
        }
      ],
      "stateMutability": "view",
      "type": "function"
    },
    {
      "inputs": [
        {
          "internalType": "bytes32[]",
          "name": "proof",
          "type": "bytes32[]"
        },
        {
          "internalType": "uint256",
          "name": "userTotalCompensation",
          "type": "uint256"
        }
      ],
      "name": "claim",
      "outputs": [],
      "stateMutability": "nonpayable",
      "type": "function"
    },
    {
      "inputs": [
        {
          "internalType": "bytes32[]",
          "name": "proof",
          "type": "bytes32[]"
        },
        {
          "internalType": "uint256",
          "name": "userTotalCompensation",
          "type": "uint256"
        },
        {
          "internalType": "address",
          "name": "claimer",
          "type": "address"
        }
      ],
      "name": "claim",
      "outputs": [
        {
          "internalType": "uint256",
          "name": "claimable",
          "type": "uint256"
        }
      ],
      "stateMutability": "nonpayable",
      "type": "function"
    },
    {
      "inputs": [
        {
          "internalType": "address",
          "name": "referral",
          "type": "address"
        },
        {
          "internalType": "bytes[]",
          "name": "proofs",
          "type": "bytes[]"
        },
        {
          "internalType": "address[]",
          "name": "pools",
          "type": "address[]"
        },
        {
          "internalType": "uint256[]",
          "name": "userTotalRewards",
          "type": "uint256[]"
        }
      ],
      "name": "claimAllReferralRewardsAndStake",
      "outputs": [],
      "stateMutability": "nonpayable",
      "type": "function"
    },
    {
      "inputs": [
        {
          "internalType": "bytes32[]",
          "name": "proof",
          "type": "bytes32[]"
        },
        {
          "internalType": "uint256",
          "name": "userTotalCompensation",
          "type": "uint256"
        }
      ],
      "name": "claimAndStake",
      "outputs": [],
      "stateMutability": "nonpayable",
      "type": "function"
    },
    {
      "inputs": [
        {
          "internalType": "address",
          "name": "referral",
          "type": "address"
        },
        {
          "internalType": "bytes32[]",
          "name": "proof",
          "type": "bytes32[]"
        },
        {
          "internalType": "address",
          "name": "pool",
          "type": "address"
        },
        {
          "internalType": "uint256",
          "name": "userRewards",
          "type": "uint256"
        }
      ],
      "name": "claimReferralRewardsAndStake",
      "outputs": [],
      "stateMutability": "nonpayable",
      "type": "function"
    },
    {
      "inputs": [],
      "name": "compensationRoot",
      "outputs": [
        {
          "internalType": "bytes32",
          "name": "",
          "type": "bytes32"
        }
      ],
      "stateMutability": "view",
      "type": "function"
    },
    {
      "inputs": [
        {
          "internalType": "address",
          "name": "vaultFrom",
          "type": "address"
        },
        {
          "internalType": "address",
          "name": "vaultTo",
          "type": "address"
        },
        {
          "internalType": "address",
          "name": "poolFrom",
          "type": "address"
        },
        {
          "internalType": "address",
          "name": "poolTo",
          "type": "address"
        },
        {
          "internalType": "uint256",
          "name": "amountIn",
          "type": "uint256"
        },
        {
          "internalType": "uint256",
          "name": "minAmountOut",
          "type": "uint256"
        }
      ],
      "name": "convertCompensation",
      "outputs": [],
      "stateMutability": "nonpayable",
      "type": "function"
    },
    {
      "inputs": [],
      "name": "decimals",
      "outputs": [
        {
          "internalType": "uint8",
          "name": "",
          "type": "uint8"
        }
      ],
      "stateMutability": "view",
      "type": "function"
    },
    {
      "inputs": [
        {
          "internalType": "address",
          "name": "spender",
          "type": "address"
        },
        {
          "internalType": "uint256",
          "name": "subtractedValue",
          "type": "uint256"
        }
      ],
      "name": "decreaseAllowance",
      "outputs": [
        {
          "internalType": "bool",
          "name": "",
          "type": "bool"
        }
      ],
      "stateMutability": "nonpayable",
      "type": "function"
    },
    {
      "inputs": [],
      "name": "executor",
      "outputs": [
        {
          "internalType": "address",
          "name": "",
          "type": "address"
        }
      ],
      "stateMutability": "view",
      "type": "function"
    },
    {
      "inputs": [
        {
          "internalType": "address",
          "name": "_user",
          "type": "address"
        }
      ],
      "name": "getUserPoints",
      "outputs": [
        {
          "internalType": "uint256",
          "name": "points",
          "type": "uint256"
        }
      ],
      "stateMutability": "view",
      "type": "function"
    },
    {
      "inputs": [
        {
          "internalType": "address",
          "name": "spender",
          "type": "address"
        },
        {
          "internalType": "uint256",
          "name": "addedValue",
          "type": "uint256"
        }
      ],
      "name": "increaseAllowance",
      "outputs": [
        {
          "internalType": "bool",
          "name": "",
          "type": "bool"
        }
      ],
      "stateMutability": "nonpayable",
      "type": "function"
    },
    {
      "inputs": [
        {
          "internalType": "string",
          "name": "_name",
          "type": "string"
        },
        {
          "internalType": "string",
          "name": "_symbol",
          "type": "string"
        },
        {
          "internalType": "address",
          "name": "_pool",
          "type": "address"
        },
        {
          "internalType": "address",
          "name": "_executor",
          "type": "address"
        }
      ],
      "name": "initialize",
      "outputs": [],
      "stateMutability": "nonpayable",
      "type": "function"
    },
    {
      "inputs": [],
      "name": "name",
      "outputs": [
        {
          "internalType": "string",
          "name": "",
          "type": "string"
        }
      ],
      "stateMutability": "view",
      "type": "function"
    },
    {
      "inputs": [],
      "name": "owner",
      "outputs": [
        {
          "internalType": "address",
          "name": "",
          "type": "address"
        }
      ],
      "stateMutability": "view",
      "type": "function"
    },
    {
      "inputs": [],
      "name": "pool",
      "outputs": [
        {
          "internalType": "address",
          "name": "",
          "type": "address"
        }
      ],
      "stateMutability": "view",
      "type": "function"
    },
    {
      "inputs": [],
      "name": "renounceOwnership",
      "outputs": [],
      "stateMutability": "nonpayable",
      "type": "function"
    },
    {
      "inputs": [
        {
          "internalType": "address",
          "name": "_executor",
          "type": "address"
        }
      ],
      "name": "setExecutor",
      "outputs": [],
      "stateMutability": "nonpayable",
      "type": "function"
    },
    {
      "inputs": [
        {
          "internalType": "uint256",
          "name": "_amount",
          "type": "uint256"
        },
        {
          "internalType": "address",
          "name": "_receiver",
          "type": "address"
        }
      ],
      "name": "stake",
      "outputs": [],
      "stateMutability": "nonpayable",
      "type": "function"
    },
    {
      "inputs": [
        {
          "internalType": "uint256",
          "name": "_amount",
          "type": "uint256"
        }
      ],
      "name": "stake",
      "outputs": [],
      "stateMutability": "nonpayable",
      "type": "function"
    },
    {
      "inputs": [],
      "name": "symbol",
      "outputs": [
        {
          "internalType": "string",
          "name": "",
          "type": "string"
        }
      ],
      "stateMutability": "view",
      "type": "function"
    },
    {
      "inputs": [],
      "name": "totalDistributedCompensation",
      "outputs": [
        {
          "internalType": "uint256",
          "name": "",
          "type": "uint256"
        }
      ],
      "stateMutability": "view",
      "type": "function"
    },
    {
      "inputs": [],
      "name": "totalSupply",
      "outputs": [
        {
          "internalType": "uint256",
          "name": "",
          "type": "uint256"
        }
      ],
      "stateMutability": "view",
      "type": "function"
    },
    {
      "inputs": [],
      "name": "totalclaimedCompensation",
      "outputs": [
        {
          "internalType": "uint256",
          "name": "",
          "type": "uint256"
        }
      ],
      "stateMutability": "view",
      "type": "function"
    },
    {
      "inputs": [
        {
          "internalType": "address",
          "name": "to",
          "type": "address"
        },
        {
          "internalType": "uint256",
          "name": "amount",
          "type": "uint256"
        }
      ],
      "name": "transfer",
      "outputs": [
        {
          "internalType": "bool",
          "name": "",
          "type": "bool"
        }
      ],
      "stateMutability": "nonpayable",
      "type": "function"
    },
    {
      "inputs": [
        {
          "internalType": "address",
          "name": "from",
          "type": "address"
        },
        {
          "internalType": "address",
          "name": "to",
          "type": "address"
        },
        {
          "internalType": "uint256",
          "name": "amount",
          "type": "uint256"
        }
      ],
      "name": "transferFrom",
      "outputs": [
        {
          "internalType": "bool",
          "name": "",
          "type": "bool"
        }
      ],
      "stateMutability": "nonpayable",
      "type": "function"
    },
    {
      "inputs": [
        {
          "internalType": "address",
          "name": "newOwner",
          "type": "address"
        }
      ],
      "name": "transferOwnership",
      "outputs": [],
      "stateMutability": "nonpayable",
      "type": "function"
    },
    {
      "inputs": [
        {
          "internalType": "uint256",
          "name": "_amount",
          "type": "uint256"
        }
      ],
      "name": "unstake",
      "outputs": [],
      "stateMutability": "nonpayable",
      "type": "function"
    },
    {
      "inputs": [
        {
          "internalType": "uint256",
          "name": "_amount",
          "type": "uint256"
        },
        {
          "internalType": "address",
          "name": "_receiver",
          "type": "address"
        }
      ],
      "name": "unstake",
      "outputs": [],
      "stateMutability": "nonpayable",
      "type": "function"
    },
    {
      "inputs": [
        {
          "internalType": "address",
          "name": "",
          "type": "address"
        }
      ],
      "name": "users",
      "outputs": [
        {
          "internalType": "uint256",
          "name": "staked",
          "type": "uint256"
        },
        {
          "internalType": "uint256",
          "name": "lastUpdateBlock",
          "type": "uint256"
        },
        {
          "internalType": "uint256",
          "name": "points",
          "type": "uint256"
        },
        {
          "internalType": "uint256",
          "name": "claimed",
          "type": "uint256"
        }
      ],
      "stateMutability": "view",
      "type": "function"
    }
  ],
  "bytecode": {
    "object": "0x60806040523480156200001157600080fd5b506200001c62000022565b620000e4565b600054610100900460ff16156200008f5760405162461bcd60e51b815260206004820152602760248201527f496e697469616c697a61626c653a20636f6e747261637420697320696e697469604482015266616c697a696e6760c81b606482015260840160405180910390fd5b60005460ff9081161015620000e2576000805460ff191660ff9081179091556040519081527f7f26b83ff96e1f2b6a682f133852f6798a09c465da95921460cefb38474024989060200160405180910390a15b565b6125f480620000f46000396000f3fe608060405234801561001057600080fd5b50600436106101965760003560e01c806306fdde031461019b5780630850cb50146101b9578063095ea7b3146101ce57806316f0115b146101f157806318160ddd1461021c5780631c3c0ea81461022e57806323b872dd146102415780632e17de7814610254578063313ce5671461026757806339509351146102765780633b439351146102895780633fdc76f71461029c57806347d1f02f146102af57806356a8cda4146102b8578063579ff763146102c157806359bb3954146102d457806370a08231146102e7578063715018a6146103105780637726a733146103185780637acb7757146103215780638381e182146103345780638da5cb5b146103475780638f15b4141461034f57806395d89b4114610362578063976cce0d1461036a578063a457c2d71461037d578063a694fc3a14610390578063a87430ba146103a3578063a9059cbb146103f8578063aeefe31f1461040b578063c34c08e51461041e578063dd62ed3e14610431578063f2fde38b14610444578063f36b6c9c14610457575b600080fd5b6101a361046a565b6040516101b09190611c43565b60405180910390f35b6101cc6101c7366004611d4a565b6104fc565b005b6101e16101dc366004611daa565b61052a565b60405190151581526020016101b0565b609754610204906001600160a01b031681565b6040516001600160a01b0390911681526020016101b0565b6067545b6040519081526020016101b0565b6101cc61023c366004611dd4565b610542565b6101e161024f366004611def565b6105ef565b6101cc610262366004611e2b565b610613565b604051601281526020016101b0565b6101e1610284366004611daa565b610620565b6101cc610297366004611d4a565b610642565b6102206102aa366004611e44565b610649565b610220609b5481565b610220609a5481565b6101cc6102cf366004611e9a565b6107e2565b6101cc6102e2366004611ecd565b61085d565b6102206102f5366004611dd4565b6001600160a01b031660009081526065602052604090205490565b6101cc6108ee565b61022060995481565b6101cc61032f366004611f32565b610902565b6101cc610342366004611f32565b6109d8565b610204610a9b565b6101cc61035d366004611fd5565b610aaa565b6101a3610c26565b6101cc610378366004612059565b610c35565b6101e161038b366004611daa565b610ce0565b6101cc61039e366004611e2b565b610d5b565b6103d86103b1366004611dd4565b60986020526000908152604090208054600182015460028301546003909301549192909184565b6040805194855260208501939093529183015260608201526080016101b0565b6101e1610406366004611daa565b610d65565b610220610419366004611dd4565b610d73565b609c54610204906001600160a01b031681565b61022061043f3660046120bf565b610d9a565b6101cc610452366004611dd4565b610dc5565b6101cc61046536600461214b565b610e3b565b6060606880546104799061226a565b80601f01602080910402602001604051908101604052809291908181526020018280546104a59061226a565b80156104f25780601f106104c7576101008083540402835291602001916104f2565b820191906000526020600020905b8154815290600101906020018083116104d557829003601f168201915b5050505050905090565b6000610509838333610649565b90506000811161051b5761051b6122a4565b6105258133610902565b505050565b600033610538818585610f38565b5060019392505050565b61054a61105c565b6001600160a01b0381166105a55760405162461bcd60e51b815260206004820181905260248201527f436f6d70656e736174696f6e3a7a65726f4578656375746f724164647265737360448201526064015b60405180910390fd5b609c80546001600160a01b0319166001600160a01b0383169081179091556040517ff5ed9c7855373192874cd4b4c4c804cec214728bf6bb5b91974f54119b29998b90600090a250565b6000336105fd8582856110bb565b610608858585611135565b506001949350505050565b61061d81336109d8565b50565b6000336105388185856106338383610d9a565b61063d91906122d0565b610f38565b6105258282335b600080828460405160200161065f9291906122e8565b6040516020818303038152906040528051906020012090506106ac85609b548360405160200161069191815260200190565b604051602081830303815290604052805190602001206112d9565b6106c9576040516309bde33960e01b815260040160405180910390fd5b6001600160a01b038316600090815260986020526040902060038101546106f09086612301565b92508260000361072957609b5460405163546511c760e11b815260048101919091526001600160a01b038516602482015260440161059c565b82609a600082825461073b91906122d0565b9091555050609954609a5411156107655760405163983c6c7560e01b815260040160405180910390fd5b60975461077c906001600160a01b031685856112ef565b8281600301600082825461079091906122d0565b909155505060408051848152602081018790526001600160a01b038616917f04e0b1c945418f61fb057b8004dc89a715c31d4188dbb635d4a80b693bc9e0ea910160405180910390a250509392505050565b6107eb33611345565b609b829055609754610808906001600160a01b031684308461139e565b806099600082825461081a91906122d0565b909155505060408051838152602081018390527fa1151a6689ec3fff0622185c3f223952d1d6e1f0e324bcbc4258c83cbae72b62910160405180910390a1505050565b60405163ae9901bd60e01b81526000906001600160a01b0386169063ae9901bd90610892908790879087903390600401612318565b6020604051808303816000875af11580156108b1573d6000803e3d6000fd5b505050506040513d601f19601f820116820180604052508101906108d5919061237f565b905080156108e7576108e78133610902565b5050505050565b6108f661105c565b61090060006113d6565b565b6001600160a01b0381166109535760405162461bcd60e51b8152602060048201526018602482015277436f6d70656e736174696f6e3a7a65726f4164647265737360401b604482015260640161059c565b61095d8183611428565b610975336097546001600160a01b031690308561139e565b6109838183600160006114e4565b6109913083600160006114e4565b806001600160a01b03167f9e71bc8eea02a63969f509818f2dafb9254532904319f9dbda79b67bd34a5f3d836040516109cc91815260200190565b60405180910390a25050565b336109e38184611561565b6097546109fa906001600160a01b031683856112ef565b6001600160a01b0381166000908152609860205260408120805490919085610a218461168f565b610a2b9190612398565b610a3591906123b7565b9050610a4483866000846114e4565b610a5130866000846114e4565b826001600160a01b03167f0f5bb82176feb1b5e747e28471aa92156a04d9f3ab9f45f28e2d704232b93f7586604051610a8c91815260200190565b60405180910390a25050505050565b6033546001600160a01b031690565b600054610100900460ff1615808015610aca5750600054600160ff909116105b80610aeb5750610ad9306116c8565b158015610aeb575060005460ff166001145b610b4e5760405162461bcd60e51b815260206004820152602e60248201527f496e697469616c697a61626c653a20636f6e747261637420697320616c72656160448201526d191e481a5b9a5d1a585b1a5e995960921b606482015260840161059c565b6000805460ff191660011790558015610b71576000805461ff0019166101001790555b6001600160a01b038316610b9857604051639fabe1c160e01b815260040160405180910390fd5b610ba06116d7565b610baa8585611706565b609780546001600160a01b038086166001600160a01b031992831617909255609c80549285169290911691909117905580156108e7576000805461ff0019169055604051600181527f7f26b83ff96e1f2b6a682f133852f6798a09c465da95921460cefb38474024989060200160405180910390a15050505050565b6060606980546104799061226a565b610c3e33611345565b610c536001600160a01b03851687308561139e565b610c676001600160a01b0385168484611737565b60405163097f7b4960e11b81526001600160a01b038581166004830152602482018490526044820183905286811660648301528416906312fef69290608401600060405180830381600087803b158015610cc057600080fd5b505af1158015610cd4573d6000803e3d6000fd5b50505050505050505050565b60003381610cee8286610d9a565b905083811015610d4e5760405162461bcd60e51b815260206004820152602560248201527f45524332303a2064656372656173656420616c6c6f77616e63652062656c6f77604482015264207a65726f60d81b606482015260840161059c565b6106088286868403610f38565b61061d8133610902565b600033610538818585611135565b6001600160a01b0381166000908152609860205260408120610d949061168f565b92915050565b6001600160a01b03918216600090815260666020908152604080832093909416825291909152205490565b610dcd61105c565b6001600160a01b038116610e325760405162461bcd60e51b815260206004820152602660248201527f4f776e61626c653a206e6577206f776e657220697320746865207a65726f206160448201526564647265737360d01b606482015260840161059c565b61061d816113d6565b60005b82518110156108e7576000610e6b858381518110610e5e57610e5e6123d9565b60200260200101516117d7565b90506000866001600160a01b031663ae9901bd83878681518110610e9157610e916123d9565b6020026020010151878781518110610eab57610eab6123d9565b6020026020010151610eba3390565b6040518563ffffffff1660e01b8152600401610ed99493929190612318565b6020604051808303816000875af1158015610ef8573d6000803e3d6000fd5b505050506040513d601f19601f82011682018060405250810190610f1c919061237f565b90508015610f2e57610f2e8133610902565b5050600101610e3e565b6001600160a01b038316610f9a5760405162461bcd60e51b8152602060048201526024808201527f45524332303a20617070726f76652066726f6d20746865207a65726f206164646044820152637265737360e01b606482015260840161059c565b6001600160a01b038216610ffb5760405162461bcd60e51b815260206004820152602260248201527f45524332303a20617070726f766520746f20746865207a65726f206164647265604482015261737360f01b606482015260840161059c565b6001600160a01b0383811660008181526066602090815260408083209487168084529482529182902085905590518481527f8c5be1e5ebec7d5bd14f71427d1e84f3dd0314c0f7b2291e5b200ac8c7c3b925910160405180910390a3505050565b33611065610a9b565b6001600160a01b0316146109005760405162461bcd60e51b815260206004820181905260248201527f4f776e61626c653a2063616c6c6572206973206e6f7420746865206f776e6572604482015260640161059c565b60006110c78484610d9a565b9050600019811461112f57818110156111225760405162461bcd60e51b815260206004820152601d60248201527f45524332303a20696e73756666696369656e7420616c6c6f77616e6365000000604482015260640161059c565b61112f8484848403610f38565b50505050565b6001600160a01b0383166111995760405162461bcd60e51b815260206004820152602560248201527f45524332303a207472616e736665722066726f6d20746865207a65726f206164604482015264647265737360d81b606482015260840161059c565b6001600160a01b0382166111fb5760405162461bcd60e51b815260206004820152602360248201527f45524332303a207472616e7366657220746f20746865207a65726f206164647260448201526265737360e81b606482015260840161059c565b611206838383611890565b6001600160a01b0383166000908152606560205260409020548181101561127e5760405162461bcd60e51b815260206004820152602660248201527f45524332303a207472616e7366657220616d6f756e7420657863656564732062604482015265616c616e636560d01b606482015260840161059c565b6001600160a01b03808516600081815260656020526040808220868603905592861680825290839020805486019055915160008051602061259f833981519152906112cc9086815260200190565b60405180910390a361112f565b6000826112e685846118ce565b14949350505050565b6105258363a9059cbb60e01b848460405160240161130e9291906122e8565b60408051601f198184030181529190526020810180516001600160e01b03166001600160e01b03199093169290921790915261191b565b609c546001600160a01b0382811691161461061d5760405162461bcd60e51b815260206004820152601960248201527821b7b6b832b739b0ba34b7b71d37b7363ca2bc32b1baba37b960391b604482015260640161059c565b6040516001600160a01b038085166024830152831660448201526064810182905261112f9085906323b872dd60e01b9060840161130e565b603380546001600160a01b038381166001600160a01b0319831681179093556040519116919082907f8be0079c531659141344cd1fd0a4f28419497f9722a3daafe3b4186f6b6457e090600090a35050565b6001600160a01b03821661147e5760405162461bcd60e51b815260206004820152601f60248201527f45524332303a206d696e7420746f20746865207a65726f206164647265737300604482015260640161059c565b61148a60008383611890565b806067600082825461149c91906122d0565b90915550506001600160a01b03821660008181526065602090815260408083208054860190555184815260008051602061259f833981519152910160405180910390a35b5050565b6001600160a01b0384166000908152609860205260409020816115068261168f565b6115109190612301565b6002820155821561153a578381600001600082825461152f91906122d0565b909155506115549050565b8381600001600082825461154e9190612301565b90915550505b4360019091015550505050565b6001600160a01b0382166115c15760405162461bcd60e51b815260206004820152602160248201527f45524332303a206275726e2066726f6d20746865207a65726f206164647265736044820152607360f81b606482015260840161059c565b6115cd82600083611890565b6001600160a01b038216600090815260656020526040902054818110156116415760405162461bcd60e51b815260206004820152602260248201527f45524332303a206275726e20616d6f756e7420657863656564732062616c616e604482015261636560f01b606482015260840161059c565b6001600160a01b038316600081815260656020908152604080832086860390556067805487900390555185815291929160008051602061259f833981519152910160405180910390a3505050565b6000808260010154436116a29190612301565b83549091506116b2908290612398565b83600201546116c191906122d0565b9392505050565b6001600160a01b03163b151590565b600054610100900460ff166116fe5760405162461bcd60e51b815260040161059c906123ef565b6109006119ed565b600054610100900460ff1661172d5760405162461bcd60e51b815260040161059c906123ef565b6114e08282611a1d565b604051636eb1769f60e11b81523060048201526001600160a01b038381166024830152600091839186169063dd62ed3e90604401602060405180830381865afa158015611788573d6000803e3d6000fd5b505050506040513d601f19601f820116820180604052508101906117ac919061237f565b6117b691906122d0565b905061112f8463095ea7b360e01b858460405160240161130e9291906122e8565b60606000602083516117e991906123b7565b90506000816001600160401b0381111561180557611805611c76565b60405190808252806020026020018201604052801561182e578160200160208202803683370190505b509050600060205b8551811161188657600081870151905080848481518110611859576118596123d9565b60209081029190910101528261186e8161243a565b9350505080602061187f91906122d0565b9050611836565b5090949350505050565b6001600160a01b038316158015906118b057506001600160a01b03821615155b1561052557604051638cd22d1960e01b815260040160405180910390fd5b600081815b8451811015611913576118ff828683815181106118f2576118f26123d9565b6020026020010151611a5d565b91508061190b8161243a565b9150506118d3565b509392505050565b6000611970826040518060400160405280602081526020017f5361666545524332303a206c6f772d6c6576656c2063616c6c206661696c6564815250856001600160a01b0316611a899092919063ffffffff16565b805190915015610525578080602001905181019061198e9190612453565b6105255760405162461bcd60e51b815260206004820152602a60248201527f5361666545524332303a204552433230206f7065726174696f6e20646964206e6044820152691bdd081cdd58d8d9595960b21b606482015260840161059c565b600054610100900460ff16611a145760405162461bcd60e51b815260040161059c906123ef565b610900336113d6565b600054610100900460ff16611a445760405162461bcd60e51b815260040161059c906123ef565b6068611a5083826124c3565b50606961052582826124c3565b6000818310611a795760008281526020849052604090206116c1565b5060009182526020526040902090565b6060611a988484600085611aa0565b949350505050565b606082471015611b015760405162461bcd60e51b815260206004820152602660248201527f416464726573733a20696e73756666696369656e742062616c616e636520666f6044820152651c8818d85b1b60d21b606482015260840161059c565b600080866001600160a01b03168587604051611b1d9190612582565b60006040518083038185875af1925050503d8060008114611b5a576040519150601f19603f3d011682016040523d82523d6000602084013e611b5f565b606091505b5091509150611b7087838387611b7b565b979650505050505050565b60608315611be8578251600003611be157611b95856116c8565b611be15760405162461bcd60e51b815260206004820152601d60248201527f416464726573733a2063616c6c20746f206e6f6e2d636f6e7472616374000000604482015260640161059c565b5081611a98565b611a988383815115611bfd5781518083602001fd5b8060405162461bcd60e51b815260040161059c9190611c43565b60005b83811015611c32578181015183820152602001611c1a565b8381111561112f5750506000910152565b6020815260008251806020840152611c62816040850160208701611c17565b601f01601f19169190910160400192915050565b634e487b7160e01b600052604160045260246000fd5b604051601f8201601f191681016001600160401b0381118282101715611cb457611cb4611c76565b604052919050565b60006001600160401b03821115611cd557611cd5611c76565b5060051b60200190565b600082601f830112611cf057600080fd5b81356020611d05611d0083611cbc565b611c8c565b82815260059290921b84018101918181019086841115611d2457600080fd5b8286015b84811015611d3f5780358352918301918301611d28565b509695505050505050565b60008060408385031215611d5d57600080fd5b82356001600160401b03811115611d7357600080fd5b611d7f85828601611cdf565b95602094909401359450505050565b80356001600160a01b0381168114611da557600080fd5b919050565b60008060408385031215611dbd57600080fd5b611dc683611d8e565b946020939093013593505050565b600060208284031215611de657600080fd5b6116c182611d8e565b600080600060608486031215611e0457600080fd5b611e0d84611d8e565b9250611e1b60208501611d8e565b9150604084013590509250925092565b600060208284031215611e3d57600080fd5b5035919050565b600080600060608486031215611e5957600080fd5b83356001600160401b03811115611e6f57600080fd5b611e7b86828701611cdf565b93505060208401359150611e9160408501611d8e565b90509250925092565b600080600060608486031215611eaf57600080fd5b611eb884611d8e565b95602085013595506040909401359392505050565b60008060008060808587031215611ee357600080fd5b611eec85611d8e565b935060208501356001600160401b03811115611f0757600080fd5b611f1387828801611cdf565b935050611f2260408601611d8e565b9396929550929360600135925050565b60008060408385031215611f4557600080fd5b82359150611f5560208401611d8e565b90509250929050565b60006001600160401b03831115611f7757611f77611c76565b611f8a601f8401601f1916602001611c8c565b9050828152838383011115611f9e57600080fd5b828260208301376000602084830101529392505050565b600082601f830112611fc657600080fd5b6116c183833560208501611f5e565b60008060008060808587031215611feb57600080fd5b84356001600160401b038082111561200257600080fd5b61200e88838901611fb5565b9550602087013591508082111561202457600080fd5b5061203187828801611fb5565b93505061204060408601611d8e565b915061204e60608601611d8e565b905092959194509250565b60008060008060008060c0878903121561207257600080fd5b61207b87611d8e565b955061208960208801611d8e565b945061209760408801611d8e565b93506120a560608801611d8e565b92506080870135915060a087013590509295509295509295565b600080604083850312156120d257600080fd5b6120db83611d8e565b9150611f5560208401611d8e565b600082601f8301126120fa57600080fd5b8135602061210a611d0083611cbc565b82815260059290921b8401810191818101908684111561212957600080fd5b8286015b84811015611d3f5761213e81611d8e565b835291830191830161212d565b6000806000806080858703121561216157600080fd5b61216a85611d8e565b93506020858101356001600160401b038082111561218757600080fd5b818801915088601f83011261219b57600080fd5b81356121a9611d0082611cbc565b81815260059190911b8301840190848101908b8311156121c857600080fd5b8585015b83811015612215578035858111156121e45760008081fd5b8601603f81018e136121f65760008081fd5b6122078e8983013560408401611f5e565b8452509186019186016121cc565b5097505050604088013592508083111561222e57600080fd5b61223a89848a016120e9565b9450606088013592508083111561225057600080fd5b505061225e87828801611cdf565b91505092959194509250565b600181811c9082168061227e57607f821691505b60208210810361229e57634e487b7160e01b600052602260045260246000fd5b50919050565b634e487b7160e01b600052600160045260246000fd5b634e487b7160e01b600052601160045260246000fd5b600082198211156122e3576122e36122ba565b500190565b6001600160a01b03929092168252602082015260400190565b600082821015612313576123136122ba565b500390565b6080808252855190820181905260009060209060a0840190828901845b8281101561235157815184529284019290840190600101612335565b5050506001600160a01b03968716918401919091526040830194909452509216606090920191909152919050565b60006020828403121561239157600080fd5b5051919050565b60008160001904831182151516156123b2576123b26122ba565b500290565b6000826123d457634e487b7160e01b600052601260045260246000fd5b500490565b634e487b7160e01b600052603260045260246000fd5b6020808252602b908201527f496e697469616c697a61626c653a20636f6e7472616374206973206e6f74206960408201526a6e697469616c697a696e6760a81b606082015260800190565b60006001820161244c5761244c6122ba565b5060010190565b60006020828403121561246557600080fd5b815180151581146116c157600080fd5b601f82111561052557600081815260208120601f850160051c8101602086101561249c5750805b601f850160051c820191505b818110156124bb578281556001016124a8565b505050505050565b81516001600160401b038111156124dc576124dc611c76565b6124f0816124ea845461226a565b84612475565b602080601f831160018114612525576000841561250d5750858301515b600019600386901b1c1916600185901b1785556124bb565b600085815260208120601f198616915b8281101561255457888601518255948401946001909101908401612535565b50858210156125725787850151600019600388901b60f8161c191681555b5050505050600190811b01905550565b60008251612594818460208701611c17565b919091019291505056feddf252ad1be2c89b69c2b068fc378daa952ba7f163c4a11628f55a4df523b3efa2646970667358221220d1adc3c1eb008ce6ba694dfdf23216e20961193cee2fa51feab50adfa4dfdc1364736f6c634300080f0033",
    "linkReferences": {}
  },
  "methodIdentifiers": {
    "addCompensation(address,bytes32,uint256)": "579ff763",
    "allowance(address,address)": "dd62ed3e",
    "approve(address,uint256)": "095ea7b3",
    "balanceOf(address)": "70a08231",
    "claim(bytes32[],uint256)": "3b439351",
    "claim(bytes32[],uint256,address)": "3fdc76f7",
    "claimAllReferralRewardsAndStake(address,bytes[],address[],uint256[])": "f36b6c9c",
    "claimAndStake(bytes32[],uint256)": "0850cb50",
    "claimReferralRewardsAndStake(address,bytes32[],address,uint256)": "59bb3954",
    "compensationRoot()": "47d1f02f",
    "convertCompensation(address,address,address,address,uint256,uint256)": "976cce0d",
    "decimals()": "313ce567",
    "decreaseAllowance(address,uint256)": "a457c2d7",
    "executor()": "c34c08e5",
    "getUserPoints(address)": "aeefe31f",
    "increaseAllowance(address,uint256)": "39509351",
    "initialize(string,string,address,address)": "8f15b414",
    "name()": "06fdde03",
    "owner()": "8da5cb5b",
    "pool()": "16f0115b",
    "renounceOwnership()": "715018a6",
    "setExecutor(address)": "1c3c0ea8",
    "stake(uint256)": "a694fc3a",
    "stake(uint256,address)": "7acb7757",
    "symbol()": "95d89b41",
    "totalDistributedCompensation()": "7726a733",
    "totalSupply()": "18160ddd",
    "totalclaimedCompensation()": "56a8cda4",
    "transfer(address,uint256)": "a9059cbb",
    "transferFrom(address,address,uint256)": "23b872dd",
    "transferOwnership(address)": "f2fde38b",
    "unstake(uint256)": "2e17de78",
    "unstake(uint256,address)": "8381e182",
    "users(address)": "a87430ba"
  },
  "id": 107
}