{
  "abi": [
    {
      "inputs": [],
      "stateMutability": "nonpayable",
      "type": "constructor"
    },
    {
      "anonymous": false,
      "inputs": [
        {
          "indexed": false,
          "internalType": "uint8",
          "name": "version",
          "type": "uint8"
        }
      ],
      "name": "Initialized",
      "type": "event"
    },
    {
      "anonymous": false,
      "inputs": [
        {
          "indexed": true,
          "internalType": "address",
          "name": "previousOwner",
          "type": "address"
        },
        {
          "indexed": true,
          "internalType": "address",
          "name": "newOwner",
          "type": "address"
        }
      ],
      "name": "OwnershipTransferred",
      "type": "event"
    },
    {
      "anonymous": false,
      "inputs": [
        {
          "indexed": true,
          "internalType": "address",
          "name": "pool",
          "type": "address"
        }
      ],
      "name": "PoolAdd",
      "type": "event"
    },
    {
      "anonymous": false,
      "inputs": [
        {
          "indexed": true,
          "internalType": "address",
          "name": "pool",
          "type": "address"
        }
      ],
      "name": "PoolRemove",
      "type": "event"
    },
    {
      "anonymous": false,
      "inputs": [
        {
          "indexed": true,
          "internalType": "address",
          "name": "referralRegistry",
          "type": "address"
        }
      ],
      "name": "ReferralRegistrySet",
      "type": "event"
    },
    {
      "inputs": [
        {
          "internalType": "address",
          "name": "_pool",
          "type": "address"
        },
        {
          "internalType": "address",
          "name": "_token",
          "type": "address"
        },
        {
          "internalType": "uint256",
          "name": "_amountIn",
          "type": "uint256"
        },
        {
          "internalType": "uint256",
          "name": "_minLpAmount",
          "type": "uint256"
        },
        {
          "internalType": "address",
          "name": "_to",
          "type": "address"
        },
        {
          "internalType": "uint256",
          "name": "_referralId",
          "type": "uint256"
        }
      ],
      "name": "addLiquidity",
      "outputs": [],
      "stateMutability": "nonpayable",
      "type": "function"
    },
    {
      "inputs": [
        {
          "internalType": "address",
          "name": "_token",
          "type": "address"
        },
        {
          "internalType": "uint256",
          "name": "_amount",
          "type": "uint256"
        },
        {
          "internalType": "uint256",
          "name": "_minLpAmount",
          "type": "uint256"
        },
        {
          "internalType": "address",
          "name": "_compToStake",
          "type": "address"
        },
        {
          "internalType": "uint256",
          "name": "_referralId",
          "type": "uint256"
        }
      ],
      "name": "addLiquidityAndStake",
      "outputs": [],
      "stateMutability": "nonpayable",
      "type": "function"
    },
    {
      "inputs": [
        {
          "internalType": "address",
          "name": "_pool",
          "type": "address"
        },
        {
          "internalType": "uint256",
          "name": "_minLpAmount",
          "type": "uint256"
        },
        {
          "internalType": "address",
          "name": "_to",
          "type": "address"
        },
        {
          "internalType": "uint256",
          "name": "_referralId",
          "type": "uint256"
        }
      ],
      "name": "addLiquidityETH",
      "outputs": [],
      "stateMutability": "payable",
      "type": "function"
    },
    {
      "inputs": [
        {
          "internalType": "uint256",
          "name": "_minLpAmount",
          "type": "uint256"
        },
        {
          "internalType": "address",
          "name": "_compToStake",
          "type": "address"
        },
        {
          "internalType": "uint256",
          "name": "_referralId",
          "type": "uint256"
        }
      ],
      "name": "addLiquidityETHAndStake",
      "outputs": [],
      "stateMutability": "payable",
      "type": "function"
    },
    {
      "inputs": [
        {
          "internalType": "address",
          "name": "_pool",
          "type": "address"
        }
      ],
      "name": "addPool",
      "outputs": [],
      "stateMutability": "nonpayable",
      "type": "function"
    },
    {
      "inputs": [
        {
          "internalType": "bytes32[]",
          "name": "proof",
          "type": "bytes32[]"
        },
        {
          "internalType": "uint256",
          "name": "userTotalCompensation",
          "type": "uint256"
        },
        {
          "internalType": "address",
          "name": "_compToClaim",
          "type": "address"
        },
        {
          "internalType": "address",
          "name": "_compToStake",
          "type": "address"
        },
        {
          "internalType": "uint256",
          "name": "_minLpAmount",
          "type": "uint256"
        },
        {
          "internalType": "uint256",
          "name": "_referralId",
          "type": "uint256"
        }
      ],
      "name": "claimAddLiquidityAndStake",
      "outputs": [],
      "stateMutability": "nonpayable",
      "type": "function"
    },
    {
      "inputs": [
        {
          "internalType": "address",
          "name": "referral",
          "type": "address"
        },
        {
          "internalType": "bytes32[]",
          "name": "proof",
          "type": "bytes32[]"
        },
        {
          "internalType": "address",
          "name": "pool",
          "type": "address"
        },
        {
          "internalType": "uint256",
          "name": "userRewards",
          "type": "uint256"
        },
        {
          "internalType": "address",
          "name": "_compToStake",
          "type": "address"
        },
        {
          "internalType": "uint256",
          "name": "_minLpAmount",
          "type": "uint256"
        },
        {
          "internalType": "uint256",
          "name": "_referralId",
          "type": "uint256"
        }
      ],
      "name": "claimReferralRewardsAddLiquidityAndStake",
      "outputs": [],
      "stateMutability": "nonpayable",
      "type": "function"
    },
    {
      "inputs": [
        {
          "internalType": "address",
          "name": "_weth",
          "type": "address"
        }
      ],
      "name": "initialize",
      "outputs": [],
      "stateMutability": "nonpayable",
      "type": "function"
    },
    {
      "inputs": [],
      "name": "owner",
      "outputs": [
        {
          "internalType": "address",
          "name": "",
          "type": "address"
        }
      ],
      "stateMutability": "view",
      "type": "function"
    },
    {
      "inputs": [
        {
          "internalType": "address",
          "name": "",
          "type": "address"
        }
      ],
      "name": "pools",
      "outputs": [
        {
          "internalType": "bool",
          "name": "",
          "type": "bool"
        }
      ],
      "stateMutability": "view",
      "type": "function"
    },
    {
      "inputs": [],
      "name": "referralRegistry",
      "outputs": [
        {
          "internalType": "address",
          "name": "",
          "type": "address"
        }
      ],
      "stateMutability": "view",
      "type": "function"
    },
    {
      "inputs": [
        {
          "internalType": "address",
          "name": "_pool",
          "type": "address"
        },
        {
          "internalType": "address",
          "name": "_tokenOut",
          "type": "address"
        },
        {
          "internalType": "uint256",
          "name": "_lpAmount",
          "type": "uint256"
        },
        {
          "internalType": "uint256",
          "name": "_minOut",
          "type": "uint256"
        },
        {
          "internalType": "address",
          "name": "_to",
          "type": "address"
        }
      ],
      "name": "removeLiquidity",
      "outputs": [],
      "stateMutability": "nonpayable",
      "type": "function"
    },
    {
      "inputs": [
        {
          "internalType": "address",
          "name": "_pool",
          "type": "address"
        },
        {
          "internalType": "uint256",
          "name": "_lpAmount",
          "type": "uint256"
        },
        {
          "internalType": "uint256",
          "name": "_minOut",
          "type": "uint256"
        },
        {
          "internalType": "address payable",
          "name": "_to",
          "type": "address"
        }
      ],
      "name": "removeLiquidityETH",
      "outputs": [],
      "stateMutability": "payable",
      "type": "function"
    },
    {
      "inputs": [
        {
          "internalType": "address",
          "name": "_pool",
          "type": "address"
        }
      ],
      "name": "removePool",
      "outputs": [],
      "stateMutability": "nonpayable",
      "type": "function"
    },
    {
      "inputs": [],
      "name": "renounceOwnership",
      "outputs": [],
      "stateMutability": "nonpayable",
      "type": "function"
    },
    {
      "inputs": [
        {
          "internalType": "address",
          "name": "_referralRegistry",
          "type": "address"
        }
      ],
      "name": "setReferralRegistry",
      "outputs": [],
      "stateMutability": "nonpayable",
      "type": "function"
    },
    {
      "inputs": [
        {
          "internalType": "address",
          "name": "newOwner",
          "type": "address"
        }
      ],
      "name": "transferOwnership",
      "outputs": [],
      "stateMutability": "nonpayable",
      "type": "function"
    },
    {
      "inputs": [],
      "name": "weth",
      "outputs": [
        {
          "internalType": "contract IWETH",
          "name": "",
          "type": "address"
        }
      ],
      "stateMutability": "view",
      "type": "function"
    },
    {
      "stateMutability": "payable",
      "type": "receive"
    }
  ],
  "bytecode": {
    "object": "0x608060405234801561001057600080fd5b5061001961001e565b6100de565b600054610100900460ff161561008a5760405162461bcd60e51b815260206004820152602760248201527f496e697469616c697a61626c653a20636f6e747261637420697320696e697469604482015266616c697a696e6760c81b606482015260840160405180910390fd5b60005460ff90811610156100dc576000805460ff191660ff9081179091556040519081527f7f26b83ff96e1f2b6a682f133852f6798a09c465da95921460cefb38474024989060200160405180910390a15b565b611e8d806100ed6000396000f3fe6080604052600436106100dd5760003560e01c80632388dac1146100e95780633399f2de1461010b5780633b7d09461461011e5780633fc8cef31461013e5780634981e490146101745780634e627e62146101875780634fc4fc0a146101a75780636a79115f146101c75780636ed36f88146101e7578063715018a6146102075780637a1b619d1461021c5780638da5cb5b1461023c578063a4063dbc14610251578063c4d66de814610291578063c6202a54146102b1578063d914cd4b146102c4578063f2fde38b146102e4578063fbf9f7711461030457600080fd5b366100e457005b600080fd5b3480156100f557600080fd5b506101096101043660046117cd565b610324565b005b61010961011936600461182c565b610339565b34801561012a57600080fd5b50610109610139366004611876565b61034c565b34801561014a57600080fd5b5060655461015e906001600160a01b031681565b60405161016b919061189a565b60405180910390f35b6101096101823660046118ae565b610436565b34801561019357600080fd5b5060675461015e906001600160a01b031681565b3480156101b357600080fd5b506101096101c23660046118f6565b610443565b3480156101d357600080fd5b506101096101e2366004611876565b610451565b3480156101f357600080fd5b50610109610202366004611948565b610503565b34801561021357600080fd5b5061010961051a565b34801561022857600080fd5b50610109610237366004611a54565b61052e565b34801561024857600080fd5b5061015e610640565b34801561025d57600080fd5b5061028161026c366004611876565b60666020526000908152604090205460ff1681565b604051901515815260200161016b565b34801561029d57600080fd5b506101096102ac366004611876565b61064f565b6101096102bf366004611ad1565b6107d9565b3480156102d057600080fd5b506101096102df366004611876565b6107ea565b3480156102f057600080fd5b506101096102ff366004611876565b6108d1565b34801561031057600080fd5b5061010961031f366004611b09565b61094a565b6103328585858585336109ec565b5050505050565b6103468484848433610a96565b50505050565b610354610ca3565b6001600160a01b0381166103835760405162461bcd60e51b815260040161037a90611b9b565b60405180910390fd5b6001600160a01b03811660009081526066602052604090205460ff1615156001146103ed5760405162461bcd60e51b815260206004820152601a602482015279131a5c5d5a591a5d1e549bdd5d195c8e9c1bdbdb139bdd10591960321b604482015260640161037a565b6001600160a01b038116600081815260666020526040808220805460ff19169055517f9f762579799fd9e2e3c8c446c551b7895e70a2a14f2c49e6209d35b75e9776ee9190a250565b6103468484848433610d02565b610332338686868686610df6565b610459610ca3565b6001600160a01b0381166104b95760405162461bcd60e51b815260206004820152602160248201527f4f726465724d616e616765723a7a65726f526566657272616c526567697374726044820152607960f81b606482015260840161037a565b606780546001600160a01b0319166001600160a01b0383169081179091556040517fcf7381fd801bfc0e3e6a57a711e8165131a80c69051919ee96c9896cd87c0c1190600090a250565b61051286868686868633610fd7565b505050505050565b610522610ca3565b61052c6000611047565b565b60008490506000816001600160a01b03166316f0115b6040518163ffffffff1660e01b81526004016020604051808303816000875af1158015610575573d6000803e3d6000fd5b505050506040513d601f19601f820116820180604052508101906105999190611bd2565b604051633fdc76f760e01b815290915033906000906001600160a01b03851690633fdc76f7906105d1908d908d908790600401611c2a565b6020604051808303816000875af11580156105f0573d6000803e3d6000fd5b505050506040513d601f19601f820116820180604052508101906106149190611c5d565b90506000811161062657610626611c76565b610634828483898b8a610df6565b50505050505050505050565b6033546001600160a01b031690565b600054610100900460ff161580801561066f5750600054600160ff909116105b80610690575061067e30611099565b158015610690575060005460ff166001145b6106f35760405162461bcd60e51b815260206004820152602e60248201527f496e697469616c697a61626c653a20636f6e747261637420697320616c72656160448201526d191e481a5b9a5d1a585b1a5e995960921b606482015260840161037a565b6000805460ff191660011790558015610716576000805461ff0019166101001790555b61071e6110a8565b6001600160a01b0382166107745760405162461bcd60e51b815260206004820152601f60248201527f4c6971756964697479526f757465723a7a65726f574554484164647265737300604482015260640161037a565b606580546001600160a01b0319166001600160a01b03841617905580156107d5576000805461ff0019169055604051600181527f7f26b83ff96e1f2b6a682f133852f6798a09c465da95921460cefb38474024989060200160405180910390a15b5050565b6107e5338484846110d7565b505050565b6107f2610ca3565b6001600160a01b0381166108185760405162461bcd60e51b815260040161037a90611b9b565b6001600160a01b03811660009081526066602052604090205460ff1615156001036108855760405162461bcd60e51b815260206004820181905260248201527f4c6971756964697479526f757465723a706f6f6c416c72656164794164646564604482015260640161037a565b6001600160a01b038116600081815260666020526040808220805460ff19166001179055517fdd1828d6b624ad325efda8575506db390bc72d7c701d35acfa8aa5be727f138b9190a250565b6108d9610ca3565b6001600160a01b03811661093e5760405162461bcd60e51b815260206004820152602660248201527f4f776e61626c653a206e6577206f776e657220697320746865207a65726f206160448201526564647265737360d01b606482015260840161037a565b61094781611047565b50565b60405163ae9901bd60e01b81526000906001600160a01b0389169063ae9901bd9061097f908a908a908a903390600401611c8c565b6020604051808303816000875af115801561099e573d6000803e3d6000fd5b505050506040513d601f19601f820116820180604052508101906109c29190611c5d565b9050600081116109d4576109d4611c76565b6109e2338783868887610df6565b5050505050505050565b6109f58661127a565b85610a0b6001600160a01b0382163330886112e5565b610a1f6001600160a01b0382168887611350565b60405163044cc14d60e31b81526001600160a01b038816906322660a6890610a539089908990899089908990600401611cc8565b6020604051808303816000875af1158015610a72573d6000803e3d6000fd5b505050506040513d601f19601f820116820180604052508101906109e29190611c5d565b610a9f8561127a565b84610ab56001600160a01b0382163330886112e5565b610ac96001600160a01b0382168787611350565b6065546040516370a0823160e01b81526000916001600160a01b0316906370a0823190610afa90309060040161189a565b602060405180830381865afa158015610b17573d6000803e3d6000fd5b505050506040513d601f19601f82011682018060405250810190610b3b9190611c5d565b60655460405163044cc14d60e31b81529192506001600160a01b03808a16926322660a6892610b769216908a908a9030908a90600401611cc8565b6020604051808303816000875af1158015610b95573d6000803e3d6000fd5b505050506040513d601f19601f82011682018060405250810190610bb99190611c5d565b506065546040516370a0823160e01b815260009183916001600160a01b03909116906370a0823190610bef90309060040161189a565b602060405180830381865afa158015610c0c573d6000803e3d6000fd5b505050506040513d601f19601f82011682018060405250810190610c309190611c5d565b610c3a9190611d10565b606554604051632e1a7d4d60e01b8152600481018390529192506001600160a01b031690632e1a7d4d90602401600060405180830381600087803b158015610c8157600080fd5b505af1158015610c95573d6000803e3d6000fd5b505050506109e285826113f0565b33610cac610640565b6001600160a01b03161461052c5760405162461bcd60e51b815260206004820181905260248201527f4f776e61626c653a2063616c6c6572206973206e6f7420746865206f776e6572604482015260640161037a565b610d0b8561127a565b610d14826114b9565b60655460408051630d0e30db60e41b8152905134926001600160a01b03169163d0e30db091849160048082019260009290919082900301818588803b158015610d5c57600080fd5b505af1158015610d70573d6000803e3d6000fd5b5050606554610d8e93506001600160a01b0316915088905083611350565b60655460405163073b736d60e41b81526001600160a01b03888116926373b736d092610dc8929091169085908a908a908990600401611cc8565b600060405180830381600087803b158015610de257600080fd5b505af1158015610634573d6000803e3d6000fd5b6000826001600160a01b03166316f0115b6040518163ffffffff1660e01b81526004016020604051808303816000875af1158015610e38573d6000803e3d6000fd5b505050506040513d601f19601f82011682018060405250810190610e5c9190611bd2565b90506000816001600160a01b03166370a08231306040518263ffffffff1660e01b8152600401610e8c919061189a565b602060405180830381865afa158015610ea9573d6000803e3d6000fd5b505050506040513d601f19601f82011682018060405250810190610ecd9190611c5d565b9050610ede82888888308833610fd7565b6040516370a0823160e01b815281906001600160a01b038416906370a0823190610f0c90309060040161189a565b602060405180830381865afa158015610f29573d6000803e3d6000fd5b505050506040513d601f19601f82011682018060405250810190610f4d9190611c5d565b610f579190611d10565b9050610f6d6001600160a01b0383168583611350565b604051637acb775760e01b81526001600160a01b03851690637acb775790610f9b9084908c90600401611d27565b600060405180830381600087803b158015610fb557600080fd5b505af1158015610fc9573d6000803e3d6000fd5b505050505050505050505050565b610fe08761127a565b610fe9826114b9565b85610fff6001600160a01b0382163330896112e5565b6110136001600160a01b0382168988611350565b60405163073b736d60e41b81526001600160a01b038916906373b736d090610f9b908a908a908a908a908990600401611cc8565b603380546001600160a01b038381166001600160a01b0319831681179093556040519116919082907f8be0079c531659141344cd1fd0a4f28419497f9722a3daafe3b4186f6b6457e090600090a35050565b6001600160a01b03163b151590565b600054610100900460ff166110cf5760405162461bcd60e51b815260040161037a90611d3e565b61052c611528565b6000826001600160a01b03166316f0115b6040518163ffffffff1660e01b81526004016020604051808303816000875af1158015611119573d6000803e3d6000fd5b505050506040513d601f19601f8201168201806040525081019061113d9190611bd2565b90506000816001600160a01b03166370a08231306040518263ffffffff1660e01b815260040161116d919061189a565b602060405180830381865afa15801561118a573d6000803e3d6000fd5b505050506040513d601f19601f820116820180604052508101906111ae9190611c5d565b90506111bd8286308633610d02565b6040516370a0823160e01b815281906001600160a01b038416906370a08231906111eb90309060040161189a565b602060405180830381865afa158015611208573d6000803e3d6000fd5b505050506040513d601f19601f8201168201806040525081019061122c9190611c5d565b6112369190611d10565b905061124c6001600160a01b0383168583611350565b604051637acb775760e01b81526001600160a01b03851690637acb775790610dc89084908a90600401611d27565b6001600160a01b03811660009081526066602052604090205460ff1615156001146109475760405162461bcd60e51b815260206004820152601b60248201527a131a5c5d5a591a5d1e549bdd5d195c8e9a5b9d985b1a59141bdbdb602a1b604482015260640161037a565b6040516001600160a01b03808516602483015283166044820152606481018290526103469085906323b872dd60e01b906084015b60408051601f198184030181529190526020810180516001600160e01b03166001600160e01b031990931692909217909152611558565b604051636eb1769f60e11b81523060048201526001600160a01b038381166024830152600091839186169063dd62ed3e90604401602060405180830381865afa1580156113a1573d6000803e3d6000fd5b505050506040513d601f19601f820116820180604052508101906113c59190611c5d565b6113cf9190611d89565b90506103468463095ea7b360e01b8584604051602401611319929190611da1565b604080516000808252602082019092526001600160a01b03841690839060405161141a9190611de6565b60006040518083038185875af1925050503d8060008114611457576040519150601f19603f3d011682016040523d82523d6000602084013e61145c565b606091505b50509050806107e55760405162461bcd60e51b815260206004820152602360248201527f5472616e7366657248656c7065723a204554485f5452414e534645525f46414960448201526213115160ea1b606482015260840161037a565b6067546001600160a01b031615610947576067546001600160a01b031663a021463533836040518363ffffffff1660e01b81526004016114fa929190611da1565b600060405180830381600087803b15801561151457600080fd5b505af1158015610332573d6000803e3d6000fd5b600054610100900460ff1661154f5760405162461bcd60e51b815260040161037a90611d3e565b61052c33611047565b60006115ad826040518060400160405280602081526020017f5361666545524332303a206c6f772d6c6576656c2063616c6c206661696c6564815250856001600160a01b031661162a9092919063ffffffff16565b8051909150156107e557808060200190518101906115cb9190611e02565b6107e55760405162461bcd60e51b815260206004820152602a60248201527f5361666545524332303a204552433230206f7065726174696f6e20646964206e6044820152691bdd081cdd58d8d9595960b21b606482015260840161037a565b60606116398484600085611641565b949350505050565b6060824710156116a25760405162461bcd60e51b815260206004820152602660248201527f416464726573733a20696e73756666696369656e742062616c616e636520666f6044820152651c8818d85b1b60d21b606482015260840161037a565b600080866001600160a01b031685876040516116be9190611de6565b60006040518083038185875af1925050503d80600081146116fb576040519150601f19603f3d011682016040523d82523d6000602084013e611700565b606091505b50915091506117118783838761171c565b979650505050505050565b606083156117895782516000036117825761173685611099565b6117825760405162461bcd60e51b815260206004820152601d60248201527f416464726573733a2063616c6c20746f206e6f6e2d636f6e7472616374000000604482015260640161037a565b5081611639565b611639838381511561179e5781518083602001fd5b8060405162461bcd60e51b815260040161037a9190611e24565b6001600160a01b038116811461094757600080fd5b600080600080600060a086880312156117e557600080fd5b85356117f0816117b8565b94506020860135611800816117b8565b93506040860135925060608601359150608086013561181e816117b8565b809150509295509295909350565b6000806000806080858703121561184257600080fd5b843561184d816117b8565b93506020850135925060408501359150606085013561186b816117b8565b939692955090935050565b60006020828403121561188857600080fd5b8135611893816117b8565b9392505050565b6001600160a01b0391909116815260200190565b600080600080608085870312156118c457600080fd5b84356118cf816117b8565b93506020850135925060408501356118e6816117b8565b9396929550929360600135925050565b600080600080600060a0868803121561190e57600080fd5b8535611919816117b8565b945060208601359350604086013592506060860135611937816117b8565b949793965091946080013592915050565b60008060008060008060c0878903121561196157600080fd5b863561196c816117b8565b9550602087013561197c816117b8565b94506040870135935060608701359250608087013561199a816117b8565b8092505060a087013590509295509295509295565b634e487b7160e01b600052604160045260246000fd5b600082601f8301126119d657600080fd5b813560206001600160401b03808311156119f2576119f26119af565b8260051b604051601f19603f83011681018181108482111715611a1757611a176119af565b604052938452858101830193838101925087851115611a3557600080fd5b83870191505b8482101561171157813583529183019190830190611a3b565b60008060008060008060c08789031215611a6d57600080fd5b86356001600160401b03811115611a8357600080fd5b611a8f89828a016119c5565b965050602087013594506040870135611aa7816117b8565b93506060870135611ab7816117b8565b9598949750929560808101359460a0909101359350915050565b600080600060608486031215611ae657600080fd5b833592506020840135611af8816117b8565b929592945050506040919091013590565b600080600080600080600060e0888a031215611b2457600080fd5b8735611b2f816117b8565b965060208801356001600160401b03811115611b4a57600080fd5b611b568a828b016119c5565b9650506040880135611b67816117b8565b9450606088013593506080880135611b7e816117b8565b9699959850939692959460a0840135945060c09093013592915050565b6020808252601f908201527f4c6971756964697479526f757465723a7a65726f506f6f6c4164647265737300604082015260600190565b600060208284031215611be457600080fd5b8151611893816117b8565b600081518084526020808501945080840160005b83811015611c1f57815187529582019590820190600101611c03565b509495945050505050565b606081526000611c3d6060830186611bef565b6020830194909452506001600160a01b0391909116604090910152919050565b600060208284031215611c6f57600080fd5b5051919050565b634e487b7160e01b600052600160045260246000fd5b608081526000611c9f6080830187611bef565b6001600160a01b0395861660208401526040830194909452509216606090920191909152919050565b6001600160a01b0395861681526020810194909452604084019290925283166060830152909116608082015260a00190565b634e487b7160e01b600052601160045260246000fd5b600082821015611d2257611d22611cfa565b500390565b9182526001600160a01b0316602082015260400190565b6020808252602b908201527f496e697469616c697a61626c653a20636f6e7472616374206973206e6f74206960408201526a6e697469616c697a696e6760a81b606082015260800190565b60008219821115611d9c57611d9c611cfa565b500190565b6001600160a01b03929092168252602082015260400190565b60005b83811015611dd5578181015183820152602001611dbd565b838111156103465750506000910152565b60008251611df8818460208701611dba565b9190910192915050565b600060208284031215611e1457600080fd5b8151801515811461189357600080fd5b6020815260008251806020840152611e43816040850160208701611dba565b601f01601f1916919091016040019291505056fea264697066735822122086396b30cd6252ee37baadf8faab026f853048548760ba387d394945ce9cd34164736f6c634300080f0033",
    "linkReferences": {}
  },
  "methodIdentifiers": {
    "addLiquidity(address,address,uint256,uint256,address,uint256)": "6ed36f88",
    "addLiquidityAndStake(address,uint256,uint256,address,uint256)": "4fc4fc0a",
    "addLiquidityETH(address,uint256,address,uint256)": "4981e490",
    "addLiquidityETHAndStake(uint256,address,uint256)": "c6202a54",
    "addPool(address)": "d914cd4b",
    "claimAddLiquidityAndStake(bytes32[],uint256,address,address,uint256,uint256)": "7a1b619d",
    "claimReferralRewardsAddLiquidityAndStake(address,bytes32[],address,uint256,address,uint256,uint256)": "fbf9f771",
    "initialize(address)": "c4d66de8",
    "owner()": "8da5cb5b",
    "pools(address)": "a4063dbc",
    "referralRegistry()": "4e627e62",
    "removeLiquidity(address,address,uint256,uint256,address)": "2388dac1",
    "removeLiquidityETH(address,uint256,uint256,address)": "3399f2de",
    "removePool(address)": "3b7d0946",
    "renounceOwnership()": "715018a6",
    "setReferralRegistry(address)": "6a79115f",
    "transferOwnership(address)": "f2fde38b",
    "weth()": "3fc8cef3"
  },
  "id": 108
}