{
    "abi": [
        {
            "inputs": [],
            "stateMutability": "nonpayable",
            "type": "constructor"
        },
        {
            "inputs": [],
            "name": "BlockNotPass",
            "type": "error"
        },
        {
            "inputs": [],
            "name": "ETH_TRANSFER_FAILED",
            "type": "error"
        },
        {
            "inputs": [
                {
                    "internalType": "address",
                    "name": "operator",
                    "type": "address"
                }
            ],
            "name": "InvalidAddress",
            "type": "error"
        },
        {
            "inputs": [],
            "name": "InvalidETHUnwrapper",
            "type": "error"
        },
        {
            "inputs": [],
            "name": "InvalidExecutionFee",
            "type": "error"
        },
        {
            "inputs": [],
            "name": "InvalidMinPerpExecutionFee",
            "type": "error"
        },
        {
            "inputs": [],
            "name": "InvalidMinSwapExecutionFee",
            "type": "error"
        },
        {
            "inputs": [],
            "name": "InvalidPool",
            "type": "error"
        },
        {
            "inputs": [],
            "name": "InvalidTokens",
            "type": "error"
        },
        {
            "inputs": [],
            "name": "OnlyExecutor",
            "type": "error"
        },
        {
            "inputs": [],
            "name": "OnlyOperator",
            "type": "error"
        },
        {
            "inputs": [
                {
                    "internalType": "address",
                    "name": "owner",
                    "type": "address"
                },
                {
                    "internalType": "address",
                    "name": "sender",
                    "type": "address"
                }
            ],
            "name": "OnlyOrderOwner",
            "type": "error"
        },
        {
            "inputs": [
                {
                    "internalType": "uint256",
                    "name": "orderId",
                    "type": "uint256"
                }
            ],
            "name": "OrderNotExists",
            "type": "error"
        },
        {
            "inputs": [],
            "name": "PoolAlreadyAdded",
            "type": "error"
        },
        {
            "inputs": [],
            "name": "PoolLenError",
            "type": "error"
        },
        {
            "inputs": [],
            "name": "PoolNotAdded",
            "type": "error"
        },
        {
            "inputs": [],
            "name": "SamePool",
            "type": "error"
        },
        {
            "inputs": [],
            "name": "SendETHRejected",
            "type": "error"
        },
        {
            "inputs": [
                {
                    "internalType": "uint256",
                    "name": "minAmountOut",
                    "type": "uint256"
                },
                {
                    "internalType": "uint256",
                    "name": "amountOut",
                    "type": "uint256"
                }
            ],
            "name": "SlippageExceeded",
            "type": "error"
        },
        {
            "inputs": [],
            "name": "UnauthorizedCancellation",
            "type": "error"
        },
        {
            "inputs": [],
            "name": "UpdateMarketOrder",
            "type": "error"
        },
        {
            "inputs": [
                {
                    "internalType": "uint256",
                    "name": "maxValue",
                    "type": "uint256"
                }
            ],
            "name": "ValueTooHigh",
            "type": "error"
        },
        {
            "inputs": [],
            "name": "ZeroAddress",
            "type": "error"
        },
        {
            "inputs": [],
            "name": "ZeroAmount",
            "type": "error"
        },
        {
            "anonymous": false,
            "inputs": [
                {
                    "indexed": false,
                    "internalType": "address",
                    "name": "",
                    "type": "address"
                }
            ],
            "name": "BaseLpChanged",
            "type": "event"
        },
        {
            "anonymous": false,
            "inputs": [
                {
                    "indexed": true,
                    "internalType": "address",
                    "name": "executor",
                    "type": "address"
                }
            ],
            "name": "ExecutorAdd",
            "type": "event"
        },
        {
            "anonymous": false,
            "inputs": [
                {
                    "indexed": true,
                    "internalType": "address",
                    "name": "executor",
                    "type": "address"
                }
            ],
            "name": "ExecutorRemove",
            "type": "event"
        },
        {
            "anonymous": false,
            "inputs": [
                {
                    "indexed": false,
                    "internalType": "uint8",
                    "name": "version",
                    "type": "uint8"
                }
            ],
            "name": "Initialized",
            "type": "event"
        },
        {
            "anonymous": false,
            "inputs": [
                {
                    "indexed": false,
                    "internalType": "uint256",
                    "name": "perpetualFee",
                    "type": "uint256"
                }
            ],
            "name": "MinExecutionFeeSet",
            "type": "event"
        },
        {
            "anonymous": false,
            "inputs": [
                {
                    "indexed": false,
                    "internalType": "uint256",
                    "name": "swapExecutionFee",
                    "type": "uint256"
                }
            ],
            "name": "MinSwapExecutionFeeSet",
            "type": "event"
        },
        {
            "anonymous": false,
            "inputs": [
                {
                    "indexed": true,
                    "internalType": "address",
                    "name": "operator",
                    "type": "address"
                }
            ],
            "name": "OperatorSet",
            "type": "event"
        },
        {
            "anonymous": false,
            "inputs": [
                {
                    "indexed": false,
                    "internalType": "address",
                    "name": "",
                    "type": "address"
                }
            ],
            "name": "OracleChanged",
            "type": "event"
        },
        {
            "anonymous": false,
            "inputs": [
                {
                    "indexed": true,
                    "internalType": "uint256",
                    "name": "key",
                    "type": "uint256"
                }
            ],
            "name": "OrderCancelled",
            "type": "event"
        },
        {
            "anonymous": false,
            "inputs": [
                {
                    "indexed": true,
                    "internalType": "uint256",
                    "name": "key",
                    "type": "uint256"
                },
                {
                    "components": [
                        {
                            "internalType": "contract IPool",
                            "name": "pool",
                            "type": "address"
                        },
                        {
                            "internalType": "address",
                            "name": "owner",
                            "type": "address"
                        },
                        {
                            "internalType": "address",
                            "name": "indexToken",
                            "type": "address"
                        },
                        {
                            "internalType": "address",
                            "name": "collateralToken",
                            "type": "address"
                        },
                        {
                            "internalType": "address",
                            "name": "payToken",
                            "type": "address"
                        },
                        {
                            "internalType": "uint256",
                            "name": "expiresAt",
                            "type": "uint256"
                        },
                        {
                            "internalType": "uint256",
                            "name": "submissionBlock",
                            "type": "uint256"
                        },
                        {
                            "internalType": "uint256",
                            "name": "price",
                            "type": "uint256"
                        },
                        {
                            "internalType": "uint256",
                            "name": "executionFee",
                            "type": "uint256"
                        },
                        {
                            "internalType": "bool",
                            "name": "triggerAboveThreshold",
                            "type": "bool"
                        }
                    ],
                    "indexed": false,
                    "internalType": "struct Order",
                    "name": "order",
                    "type": "tuple"
                },
                {
                    "components": [
                        {
                            "internalType": "enum Side",
                            "name": "side",
                            "type": "uint8"
                        },
                        {
                            "internalType": "uint256",
                            "name": "sizeChange",
                            "type": "uint256"
                        },
                        {
                            "internalType": "uint256",
                            "name": "collateral",
                            "type": "uint256"
                        },
                        {
                            "internalType": "enum UpdatePositionType",
                            "name": "updateType",
                            "type": "uint8"
                        }
                    ],
                    "indexed": false,
                    "internalType": "struct UpdatePositionRequest",
                    "name": "request",
                    "type": "tuple"
                },
                {
                    "indexed": false,
                    "internalType": "uint256",
                    "name": "fillPrice",
                    "type": "uint256"
                },
                {
                    "indexed": false,
                    "internalType": "uint256",
                    "name": "amountOut",
                    "type": "uint256"
                }
            ],
            "name": "OrderExecuted",
            "type": "event"
        },
        {
            "anonymous": false,
            "inputs": [
                {
                    "indexed": true,
                    "internalType": "uint256",
                    "name": "key",
                    "type": "uint256"
                }
            ],
            "name": "OrderExpired",
            "type": "event"
        },
        {
            "anonymous": false,
            "inputs": [
                {
                    "indexed": true,
                    "internalType": "address",
                    "name": "hook",
                    "type": "address"
                }
            ],
            "name": "OrderHookSet",
            "type": "event"
        },
        {
            "anonymous": false,
            "inputs": [
                {
                    "indexed": true,
                    "internalType": "uint256",
                    "name": "key",
                    "type": "uint256"
                },
                {
                    "components": [
                        {
                            "internalType": "contract IPool",
                            "name": "pool",
                            "type": "address"
                        },
                        {
                            "internalType": "address",
                            "name": "owner",
                            "type": "address"
                        },
                        {
                            "internalType": "address",
                            "name": "indexToken",
                            "type": "address"
                        },
                        {
                            "internalType": "address",
                            "name": "collateralToken",
                            "type": "address"
                        },
                        {
                            "internalType": "address",
                            "name": "payToken",
                            "type": "address"
                        },
                        {
                            "internalType": "uint256",
                            "name": "expiresAt",
                            "type": "uint256"
                        },
                        {
                            "internalType": "uint256",
                            "name": "submissionBlock",
                            "type": "uint256"
                        },
                        {
                            "internalType": "uint256",
                            "name": "price",
                            "type": "uint256"
                        },
                        {
                            "internalType": "uint256",
                            "name": "executionFee",
                            "type": "uint256"
                        },
                        {
                            "internalType": "bool",
                            "name": "triggerAboveThreshold",
                            "type": "bool"
                        }
                    ],
                    "indexed": false,
                    "internalType": "struct Order",
                    "name": "order",
                    "type": "tuple"
                },
                {
                    "components": [
                        {
                            "internalType": "enum Side",
                            "name": "side",
                            "type": "uint8"
                        },
                        {
                            "internalType": "uint256",
                            "name": "sizeChange",
                            "type": "uint256"
                        },
                        {
                            "internalType": "uint256",
                            "name": "collateral",
                            "type": "uint256"
                        },
                        {
                            "internalType": "enum UpdatePositionType",
                            "name": "updateType",
                            "type": "uint8"
                        }
                    ],
                    "indexed": false,
                    "internalType": "struct UpdatePositionRequest",
                    "name": "request",
                    "type": "tuple"
                }
            ],
            "name": "OrderPlaced",
            "type": "event"
        },
        {
            "anonymous": false,
            "inputs": [
                {
                    "indexed": true,
                    "internalType": "uint256",
                    "name": "key",
                    "type": "uint256"
                },
                {
                    "indexed": false,
                    "internalType": "uint256",
                    "name": "indexPrice",
                    "type": "uint256"
                },
                {
                    "indexed": false,
                    "internalType": "uint256",
                    "name": "orderPrice",
                    "type": "uint256"
                },
                {
                    "indexed": false,
                    "internalType": "bool",
                    "name": "triggerAboveThreshold",
                    "type": "bool"
                }
            ],
            "name": "OrderPriceInvalid",
            "type": "event"
        },
        {
            "anonymous": false,
            "inputs": [
                {
                    "indexed": true,
                    "internalType": "uint256",
                    "name": "key",
                    "type": "uint256"
                },
                {
                    "components": [
                        {
                            "internalType": "contract IPool",
                            "name": "pool",
                            "type": "address"
                        },
                        {
                            "internalType": "address",
                            "name": "owner",
                            "type": "address"
                        },
                        {
                            "internalType": "address",
                            "name": "indexToken",
                            "type": "address"
                        },
                        {
                            "internalType": "address",
                            "name": "collateralToken",
                            "type": "address"
                        },
                        {
                            "internalType": "address",
                            "name": "payToken",
                            "type": "address"
                        },
                        {
                            "internalType": "uint256",
                            "name": "expiresAt",
                            "type": "uint256"
                        },
                        {
                            "internalType": "uint256",
                            "name": "submissionBlock",
                            "type": "uint256"
                        },
                        {
                            "internalType": "uint256",
                            "name": "price",
                            "type": "uint256"
                        },
                        {
                            "internalType": "uint256",
                            "name": "executionFee",
                            "type": "uint256"
                        },
                        {
                            "internalType": "bool",
                            "name": "triggerAboveThreshold",
                            "type": "bool"
                        }
                    ],
                    "indexed": false,
                    "internalType": "struct Order",
                    "name": "order",
                    "type": "tuple"
                },
                {
                    "components": [
                        {
                            "internalType": "enum Side",
                            "name": "side",
                            "type": "uint8"
                        },
                        {
                            "internalType": "uint256",
                            "name": "sizeChange",
                            "type": "uint256"
                        },
                        {
                            "internalType": "uint256",
                            "name": "collateral",
                            "type": "uint256"
                        },
                        {
                            "internalType": "enum UpdatePositionType",
                            "name": "updateType",
                            "type": "uint8"
                        }
                    ],
                    "indexed": false,
                    "internalType": "struct UpdatePositionRequest",
                    "name": "request",
                    "type": "tuple"
                }
            ],
            "name": "OrderUpdated",
            "type": "event"
        },
        {
            "anonymous": false,
            "inputs": [
                {
                    "indexed": true,
                    "internalType": "address",
                    "name": "previousOwner",
                    "type": "address"
                },
                {
                    "indexed": true,
                    "internalType": "address",
                    "name": "newOwner",
                    "type": "address"
                }
            ],
            "name": "OwnershipTransferred",
            "type": "event"
        },
        {
            "anonymous": false,
            "inputs": [
                {
                    "indexed": true,
                    "internalType": "address",
                    "name": "pool",
                    "type": "address"
                }
            ],
            "name": "PoolAdd",
            "type": "event"
        },
        {
            "anonymous": false,
            "inputs": [
                {
                    "indexed": true,
                    "internalType": "address",
                    "name": "pool",
                    "type": "address"
                }
            ],
            "name": "PoolRemove",
            "type": "event"
        },
        {
            "anonymous": false,
            "inputs": [
                {
                    "indexed": true,
                    "internalType": "address",
                    "name": "referralRegistry",
                    "type": "address"
                }
            ],
            "name": "ReferralRegistrySet",
            "type": "event"
        },
        {
            "anonymous": false,
            "inputs": [
                {
                    "indexed": true,
                    "internalType": "address",
                    "name": "account",
                    "type": "address"
                },
                {
                    "indexed": true,
                    "internalType": "address",
                    "name": "tokenIn",
                    "type": "address"
                },
                {
                    "indexed": true,
                    "internalType": "address",
                    "name": "tokenOut",
                    "type": "address"
                },
                {
                    "indexed": false,
                    "internalType": "address",
                    "name": "pool0",
                    "type": "address"
                },
                {
                    "indexed": false,
                    "internalType": "address",
                    "name": "pool1",
                    "type": "address"
                },
                {
                    "indexed": false,
                    "internalType": "uint256",
                    "name": "amountIn",
                    "type": "uint256"
                },
                {
                    "indexed": false,
                    "internalType": "uint256",
                    "name": "amountOut",
                    "type": "uint256"
                }
            ],
            "name": "Swap2",
            "type": "event"
        },
        {
            "anonymous": false,
            "inputs": [
                {
                    "indexed": true,
                    "internalType": "uint256",
                    "name": "key",
                    "type": "uint256"
                }
            ],
            "name": "SwapOrderCancelled",
            "type": "event"
        },
        {
            "anonymous": false,
            "inputs": [
                {
                    "indexed": true,
                    "internalType": "uint256",
                    "name": "key",
                    "type": "uint256"
                },
                {
                    "indexed": false,
                    "internalType": "uint256",
                    "name": "amountIn",
                    "type": "uint256"
                },
                {
                    "indexed": false,
                    "internalType": "uint256",
                    "name": "amountOut",
                    "type": "uint256"
                }
            ],
            "name": "SwapOrderExecuted",
            "type": "event"
        },
        {
            "anonymous": false,
            "inputs": [
                {
                    "indexed": true,
                    "internalType": "uint256",
                    "name": "key",
                    "type": "uint256"
                }
            ],
            "name": "SwapOrderPlaced",
            "type": "event"
        },
        {
            "anonymous": false,
            "inputs": [
                {
                    "indexed": true,
                    "internalType": "uint256",
                    "name": "key",
                    "type": "uint256"
                }
            ],
            "name": "SwapOrderUpdated",
            "type": "event"
        },
        {
            "inputs": [],
            "name": "ORDER_VERSION",
            "outputs": [
                {
                    "internalType": "uint256",
                    "name": "",
                    "type": "uint256"
                }
            ],
            "stateMutability": "view",
            "type": "function"
        },
        {
            "inputs": [],
            "name": "VERSION",
            "outputs": [
                {
                    "internalType": "uint8",
                    "name": "",
                    "type": "uint8"
                }
            ],
            "stateMutability": "view",
            "type": "function"
        },
        {
            "inputs": [
                {
                    "internalType": "address",
                    "name": "_executor",
                    "type": "address"
                }
            ],
            "name": "addExecutor",
            "outputs": [],
            "stateMutability": "nonpayable",
            "type": "function"
        },
        {
            "inputs": [
                {
                    "internalType": "address",
                    "name": "_pool",
                    "type": "address"
                }
            ],
            "name": "addPool",
            "outputs": [],
            "stateMutability": "nonpayable",
            "type": "function"
        },
        {
            "inputs": [],
            "name": "baseLp",
            "outputs": [
                {
                    "internalType": "address",
                    "name": "",
                    "type": "address"
                }
            ],
            "stateMutability": "view",
            "type": "function"
        },
        {
            "inputs": [
                {
                    "internalType": "uint256[]",
                    "name": "_orderIds",
                    "type": "uint256[]"
                }
            ],
            "name": "cancelMultipleOrders",
            "outputs": [],
            "stateMutability": "nonpayable",
            "type": "function"
        },
        {
            "inputs": [
                {
                    "internalType": "uint256[]",
                    "name": "_orderIds",
                    "type": "uint256[]"
                }
            ],
            "name": "cancelMultipleSwapOrders",
            "outputs": [],
            "stateMutability": "nonpayable",
            "type": "function"
        },
        {
            "inputs": [
                {
                    "internalType": "uint256",
                    "name": "_orderId",
                    "type": "uint256"
                }
            ],
            "name": "cancelOrder",
            "outputs": [],
            "stateMutability": "nonpayable",
            "type": "function"
        },
        {
            "inputs": [
                {
                    "internalType": "uint256",
                    "name": "_orderId",
                    "type": "uint256"
                }
            ],
            "name": "cancelSwapOrder",
            "outputs": [],
            "stateMutability": "nonpayable",
            "type": "function"
        },
        {
            "inputs": [],
            "name": "ethUnwrapper",
            "outputs": [
                {
                    "internalType": "contract IETHUnwrapper",
                    "name": "",
                    "type": "address"
                }
            ],
            "stateMutability": "view",
            "type": "function"
        },
        {
            "inputs": [
                {
                    "internalType": "uint256",
                    "name": "_orderId",
                    "type": "uint256"
                },
                {
                    "internalType": "address payable",
                    "name": "_feeTo",
                    "type": "address"
                }
            ],
            "name": "executeOrder",
            "outputs": [],
            "stateMutability": "nonpayable",
            "type": "function"
        },
        {
            "inputs": [
                {
                    "internalType": "uint256",
                    "name": "_orderId",
                    "type": "uint256"
                },
                {
                    "internalType": "address payable",
                    "name": "_feeTo",
                    "type": "address"
                }
            ],
            "name": "executeSwapOrder",
            "outputs": [],
            "stateMutability": "nonpayable",
            "type": "function"
        },
        {
            "inputs": [
                {
                    "internalType": "address",
                    "name": "user",
                    "type": "address"
                },
                {
                    "internalType": "uint256",
                    "name": "skip",
                    "type": "uint256"
                },
                {
                    "internalType": "uint256",
                    "name": "take",
                    "type": "uint256"
                }
            ],
            "name": "getOrders",
            "outputs": [
                {
                    "internalType": "uint256[]",
                    "name": "orderIds",
                    "type": "uint256[]"
                },
                {
                    "internalType": "uint256",
                    "name": "total",
                    "type": "uint256"
                }
            ],
            "stateMutability": "view",
            "type": "function"
        },
        {
            "inputs": [
                {
                    "internalType": "address",
                    "name": "user",
                    "type": "address"
                },
                {
                    "internalType": "uint256",
                    "name": "skip",
                    "type": "uint256"
                },
                {
                    "internalType": "uint256",
                    "name": "take",
                    "type": "uint256"
                }
            ],
            "name": "getSwapOrders",
            "outputs": [
                {
                    "internalType": "uint256[]",
                    "name": "orderIds",
                    "type": "uint256[]"
                },
                {
                    "internalType": "uint256",
                    "name": "total",
                    "type": "uint256"
                }
            ],
            "stateMutability": "view",
            "type": "function"
        },
        {
            "inputs": [
                {
                    "internalType": "address",
                    "name": "_weth",
                    "type": "address"
                },
                {
                    "internalType": "address",
                    "name": "_oracle",
                    "type": "address"
                },
                {
                    "internalType": "uint256",
                    "name": "_minExecutionFee",
                    "type": "uint256"
                },
                {
                    "internalType": "address",
                    "name": "_ethUnwrapper",
                    "type": "address"
                }
            ],
            "name": "initialize",
            "outputs": [],
            "stateMutability": "nonpayable",
            "type": "function"
        },
        {
            "inputs": [
                {
                    "internalType": "address",
                    "name": "",
                    "type": "address"
                }
            ],
            "name": "isExecutor",
            "outputs": [
                {
                    "internalType": "bool",
                    "name": "",
                    "type": "bool"
                }
            ],
            "stateMutability": "view",
            "type": "function"
        },
        {
            "inputs": [],
            "name": "minPerpetualExecutionFee",
            "outputs": [
                {
                    "internalType": "uint256",
                    "name": "",
                    "type": "uint256"
                }
            ],
            "stateMutability": "view",
            "type": "function"
        },
        {
            "inputs": [],
            "name": "minSwapExecutionFee",
            "outputs": [
                {
                    "internalType": "uint256",
                    "name": "",
                    "type": "uint256"
                }
            ],
            "stateMutability": "view",
            "type": "function"
        },
        {
            "inputs": [],
            "name": "nextOrderId",
            "outputs": [
                {
                    "internalType": "uint256",
                    "name": "",
                    "type": "uint256"
                }
            ],
            "stateMutability": "view",
            "type": "function"
        },
        {
            "inputs": [],
            "name": "nextSwapOrderId",
            "outputs": [
                {
                    "internalType": "uint256",
                    "name": "",
                    "type": "uint256"
                }
            ],
            "stateMutability": "view",
            "type": "function"
        },
        {
            "inputs": [],
            "name": "operator",
            "outputs": [
                {
                    "internalType": "address",
                    "name": "",
                    "type": "address"
                }
            ],
            "stateMutability": "view",
            "type": "function"
        },
        {
            "inputs": [],
            "name": "oracle",
            "outputs": [
                {
                    "internalType": "contract ILevelOracle",
                    "name": "",
                    "type": "address"
                }
            ],
            "stateMutability": "view",
            "type": "function"
        },
        {
            "inputs": [],
            "name": "orderHook",
            "outputs": [
                {
                    "internalType": "contract IOrderHook",
                    "name": "",
                    "type": "address"
                }
            ],
            "stateMutability": "view",
            "type": "function"
        },
        {
            "inputs": [
                {
                    "internalType": "uint256",
                    "name": "",
                    "type": "uint256"
                }
            ],
            "name": "orderVersions",
            "outputs": [
                {
                    "internalType": "uint256",
                    "name": "",
                    "type": "uint256"
                }
            ],
            "stateMutability": "view",
            "type": "function"
        },
        {
            "inputs": [
                {
                    "internalType": "uint256",
                    "name": "",
                    "type": "uint256"
                }
            ],
            "name": "orders",
            "outputs": [
                {
                    "internalType": "contract IPool",
                    "name": "pool",
                    "type": "address"
                },
                {
                    "internalType": "address",
                    "name": "owner",
                    "type": "address"
                },
                {
                    "internalType": "address",
                    "name": "indexToken",
                    "type": "address"
                },
                {
                    "internalType": "address",
                    "name": "collateralToken",
                    "type": "address"
                },
                {
                    "internalType": "address",
                    "name": "payToken",
                    "type": "address"
                },
                {
                    "internalType": "uint256",
                    "name": "expiresAt",
                    "type": "uint256"
                },
                {
                    "internalType": "uint256",
                    "name": "submissionBlock",
                    "type": "uint256"
                },
                {
                    "internalType": "uint256",
                    "name": "price",
                    "type": "uint256"
                },
                {
                    "internalType": "uint256",
                    "name": "executionFee",
                    "type": "uint256"
                },
                {
                    "internalType": "bool",
                    "name": "triggerAboveThreshold",
                    "type": "bool"
                }
            ],
            "stateMutability": "view",
            "type": "function"
        },
        {
            "inputs": [],
            "name": "owner",
            "outputs": [
                {
                    "internalType": "address",
                    "name": "",
                    "type": "address"
                }
            ],
            "stateMutability": "view",
            "type": "function"
        },
        {
            "inputs": [
                {
                    "internalType": "address",
                    "name": "_pool",
                    "type": "address"
                },
                {
                    "internalType": "enum UpdatePositionType",
                    "name": "_updateType",
                    "type": "uint8"
                },
                {
                    "internalType": "enum Side",
                    "name": "_side",
                    "type": "uint8"
                },
                {
                    "internalType": "address",
                    "name": "_indexToken",
                    "type": "address"
                },
                {
                    "internalType": "address",
                    "name": "_collateralToken",
                    "type": "address"
                },
                {
                    "internalType": "enum OrderType",
                    "name": "_orderType",
                    "type": "uint8"
                },
                {
                    "internalType": "bytes",
                    "name": "data",
                    "type": "bytes"
                },
                {
                    "internalType": "uint256",
                    "name": "_referralId",
                    "type": "uint256"
                }
            ],
            "name": "placeOrder",
            "outputs": [],
            "stateMutability": "payable",
            "type": "function"
        },
        {
            "inputs": [
                {
                    "internalType": "address[]",
                    "name": "_pools",
                    "type": "address[]"
                },
                {
                    "internalType": "address",
                    "name": "_fromToken",
                    "type": "address"
                },
                {
                    "internalType": "address",
                    "name": "_toToken",
                    "type": "address"
                },
                {
                    "internalType": "uint256",
                    "name": "_amountIn",
                    "type": "uint256"
                },
                {
                    "internalType": "uint256",
                    "name": "_minAmountOut",
                    "type": "uint256"
                },
                {
                    "internalType": "uint256",
                    "name": "_price",
                    "type": "uint256"
                },
                {
                    "internalType": "uint256",
                    "name": "_referralId",
                    "type": "uint256"
                }
            ],
            "name": "placeSwapOrder",
            "outputs": [],
            "stateMutability": "payable",
            "type": "function"
        },
        {
            "inputs": [
                {
                    "internalType": "address",
                    "name": "",
                    "type": "address"
                }
            ],
            "name": "pools",
            "outputs": [
                {
                    "internalType": "bool",
                    "name": "",
                    "type": "bool"
                }
            ],
            "stateMutability": "view",
            "type": "function"
        },
        {
            "inputs": [],
            "name": "referralRegistry",
            "outputs": [
                {
                    "internalType": "address",
                    "name": "",
                    "type": "address"
                }
            ],
            "stateMutability": "view",
            "type": "function"
        },
        {
            "inputs": [
                {
                    "internalType": "address",
                    "name": "_executor",
                    "type": "address"
                }
            ],
            "name": "removeExecutor",
            "outputs": [],
            "stateMutability": "nonpayable",
            "type": "function"
        },
        {
            "inputs": [
                {
                    "internalType": "address",
                    "name": "_pool",
                    "type": "address"
                }
            ],
            "name": "removePool",
            "outputs": [],
            "stateMutability": "nonpayable",
            "type": "function"
        },
        {
            "inputs": [],
            "name": "renounceOwnership",
            "outputs": [],
            "stateMutability": "nonpayable",
            "type": "function"
        },
        {
            "inputs": [
                {
                    "internalType": "uint256",
                    "name": "",
                    "type": "uint256"
                }
            ],
            "name": "requests",
            "outputs": [
                {
                    "internalType": "enum Side",
                    "name": "side",
                    "type": "uint8"
                },
                {
                    "internalType": "uint256",
                    "name": "sizeChange",
                    "type": "uint256"
                },
                {
                    "internalType": "uint256",
                    "name": "collateral",
                    "type": "uint256"
                },
                {
                    "internalType": "enum UpdatePositionType",
                    "name": "updateType",
                    "type": "uint8"
                }
            ],
            "stateMutability": "view",
            "type": "function"
        },
        {
            "inputs": [
                {
                    "internalType": "address",
                    "name": "_baseLp",
                    "type": "address"
                }
            ],
            "name": "setBaseLp",
            "outputs": [],
            "stateMutability": "nonpayable",
            "type": "function"
        },
        {
            "inputs": [
                {
                    "internalType": "uint256",
                    "name": "_perpExecutionFee",
                    "type": "uint256"
                },
                {
                    "internalType": "uint256",
                    "name": "_swapExecutionFee",
                    "type": "uint256"
                }
            ],
            "name": "setMinExecutionFee",
            "outputs": [],
            "stateMutability": "nonpayable",
            "type": "function"
        },
        {
            "inputs": [
                {
                    "internalType": "address",
                    "name": "_operator",
                    "type": "address"
                }
            ],
            "name": "setOperator",
            "outputs": [],
            "stateMutability": "nonpayable",
            "type": "function"
        },
        {
            "inputs": [
                {
                    "internalType": "address",
                    "name": "_oracle",
                    "type": "address"
                }
            ],
            "name": "setOracle",
            "outputs": [],
            "stateMutability": "nonpayable",
            "type": "function"
        },
        {
            "inputs": [
                {
                    "internalType": "address",
                    "name": "_hook",
                    "type": "address"
                }
            ],
            "name": "setOrderHook",
            "outputs": [],
            "stateMutability": "nonpayable",
            "type": "function"
        },
        {
            "inputs": [
                {
                    "internalType": "address",
                    "name": "_referralRegistry",
                    "type": "address"
                }
            ],
            "name": "setReferralRegistry",
            "outputs": [],
            "stateMutability": "nonpayable",
            "type": "function"
        },
        {
            "inputs": [
                {
                    "internalType": "address[]",
                    "name": "_pools",
                    "type": "address[]"
                },
                {
                    "internalType": "address",
                    "name": "_fromToken",
                    "type": "address"
                },
                {
                    "internalType": "address",
                    "name": "_toToken",
                    "type": "address"
                },
                {
                    "internalType": "uint256",
                    "name": "_amountIn",
                    "type": "uint256"
                },
                {
                    "internalType": "uint256",
                    "name": "_minAmountOut",
                    "type": "uint256"
                },
                {
                    "internalType": "uint256",
                    "name": "_referralId",
                    "type": "uint256"
                }
            ],
            "name": "swap",
            "outputs": [
                {
                    "internalType": "uint256",
                    "name": "amountOut",
                    "type": "uint256"
                }
            ],
            "stateMutability": "payable",
            "type": "function"
        },
        {
            "inputs": [
                {
                    "internalType": "uint256",
                    "name": "",
                    "type": "uint256"
                }
            ],
            "name": "swap2Orders",
            "outputs": [
                {
                    "internalType": "address",
                    "name": "pool0",
                    "type": "address"
                },
                {
                    "internalType": "address",
                    "name": "pool1",
                    "type": "address"
                },
                {
                    "internalType": "address",
                    "name": "owner",
                    "type": "address"
                },
                {
                    "internalType": "address",
                    "name": "tokenIn",
                    "type": "address"
                },
                {
                    "internalType": "address",
                    "name": "tokenOut",
                    "type": "address"
                },
                {
                    "internalType": "uint256",
                    "name": "amountIn",
                    "type": "uint256"
                },
                {
                    "internalType": "uint256",
                    "name": "minAmountOut",
                    "type": "uint256"
                },
                {
                    "internalType": "uint256",
                    "name": "price",
                    "type": "uint256"
                },
                {
                    "internalType": "uint256",
                    "name": "executionFee",
                    "type": "uint256"
                }
            ],
            "stateMutability": "view",
            "type": "function"
        },
        {
            "inputs": [
                {
                    "internalType": "address",
                    "name": "newOwner",
                    "type": "address"
                }
            ],
            "name": "transferOwnership",
            "outputs": [],
            "stateMutability": "nonpayable",
            "type": "function"
        },
        {
            "inputs": [
                {
                    "internalType": "uint256",
                    "name": "_orderId",
                    "type": "uint256"
                },
                {
                    "internalType": "uint256",
                    "name": "_sizeChange",
                    "type": "uint256"
                },
                {
                    "internalType": "uint256",
                    "name": "_price",
                    "type": "uint256"
                },
                {
                    "internalType": "uint256",
                    "name": "_collateral",
                    "type": "uint256"
                },
                {
                    "internalType": "bool",
                    "name": "_triggerAboveThreshold",
                    "type": "bool"
                }
            ],
            "name": "updateOrder",
            "outputs": [],
            "stateMutability": "nonpayable",
            "type": "function"
        },
        {
            "inputs": [
                {
                    "internalType": "uint256",
                    "name": "_orderId",
                    "type": "uint256"
                },
                {
                    "internalType": "uint256",
                    "name": "_price",
                    "type": "uint256"
                }
            ],
            "name": "updateSwapOrder",
            "outputs": [],
            "stateMutability": "nonpayable",
            "type": "function"
        },
        {
            "inputs": [
                {
                    "internalType": "address",
                    "name": "",
                    "type": "address"
                },
                {
                    "internalType": "uint256",
                    "name": "",
                    "type": "uint256"
                }
            ],
            "name": "userOrders",
            "outputs": [
                {
                    "internalType": "uint256",
                    "name": "",
                    "type": "uint256"
                }
            ],
            "stateMutability": "view",
            "type": "function"
        },
        {
            "inputs": [
                {
                    "internalType": "address",
                    "name": "",
                    "type": "address"
                },
                {
                    "internalType": "uint256",
                    "name": "",
                    "type": "uint256"
                }
            ],
            "name": "userSwapOrders",
            "outputs": [
                {
                    "internalType": "uint256",
                    "name": "",
                    "type": "uint256"
                }
            ],
            "stateMutability": "view",
            "type": "function"
        },
        {
            "inputs": [],
            "name": "weth",
            "outputs": [
                {
                    "internalType": "contract IWETH",
                    "name": "",
                    "type": "address"
                }
            ],
            "stateMutability": "view",
            "type": "function"
        },
        {
            "stateMutability": "payable",
            "type": "receive"
        }
    ],
    "bytecode": {
        "object": "0x60806040523480156200001157600080fd5b506200001c62000022565b620000e4565b600054610100900460ff16156200008f5760405162461bcd60e51b815260206004820152602760248201527f496e697469616c697a61626c653a20636f6e747261637420697320696e697469604482015266616c697a696e6760c81b606482015260840160405180910390fd5b60005460ff9081161015620000e2576000805460ff191660ff9081179091556040519081527f7f26b83ff96e1f2b6a682f133852f6798a09c465da95921460cefb38474024989060200160405180910390a15b565b61559e80620000f46000396000f3fe6080604052600436106102275760003560e01c8063043586621461025e578063180737711461027e5780631f5a0bbe146102b557806321c5cb5c146102d557806324788429146102f957806327b62ad9146103195780632a58b330146103395780632c8edd981461034f578063338497631461036f5780633b7d09461461038f5780633fc8cef3146103af5780634380dd3b146103dc5780634e627e62146103fc578063514fcac71461041c578063570ca7351461043c5780635a1fcadd1461045c5780636a79115f1461047c5780636d5d00701461049c578063715018a6146104b1578063724cd1f3146104c65780637adbf973146104e65780637dc0d1d0146105065780637e498c811461052657806381d12c5814610546578063856652e91461059d57806385fdea3c146105bd5780638da5cb5b1461069057806396bad07c146106a557806398011ac8146106c55780639aa2aa59146106e5578063a4063dbc14610705578063a554b2aa14610745578063a7b6442f14610765578063a85c38ef1461077b578063aff4764b1461085d578063b3ab15fb14610870578063b3c3e15714610890578063be203094146108a3578063c02c2d6c146108c3578063c22259d0146108f0578063c7e7820d14610906578063d6ffc33114610919578063d914cd4b14610939578063debfda3014610959578063f2fde38b14610989578063f882ac07146109a9578063ff9fd0b6146109c9578063ffa1ad74146109e957600080fd5b36610259576097546001600160a01b0316331461025757604051635202ca4f60e11b815260040160405180910390fd5b005b600080fd5b34801561026a57600080fd5b50610257610279366004614924565b610a10565b34801561028a57600080fd5b5061029e610299366004614954565b610c96565b6040516102ac929190614989565b60405180910390f35b3480156102c157600080fd5b506102576102d03660046149d1565b610db1565b3480156102e157600080fd5b506102eb609e5481565b6040519081526020016102ac565b34801561030557600080fd5b506102576103143660046149d1565b610e2c565b34801561032557600080fd5b5061029e610334366004614954565b610eb8565b34801561034557600080fd5b506102eb60985481565b34801561035b57600080fd5b5061025761036a3660046149d1565b610fc8565b34801561037b57600080fd5b5061025761038a3660046149fc565b61101a565b34801561039b57600080fd5b506102576103aa3660046149d1565b611155565b3480156103bb57600080fd5b506097546103cf906001600160a01b031681565b6040516102ac9190614a56565b3480156103e857600080fd5b5060a5546103cf906001600160a01b031681565b34801561040857600080fd5b5060a7546103cf906001600160a01b031681565b34801561042857600080fd5b50610257610437366004614a6a565b611206565b34801561044857600080fd5b5060a9546103cf906001600160a01b031681565b34801561046857600080fd5b50610257610477366004614a83565b6114e1565b34801561048857600080fd5b506102576104973660046149d1565b611572565b3480156104a857600080fd5b506102eb600281565b3480156104bd57600080fd5b506102576115eb565b3480156104d257600080fd5b5060a2546103cf906001600160a01b031681565b3480156104f257600080fd5b506102576105013660046149d1565b6115ff565b34801561051257600080fd5b50609d546103cf906001600160a01b031681565b34801561053257600080fd5b50610257610541366004614924565b611684565b34801561055257600080fd5b5061058d610561366004614a6a565b609a60205260009081526040902080546001820154600283015460039093015460ff9283169391921684565b6040516102ac9493929190614ad9565b3480156105a957600080fd5b506102eb6105b8366004614b0d565b6119f6565b3480156105c957600080fd5b506106356105d8366004614a6a565b60a6602052600090815260409020805460018201546002830154600384015460048501546005860154600687015460078801546008909801546001600160a01b039788169896881697958616969486169590931693919290919089565b604080516001600160a01b039a8b168152988a1660208a015296891696880196909652938716606087015295909116608085015260a084015260c083019390935260e0820192909252610100810191909152610120016102ac565b34801561069c57600080fd5b506103cf611a27565b3480156106b157600080fd5b506102576106c0366004614b84565b611a36565b3480156106d157600080fd5b506102576106e0366004614b84565b611a6f565b3480156106f157600080fd5b506102eb610700366004614b0d565b611aa3565b34801561071157600080fd5b506107356107203660046149d1565b609c6020526000908152604090205460ff1681565b60405190151581526020016102ac565b34801561075157600080fd5b50609f546103cf906001600160a01b031681565b34801561077157600080fd5b506102eb60a45481565b34801561078757600080fd5b506107fc610796366004614a6a565b60996020526000908152604090208054600182015460028301546003840154600485015460058601546006870154600788015460088901546009909901546001600160a01b03988916999789169896871697958716969094169492939192909160ff168a565b604080516001600160a01b039b8c168152998b1660208b0152978a1697890197909752948816606088015296909216608086015260a085015260c084015260e0830193909352610100820192909252901515610120820152610140016102ac565b6102eb61086b366004614bc5565b611abf565b34801561087c57600080fd5b5061025761088b3660046149d1565b611e40565b61025761089e366004614c54565b611eb9565b3480156108af57600080fd5b506102576108be366004614d3c565b61204f565b3480156108cf57600080fd5b506102eb6108de366004614a6a565b60a36020526000908152604090205481565b3480156108fc57600080fd5b506102eb609b5481565b610257610914366004614d8f565b61225f565b34801561092557600080fd5b50610257610934366004614a83565b6128ca565b34801561094557600080fd5b506102576109543660046149d1565b6128ff565b34801561096557600080fd5b506107356109743660046149d1565b60a86020526000908152604090205460ff1681565b34801561099557600080fd5b506102576109a43660046149d1565b6129b8565b3480156109b557600080fd5b506102576109c4366004614a6a565b612a2e565b3480156109d557600080fd5b506102576109e43660046149d1565b612bb3565b3480156109f557600080fd5b506109fe600481565b60405160ff90911681526020016102ac565b610a18612c2d565b33600090815260a8602052604090205460ff16610a4857604051633fdb5f0160e11b815260040160405180910390fd5b600082815260a6602090815260409182902082516101208101845281546001600160a01b03908116825260018301548116938201939093526002820154831693810184905260038201548316606082015260048201549092166080830152600581015460a0830152600681015460c0830152600781015460e08301526008015461010082015290610af457604051636f23541360e01b8152600481018490526024015b60405180910390fd5b600083815260a66020526040812080546001600160a01b0319908116825560018201805482169055600282018054821690556003820180548216905560048201805490911690556005810182905560068101829055600781018290556008018190556080820151819081906001600160a01b031660008051602061554983398151915214610b8b5783608001518460400151610b99565b6097546001600160a01b0316305b91509150610bc5846000015185602001518660600151858860a001518960c00151878b60400151612c86565b92506000805160206155498339815191526001600160a01b031684608001516001600160a01b031603610c0057610c008385604001516130b7565b610c0f8585610100015161313e565b8360c00151831015610c445760c08401516040516371c4efed60e01b8152600481019190915260248101849052604401610aeb565b60a0840151604080519182526020820185905287917fc9c036aac6fc38781303eacbf1baa18522aa34d7b5f54057c18ac0e92c207baa910160405180910390a250505050610c926001606555565b5050565b6001600160a01b038316600090815260a16020526040812054606091610cbc8486614e2f565b9050818111610ccb5780610ccd565b815b90506000858211610cdf576000610ce9565b610ce98683614e47565b9050806001600160401b03811115610d0357610d03614e5e565b604051908082528060200260200182016040528015610d2c578160200160208202803683370190505b509350855b610d3b8288614e2f565b811015610da6576001600160a01b038816600090815260a160205260409020805482908110610d6c57610d6c614e74565b9060005260206000200154858281518110610d8957610d89614e74565b602090810291909101015280610d9e81614e8a565b915050610d31565b505050935093915050565b610db96131d3565b6001600160a01b038116610de05760405163d92e233d60e01b815260040160405180910390fd5b6001600160a01b038116600081815260a86020526040808220805460ff19166001179055517f217603b67e96243085c45dc7bec1c2813c04f15868319981d0eb223f8538da449190a250565b610e346131d3565b6001600160a01b038116600090815260a8602052604090205460ff16610e6f5780604051634726455360e11b8152600401610aeb9190614a56565b6001600160a01b038116600081815260a86020526040808220805460ff19169055517f3c72860c750b6c66062710bb31185caeb1737df415c0ce72b7246da2b36c2a2e9190a250565b6001600160a01b038316600090815260a06020526040812054606091610ede8486614e2f565b9050818111610eed5780610eef565b815b90506000858211610f01576000610f0b565b610f0b8683614e47565b9050806001600160401b03811115610f2557610f25614e5e565b604051908082528060200260200182016040528015610f4e578160200160208202803683370190505b509350855b610f5d8288614e2f565b811015610da6576001600160a01b038816600090815260a060205260409020805482908110610f8e57610f8e614e74565b9060005260206000200154858281518110610fab57610fab614e74565b602090810291909101015280610fc081614e8a565b915050610f53565b610fd06131d3565b609f80546001600160a01b0319166001600160a01b0383169081179091556040517fdbbdb743aaca9e6eaa0c498fdd790895aabd4d967640f0d2786793653fd998b390600090a250565b611022612c2d565b600085815260996020526040902060018101546001600160a01b0316331461106e576001810154604051634d9b738f60e11b8152610aeb916001600160a01b0316903390600401614ea3565b80600601544311611092576040516346097e1760e11b815260040160405180910390fd5b6005810154156110b557604051630fb3dc3560e41b815260040160405180910390fd5b6000868152609a60205260409020600782018590556001808201879055600382015460ff1660018111156110eb576110eb614aa5565b03611108576002810184905560098201805460ff19168415151790555b867fd01fd848c538e9b6b6a7d6bb6c37c40e892cf04331ab744a6f22a02e16e1a37c838360405161113a929190614f09565b60405180910390a2505061114e6001606555565b5050505050565b61115d6131d3565b6001600160a01b0381166111845760405163d92e233d60e01b815260040160405180910390fd5b6001600160a01b0381166000908152609c602052604090205460ff166111bd57604051631f59bbed60e11b815260040160405180910390fd5b6001600160a01b0381166000818152609c6020526040808220805460ff19169055517f9f762579799fd9e2e3c8c446c551b7895e70a2a14f2c49e6209d35b75e9776ee9190a250565b61120e612c2d565b60008181526099602090815260409182902082516101408101845281546001600160a01b03908116825260018301548116938201849052600283015481169482019490945260038201548416606082015260048201549093166080840152600581015460a0840152600681015460c0840152600781015460e084015260088101546101008401526009015460ff1615156101208301526112c457604051636f23541360e01b815260048101839052602401610aeb565b60208101516001600160a01b031633148015906112f1575033600090815260a8602052604090205460ff16155b1561130f576040516371efdd2360e11b815260040160405180910390fd5b6000828152609a60205260408082208151608081019092528054829060ff16600181111561133f5761133f614aa5565b600181111561135057611350614aa5565b8152600182810154602083015260028301546040830152600383015460609092019160ff169081111561138557611385614aa5565b600181111561139657611396614aa5565b905250600084815260996020908152604080832080546001600160a01b03199081168255600180830180548316905560028084018054841690556003808501805485169055600485018054909416909355600584018790556006840187905560078401879055600884018790556009909301805460ff19908116909155609a865293862080548516815590810186905591820194909455909201805490921690915583015161010084015191925061144d9161313e565b60008160600151600181111561146557611465614aa5565b036114a757600083815260a3602052604081205460021461148a578260600151611490565b82608001515b90506114a58183604001518560200151613232565b505b60405183907f61b9399f2f0f32ca39ce8d7be32caed5ec22fe07a6daba3a467ed479ec60658290600090a250506114de6001606555565b50565b6114e9612c2d565b600082815260a66020526040902060028101546001600160a01b03163314611535576002810154604051634d9b738f60e11b8152610aeb916001600160a01b0316903390600401614ea3565b6007810182905560405183907f97e9bd601424e4172c66ef396c987c392d3decde1776e41f80b95985551b2d8a90600090a250610c926001606555565b61157a6131d3565b6001600160a01b0381166115a15760405163d92e233d60e01b815260040160405180910390fd5b60a780546001600160a01b0319166001600160a01b0383169081179091556040517fcf7381fd801bfc0e3e6a57a711e8165131a80c69051919ee96c9896cd87c0c1190600090a250565b6115f36131d3565b6115fd6000613287565b565b6116076131d3565b6001600160a01b03811661162e5760405163d92e233d60e01b815260040160405180910390fd5b609d80546001600160a01b0319166001600160a01b0383161790556040517f0e05ae75e8b926552cf6fcd744d19f422561e3ced1e426868730852702dbe41890611679908390614a56565b60405180910390a150565b61168c612c2d565b33600090815260a8602052604090205460ff166116bc57604051633fdb5f0160e11b815260040160405180910390fd5b60008281526099602090815260409182902082516101408101845281546001600160a01b03908116825260018301548116938201849052600283015481169482019490945260038201548416606082015260048201549093166080840152600581015460a0840152600681015460c0840152600781015460e084015260088101546101008401526009015460ff16151561012083015261177257604051636f23541360e01b815260048101849052602401610aeb565b8060c001514311611796576040516346097e1760e11b815260040160405180910390fd5b80516117a1906132d9565b60a0810151158015906117b75750428160a00151105b156117cc576117c68382613311565b506119ec565b6000838152609a60205260408082208151608081019092528054829060ff1660018111156117fc576117fc614aa5565b600181111561180d5761180d614aa5565b8152600182810154602083015260028301546040830152600383015460609092019160ff169081111561184257611842614aa5565b600181111561185357611853614aa5565b9052509050600061186483836134d3565b9050600083610120015161187f578360e00151821115611888565b8360e001518210155b9050806118e85760e08401516101208501516040805185815260208101939093529015159082015286907f0211f17978294992dc082b8ae8e999b062b4e5a788b3dfd4b268c02c9e1072d89060600160405180910390a2505050506119ec565b60006118f587868661358e565b600088815260996020908152604080832080546001600160a01b03199081168255600180830180548316905560028084018054841690556003808501805485169055600485018054909416909355600584018790556006840187905560078401879055600884018790556009909301805460ff19908116909155609a90955292852080548516815592830185905590820193909355909101805490911690556101008601519091506119a890879061313e565b867f3d8aadf0344de73add389e9faa2bb2631151461ebb9e8aa4e83ffe62bb7aea09868686856040516119de949392919061509e565b60405180910390a250505050505b610c926001606555565b60a06020528160005260406000208181548110611a1257600080fd5b90600052602060002001600091509150505481565b6033546001600160a01b031690565b60005b81811015611a6a57611a62838383818110611a5657611a56614e74565b90506020020135612a2e565b600101611a39565b505050565b60005b81811015611a6a57611a9b838383818110611a8f57611a8f614e74565b90506020020135611206565b600101611a72565b60a16020528160005260406000208181548110611a1257600080fd5b60006002871180611ace575086155b15611aec5760405163866c279d60e01b815260040160405180910390fd5b611b1c88886000818110611b0257611b02614e74565b9050602002016020810190611b1791906149d1565b6132d9565b6002879003611bbb5787876001818110611b3857611b38614e74565b9050602002016020810190611b4d91906149d1565b6001600160a01b031688886000818110611b6957611b69614e74565b9050602002016020810190611b7e91906149d1565b6001600160a01b031603611ba557604051630675d97360e21b815260040160405180910390fd5b611bbb88886001818110611b0257611b02614e74565b611bc482613ab1565b6000806001600160a01b03871660008051602061554983398151915214611bec578633611bfa565b6097546001600160a01b0316305b9092509050600073eeeeeeeeeeeeeeeeeeeeeeeeeeeeeeeeeeeeeeed196001600160a01b038a1601611c92575060975460408051630d0e30db60e41b815290513498506001600160a01b0390921691829163d0e30db0918a9160048082019260009290919082900301818588803b158015611c7457600080fd5b505af1158015611c88573d6000803e3d6000fd5b5050505050611ca9565b5087611ca96001600160a01b03821633308a613b20565b611d178b8b6000818110611cbf57611cbf614e74565b9050602002016020810190611cd491906149d1565b60018c14611d09578c8c6001818110611cef57611cef614e74565b9050602002016020810190611d0491906149d1565b611d0c565b60005b83868b8b8833612c86565b935073eeeeeeeeeeeeeeeeeeeeeeeeeeeeeeeeeeeeeeed196001600160a01b03891601611d4857611d4884336130b7565b85841015611d73576040516371c4efed60e01b81526004810187905260248101859052604401610aeb565b6001600160a01b03808916908a16337ff9777644d6cb6adfe09dd0b64d66382fa968aeaede4858b118e1acc8fd2eec1f8e8e600081611db457611db4614e74565b9050602002016020810190611dc991906149d1565b60018f14611dfe578f8f6001818110611de457611de4614e74565b9050602002016020810190611df991906149d1565b611e01565b60005b604080516001600160a01b03938416815292909116602083015281018c90526060810189905260800160405180910390a4505050979650505050505050565b611e486131d3565b6001600160a01b038116611e6f5760405163d92e233d60e01b815260040160405180910390fd5b60a980546001600160a01b0319166001600160a01b0383169081179091556040517f99d737e0adf2c449d71890b86772885ec7959b152ddb265f76325b6e68e105d390600090a250565b611ec1612c2d565b611eca896132d9565b886000808a6001811115611ee057611ee0614aa5565b6040516318f2050360e31b8152911491506001600160a01b0383169063c790281890611f16908b908b908e9087906004016150cf565b602060405180830381865afa158015611f33573d6000803e3d6000fd5b505050506040513d601f19601f82011682018060405250810190611f579190615107565b611f74576040516333910aef60e11b815260040160405180910390fd5b60008115611fd057611f8584613ab1565b611fc98c8b8b8b8b8b8b8080601f016020809104026020016040519081016040528093929190818152602001838380828437600092019190915250613b8b92505050565b9050612017565b6120148c8b8b8b8b8b8b8080601f01602080910402602001604051908101604052809392919081815260200183838082843760009201919091525061401392505050565b90505b33600090815260a06020908152604082208054600181018255908352912001555061204490506001606555565b505050505050505050565b600054610100900460ff161580801561206f5750600054600160ff909116105b80612090575061207e306143b4565b158015612090575060005460ff166001145b6120f35760405162461bcd60e51b815260206004820152602e60248201527f496e697469616c697a61626c653a20636f6e747261637420697320616c72656160448201526d191e481a5b9a5d1a585b1a5e995960921b6064820152608401610aeb565b6000805460ff191660011790558015612116576000805461ff0019166101001790555b61211e6143c3565b6121266143f2565b6001600160a01b03841661214d5760405163d92e233d60e01b815260040160405180910390fd5b6001600160a01b0385166121745760405163d92e233d60e01b815260040160405180910390fd5b6001600160a01b03821661219b57604051633ee80e0f60e11b815260040160405180910390fd5b67016345785d8a00008311156121c757604051630a253bc760e41b815260048101849052602401610aeb565b609e839055609d80546001600160a01b038087166001600160a01b03199283161790925560016098819055609b556097805488841690831617905560a2805492851692909116919091179055801561114e576000805461ff0019169055604051600181527f7f26b83ff96e1f2b6a682f133852f6798a09c465da95921460cefb38474024989060200160405180910390a15050505050565b612267612c2d565b6002871180612274575086155b156122925760405163866c279d60e01b815260040160405180910390fd5b6122a888886000818110611b0257611b02614e74565b6000888860008181106122bd576122bd614e74565b90506020020160208101906122d291906149d1565b9050600288900361239e57888860018181106122f0576122f0614e74565b905060200201602081019061230591906149d1565b6001600160a01b03168989600081811061232157612321614e74565b905060200201602081019061233691906149d1565b6001600160a01b03160361235d57604051630675d97360e21b815260040160405180910390fd5b61237389896001818110611b0257611b02614e74565b8888600181811061238657612386614e74565b905060200201602081019061239b91906149d1565b90505b60006001600160a01b038816600080516020615549833981519152146123c55787886123e2565b609754600080516020615549833981519152906001600160a01b03165b9850905089896000816123f7576123f7614e74565b905060200201602081019061240c91906149d1565b6001600160a01b031663f794062e896040518263ffffffff1660e01b81526004016124379190614a56565b6020604051808303816000875af1158015612456573d6000803e3d6000fd5b505050506040513d601f19601f8201168201806040525081019061247a9190615107565b80156125295750816001600160a01b031663c87fa42a6000805160206155498339815191526001600160a01b0316896001600160a01b0316146124bd57886124ca565b6097546001600160a01b03165b6040518263ffffffff1660e01b81526004016124e69190614a56565b6020604051808303816000875af1158015612505573d6000803e3d6000fd5b505050506040513d601f19601f820116820180604052508101906125299190615107565b612546576040516333910aef60e11b815260040160405180910390fd5b61254f83613ab1565b600073eeeeeeeeeeeeeeeeeeeeeeeeeeeeeeeeeeeeeeed196001600160a01b038316016125f0576125808734614e47565b9050609760009054906101000a90046001600160a01b03166001600160a01b031663d0e30db0886040518263ffffffff1660e01b81526004016000604051808303818588803b1580156125d257600080fd5b505af11580156125e6573d6000803e3d6000fd5b5050505050612607565b50346126076001600160a01b038a1633308a613b20565b60a45481101561262a5760405163feced27f60e01b815260040160405180910390fd5b60006040518061012001604052808d8d600081811061264b5761264b614e74565b905060200201602081019061266091906149d1565b6001600160a01b0316815260200160018d146126a3578d8d600181811061268957612689614e74565b905060200201602081019061269e91906149d1565b6126a6565b60005b6001600160a01b03168152602001336001600160a01b031681526020018b6001600160a01b031681526020018a6001600160a01b031681526020018981526020018881526020018781526020018381525090508060a66000609b54815260200190815260200160002060008201518160000160006101000a8154816001600160a01b0302191690836001600160a01b0316021790555060208201518160010160006101000a8154816001600160a01b0302191690836001600160a01b0316021790555060408201518160020160006101000a8154816001600160a01b0302191690836001600160a01b0316021790555060608201518160030160006101000a8154816001600160a01b0302191690836001600160a01b0316021790555060808201518160040160006101000a8154816001600160a01b0302191690836001600160a01b0316021790555060a0820151816005015560c0820151816006015560e08201518160070155610100820151816008015590505060a16000336001600160a01b03166001600160a01b03168152602001908152602001600020609b549080600181540180825580915050600190039060005260206000200160009091909190915055609b547f82e23b32adf1ee3b5f18182bd3496289addded8a7462a361364446e67abac10060405160405180910390a26001609b60008282546128ac9190614e2f565b90915550506001606555506128c092505050565b5050505050505050565b60a9546001600160a01b031633146128f5576040516327e1f1e560e01b815260040160405180910390fd5b610c928282614421565b6129076131d3565b6001600160a01b03811661292e5760405163d92e233d60e01b815260040160405180910390fd5b6001600160a01b0381166000908152609c602052604090205460ff16151560010361296c57604051633caf458560e01b815260040160405180910390fd5b6001600160a01b0381166000818152609c6020526040808220805460ff19166001179055517fdd1828d6b624ad325efda8575506db390bc72d7c701d35acfa8aa5be727f138b9190a250565b6129c06131d3565b6001600160a01b038116612a255760405162461bcd60e51b815260206004820152602660248201527f4f776e61626c653a206e6577206f776e657220697320746865207a65726f206160448201526564647265737360d01b6064820152608401610aeb565b6114de81613287565b612a36612c2d565b600081815260a6602090815260409182902082516101208101845281546001600160a01b03908116825260018301548116938201939093526002820154831693810184905260038201548316606082015260048201549092166080830152600581015460a0830152600681015460c0830152600781015460e083015260080154610100820152903314612adc576040516371efdd2360e11b815260040160405180910390fd5b600082815260a6602052604080822080546001600160a01b03199081168255600182018054821690556002820180548216905560038201805482169055600482018054909116905560058101839055600681018390556007810183905560080191909155810151610100820151612b53919061313e565b612b7d81604001518260a0015183606001516001600160a01b03166144f99092919063ffffffff16565b60405182907fe9216d0f0b5b5425bfe39626e28e954006ba5602558b52853598723b6a94a38390600090a2506114de6001606555565b612bbb6131d3565b6001600160a01b038116612be25760405163d92e233d60e01b815260040160405180910390fd5b60a580546001600160a01b0319166001600160a01b0383161790556040517f32bad3cb61c25e579e655734dd03338cd5e2ddd73e4cdfb8c116788b0a35b8c190611679908390614a56565b600260655403612c7f5760405162461bcd60e51b815260206004820152601f60248201527f5265656e7472616e637947756172643a207265656e7472616e742063616c6c006044820152606401610aeb565b6002606555565b6040516370a0823160e01b8152600090869082906001600160a01b038316906370a0823190612cb9908890600401614a56565b602060405180830381865afa158015612cd6573d6000803e3d6000fd5b505050506040513d601f19601f82011682018060405250810190612cfa9190615124565b90506001600160a01b038a16612d9b57612d1e6001600160a01b038a168c896144f9565b60405163226099f160e11b81526001600160a01b038c16906344c133e290612d52908c908c908b908b908b9060040161513d565b6020604051808303816000875af1158015612d71573d6000803e3d6000fd5b505050506040513d601f19601f82011682018060405250810190612d959190615124565b5061302f565b60a5546001600160a01b03908116908c1603612eaa5760a55460405163095ea7b360e01b81526001600160a01b038b81169263095ea7b392612de592909116908b9060040161516f565b6020604051808303816000875af1158015612e04573d6000803e3d6000fd5b505050506040513d601f19601f82011682018060405250810190612e289190615107565b5060a560009054906101000a90046001600160a01b03166001600160a01b03166373b736d08a8960008e896040518663ffffffff1660e01b8152600401612e73959493929190615188565b600060405180830381600087803b158015612e8d57600080fd5b505af1158015612ea1573d6000803e3d6000fd5b50505050612f62565b612ebe6001600160a01b038a168c896144f9565b60a5546000906001600160a01b038c8116911614612edc578a612ede565b305b60a55460405163226099f160e11b81529192506001600160a01b03808f16926344c133e292612f1b928f9291169060009087908c9060040161513d565b6020604051808303816000875af1158015612f3a573d6000803e3d6000fd5b505050506040513d601f19601f82011682018060405250810190612f5e9190615124565b9350505b60a5546001600160a01b03908116908b1603612fb05760a55460405163044cc14d60e31b81526001600160a01b03909116906322660a6890612d52908b9087908b908b908b90600401615188565b60a55460405163226099f160e11b81526001600160a01b038c8116926344c133e292612fea92909116908c908b908b908b9060040161513d565b6020604051808303816000875af1158015613009573d6000803e3d6000fd5b505050506040513d601f19601f8201168201806040525081019061302d9190615124565b505b6040516370a0823160e01b815281906001600160a01b038416906370a082319061305d908990600401614a56565b602060405180830381865afa15801561307a573d6000803e3d6000fd5b505050506040513d601f19601f8201168201806040525081019061309e9190615124565b6130a89190614e47565b9b9a5050505050505050505050565b60a2546097546130d4916001600160a01b03918216911684614518565b60a254604051637647691d60e01b8152600481018490526001600160a01b03838116602483015290911690637647691d90604401600060405180830381600087803b15801561312257600080fd5b505af1158015613136573d6000803e3d6000fd5b505050505050565b604080516000808252602082019092526001600160a01b03841690839060405161316891906151e6565b60006040518083038185875af1925050503d80600081146131a5576040519150601f19603f3d011682016040523d82523d6000602084013e6131aa565b606091505b5050905080611a6a57604051634c67134d60e11b815260040160405180910390fd5b6001606555565b336131dc611a27565b6001600160a01b0316146115fd5760405162461bcd60e51b815260206004820181905260248201527f4f776e61626c653a2063616c6c6572206973206e6f7420746865206f776e65726044820152606401610aeb565b6097546001600160a01b038481169116148061326457506001600160a01b038316600080516020615549833981519152145b1561327357611a6a82826130b7565b611a6a6001600160a01b03841682846144f9565b603380546001600160a01b038381166001600160a01b0319831681179093556040519116919082907f8be0079c531659141344cd1fd0a4f28419497f9722a3daafe3b4186f6b6457e090600090a35050565b6001600160a01b0381166000908152609c602052604090205460ff166114de5760405162820f3560e61b815260040160405180910390fd5b6000828152609a60205260408082208151608081019092528054829060ff16600181111561334157613341614aa5565b600181111561335257613352614aa5565b8152600182810154602083015260028301546040830152600383015460609092019160ff169081111561338757613387614aa5565b600181111561339857613398614aa5565b905250600084815260996020908152604080832080546001600160a01b03199081168255600180830180548316905560028084018054841690556003808501805485169055600485018054909416909355600584018790556006840187905560078401879055600884018790556009909301805460ff19908116909155609a9095528386208054861681559081018690559182018590550180549092169091555191925084917f1ad308dc7017610c82d08084545f7176df5e2f08f078c3c8f8926cd7e55555149190a2613475826020015183610100015161313e565b60008160600151600181111561348d5761348d614aa5565b03611a6a57600083815260a360205260408120546002146134b25782606001516134b8565b82608001515b90506134cd8183604001518560200151613232565b50505050565b60008080835160018111156134ea576134ea614aa5565b1460008460600151600181111561350357613503614aa5565b609d5460408881015190516303b6b4bb60e51b81526001600160a01b03918216600482015292909314939093146024820181905293509116906376d6976090604401602060405180830381865afa158015613562573d6000803e3d6000fd5b505050506040513d601f19601f820116820180604052508101906135869190615124565b949350505050565b600080826060015160018111156135a7576135a7614aa5565b0361373057600084815260a3602052604081205460021180613600575060808401516001600160a01b0316600080516020615549833981519152148015613600575060975460608501516001600160a01b039081169116145b80613624575083606001516001600160a01b031684608001516001600160a01b0316145b9050806136905760808401516000906001600160a01b03166000805160206155498339815191521461365a578460800151613667565b6097546001600160a01b03165b9050613689856000015182876060015187604001516000308b602001516145b5565b6040850152505b8351604084015160608601516136b1926001600160a01b03909116916144f9565b835160208086015160408088015160608901519388015188519251635d8048db60e01b81526001600160a01b0390961695635d8048db956136f89594909291600401615202565b600060405180830381600087803b15801561371257600080fd5b505af1158015613726573d6000803e3d6000fd5b5050505050613aaa565b60608301516040516370a0823160e01b81526000906001600160a01b038316906370a0823190613764903090600401614a56565b602060405180830381865afa158015613781573d6000803e3d6000fd5b505050506040513d601f19601f820116820180604052508101906137a59190615124565b905084600001516001600160a01b031663ab5770d3866020015187604001518860600151886040015189602001518a60000151306040518863ffffffff1660e01b81526004016137fb9796959493929190615242565b600060405180830381600087803b15801561381557600080fd5b505af1158015613829573d6000803e3d6000fd5b50506040516370a0823160e01b81528392506001600160a01b03851691506370a082319061385b903090600401614a56565b602060405180830381865afa158015613878573d6000803e3d6000fd5b505050506040513d601f19601f8201168201806040525081019061389c9190615124565b6138a69190614e47565b60975460608701519194506001600160a01b0391821691161480156138e5575060808501516001600160a01b0316600080516020615549833981519152145b156138fd576138f88386602001516130b7565b613aa7565b84608001516001600160a01b031685606001516001600160a01b031614613a8d578451606086015161393b916001600160a01b0390911690856144f9565b6000805160206155498339815191526001600160a01b031685608001516001600160a01b0316036139fd5784516060860151609754602088015160405163226099f160e11b81526001600160a01b03948516946344c133e2946139aa949093911691600091309160040161513d565b6020604051808303816000875af11580156139c9573d6000803e3d6000fd5b505050506040513d601f19601f820116820180604052508101906139ed9190615124565b92506138f88386602001516130b7565b845160608601516080870151602088015160405163226099f160e11b81526001600160a01b03909416936344c133e293613a43939092909160009190819060040161513d565b6020604051808303816000875af1158015613a62573d6000803e3d6000fd5b505050506040513d601f19601f82011682018060405250810190613a869190615124565b9250613aa7565b6020850151613aa7906001600160a01b03841690856144f9565b50505b9392505050565b60a7546001600160a01b0316156114de5760a7546001600160a01b031663a021463533836040518363ffffffff1660e01b8152600401613af292919061516f565b600060405180830381600087803b158015613b0c57600080fd5b505af115801561114e573d6000803e3d6000fd5b6040516001600160a01b03808516602483015283166044820152606481018290526134cd9085906323b872dd60e01b906084015b60408051601f198184030181529190526020810180516001600160e01b03166001600160e01b0319909316929092179091526145d4565b6000613b95614896565b613b9d6148ea565b6001886001811115613bb157613bb1614aa5565b146101208301528351600090606090613bd3908701602090810190880161531d565b604089019190915260208801919091526001600160a01b039092166080880181905260e088019390935293509150613c1e5760405163d92e233d60e01b815260040160405180910390fd5b81600003613c3f57604051631f2a200560e01b815260040160405180910390fd5b6001600160a01b03808c1685523360208601528981166040860152881660608501526000876001811115613c7557613c75614aa5565b14613c81576000613c8d565b613c8d61012c42614e2f565b60a08501524360c085015260808401516001600160a01b031660008051602061554983398151915214613cc05734613cca565b613cca8234614e47565b61010085015260608401516080850151600091613ce6916146a6565b9050808561010001511015613d0e5760405163feced27f60e01b815260040160405180910390fd5b60006060850152838b6001811115613d2857613d28614aa5565b90816001811115613d3b57613d3b614aa5565b905250604084018390526098549550613d55866001614e2f565b6098556000868152609960209081526040808320885181546001600160a01b03199081166001600160a01b039283161783558a850151600180850180548416928516929092179091558b850151600285018054841691851691909117905560608c0151600385018054841691851691909117905560808c0151600485018054909316931692909217905560a08a0151600583015560c08a0151600683015560e08a015160078301556101008a015160088301556101208a01516009909201805460ff19908116931515939093179055609a90935292208651815488949293919284929116908381811115613e4b57613e4b614aa5565b0217905550602082015181600101556040820151816002015560608201518160030160006101000a81548160ff02191690836001811115613e8e57613e8e614aa5565b02179055505050600086815260a3602052604090206002905560808501516001600160a01b031673eeeeeeeeeeeeeeeeeeeeeeeeeeeeeeeeeeeeeeed1901613f3e57609760009054906101000a90046001600160a01b03166001600160a01b031663d0e30db0846040518263ffffffff1660e01b81526004016000604051808303818588803b158015613f2057600080fd5b505af1158015613f34573d6000803e3d6000fd5b5050505050613f66565b613f663330866040015188608001516001600160a01b0316613b20909392919063ffffffff16565b609f546001600160a01b031615613fdc57609f54604051631ecd829960e01b81526001600160a01b0390911690631ecd829990613fa990899086906004016153bf565b600060405180830381600087803b158015613fc357600080fd5b505af1158015613fd7573d6000803e3d6000fd5b505050505b856000805160206155298339815191528686604051613ffc9291906153d8565b60405180910390a250505050509695505050505050565b600061401d614896565b6140256148ea565b6060600086600181111561403b5761403b614aa5565b0361409e578480602001905181019061405491906153f5565b604087019190915260208601919091526001600160a01b03909116608086015260e08501919091529050600089600181111561409257614092614aa5565b146101208401526140e6565b848060200190518101906140b29190615463565b604088019190915260208701919091526001600160a01b03909116608087015290151561012086015260e085019190915290505b6001600160a01b03808b168452336020850152888116604085015287166060840152600086600181111561411c5761411c614aa5565b14614128576000614134565b61413461012c42614e2f565b60a08401524360c0840152346101008401526060830151608084015160009161415c916146a6565b90508084610100015110156141845760405163feced27f60e01b815260040160405180910390fd5b60016060840181905250828a60018111156141a1576141a1614aa5565b908160018111156141b4576141b4614aa5565b90525060985494506141c7856001614e2f565b6098556000858152609960209081526040808320875181546001600160a01b03199081166001600160a01b0392831617835589850151600180850180548416928516929092179091558a850151600285018054841691851691909117905560608b0151600385018054841691851691909117905560808b0151600485018054909316931692909217905560a0890151600583015560c0890151600683015560e0890151600783015561010089015160088301556101208901516009909201805460ff19908116931515939093179055609a909352922085518154879492939192849291169083818111156142bd576142bd614aa5565b0217905550602082015181600101556040820151816002015560608201518160030160006101000a81548160ff0219169083600181111561430057614300614aa5565b021790555050609f546001600160a01b031615905061437e57609f54604051631ecd829960e01b81526001600160a01b0390911690631ecd82999061434b90889086906004016153bf565b600060405180830381600087803b15801561436557600080fd5b505af1158015614379573d6000803e3d6000fd5b505050505b84600080516020615529833981519152858560405161439e9291906153d8565b60405180910390a2505050509695505050505050565b6001600160a01b03163b151590565b600054610100900460ff166143ea5760405162461bcd60e51b8152600401610aeb906154ca565b6115fd61471e565b600054610100900460ff166144195760405162461bcd60e51b8152600401610aeb906154ca565b6115fd61474e565b811580614435575067016345785d8a000082115b15614453576040516354c7692760e01b815260040160405180910390fd5b801580614467575067016345785d8a000081115b15614485576040516301c1708760e71b815260040160405180910390fd5b609e82905560a48190556040518281527feb5799b9fa1cba983ed1cbbc089d7c6ec51edd7407ee8e0ae4862d5d9d30286e9060200160405180910390a16040518181527f5713d3ba7f6ddcc9d4adf43d0f0224c7634556a1b1106b49cef094da516ea1029060200160405180910390a15050565b611a6a8363a9059cbb60e01b8484604051602401613b5492919061516f565b600081846001600160a01b031663dd62ed3e30866040518363ffffffff1660e01b8152600401614549929190614ea3565b602060405180830381865afa158015614566573d6000803e3d6000fd5b505050506040513d601f19601f8201168201806040525081019061458a9190615124565b6145949190614e2f565b90506134cd8463095ea7b360e01b8584604051602401613b5492919061516f565b60006145c8886000898989898989612c86565b98975050505050505050565b6000614629826040518060400160405280602081526020017f5361666545524332303a206c6f772d6c6576656c2063616c6c206661696c6564815250856001600160a01b03166147759092919063ffffffff16565b805190915015611a6a57808060200190518101906146479190615107565b611a6a5760405162461bcd60e51b815260206004820152602a60248201527f5361666545524332303a204552433230206f7065726174696f6e20646964206e6044820152691bdd081cdd58d8d9595960b21b6064820152608401610aeb565b600080826001600160a01b0316846001600160a01b031614806146f757506097546001600160a01b0385811691161480156146f757506001600160a01b038316600080516020615549833981519152145b9050806147135760a454609e5461470e9190614e2f565b613586565b5050609e5492915050565b600054610100900460ff166147455760405162461bcd60e51b8152600401610aeb906154ca565b6115fd33613287565b600054610100900460ff166131cc5760405162461bcd60e51b8152600401610aeb906154ca565b6060613586848460008585600080866001600160a01b0316858760405161479c91906151e6565b60006040518083038185875af1925050503d80600081146147d9576040519150601f19603f3d011682016040523d82523d6000602084013e6147de565b606091505b50915091506147ef878383876147fa565b979650505050505050565b6060831561486757825160000361486057614814856143b4565b6148605760405162461bcd60e51b815260206004820152601d60248201527f416464726573733a2063616c6c20746f206e6f6e2d636f6e74726163740000006044820152606401610aeb565b5081613586565b613586838381511561487c5781518083602001fd5b8060405162461bcd60e51b8152600401610aeb9190615515565b6040805161014081018252600080825260208201819052918101829052606081018290526080810182905260a0810182905260c0810182905260e08101829052610100810182905261012081019190915290565b6040805160808101825260008082526020820181905291810182905290606082015290565b6001600160a01b03811681146114de57600080fd5b6000806040838503121561493757600080fd5b8235915060208301356149498161490f565b809150509250929050565b60008060006060848603121561496957600080fd5b83356149748161490f565b95602085013595506040909401359392505050565b604080825283519082018190526000906020906060840190828701845b828110156149c2578151845292840192908401906001016149a6565b50505092019290925292915050565b6000602082840312156149e357600080fd5b8135613aaa8161490f565b80151581146114de57600080fd5b600080600080600060a08688031215614a1457600080fd5b853594506020860135935060408601359250606086013591506080860135614a3b816149ee565b809150509295509295909350565b6001600160a01b03169052565b6001600160a01b0391909116815260200190565b600060208284031215614a7c57600080fd5b5035919050565b60008060408385031215614a9657600080fd5b50508035926020909101359150565b634e487b7160e01b600052602160045260246000fd5b600281106114de57634e487b7160e01b600052602160045260246000fd5b60808101614ae686614abb565b858252846020830152836040830152614afe83614abb565b82606083015295945050505050565b60008060408385031215614b2057600080fd5b8235614b2b8161490f565b946020939093013593505050565b60008083601f840112614b4b57600080fd5b5081356001600160401b03811115614b6257600080fd5b6020830191508360208260051b8501011115614b7d57600080fd5b9250929050565b60008060208385031215614b9757600080fd5b82356001600160401b03811115614bad57600080fd5b614bb985828601614b39565b90969095509350505050565b600080600080600080600060c0888a031215614be057600080fd5b87356001600160401b03811115614bf657600080fd5b614c028a828b01614b39565b9098509650506020880135614c168161490f565b94506040880135614c268161490f565b969995985093966060810135956080820135955060a0909101359350915050565b600281106114de57600080fd5b60008060008060008060008060006101008a8c031215614c7357600080fd5b8935614c7e8161490f565b985060208a0135614c8e81614c47565b975060408a0135614c9e81614c47565b965060608a0135614cae8161490f565b955060808a0135614cbe8161490f565b945060a08a0135614cce81614c47565b935060c08a01356001600160401b0380821115614cea57600080fd5b818c0191508c601f830112614cfe57600080fd5b813581811115614d0d57600080fd5b8d6020828501011115614d1f57600080fd5b9a9d999c50979a969995989497506020019560e001359392505050565b60008060008060808587031215614d5257600080fd5b8435614d5d8161490f565b93506020850135614d6d8161490f565b9250604085013591506060850135614d848161490f565b939692955090935050565b60008060008060008060008060e0898b031215614dab57600080fd5b88356001600160401b03811115614dc157600080fd5b614dcd8b828c01614b39565b9099509750506020890135614de18161490f565b95506040890135614df18161490f565b979a96995094976060810135966080820135965060a0820135955060c0909101359350915050565b634e487b7160e01b600052601160045260246000fd5b60008219821115614e4257614e42614e19565b500190565b600082821015614e5957614e59614e19565b500390565b634e487b7160e01b600052604160045260246000fd5b634e487b7160e01b600052603260045260246000fd5b600060018201614e9c57614e9c614e19565b5060010190565b6001600160a01b0392831681529116602082015260400190565b6001600160a01b031690565b60ff815416614ed781614abb565b82526001810154602083015260028101546040830152600381015460ff16614efe81614abb565b806060840152505050565b60006101c082019050614f2582614f208654614ebd565b614a49565b614f326001850154614ebd565b614f3f6020840182614a49565b50614f4d6002850154614ebd565b614f5a6040840182614a49565b50614f686003850154614ebd565b614f756060840182614a49565b50614f836004850154614ebd565b614f906080840182614a49565b50600584015460a0830152600684015460c0830152600784015460e08301526008840154610100830152600984015460ff161515610120830152613aaa610140830184614ec9565b614fe3828251614a49565b6020810151614ff56020840182614a49565b5060408101516150086040840182614a49565b50606081015161501b6060840182614a49565b50608081015161502e6080840182614a49565b5060a081015160a083015260c081015160c083015260e081015160e0830152610100808201518184015250610120808201516134cd8285018215159052565b805161507881614abb565b8083525060208101516020830152604081015160408301526060810151614efe81614abb565b61020081016150ad8287614fd8565b6150bb61014083018661506d565b6101c08201939093526101e0015292915050565b6001600160a01b03858116825284166020820152608081016150f084614abb565b836040830152821515606083015295945050505050565b60006020828403121561511957600080fd5b8151613aaa816149ee565b60006020828403121561513657600080fd5b5051919050565b6001600160a01b0395861681529385166020850152604084019290925283166060830152909116608082015260a00190565b6001600160a01b03929092168252602082015260400190565b6001600160a01b0395861681526020810194909452604084019290925283166060830152909116608082015260a00190565b60005b838110156151d55781810151838201526020016151bd565b838111156134cd5750506000910152565b600082516151f88184602087016151ba565b9190910192915050565b6001600160a01b0386811682528581166020830152841660408201526060810183905260a0810161523283614abb565b8260808301529695505050505050565b6001600160a01b03888116825287811660208301528681166040830152606082018690526080820185905260e082019061527b85614abb565b8460a084015280841660c08401525098975050505050505050565b600082601f8301126152a757600080fd5b81516001600160401b03808211156152c1576152c1614e5e565b604051601f8301601f19908116603f011681019082821181831017156152e9576152e9614e5e565b8160405283815286602085880101111561530257600080fd5b6153138460208301602089016151ba565b9695505050505050565b60008060008060008060c0878903121561533657600080fd5b8651955060208701516153488161490f565b6040880151606089015160808a015160a08b0151939850919650945092506001600160401b0381111561537a57600080fd5b61538689828a01615296565b9150509295509295509295565b600081518084526153ab8160208601602086016151ba565b601f01601f19169290920160200192915050565b8281526040602082015260006135866040830184615393565b6101c081016153e78285614fd8565b613aaa61014083018461506d565b600080600080600060a0868803121561540d57600080fd5b85519450602086015161541f8161490f565b60408701516060880151608089015192965090945092506001600160401b0381111561544a57600080fd5b61545688828901615296565b9150509295509295909350565b60008060008060008060c0878903121561547c57600080fd5b86519550602087015161548e816149ee565b604088015190955061549f8161490f565b6060880151608089015160a08a015192965090945092506001600160401b0381111561537a57600080fd5b6020808252602b908201527f496e697469616c697a61626c653a20636f6e7472616374206973206e6f74206960408201526a6e697469616c697a696e6760a81b606082015260800190565b602081526000613aaa602083018461539356fe496579cef0adb9fb00f0673225f10452d06de31b193b90e5b0f92888bf1dcfb0000000000000000000000000eeeeeeeeeeeeeeeeeeeeeeeeeeeeeeeeeeeeeeeea264697066735822122061666d1a33724aaf36574ef75454a76016e2e0c86a808e92895e71478326c7d164736f6c634300080f0033",
        "linkReferences": {}
    },
    "methodIdentifiers": {
        "ORDER_VERSION()": "6d5d0070",
        "VERSION()": "ffa1ad74",
        "addExecutor(address)": "1f5a0bbe",
        "addPool(address)": "d914cd4b",
        "baseLp()": "4380dd3b",
        "cancelMultipleOrders(uint256[])": "98011ac8",
        "cancelMultipleSwapOrders(uint256[])": "96bad07c",
        "cancelOrder(uint256)": "514fcac7",
        "cancelSwapOrder(uint256)": "f882ac07",
        "ethUnwrapper()": "724cd1f3",
        "executeOrder(uint256,address)": "7e498c81",
        "executeSwapOrder(uint256,address)": "04358662",
        "getOrders(address,uint256,uint256)": "27b62ad9",
        "getSwapOrders(address,uint256,uint256)": "18073771",
        "initialize(address,address,uint256,address)": "be203094",
        "isExecutor(address)": "debfda30",
        "minPerpetualExecutionFee()": "21c5cb5c",
        "minSwapExecutionFee()": "a7b6442f",
        "nextOrderId()": "2a58b330",
        "nextSwapOrderId()": "c22259d0",
        "operator()": "570ca735",
        "oracle()": "7dc0d1d0",
        "orderHook()": "a554b2aa",
        "orderVersions(uint256)": "c02c2d6c",
        "orders(uint256)": "a85c38ef",
        "owner()": "8da5cb5b",
        "placeOrder(address,uint8,uint8,address,address,uint8,bytes,uint256)": "b3c3e157",
        "placeSwapOrder(address[],address,address,uint256,uint256,uint256,uint256)": "c7e7820d",
        "pools(address)": "a4063dbc",
        "referralRegistry()": "4e627e62",
        "removeExecutor(address)": "24788429",
        "removePool(address)": "3b7d0946",
        "renounceOwnership()": "715018a6",
        "requests(uint256)": "81d12c58",
        "setBaseLp(address)": "ff9fd0b6",
        "setMinExecutionFee(uint256,uint256)": "d6ffc331",
        "setOperator(address)": "b3ab15fb",
        "setOracle(address)": "7adbf973",
        "setOrderHook(address)": "2c8edd98",
        "setReferralRegistry(address)": "6a79115f",
        "swap(address[],address,address,uint256,uint256,uint256)": "aff4764b",
        "swap2Orders(uint256)": "85fdea3c",
        "transferOwnership(address)": "f2fde38b",
        "updateOrder(uint256,uint256,uint256,uint256,bool)": "33849763",
        "updateSwapOrder(uint256,uint256)": "5a1fcadd",
        "userOrders(address,uint256)": "856652e9",
        "userSwapOrders(address,uint256)": "9aa2aa59",
        "weth()": "3fc8cef3"
    },
    "id": 103
}