{
  "abi": [
    {
      "inputs": [],
      "stateMutability": "nonpayable",
      "type": "constructor"
    },
    {
      "inputs": [],
      "name": "BlockNotPass",
      "type": "error"
    },
    {
      "inputs": [],
      "name": "ETH_TRANSFER_FAILED",
      "type": "error"
    },
    {
      "inputs": [],
      "name": "InvalidETHUnwrapper",
      "type": "error"
    },
    {
      "inputs": [],
      "name": "InvalidExecutionFee",
      "type": "error"
    },
    {
      "inputs": [],
      "name": "InvalidMinPerpExecutionFee",
      "type": "error"
    },
    {
      "inputs": [],
      "name": "InvalidMinSwapExecutionFee",
      "type": "error"
    },
    {
      "inputs": [],
      "name": "InvalidPool",
      "type": "error"
    },
    {
      "inputs": [],
      "name": "InvalidTokens",
      "type": "error"
    },
    {
      "inputs": [],
      "name": "OnlyExecutor",
      "type": "error"
    },
    {
      "inputs": [],
      "name": "OnlyOperator",
      "type": "error"
    },
    {
      "inputs": [
        {
          "internalType": "address",
          "name": "owner",
          "type": "address"
        },
        {
          "internalType": "address",
          "name": "sender",
          "type": "address"
        }
      ],
      "name": "OnlyOrderOwner",
      "type": "error"
    },
    {
      "inputs": [
        {
          "internalType": "uint256",
          "name": "orderId",
          "type": "uint256"
        }
      ],
      "name": "OrderNotExists",
      "type": "error"
    },
    {
      "inputs": [],
      "name": "PoolAlreadyAdded",
      "type": "error"
    },
    {
      "inputs": [],
      "name": "PoolLenError",
      "type": "error"
    },
    {
      "inputs": [],
      "name": "PoolNotAdded",
      "type": "error"
    },
    {
      "inputs": [],
      "name": "SamePool",
      "type": "error"
    },
    {
      "inputs": [],
      "name": "SendETHRejected",
      "type": "error"
    },
    {
      "inputs": [
        {
          "internalType": "uint256",
          "name": "minAmountOut",
          "type": "uint256"
        },
        {
          "internalType": "uint256",
          "name": "amountOut",
          "type": "uint256"
        }
      ],
      "name": "SlippageExceeded",
      "type": "error"
    },
    {
      "inputs": [],
      "name": "UnauthorizedCancellation",
      "type": "error"
    },
    {
      "inputs": [],
      "name": "UpdateMarketOrder",
      "type": "error"
    },
    {
      "inputs": [
        {
          "internalType": "uint256",
          "name": "maxValue",
          "type": "uint256"
        }
      ],
      "name": "ValueTooHigh",
      "type": "error"
    },
    {
      "inputs": [],
      "name": "ZeroAddress",
      "type": "error"
    },
    {
      "inputs": [],
      "name": "ZeroAmount",
      "type": "error"
    },
    {
      "anonymous": false,
      "inputs": [
        {
          "indexed": false,
          "internalType": "address",
          "name": "",
          "type": "address"
        }
      ],
      "name": "BaseLpChanged",
      "type": "event"
    },
    {
      "anonymous": false,
      "inputs": [
        {
          "indexed": true,
          "internalType": "address",
          "name": "executor",
          "type": "address"
        }
      ],
      "name": "ExecutorSet",
      "type": "event"
    },
    {
      "anonymous": false,
      "inputs": [
        {
          "indexed": false,
          "internalType": "uint8",
          "name": "version",
          "type": "uint8"
        }
      ],
      "name": "Initialized",
      "type": "event"
    },
    {
      "anonymous": false,
      "inputs": [
        {
          "indexed": false,
          "internalType": "uint256",
          "name": "perpetualFee",
          "type": "uint256"
        }
      ],
      "name": "MinExecutionFeeSet",
      "type": "event"
    },
    {
      "anonymous": false,
      "inputs": [
        {
          "indexed": false,
          "internalType": "uint256",
          "name": "swapExecutionFee",
          "type": "uint256"
        }
      ],
      "name": "MinSwapExecutionFeeSet",
      "type": "event"
    },
    {
      "anonymous": false,
      "inputs": [
        {
          "indexed": true,
          "internalType": "address",
          "name": "operator",
          "type": "address"
        }
      ],
      "name": "OperatorSet",
      "type": "event"
    },
    {
      "anonymous": false,
      "inputs": [
        {
          "indexed": false,
          "internalType": "address",
          "name": "",
          "type": "address"
        }
      ],
      "name": "OracleChanged",
      "type": "event"
    },
    {
      "anonymous": false,
      "inputs": [
        {
          "indexed": true,
          "internalType": "uint256",
          "name": "key",
          "type": "uint256"
        }
      ],
      "name": "OrderCancelled",
      "type": "event"
    },
    {
      "anonymous": false,
      "inputs": [
        {
          "indexed": true,
          "internalType": "uint256",
          "name": "key",
          "type": "uint256"
        },
        {
          "components": [
            {
              "internalType": "contract IPool",
              "name": "pool",
              "type": "address"
            },
            {
              "internalType": "address",
              "name": "owner",
              "type": "address"
            },
            {
              "internalType": "address",
              "name": "indexToken",
              "type": "address"
            },
            {
              "internalType": "address",
              "name": "collateralToken",
              "type": "address"
            },
            {
              "internalType": "address",
              "name": "payToken",
              "type": "address"
            },
            {
              "internalType": "uint256",
              "name": "expiresAt",
              "type": "uint256"
            },
            {
              "internalType": "uint256",
              "name": "submissionBlock",
              "type": "uint256"
            },
            {
              "internalType": "uint256",
              "name": "price",
              "type": "uint256"
            },
            {
              "internalType": "uint256",
              "name": "executionFee",
              "type": "uint256"
            },
            {
              "internalType": "bool",
              "name": "triggerAboveThreshold",
              "type": "bool"
            },
            {
              "internalType": "address",
              "name": "crossPool",
              "type": "address"
            }
          ],
          "indexed": false,
          "internalType": "struct Order",
          "name": "order",
          "type": "tuple"
        },
        {
          "components": [
            {
              "internalType": "enum Side",
              "name": "side",
              "type": "uint8"
            },
            {
              "internalType": "uint256",
              "name": "sizeChange",
              "type": "uint256"
            },
            {
              "internalType": "uint256",
              "name": "collateral",
              "type": "uint256"
            },
            {
              "internalType": "enum UpdatePositionType",
              "name": "updateType",
              "type": "uint8"
            }
          ],
          "indexed": false,
          "internalType": "struct UpdatePositionRequest",
          "name": "request",
          "type": "tuple"
        },
        {
          "indexed": false,
          "internalType": "uint256",
          "name": "fillPrice",
          "type": "uint256"
        },
        {
          "indexed": false,
          "internalType": "uint256",
          "name": "amountOut",
          "type": "uint256"
        }
      ],
      "name": "OrderExecuted",
      "type": "event"
    },
    {
      "anonymous": false,
      "inputs": [
        {
          "indexed": true,
          "internalType": "uint256",
          "name": "key",
          "type": "uint256"
        }
      ],
      "name": "OrderExpired",
      "type": "event"
    },
    {
      "anonymous": false,
      "inputs": [
        {
          "indexed": true,
          "internalType": "address",
          "name": "hook",
          "type": "address"
        }
      ],
      "name": "OrderHookSet",
      "type": "event"
    },
    {
      "anonymous": false,
      "inputs": [
        {
          "indexed": true,
          "internalType": "uint256",
          "name": "key",
          "type": "uint256"
        },
        {
          "components": [
            {
              "internalType": "contract IPool",
              "name": "pool",
              "type": "address"
            },
            {
              "internalType": "address",
              "name": "owner",
              "type": "address"
            },
            {
              "internalType": "address",
              "name": "indexToken",
              "type": "address"
            },
            {
              "internalType": "address",
              "name": "collateralToken",
              "type": "address"
            },
            {
              "internalType": "address",
              "name": "payToken",
              "type": "address"
            },
            {
              "internalType": "uint256",
              "name": "expiresAt",
              "type": "uint256"
            },
            {
              "internalType": "uint256",
              "name": "submissionBlock",
              "type": "uint256"
            },
            {
              "internalType": "uint256",
              "name": "price",
              "type": "uint256"
            },
            {
              "internalType": "uint256",
              "name": "executionFee",
              "type": "uint256"
            },
            {
              "internalType": "bool",
              "name": "triggerAboveThreshold",
              "type": "bool"
            },
            {
              "internalType": "address",
              "name": "crossPool",
              "type": "address"
            }
          ],
          "indexed": false,
          "internalType": "struct Order",
          "name": "order",
          "type": "tuple"
        },
        {
          "components": [
            {
              "internalType": "enum Side",
              "name": "side",
              "type": "uint8"
            },
            {
              "internalType": "uint256",
              "name": "sizeChange",
              "type": "uint256"
            },
            {
              "internalType": "uint256",
              "name": "collateral",
              "type": "uint256"
            },
            {
              "internalType": "enum UpdatePositionType",
              "name": "updateType",
              "type": "uint8"
            }
          ],
          "indexed": false,
          "internalType": "struct UpdatePositionRequest",
          "name": "request",
          "type": "tuple"
        }
      ],
      "name": "OrderPlaced",
      "type": "event"
    },
    {
      "anonymous": false,
      "inputs": [
        {
          "indexed": true,
          "internalType": "uint256",
          "name": "key",
          "type": "uint256"
        },
        {
          "indexed": false,
          "internalType": "uint256",
          "name": "indexPrice",
          "type": "uint256"
        },
        {
          "indexed": false,
          "internalType": "uint256",
          "name": "orderPrice",
          "type": "uint256"
        },
        {
          "indexed": false,
          "internalType": "bool",
          "name": "triggerAboveThreshold",
          "type": "bool"
        }
      ],
      "name": "OrderPriceInvalid",
      "type": "event"
    },
    {
      "anonymous": false,
      "inputs": [
        {
          "indexed": true,
          "internalType": "uint256",
          "name": "key",
          "type": "uint256"
        },
        {
          "components": [
            {
              "internalType": "contract IPool",
              "name": "pool",
              "type": "address"
            },
            {
              "internalType": "address",
              "name": "owner",
              "type": "address"
            },
            {
              "internalType": "address",
              "name": "indexToken",
              "type": "address"
            },
            {
              "internalType": "address",
              "name": "collateralToken",
              "type": "address"
            },
            {
              "internalType": "address",
              "name": "payToken",
              "type": "address"
            },
            {
              "internalType": "uint256",
              "name": "expiresAt",
              "type": "uint256"
            },
            {
              "internalType": "uint256",
              "name": "submissionBlock",
              "type": "uint256"
            },
            {
              "internalType": "uint256",
              "name": "price",
              "type": "uint256"
            },
            {
              "internalType": "uint256",
              "name": "executionFee",
              "type": "uint256"
            },
            {
              "internalType": "bool",
              "name": "triggerAboveThreshold",
              "type": "bool"
            },
            {
              "internalType": "address",
              "name": "crossPool",
              "type": "address"
            }
          ],
          "indexed": false,
          "internalType": "struct Order",
          "name": "order",
          "type": "tuple"
        },
        {
          "components": [
            {
              "internalType": "enum Side",
              "name": "side",
              "type": "uint8"
            },
            {
              "internalType": "uint256",
              "name": "sizeChange",
              "type": "uint256"
            },
            {
              "internalType": "uint256",
              "name": "collateral",
              "type": "uint256"
            },
            {
              "internalType": "enum UpdatePositionType",
              "name": "updateType",
              "type": "uint8"
            }
          ],
          "indexed": false,
          "internalType": "struct UpdatePositionRequest",
          "name": "request",
          "type": "tuple"
        }
      ],
      "name": "OrderUpdated",
      "type": "event"
    },
    {
      "anonymous": false,
      "inputs": [
        {
          "indexed": true,
          "internalType": "address",
          "name": "previousOwner",
          "type": "address"
        },
        {
          "indexed": true,
          "internalType": "address",
          "name": "newOwner",
          "type": "address"
        }
      ],
      "name": "OwnershipTransferred",
      "type": "event"
    },
    {
      "anonymous": false,
      "inputs": [
        {
          "indexed": true,
          "internalType": "address",
          "name": "pool",
          "type": "address"
        }
      ],
      "name": "PoolAdd",
      "type": "event"
    },
    {
      "anonymous": false,
      "inputs": [
        {
          "indexed": true,
          "internalType": "address",
          "name": "pool",
          "type": "address"
        }
      ],
      "name": "PoolRemove",
      "type": "event"
    },
    {
      "anonymous": false,
      "inputs": [
        {
          "indexed": true,
          "internalType": "address",
          "name": "referralRegistry",
          "type": "address"
        }
      ],
      "name": "ReferralRegistrySet",
      "type": "event"
    },
    {
      "anonymous": false,
      "inputs": [
        {
          "indexed": true,
          "internalType": "address",
          "name": "account",
          "type": "address"
        },
        {
          "indexed": true,
          "internalType": "address",
          "name": "tokenIn",
          "type": "address"
        },
        {
          "indexed": true,
          "internalType": "address",
          "name": "tokenOut",
          "type": "address"
        },
        {
          "indexed": false,
          "internalType": "address",
          "name": "pool0",
          "type": "address"
        },
        {
          "indexed": false,
          "internalType": "address",
          "name": "pool1",
          "type": "address"
        },
        {
          "indexed": false,
          "internalType": "uint256",
          "name": "amountIn",
          "type": "uint256"
        },
        {
          "indexed": false,
          "internalType": "uint256",
          "name": "amountOut",
          "type": "uint256"
        }
      ],
      "name": "Swap2",
      "type": "event"
    },
    {
      "anonymous": false,
      "inputs": [
        {
          "indexed": true,
          "internalType": "uint256",
          "name": "key",
          "type": "uint256"
        }
      ],
      "name": "SwapOrderCancelled",
      "type": "event"
    },
    {
      "anonymous": false,
      "inputs": [
        {
          "indexed": true,
          "internalType": "uint256",
          "name": "key",
          "type": "uint256"
        },
        {
          "indexed": false,
          "internalType": "uint256",
          "name": "amountIn",
          "type": "uint256"
        },
        {
          "indexed": false,
          "internalType": "uint256",
          "name": "amountOut",
          "type": "uint256"
        }
      ],
      "name": "SwapOrderExecuted",
      "type": "event"
    },
    {
      "anonymous": false,
      "inputs": [
        {
          "indexed": true,
          "internalType": "uint256",
          "name": "key",
          "type": "uint256"
        }
      ],
      "name": "SwapOrderPlaced",
      "type": "event"
    },
    {
      "anonymous": false,
      "inputs": [
        {
          "indexed": true,
          "internalType": "uint256",
          "name": "key",
          "type": "uint256"
        }
      ],
      "name": "SwapOrderUpdated",
      "type": "event"
    },
    {
      "inputs": [],
      "name": "ORDER_VERSION",
      "outputs": [
        {
          "internalType": "uint256",
          "name": "",
          "type": "uint256"
        }
      ],
      "stateMutability": "view",
      "type": "function"
    },
    {
      "inputs": [],
      "name": "VERSION",
      "outputs": [
        {
          "internalType": "uint8",
          "name": "",
          "type": "uint8"
        }
      ],
      "stateMutability": "view",
      "type": "function"
    },
    {
      "inputs": [
        {
          "internalType": "address",
          "name": "_pool",
          "type": "address"
        }
      ],
      "name": "addPool",
      "outputs": [],
      "stateMutability": "nonpayable",
      "type": "function"
    },
    {
      "inputs": [],
      "name": "baseLp",
      "outputs": [
        {
          "internalType": "address",
          "name": "",
          "type": "address"
        }
      ],
      "stateMutability": "view",
      "type": "function"
    },
    {
      "inputs": [
        {
          "internalType": "uint256[]",
          "name": "_orderIds",
          "type": "uint256[]"
        }
      ],
      "name": "cancelMultipleOrders",
      "outputs": [],
      "stateMutability": "nonpayable",
      "type": "function"
    },
    {
      "inputs": [
        {
          "internalType": "uint256[]",
          "name": "_orderIds",
          "type": "uint256[]"
        }
      ],
      "name": "cancelMultipleSwapOrders",
      "outputs": [],
      "stateMutability": "nonpayable",
      "type": "function"
    },
    {
      "inputs": [
        {
          "internalType": "uint256",
          "name": "_orderId",
          "type": "uint256"
        }
      ],
      "name": "cancelOrder",
      "outputs": [],
      "stateMutability": "nonpayable",
      "type": "function"
    },
    {
      "inputs": [
        {
          "internalType": "uint256",
          "name": "_orderId",
          "type": "uint256"
        }
      ],
      "name": "cancelSwapOrder",
      "outputs": [],
      "stateMutability": "nonpayable",
      "type": "function"
    },
    {
      "inputs": [],
      "name": "ethUnwrapper",
      "outputs": [
        {
          "internalType": "contract IETHUnwrapper",
          "name": "",
          "type": "address"
        }
      ],
      "stateMutability": "view",
      "type": "function"
    },
    {
      "inputs": [
        {
          "internalType": "uint256",
          "name": "_orderId",
          "type": "uint256"
        },
        {
          "internalType": "address payable",
          "name": "_feeTo",
          "type": "address"
        }
      ],
      "name": "executeOrder",
      "outputs": [],
      "stateMutability": "nonpayable",
      "type": "function"
    },
    {
      "inputs": [
        {
          "internalType": "uint256",
          "name": "_orderId",
          "type": "uint256"
        },
        {
          "internalType": "address payable",
          "name": "_feeTo",
          "type": "address"
        }
      ],
      "name": "executeSwapOrder",
      "outputs": [],
      "stateMutability": "nonpayable",
      "type": "function"
    },
    {
      "inputs": [],
      "name": "executor",
      "outputs": [
        {
          "internalType": "address",
          "name": "",
          "type": "address"
        }
      ],
      "stateMutability": "view",
      "type": "function"
    },
    {
      "inputs": [
        {
          "internalType": "uint256",
          "name": "id",
          "type": "uint256"
        }
      ],
      "name": "getOrder",
      "outputs": [
        {
          "components": [
            {
              "internalType": "contract IPool",
              "name": "pool",
              "type": "address"
            },
            {
              "internalType": "address",
              "name": "owner",
              "type": "address"
            },
            {
              "internalType": "address",
              "name": "indexToken",
              "type": "address"
            },
            {
              "internalType": "address",
              "name": "collateralToken",
              "type": "address"
            },
            {
              "internalType": "address",
              "name": "payToken",
              "type": "address"
            },
            {
              "internalType": "uint256",
              "name": "expiresAt",
              "type": "uint256"
            },
            {
              "internalType": "uint256",
              "name": "submissionBlock",
              "type": "uint256"
            },
            {
              "internalType": "uint256",
              "name": "price",
              "type": "uint256"
            },
            {
              "internalType": "uint256",
              "name": "executionFee",
              "type": "uint256"
            },
            {
              "internalType": "bool",
              "name": "triggerAboveThreshold",
              "type": "bool"
            },
            {
              "internalType": "address",
              "name": "crossPool",
              "type": "address"
            }
          ],
          "internalType": "struct Order",
          "name": "order",
          "type": "tuple"
        }
      ],
      "stateMutability": "view",
      "type": "function"
    },
    {
      "inputs": [
        {
          "internalType": "address",
          "name": "user",
          "type": "address"
        },
        {
          "internalType": "uint256",
          "name": "skip",
          "type": "uint256"
        },
        {
          "internalType": "uint256",
          "name": "take",
          "type": "uint256"
        }
      ],
      "name": "getOrders",
      "outputs": [
        {
          "internalType": "uint256[]",
          "name": "orderIds",
          "type": "uint256[]"
        },
        {
          "internalType": "uint256",
          "name": "total",
          "type": "uint256"
        }
      ],
      "stateMutability": "view",
      "type": "function"
    },
    {
      "inputs": [
        {
          "internalType": "address",
          "name": "user",
          "type": "address"
        },
        {
          "internalType": "uint256",
          "name": "skip",
          "type": "uint256"
        },
        {
          "internalType": "uint256",
          "name": "take",
          "type": "uint256"
        }
      ],
      "name": "getSwapOrders",
      "outputs": [
        {
          "internalType": "uint256[]",
          "name": "orderIds",
          "type": "uint256[]"
        },
        {
          "internalType": "uint256",
          "name": "total",
          "type": "uint256"
        }
      ],
      "stateMutability": "view",
      "type": "function"
    },
    {
      "inputs": [
        {
          "internalType": "address",
          "name": "_weth",
          "type": "address"
        },
        {
          "internalType": "address",
          "name": "_oracle",
          "type": "address"
        },
        {
          "internalType": "uint256",
          "name": "_minExecutionFee",
          "type": "uint256"
        },
        {
          "internalType": "address",
          "name": "_ethUnwrapper",
          "type": "address"
        }
      ],
      "name": "initialize",
      "outputs": [],
      "stateMutability": "nonpayable",
      "type": "function"
    },
    {
      "inputs": [],
      "name": "minPerpetualExecutionFee",
      "outputs": [
        {
          "internalType": "uint256",
          "name": "",
          "type": "uint256"
        }
      ],
      "stateMutability": "view",
      "type": "function"
    },
    {
      "inputs": [],
      "name": "minSwapExecutionFee",
      "outputs": [
        {
          "internalType": "uint256",
          "name": "",
          "type": "uint256"
        }
      ],
      "stateMutability": "view",
      "type": "function"
    },
    {
      "inputs": [],
      "name": "nextOrderId",
      "outputs": [
        {
          "internalType": "uint256",
          "name": "",
          "type": "uint256"
        }
      ],
      "stateMutability": "view",
      "type": "function"
    },
    {
      "inputs": [],
      "name": "nextSwapOrderId",
      "outputs": [
        {
          "internalType": "uint256",
          "name": "",
          "type": "uint256"
        }
      ],
      "stateMutability": "view",
      "type": "function"
    },
    {
      "inputs": [],
      "name": "operator",
      "outputs": [
        {
          "internalType": "address",
          "name": "",
          "type": "address"
        }
      ],
      "stateMutability": "view",
      "type": "function"
    },
    {
      "inputs": [],
      "name": "oracle",
      "outputs": [
        {
          "internalType": "contract ILevelOracle",
          "name": "",
          "type": "address"
        }
      ],
      "stateMutability": "view",
      "type": "function"
    },
    {
      "inputs": [],
      "name": "orderHook",
      "outputs": [
        {
          "internalType": "contract IOrderHook",
          "name": "",
          "type": "address"
        }
      ],
      "stateMutability": "view",
      "type": "function"
    },
    {
      "inputs": [
        {
          "internalType": "uint256",
          "name": "",
          "type": "uint256"
        }
      ],
      "name": "orderVersions",
      "outputs": [
        {
          "internalType": "uint256",
          "name": "",
          "type": "uint256"
        }
      ],
      "stateMutability": "view",
      "type": "function"
    },
    {
      "inputs": [
        {
          "internalType": "uint256",
          "name": "",
          "type": "uint256"
        }
      ],
      "name": "orders",
      "outputs": [
        {
          "internalType": "contract IPool",
          "name": "pool",
          "type": "address"
        },
        {
          "internalType": "address",
          "name": "owner",
          "type": "address"
        },
        {
          "internalType": "address",
          "name": "indexToken",
          "type": "address"
        },
        {
          "internalType": "address",
          "name": "collateralToken",
          "type": "address"
        },
        {
          "internalType": "address",
          "name": "payToken",
          "type": "address"
        },
        {
          "internalType": "uint256",
          "name": "expiresAt",
          "type": "uint256"
        },
        {
          "internalType": "uint256",
          "name": "submissionBlock",
          "type": "uint256"
        },
        {
          "internalType": "uint256",
          "name": "price",
          "type": "uint256"
        },
        {
          "internalType": "uint256",
          "name": "executionFee",
          "type": "uint256"
        },
        {
          "internalType": "bool",
          "name": "triggerAboveThreshold",
          "type": "bool"
        },
        {
          "internalType": "address",
          "name": "crossPool",
          "type": "address"
        }
      ],
      "stateMutability": "view",
      "type": "function"
    },
    {
      "inputs": [],
      "name": "owner",
      "outputs": [
        {
          "internalType": "address",
          "name": "",
          "type": "address"
        }
      ],
      "stateMutability": "view",
      "type": "function"
    },
    {
      "inputs": [
        {
          "internalType": "address",
          "name": "_pool",
          "type": "address"
        },
        {
          "internalType": "enum UpdatePositionType",
          "name": "_updateType",
          "type": "uint8"
        },
        {
          "internalType": "enum Side",
          "name": "_side",
          "type": "uint8"
        },
        {
          "internalType": "address",
          "name": "_indexToken",
          "type": "address"
        },
        {
          "internalType": "address",
          "name": "_collateralToken",
          "type": "address"
        },
        {
          "internalType": "enum OrderType",
          "name": "_orderType",
          "type": "uint8"
        },
        {
          "internalType": "bytes",
          "name": "data",
          "type": "bytes"
        },
        {
          "internalType": "uint256",
          "name": "_referralId",
          "type": "uint256"
        }
      ],
      "name": "placeOrder",
      "outputs": [],
      "stateMutability": "payable",
      "type": "function"
    },
    {
      "inputs": [
        {
          "internalType": "address",
          "name": "_crossPool",
          "type": "address"
        },
        {
          "internalType": "address",
          "name": "_pool",
          "type": "address"
        },
        {
          "internalType": "enum UpdatePositionType",
          "name": "_updateType",
          "type": "uint8"
        },
        {
          "internalType": "enum Side",
          "name": "_side",
          "type": "uint8"
        },
        {
          "internalType": "address",
          "name": "_indexToken",
          "type": "address"
        },
        {
          "internalType": "address",
          "name": "_collateralToken",
          "type": "address"
        },
        {
          "internalType": "enum OrderType",
          "name": "_orderType",
          "type": "uint8"
        },
        {
          "internalType": "bytes",
          "name": "data",
          "type": "bytes"
        },
        {
          "internalType": "uint256",
          "name": "_referralId",
          "type": "uint256"
        }
      ],
      "name": "placeOrder",
      "outputs": [],
      "stateMutability": "payable",
      "type": "function"
    },
    {
      "inputs": [
        {
          "internalType": "address[]",
          "name": "_pools",
          "type": "address[]"
        },
        {
          "internalType": "address",
          "name": "_fromToken",
          "type": "address"
        },
        {
          "internalType": "address",
          "name": "_toToken",
          "type": "address"
        },
        {
          "internalType": "uint256",
          "name": "_amountIn",
          "type": "uint256"
        },
        {
          "internalType": "uint256",
          "name": "_minAmountOut",
          "type": "uint256"
        },
        {
          "internalType": "uint256",
          "name": "_price",
          "type": "uint256"
        },
        {
          "internalType": "uint256",
          "name": "_referralId",
          "type": "uint256"
        }
      ],
      "name": "placeSwapOrder",
      "outputs": [],
      "stateMutability": "payable",
      "type": "function"
    },
    {
      "inputs": [
        {
          "internalType": "address",
          "name": "",
          "type": "address"
        }
      ],
      "name": "pools",
      "outputs": [
        {
          "internalType": "bool",
          "name": "",
          "type": "bool"
        }
      ],
      "stateMutability": "view",
      "type": "function"
    },
    {
      "inputs": [],
      "name": "referralRegistry",
      "outputs": [
        {
          "internalType": "address",
          "name": "",
          "type": "address"
        }
      ],
      "stateMutability": "view",
      "type": "function"
    },
    {
      "inputs": [
        {
          "internalType": "address",
          "name": "_pool",
          "type": "address"
        }
      ],
      "name": "removePool",
      "outputs": [],
      "stateMutability": "nonpayable",
      "type": "function"
    },
    {
      "inputs": [],
      "name": "renounceOwnership",
      "outputs": [],
      "stateMutability": "nonpayable",
      "type": "function"
    },
    {
      "inputs": [
        {
          "internalType": "uint256",
          "name": "",
          "type": "uint256"
        }
      ],
      "name": "requests",
      "outputs": [
        {
          "internalType": "enum Side",
          "name": "side",
          "type": "uint8"
        },
        {
          "internalType": "uint256",
          "name": "sizeChange",
          "type": "uint256"
        },
        {
          "internalType": "uint256",
          "name": "collateral",
          "type": "uint256"
        },
        {
          "internalType": "enum UpdatePositionType",
          "name": "updateType",
          "type": "uint8"
        }
      ],
      "stateMutability": "view",
      "type": "function"
    },
    {
      "inputs": [
        {
          "internalType": "address",
          "name": "_baseLp",
          "type": "address"
        }
      ],
      "name": "setBaseLp",
      "outputs": [],
      "stateMutability": "nonpayable",
      "type": "function"
    },
    {
      "inputs": [
        {
          "internalType": "address",
          "name": "_executor",
          "type": "address"
        }
      ],
      "name": "setExecutor",
      "outputs": [],
      "stateMutability": "nonpayable",
      "type": "function"
    },
    {
      "inputs": [
        {
          "internalType": "uint256",
          "name": "_perpExecutionFee",
          "type": "uint256"
        },
        {
          "internalType": "uint256",
          "name": "_swapExecutionFee",
          "type": "uint256"
        }
      ],
      "name": "setMinExecutionFee",
      "outputs": [],
      "stateMutability": "nonpayable",
      "type": "function"
    },
    {
      "inputs": [
        {
          "internalType": "address",
          "name": "_operator",
          "type": "address"
        }
      ],
      "name": "setOperator",
      "outputs": [],
      "stateMutability": "nonpayable",
      "type": "function"
    },
    {
      "inputs": [
        {
          "internalType": "address",
          "name": "_oracle",
          "type": "address"
        }
      ],
      "name": "setOracle",
      "outputs": [],
      "stateMutability": "nonpayable",
      "type": "function"
    },
    {
      "inputs": [
        {
          "internalType": "address",
          "name": "_hook",
          "type": "address"
        }
      ],
      "name": "setOrderHook",
      "outputs": [],
      "stateMutability": "nonpayable",
      "type": "function"
    },
    {
      "inputs": [
        {
          "internalType": "address",
          "name": "_referralRegistry",
          "type": "address"
        }
      ],
      "name": "setReferralRegistry",
      "outputs": [],
      "stateMutability": "nonpayable",
      "type": "function"
    },
    {
      "inputs": [
        {
          "internalType": "address[]",
          "name": "_pools",
          "type": "address[]"
        },
        {
          "internalType": "address",
          "name": "_fromToken",
          "type": "address"
        },
        {
          "internalType": "address",
          "name": "_toToken",
          "type": "address"
        },
        {
          "internalType": "uint256",
          "name": "_amountIn",
          "type": "uint256"
        },
        {
          "internalType": "uint256",
          "name": "_minAmountOut",
          "type": "uint256"
        },
        {
          "internalType": "uint256",
          "name": "_referralId",
          "type": "uint256"
        }
      ],
      "name": "swap",
      "outputs": [
        {
          "internalType": "uint256",
          "name": "amountOut",
          "type": "uint256"
        }
      ],
      "stateMutability": "payable",
      "type": "function"
    },
    {
      "inputs": [
        {
          "internalType": "uint256",
          "name": "",
          "type": "uint256"
        }
      ],
      "name": "swap2Orders",
      "outputs": [
        {
          "internalType": "address",
          "name": "pool0",
          "type": "address"
        },
        {
          "internalType": "address",
          "name": "pool1",
          "type": "address"
        },
        {
          "internalType": "address",
          "name": "owner",
          "type": "address"
        },
        {
          "internalType": "address",
          "name": "tokenIn",
          "type": "address"
        },
        {
          "internalType": "address",
          "name": "tokenOut",
          "type": "address"
        },
        {
          "internalType": "uint256",
          "name": "amountIn",
          "type": "uint256"
        },
        {
          "internalType": "uint256",
          "name": "minAmountOut",
          "type": "uint256"
        },
        {
          "internalType": "uint256",
          "name": "price",
          "type": "uint256"
        },
        {
          "internalType": "uint256",
          "name": "executionFee",
          "type": "uint256"
        }
      ],
      "stateMutability": "view",
      "type": "function"
    },
    {
      "inputs": [
        {
          "internalType": "address",
          "name": "newOwner",
          "type": "address"
        }
      ],
      "name": "transferOwnership",
      "outputs": [],
      "stateMutability": "nonpayable",
      "type": "function"
    },
    {
      "inputs": [
        {
          "internalType": "uint256",
          "name": "_orderId",
          "type": "uint256"
        },
        {
          "internalType": "uint256",
          "name": "_sizeChange",
          "type": "uint256"
        },
        {
          "internalType": "uint256",
          "name": "_price",
          "type": "uint256"
        },
        {
          "internalType": "uint256",
          "name": "_collateral",
          "type": "uint256"
        },
        {
          "internalType": "bool",
          "name": "_triggerAboveThreshold",
          "type": "bool"
        }
      ],
      "name": "updateOrder",
      "outputs": [],
      "stateMutability": "nonpayable",
      "type": "function"
    },
    {
      "inputs": [
        {
          "internalType": "uint256",
          "name": "_orderId",
          "type": "uint256"
        },
        {
          "internalType": "uint256",
          "name": "_price",
          "type": "uint256"
        }
      ],
      "name": "updateSwapOrder",
      "outputs": [],
      "stateMutability": "nonpayable",
      "type": "function"
    },
    {
      "inputs": [
        {
          "internalType": "address",
          "name": "",
          "type": "address"
        },
        {
          "internalType": "uint256",
          "name": "",
          "type": "uint256"
        }
      ],
      "name": "userOrders",
      "outputs": [
        {
          "internalType": "uint256",
          "name": "",
          "type": "uint256"
        }
      ],
      "stateMutability": "view",
      "type": "function"
    },
    {
      "inputs": [
        {
          "internalType": "address",
          "name": "",
          "type": "address"
        },
        {
          "internalType": "uint256",
          "name": "",
          "type": "uint256"
        }
      ],
      "name": "userSwapOrders",
      "outputs": [
        {
          "internalType": "uint256",
          "name": "",
          "type": "uint256"
        }
      ],
      "stateMutability": "view",
      "type": "function"
    },
    {
      "inputs": [],
      "name": "weth",
      "outputs": [
        {
          "internalType": "contract IWETH",
          "name": "",
          "type": "address"
        }
      ],
      "stateMutability": "view",
      "type": "function"
    },
    {
      "stateMutability": "payable",
      "type": "receive"
    }
  ],
  "bytecode": {
    "object": "0x60806040523480156200001157600080fd5b506200001c62000022565b620000e4565b600054610100900460ff16156200008f5760405162461bcd60e51b815260206004820152602760248201527f496e697469616c697a61626c653a20636f6e747261637420697320696e697469604482015266616c697a696e6760c81b606482015260840160405180910390fd5b60005460ff9081161015620000e2576000805460ff191660ff9081179091556040519081527f7f26b83ff96e1f2b6a682f133852f6798a09c465da95921460cefb38474024989060200160405180910390a15b565b61590180620000f46000396000f3fe6080604052600436106102325760003560e01c8063043586621461026957806318073771146102895780631c3c0ea8146102c057806321c5cb5c146102e057806327b62ad9146103045780632a58b330146103245780632c8edd981461033a578063338497631461035a5780633b7d09461461037a5780633fc8cef31461039a5780634380dd3b146103c75780634e627e62146103e7578063514fcac714610407578063570ca735146104275780635a1fcadd146104475780636a79115f146104675780636d5d007014610487578063715018a61461049c578063724cd1f3146104b15780637adbf973146104d15780637dc0d1d0146104f15780637e498c811461051157806381d12c5814610531578063856652e91461058857806385fdea3c146105a85780638da5cb5b1461067b57806396bad07c1461069057806398011ac8146106b05780639aa2aa59146106d0578063a4063dbc146106f0578063a554b2aa14610730578063a7b6442f14610750578063a85c38ef14610766578063aff4764b14610854578063b3ab15fb14610867578063b3c3e15714610887578063be2030941461089a578063c02c2d6c146108ba578063c22259d0146108e7578063c34c08e5146108fd578063c7e7820d1461091d578063d09ef24114610930578063d6ffc3311461095d578063d914cd4b1461097d578063f02a9dff1461099d578063f2fde38b146109b0578063f882ac07146109d0578063ff9fd0b6146109f0578063ffa1ad7414610a1057600080fd5b36610264576097546001600160a01b0316331461026257604051635202ca4f60e11b815260040160405180910390fd5b005b600080fd5b34801561027557600080fd5b50610262610284366004614b70565b610a37565b34801561029557600080fd5b506102a96102a4366004614ba0565b610cb8565b6040516102b7929190614bd5565b60405180910390f35b3480156102cc57600080fd5b506102626102db366004614c1d565b610dd3565b3480156102ec57600080fd5b506102f6609e5481565b6040519081526020016102b7565b34801561031057600080fd5b506102a961031f366004614ba0565b610e4c565b34801561033057600080fd5b506102f660985481565b34801561034657600080fd5b50610262610355366004614c1d565b610f5c565b34801561036657600080fd5b50610262610375366004614c48565b610fae565b34801561038657600080fd5b50610262610395366004614c1d565b6110e9565b3480156103a657600080fd5b506097546103ba906001600160a01b031681565b6040516102b79190614ca2565b3480156103d357600080fd5b5060a5546103ba906001600160a01b031681565b3480156103f357600080fd5b5060a7546103ba906001600160a01b031681565b34801561041357600080fd5b50610262610422366004614cb6565b61119a565b34801561043357600080fd5b5060a9546103ba906001600160a01b031681565b34801561045357600080fd5b50610262610462366004614ccf565b611469565b34801561047357600080fd5b50610262610482366004614c1d565b6114fa565b34801561049357600080fd5b506102f6600281565b3480156104a857600080fd5b50610262611573565b3480156104bd57600080fd5b5060a2546103ba906001600160a01b031681565b3480156104dd57600080fd5b506102626104ec366004614c1d565b611587565b3480156104fd57600080fd5b50609d546103ba906001600160a01b031681565b34801561051d57600080fd5b5061026261052c366004614b70565b61160c565b34801561053d57600080fd5b5061057861054c366004614cb6565b609a60205260009081526040902080546001820154600283015460039093015460ff9283169391921684565b6040516102b79493929190614d25565b34801561059457600080fd5b506102f66105a3366004614d59565b611994565b3480156105b457600080fd5b506106206105c3366004614cb6565b60a6602052600090815260409020805460018201546002830154600384015460048501546005860154600687015460078801546008909801546001600160a01b039788169896881697958616969486169590931693919290919089565b604080516001600160a01b039a8b168152988a1660208a015296891696880196909652938716606087015295909116608085015260a084015260c083019390935260e0820192909252610100810191909152610120016102b7565b34801561068757600080fd5b506103ba6119c5565b34801561069c57600080fd5b506102626106ab366004614dd0565b6119d4565b3480156106bc57600080fd5b506102626106cb366004614dd0565b611a0d565b3480156106dc57600080fd5b506102f66106eb366004614d59565b611a41565b3480156106fc57600080fd5b5061072061070b366004614c1d565b609c6020526000908152604090205460ff1681565b60405190151581526020016102b7565b34801561073c57600080fd5b50609f546103ba906001600160a01b031681565b34801561075c57600080fd5b506102f660a45481565b34801561077257600080fd5b506107ef610781366004614cb6565b60996020526000908152604090208054600182015460028301546003840154600485015460058601546006870154600788015460088901546009909901546001600160a01b03988916999789169896871697958716969485169593949293919260ff8216916101009004168b565b604080516001600160a01b039c8d1681529a8c1660208c0152988b16988a01989098529589166060890152938816608088015260a087019290925260c086015260e08501526101008401521515610120830152909116610140820152610160016102b7565b6102f6610862366004614e11565b611a5d565b34801561087357600080fd5b50610262610882366004614c1d565b611df0565b610262610895366004614ee1565b611e69565b3480156108a657600080fd5b506102626108b5366004614f9c565b611e87565b3480156108c657600080fd5b506102f66108d5366004614cb6565b60a36020526000908152604090205481565b3480156108f357600080fd5b506102f6609b5481565b34801561090957600080fd5b5060a8546103ba906001600160a01b031681565b61026261092b366004614fef565b612097565b34801561093c57600080fd5b5061095061094b366004614cb6565b612702565b6040516102b79190615123565b34801561096957600080fd5b50610262610978366004614ccf565b6127b3565b34801561098957600080fd5b50610262610998366004614c1d565b612806565b6102626109ab366004615132565b6128bf565b3480156109bc57600080fd5b506102626109cb366004614c1d565b612a58565b3480156109dc57600080fd5b506102626109eb366004614cb6565b612ace565b3480156109fc57600080fd5b50610262610a0b366004614c1d565b612c53565b348015610a1c57600080fd5b50610a25600481565b60405160ff90911681526020016102b7565b610a3f612ccd565b60a8546001600160a01b03163314610a6a57604051633fdb5f0160e11b815260040160405180910390fd5b600082815260a6602090815260409182902082516101208101845281546001600160a01b03908116825260018301548116938201939093526002820154831693810184905260038201548316606082015260048201549092166080830152600581015460a0830152600681015460c0830152600781015460e08301526008015461010082015290610b1657604051636f23541360e01b8152600481018490526024015b60405180910390fd5b600083815260a66020526040812080546001600160a01b0319908116825560018201805482169055600282018054821690556003820180548216905560048201805490911690556005810182905560068101829055600781018290556008018190556080820151819081906001600160a01b03166000805160206158ac83398151915214610bad5783608001518460400151610bbb565b6097546001600160a01b0316305b91509150610be7846000015185602001518660600151858860a001518960c00151878b60400151612d26565b92506000805160206158ac8339815191526001600160a01b031684608001516001600160a01b031603610c2257610c228385604001516132d5565b610c318585610100015161335c565b8360c00151831015610c665760c08401516040516371c4efed60e01b8152600481019190915260248101849052604401610b0d565b60a0840151604080519182526020820185905287917fc9c036aac6fc38781303eacbf1baa18522aa34d7b5f54057c18ac0e92c207baa910160405180910390a250505050610cb46001606555565b5050565b6001600160a01b038316600090815260a16020526040812054606091610cde848661521b565b9050818111610ced5780610cef565b815b90506000858211610d01576000610d0b565b610d0b868361522e565b9050806001600160401b03811115610d2557610d25615241565b604051908082528060200260200182016040528015610d4e578160200160208202803683370190505b509350855b610d5d828861521b565b811015610dc8576001600160a01b038816600090815260a160205260409020805482908110610d8e57610d8e615257565b9060005260206000200154858281518110610dab57610dab615257565b602090810291909101015280610dc08161526d565b915050610d53565b505050935093915050565b610ddb6133f1565b6001600160a01b038116610e025760405163d92e233d60e01b815260040160405180910390fd5b60a880546001600160a01b0319166001600160a01b0383169081179091556040517f3e3c5e6d5b512eaa5d5a80669846cfbaf8bde70fc6f7a3be9828cffc9ba5f1db90600090a250565b6001600160a01b038316600090815260a06020526040812054606091610e72848661521b565b9050818111610e815780610e83565b815b90506000858211610e95576000610e9f565b610e9f868361522e565b9050806001600160401b03811115610eb957610eb9615241565b604051908082528060200260200182016040528015610ee2578160200160208202803683370190505b509350855b610ef1828861521b565b811015610dc8576001600160a01b038816600090815260a060205260409020805482908110610f2257610f22615257565b9060005260206000200154858281518110610f3f57610f3f615257565b602090810291909101015280610f548161526d565b915050610ee7565b610f646133f1565b609f80546001600160a01b0319166001600160a01b0383169081179091556040517fdbbdb743aaca9e6eaa0c498fdd790895aabd4d967640f0d2786793653fd998b390600090a250565b610fb6612ccd565b600085815260996020526040902060018101546001600160a01b03163314611002576001810154604051634d9b738f60e11b8152610b0d916001600160a01b0316903390600401615286565b80600601544311611026576040516346097e1760e11b815260040160405180910390fd5b60058101541561104957604051630fb3dc3560e41b815260040160405180910390fd5b6000868152609a60205260409020600782018590556001808201879055600382015460ff16600181111561107f5761107f614cf1565b0361109c576002810184905560098201805460ff19168415151790555b867f439d5cc6c194c0872dbd1e2f99bbfddf01c571d52575e047fcb2a6f01994303383836040516110ce9291906152ec565b60405180910390a250506110e26001606555565b5050505050565b6110f16133f1565b6001600160a01b0381166111185760405163d92e233d60e01b815260040160405180910390fd5b6001600160a01b0381166000908152609c602052604090205460ff1661115157604051631f59bbed60e11b815260040160405180910390fd5b6001600160a01b0381166000818152609c6020526040808220805460ff19169055517f9f762579799fd9e2e3c8c446c551b7895e70a2a14f2c49e6209d35b75e9776ee9190a250565b6111a2612ccd565b60008181526099602090815260409182902082516101608101845281546001600160a01b039081168252600183015481169382018490526002830154811694820194909452600382015484166060820152600482015484166080820152600582015460a0820152600682015460c0820152600782015460e082015260088201546101008083019190915260099092015460ff811615156101208301529190910490921661014083015261126b57604051636f23541360e01b815260048101839052602401610b0d565b60208101516001600160a01b03163314801590611293575060a8546001600160a01b03163314155b156112b1576040516371efdd2360e11b815260040160405180910390fd5b6000828152609a60205260408082208151608081019092528054829060ff1660018111156112e1576112e1614cf1565b60018111156112f2576112f2614cf1565b8152600182810154602083015260028301546040830152600383015460609092019160ff169081111561132757611327614cf1565b600181111561133857611338614cf1565b905250600084815260996020908152604080832080546001600160a01b0319908116825560018083018054831690556002808401805484169055600380850180548516905560048501805490941690935560058401879055600684018790556007840187905560088401879055600990930180546001600160a81b0319169055609a8552928520805460ff1990811682559381018690559182019490945590920180549092169091558301516101008401519192506113f69161335c565b60008160600151600181111561140e5761140e614cf1565b0361142f5760808201516040820151602084015161142d918391613450565b505b60405183907f61b9399f2f0f32ca39ce8d7be32caed5ec22fe07a6daba3a467ed479ec60658290600090a250506114666001606555565b50565b611471612ccd565b600082815260a66020526040902060028101546001600160a01b031633146114bd576002810154604051634d9b738f60e11b8152610b0d916001600160a01b0316903390600401615286565b6007810182905560405183907f97e9bd601424e4172c66ef396c987c392d3decde1776e41f80b95985551b2d8a90600090a250610cb46001606555565b6115026133f1565b6001600160a01b0381166115295760405163d92e233d60e01b815260040160405180910390fd5b60a780546001600160a01b0319166001600160a01b0383169081179091556040517fcf7381fd801bfc0e3e6a57a711e8165131a80c69051919ee96c9896cd87c0c1190600090a250565b61157b6133f1565b61158560006134a5565b565b61158f6133f1565b6001600160a01b0381166115b65760405163d92e233d60e01b815260040160405180910390fd5b609d80546001600160a01b0319166001600160a01b0383161790556040517f0e05ae75e8b926552cf6fcd744d19f422561e3ced1e426868730852702dbe41890611601908390614ca2565b60405180910390a150565b611614612ccd565b60a8546001600160a01b0316331461163f57604051633fdb5f0160e11b815260040160405180910390fd5b60008281526099602090815260409182902082516101608101845281546001600160a01b039081168252600183015481169382018490526002830154811694820194909452600382015484166060820152600482015484166080820152600582015460a0820152600682015460c0820152600782015460e082015260088201546101008083019190915260099092015460ff811615156101208301529190910490921661014083015261170857604051636f23541360e01b815260048101849052602401610b0d565b8060c00151431161172c576040516346097e1760e11b815260040160405180910390fd5b8051611737906134f7565b60a08101511580159061174d5750428160a00151105b156117625761175c838261352f565b5061198a565b6000838152609a60205260408082208151608081019092528054829060ff16600181111561179257611792614cf1565b60018111156117a3576117a3614cf1565b8152600182810154602083015260028301546040830152600383015460609092019160ff16908111156117d8576117d8614cf1565b60018111156117e9576117e9614cf1565b905250905060006117fa83836136d7565b90506000836101200151611815578360e0015182111561181e565b8360e001518210155b90508061187e5760e08401516101208501516040805185815260208101939093529015159082015286907f0211f17978294992dc082b8ae8e999b062b4e5a788b3dfd4b268c02c9e1072d89060600160405180910390a25050505061198a565b600061188b878686613794565b600088815260996020908152604080832080546001600160a01b0319908116825560018083018054831690556002808401805484169055600380850180548516905560048501805490941690935560058401879055600684018790556007840187905560088401879055600990930180546001600160a81b0319169055609a909452918420805460ff19908116825593810185905590810193909355919091018054909116905561010086015190915061194690879061335c565b867f608af8773a3ed71d7b3a9d45a3cb165ca643141606859ad9b07b7b42d367254b8686868560405161197c9493929190615409565b60405180910390a250505050505b610cb46001606555565b60a060205281600052604060002081815481106119b057600080fd5b90600052602060002001600091509150505481565b6033546001600160a01b031690565b60005b81811015611a0857611a008383838181106119f4576119f4615257565b90506020020135612ace565b6001016119d7565b505050565b60005b81811015611a0857611a39838383818110611a2d57611a2d615257565b9050602002013561119a565b600101611a10565b60a160205281600052604060002081815481106119b057600080fd5b6000611a67612ccd565b6002871180611a74575086155b15611a925760405163866c279d60e01b815260040160405180910390fd5b611ac288886000818110611aa857611aa8615257565b9050602002016020810190611abd9190614c1d565b6134f7565b6002879003611b615787876001818110611ade57611ade615257565b9050602002016020810190611af39190614c1d565b6001600160a01b031688886000818110611b0f57611b0f615257565b9050602002016020810190611b249190614c1d565b6001600160a01b031603611b4b57604051630675d97360e21b815260040160405180910390fd5b611b6188886001818110611aa857611aa8615257565b611b6a82613c65565b6000806001600160a01b0387166000805160206158ac83398151915214611b92578633611ba0565b6097546001600160a01b0316305b9092509050600073eeeeeeeeeeeeeeeeeeeeeeeeeeeeeeeeeeeeeeed196001600160a01b038a1601611c38575060975460408051630d0e30db60e41b815290513498506001600160a01b0390921691829163d0e30db0918a9160048082019260009290919082900301818588803b158015611c1a57600080fd5b505af1158015611c2e573d6000803e3d6000fd5b5050505050611c4f565b5087611c4f6001600160a01b03821633308a613cd4565b611cbd8b8b6000818110611c6557611c65615257565b9050602002016020810190611c7a9190614c1d565b60018c14611caf578c8c6001818110611c9557611c95615257565b9050602002016020810190611caa9190614c1d565b611cb2565b60005b83868b8b8833612d26565b935073eeeeeeeeeeeeeeeeeeeeeeeeeeeeeeeeeeeeeeed196001600160a01b03891601611cee57611cee84336132d5565b85841015611d19576040516371c4efed60e01b81526004810187905260248101859052604401610b0d565b6001600160a01b03808916908a16337ff9777644d6cb6adfe09dd0b64d66382fa968aeaede4858b118e1acc8fd2eec1f8e8e600081611d5a57611d5a615257565b9050602002016020810190611d6f9190614c1d565b60018f14611da4578f8f6001818110611d8a57611d8a615257565b9050602002016020810190611d9f9190614c1d565b611da7565b60005b604080516001600160a01b03938416815292909116602083015281018c90526060810189905260800160405180910390a4505050611de56001606555565b979650505050505050565b611df86133f1565b6001600160a01b038116611e1f5760405163d92e233d60e01b815260040160405180910390fd5b60a980546001600160a01b0319166001600160a01b0383169081179091556040517f99d737e0adf2c449d71890b86772885ec7959b152ddb265f76325b6e68e105d390600090a250565b611e7c60008a8a8a8a8a8a8a8a8a6128bf565b505050505050505050565b600054610100900460ff1615808015611ea75750600054600160ff909116105b80611ec85750611eb630613d3f565b158015611ec8575060005460ff166001145b611f2b5760405162461bcd60e51b815260206004820152602e60248201527f496e697469616c697a61626c653a20636f6e747261637420697320616c72656160448201526d191e481a5b9a5d1a585b1a5e995960921b6064820152608401610b0d565b6000805460ff191660011790558015611f4e576000805461ff0019166101001790555b611f56613d4e565b611f5e613d7d565b6001600160a01b038416611f855760405163d92e233d60e01b815260040160405180910390fd5b6001600160a01b038516611fac5760405163d92e233d60e01b815260040160405180910390fd5b6001600160a01b038216611fd357604051633ee80e0f60e11b815260040160405180910390fd5b67016345785d8a0000831115611fff57604051630a253bc760e41b815260048101849052602401610b0d565b609e839055609d80546001600160a01b038087166001600160a01b03199283161790925560016098819055609b556097805488841690831617905560a280549285169290911691909117905580156110e2576000805461ff0019169055604051600181527f7f26b83ff96e1f2b6a682f133852f6798a09c465da95921460cefb38474024989060200160405180910390a15050505050565b61209f612ccd565b60028711806120ac575086155b156120ca5760405163866c279d60e01b815260040160405180910390fd5b6120e088886000818110611aa857611aa8615257565b6000888860008181106120f5576120f5615257565b905060200201602081019061210a9190614c1d565b905060028890036121d6578888600181811061212857612128615257565b905060200201602081019061213d9190614c1d565b6001600160a01b03168989600081811061215957612159615257565b905060200201602081019061216e9190614c1d565b6001600160a01b03160361219557604051630675d97360e21b815260040160405180910390fd5b6121ab89896001818110611aa857611aa8615257565b888860018181106121be576121be615257565b90506020020160208101906121d39190614c1d565b90505b60006001600160a01b0388166000805160206158ac833981519152146121fd57878861221a565b6097546000805160206158ac833981519152906001600160a01b03165b98509050898960008161222f5761222f615257565b90506020020160208101906122449190614c1d565b6001600160a01b031663f794062e896040518263ffffffff1660e01b815260040161226f9190614ca2565b6020604051808303816000875af115801561228e573d6000803e3d6000fd5b505050506040513d601f19601f820116820180604052508101906122b2919061543a565b80156123615750816001600160a01b031663c87fa42a6000805160206158ac8339815191526001600160a01b0316896001600160a01b0316146122f55788612302565b6097546001600160a01b03165b6040518263ffffffff1660e01b815260040161231e9190614ca2565b6020604051808303816000875af115801561233d573d6000803e3d6000fd5b505050506040513d601f19601f82011682018060405250810190612361919061543a565b61237e576040516333910aef60e11b815260040160405180910390fd5b61238783613c65565b600073eeeeeeeeeeeeeeeeeeeeeeeeeeeeeeeeeeeeeeed196001600160a01b03831601612428576123b8873461522e565b9050609760009054906101000a90046001600160a01b03166001600160a01b031663d0e30db0886040518263ffffffff1660e01b81526004016000604051808303818588803b15801561240a57600080fd5b505af115801561241e573d6000803e3d6000fd5b505050505061243f565b503461243f6001600160a01b038a1633308a613cd4565b60a4548110156124625760405163feced27f60e01b815260040160405180910390fd5b60006040518061012001604052808d8d600081811061248357612483615257565b90506020020160208101906124989190614c1d565b6001600160a01b0316815260200160018d146124db578d8d60018181106124c1576124c1615257565b90506020020160208101906124d69190614c1d565b6124de565b60005b6001600160a01b03168152602001336001600160a01b031681526020018b6001600160a01b031681526020018a6001600160a01b031681526020018981526020018881526020018781526020018381525090508060a66000609b54815260200190815260200160002060008201518160000160006101000a8154816001600160a01b0302191690836001600160a01b0316021790555060208201518160010160006101000a8154816001600160a01b0302191690836001600160a01b0316021790555060408201518160020160006101000a8154816001600160a01b0302191690836001600160a01b0316021790555060608201518160030160006101000a8154816001600160a01b0302191690836001600160a01b0316021790555060808201518160040160006101000a8154816001600160a01b0302191690836001600160a01b0316021790555060a0820151816005015560c0820151816006015560e08201518160070155610100820151816008015590505060a16000336001600160a01b03166001600160a01b03168152602001908152602001600020609b549080600181540180825580915050600190039060005260206000200160009091909190915055609b547f82e23b32adf1ee3b5f18182bd3496289addded8a7462a361364446e67abac10060405160405180910390a26001609b60008282546126e4919061521b565b90915550506001606555506126f892505050565b5050505050505050565b61270a614ada565b5060009081526099602090815260409182902082516101608101845281546001600160a01b03908116825260018301548116938201939093526002820154831693810193909352600381015482166060840152600481015482166080840152600581015460a0840152600681015460c0840152600781015460e084015260088101546101008085019190915260099091015460ff81161515610120850152041661014082015290565b60a9546001600160a01b031633148015906127de5750336127d26119c5565b6001600160a01b031614155b156127fc576040516327e1f1e560e01b815260040160405180910390fd5b610cb48282613dac565b61280e6133f1565b6001600160a01b0381166128355760405163d92e233d60e01b815260040160405180910390fd5b6001600160a01b0381166000908152609c602052604090205460ff16151560010361287357604051633caf458560e01b815260040160405180910390fd5b6001600160a01b0381166000818152609c6020526040808220805460ff19166001179055517fdd1828d6b624ad325efda8575506db390bc72d7c701d35acfa8aa5be727f138b9190a250565b6128c7612ccd565b6128d0896134f7565b886000808a60018111156128e6576128e6614cf1565b6040516318f2050360e31b8152911491506001600160a01b0383169063c79028189061291c908b908b908e908790600401615457565b602060405180830381865afa158015612939573d6000803e3d6000fd5b505050506040513d601f19601f8201168201806040525081019061295d919061543a565b61297a576040516333910aef60e11b815260040160405180910390fd5b600081156129d75761298b84613c65565b6129d08d8d8c8c8c8c8c8c8080601f016020809104026020016040519081016040528093929190818152602001838380828437600092019190915250613e8492505050565b9050612a1f565b612a1c8d8d8c8c8c8c8c8c8080601f01602080910402602001604051908101604052809392919081815260200183838082843760009201919091525061433592505050565b90505b33600090815260a060209081526040822080546001810182559083529120015550612a4c90506001606555565b50505050505050505050565b612a606133f1565b6001600160a01b038116612ac55760405162461bcd60e51b815260206004820152602660248201527f4f776e61626c653a206e6577206f776e657220697320746865207a65726f206160448201526564647265737360d01b6064820152608401610b0d565b611466816134a5565b612ad6612ccd565b600081815260a6602090815260409182902082516101208101845281546001600160a01b03908116825260018301548116938201939093526002820154831693810184905260038201548316606082015260048201549092166080830152600581015460a0830152600681015460c0830152600781015460e083015260080154610100820152903314612b7c576040516371efdd2360e11b815260040160405180910390fd5b600082815260a6602052604080822080546001600160a01b03199081168255600182018054821690556002820180548216905560038201805482169055600482018054909116905560058101839055600681018390556007810183905560080191909155810151610100820151612bf3919061335c565b612c1d81604001518260a0015183606001516001600160a01b03166146ff9092919063ffffffff16565b60405182907fe9216d0f0b5b5425bfe39626e28e954006ba5602558b52853598723b6a94a38390600090a2506114666001606555565b612c5b6133f1565b6001600160a01b038116612c825760405163d92e233d60e01b815260040160405180910390fd5b60a580546001600160a01b0319166001600160a01b0383161790556040517f32bad3cb61c25e579e655734dd03338cd5e2ddd73e4cdfb8c116788b0a35b8c190611601908390614ca2565b600260655403612d1f5760405162461bcd60e51b815260206004820152601f60248201527f5265656e7472616e637947756172643a207265656e7472616e742063616c6c006044820152606401610b0d565b6002606555565b6040516370a0823160e01b8152600090869082906001600160a01b038316906370a0823190612d59908890600401614ca2565b602060405180830381865afa158015612d76573d6000803e3d6000fd5b505050506040513d601f19601f82011682018060405250810190612d9a919061548f565b90506001600160a01b038a16612fb95760a5546001600160a01b038981169116148015612dd4575060a5546001600160a01b038c81169116145b15612ec15760a55460405163095ea7b360e01b81526001600160a01b038b81169263095ea7b392612e0d92909116908b906004016154a8565b6020604051808303816000875af1158015612e2c573d6000803e3d6000fd5b505050506040513d601f19601f82011682018060405250810190612e50919061543a565b5060a55460405163073b736d60e41b81526001600160a01b03909116906373b736d090612e8a908c908b906000908b908b906004016154c1565b600060405180830381600087803b158015612ea457600080fd5b505af1158015612eb8573d6000803e3d6000fd5b5050505061324d565b60a5546001600160a01b038a81169116148015612eeb575060a5546001600160a01b038c81169116145b15612f715760a55460405163044cc14d60e31b81526001600160a01b03909116906322660a6890612f28908b908b908b908b908b906004016154c1565b6020604051808303816000875af1158015612f47573d6000803e3d6000fd5b505050506040513d601f19601f82011682018060405250810190612f6b919061548f565b5061324d565b612f856001600160a01b038a168c896146ff565b60405163226099f160e11b81526001600160a01b038c16906344c133e290612f28908c908c908b908b908b906004016154f3565b60a5546001600160a01b03908116908c16036130c85760a55460405163095ea7b360e01b81526001600160a01b038b81169263095ea7b39261300392909116908b906004016154a8565b6020604051808303816000875af1158015613022573d6000803e3d6000fd5b505050506040513d601f19601f82011682018060405250810190613046919061543a565b5060a560009054906101000a90046001600160a01b03166001600160a01b03166373b736d08a8960008e896040518663ffffffff1660e01b81526004016130919594939291906154c1565b600060405180830381600087803b1580156130ab57600080fd5b505af11580156130bf573d6000803e3d6000fd5b50505050613180565b6130dc6001600160a01b038a168c896146ff565b60a5546000906001600160a01b038c81169116146130fa578a6130fc565b305b60a55460405163226099f160e11b81529192506001600160a01b03808f16926344c133e292613139928f9291169060009087908c906004016154f3565b6020604051808303816000875af1158015613158573d6000803e3d6000fd5b505050506040513d601f19601f8201168201806040525081019061317c919061548f565b9350505b60a5546001600160a01b03908116908b16036131ce5760a55460405163044cc14d60e31b81526001600160a01b03909116906322660a6890612f28908b9087908b908b908b906004016154c1565b60a55460405163226099f160e11b81526001600160a01b038c8116926344c133e29261320892909116908c908b908b908b906004016154f3565b6020604051808303816000875af1158015613227573d6000803e3d6000fd5b505050506040513d601f19601f8201168201806040525081019061324b919061548f565b505b6040516370a0823160e01b815281906001600160a01b038416906370a082319061327b908990600401614ca2565b602060405180830381865afa158015613298573d6000803e3d6000fd5b505050506040513d601f19601f820116820180604052508101906132bc919061548f565b6132c6919061522e565b9b9a5050505050505050505050565b60a2546097546132f2916001600160a01b0391821691168461471e565b60a254604051637647691d60e01b8152600481018490526001600160a01b03838116602483015290911690637647691d90604401600060405180830381600087803b15801561334057600080fd5b505af1158015613354573d6000803e3d6000fd5b505050505050565b604080516000808252602082019092526001600160a01b0384169083906040516133869190615549565b60006040518083038185875af1925050503d80600081146133c3576040519150601f19603f3d011682016040523d82523d6000602084013e6133c8565b606091505b5050905080611a0857604051634c67134d60e11b815260040160405180910390fd5b6001606555565b336133fa6119c5565b6001600160a01b0316146115855760405162461bcd60e51b815260206004820181905260248201527f4f776e61626c653a2063616c6c6572206973206e6f7420746865206f776e65726044820152606401610b0d565b6097546001600160a01b038481169116148061348257506001600160a01b0383166000805160206158ac833981519152145b1561349157611a0882826132d5565b611a086001600160a01b03841682846146ff565b603380546001600160a01b038381166001600160a01b0319831681179093556040519116919082907f8be0079c531659141344cd1fd0a4f28419497f9722a3daafe3b4186f6b6457e090600090a35050565b6001600160a01b0381166000908152609c602052604090205460ff166114665760405162820f3560e61b815260040160405180910390fd5b6000828152609a60205260408082208151608081019092528054829060ff16600181111561355f5761355f614cf1565b600181111561357057613570614cf1565b8152600182810154602083015260028301546040830152600383015460609092019160ff16908111156135a5576135a5614cf1565b60018111156135b6576135b6614cf1565b905250600084815260996020908152604080832080546001600160a01b0319908116825560018083018054831690556002808401805484169055600380850180548516905560048501805490941690935560058401879055600684018790556007840187905560088401879055600990930180546001600160a81b0319169055609a909452828520805460ff1990811682559481018690559182018590550180549092169091555191925084917f1ad308dc7017610c82d08084545f7176df5e2f08f078c3c8f8926cd7e55555149190a261369a826020015183610100015161335c565b6000816060015160018111156136b2576136b2614cf1565b03611a08576080820151604082015160208401516136d1918391613450565b50505050565b60008080835160018111156136ee576136ee614cf1565b1460008460600151600181111561370757613707614cf1565b609d5460408881015190516303b6b4bb60e51b81526001600160a01b03918216600482015292909314939093146024820181905293509116906376d6976090604401602060405180830381865afa158015613766573d6000803e3d6000fd5b505050506040513d601f19601f8201168201806040525081019061378a919061548f565b9150505b92915050565b600080826060015160018111156137ad576137ad614cf1565b036139785760808301516000906001600160a01b03166000805160206158ac8339815191521480156137f1575060975460608501516001600160a01b039081169116145b80613815575083606001516001600160a01b031684608001516001600160a01b0316145b9050806138d85760808401516000906001600160a01b03166000805160206158ac8339815191521461384b578460800151613858565b6097546001600160a01b03165b905060008060006001600160a01b03168761014001516001600160a01b03161461388957610140870151875161388e565b865160005b60a55460608a01519294509092506001600160a01b039081169116036138b2575060005b6138cf8282858a606001518a604001516000308e60200151612d26565b60408701525050505b8351604084015160608601516138f9926001600160a01b03909116916146ff565b835160208086015160408088015160608901519388015188519251635d8048db60e01b81526001600160a01b0390961695635d8048db956139409594909291600401615565565b600060405180830381600087803b15801561395a57600080fd5b505af115801561396e573d6000803e3d6000fd5b5050505050613c5e565b60608301516040516370a0823160e01b81526000906001600160a01b038316906370a08231906139ac903090600401614ca2565b602060405180830381865afa1580156139c9573d6000803e3d6000fd5b505050506040513d601f19601f820116820180604052508101906139ed919061548f565b905084600001516001600160a01b031663ab5770d3866020015187604001518860600151886040015189602001518a60000151306040518863ffffffff1660e01b8152600401613a4397969594939291906155a5565b600060405180830381600087803b158015613a5d57600080fd5b505af1158015613a71573d6000803e3d6000fd5b50506040516370a0823160e01b81528392506001600160a01b03851691506370a0823190613aa3903090600401614ca2565b602060405180830381865afa158015613ac0573d6000803e3d6000fd5b505050506040513d601f19601f82011682018060405250810190613ae4919061548f565b613aee919061522e565b60975460608701519194506001600160a01b039182169116148015613b2d575060808501516001600160a01b03166000805160206158ac833981519152145b15613b4557613b408386602001516132d5565b613c5b565b84608001516001600160a01b031685606001516001600160a01b031614613c415784516101408601516001600160a01b03811615801590613b98575060a55460608801516001600160a01b039081169116145b15613ba857505061014085015160005b6000805160206158ac8339815191526001600160a01b031687608001516001600160a01b031603613c1657613c0182828960600151609760009054906101000a90046001600160a01b0316896000308e60200151612d26565b9450613c118588602001516132d5565b613c3a565b613c37828289606001518a608001518960008d602001518e60200151612d26565b94505b5050613c5b565b6020850151613c5b906001600160a01b03841690856146ff565b50505b9392505050565b60a7546001600160a01b0316156114665760a7546001600160a01b031663a021463533836040518363ffffffff1660e01b8152600401613ca69291906154a8565b600060405180830381600087803b158015613cc057600080fd5b505af11580156110e2573d6000803e3d6000fd5b6040516001600160a01b03808516602483015283166044820152606481018290526136d19085906323b872dd60e01b906084015b60408051601f198184030181529190526020810180516001600160e01b03166001600160e01b0319909316929092179091526147bb565b6001600160a01b03163b151590565b600054610100900460ff16613d755760405162461bcd60e51b8152600401610b0d906155f9565b61158561488d565b600054610100900460ff16613da45760405162461bcd60e51b8152600401610b0d906155f9565b6115856148bd565b811580613dc0575067016345785d8a000082115b15613dde576040516354c7692760e01b815260040160405180910390fd5b801580613df2575067016345785d8a000081115b15613e10576040516301c1708760e71b815260040160405180910390fd5b609e82905560a48190556040518281527feb5799b9fa1cba983ed1cbbc089d7c6ec51edd7407ee8e0ae4862d5d9d30286e9060200160405180910390a16040518181527f5713d3ba7f6ddcc9d4adf43d0f0224c7634556a1b1106b49cef094da516ea1029060200160405180910390a15050565b6000613e8e614ada565b613e96614b36565b6001886001811115613eaa57613eaa614cf1565b146101208301528351600090606090613ecc90870160209081019088016156cb565b604089019190915260208801919091526001600160a01b039092166080880181905260e088019390935293509150613f175760405163d92e233d60e01b815260040160405180910390fd5b81600003613f3857604051631f2a200560e01b815260040160405180910390fd5b6001600160a01b03808c1685528c81166101408601523360208601528981166040860152881660608501526000876001811115613f7757613f77614cf1565b14613f83576000613f8f565b613f8f61012c4261521b565b60a08501524360c085015260808401516001600160a01b03166000805160206158ac83398151915214613fc25734613fcc565b613fcc823461522e565b61010085015260608401516080850151600091613fe8916148e4565b90508085610100015110156140105760405163feced27f60e01b815260040160405180910390fd5b60006060850152838b600181111561402a5761402a614cf1565b9081600181111561403d5761403d614cf1565b90525060408401839052609854955061405786600161521b565b6098556000868152609960209081526040808320885181546001600160a01b03199081166001600160a01b039283161783558a850151600180850180548416928516929092179091558b850151600285018054841691851691909117905560608c0151600385018054841691851691909117905560808c01516004850180549093169084161790915560a08b0151600584015560c08b0151600684015560e08b01516007840155610100808c015160088501556101208c0151600990940180546101408e01516001600160a81b0319909116951515610100600160a81b031916959095179490931602929092179055609a909252909120855181548793839160ff191690838181111561416c5761416c614cf1565b0217905550602082015181600101556040820151816002015560608201518160030160006101000a81548160ff021916908360018111156141af576141af614cf1565b02179055505050600086815260a3602052604090206002905560808501516001600160a01b031673eeeeeeeeeeeeeeeeeeeeeeeeeeeeeeeeeeeeeeed190161425f57609760009054906101000a90046001600160a01b03166001600160a01b031663d0e30db0846040518263ffffffff1660e01b81526004016000604051808303818588803b15801561424157600080fd5b505af1158015614255573d6000803e3d6000fd5b5050505050614287565b6142873330866040015188608001516001600160a01b0316613cd4909392919063ffffffff16565b609f546001600160a01b0316156142fd57609f54604051631ecd829960e01b81526001600160a01b0390911690631ecd8299906142ca908990869060040161576d565b600060405180830381600087803b1580156142e457600080fd5b505af11580156142f8573d6000803e3d6000fd5b505050505b8560008051602061588c833981519152868660405161431d929190615786565b60405180910390a25050505050979650505050505050565b600061433f614ada565b614347614b36565b6060600086600181111561435d5761435d614cf1565b036143c0578480602001905181019061437691906157a3565b604087019190915260208601919091526001600160a01b03909116608086015260e0850191909152905060008960018111156143b4576143b4614cf1565b14610120840152614408565b848060200190518101906143d49190615811565b604088019190915260208701919091526001600160a01b03909116608087015290151561012086015260e085019190915290505b6001600160a01b03808b1684528b8116610140850152336020850152888116604085015287166060840152600086600181111561444757614447614cf1565b1461445357600061445f565b61445f61012c4261521b565b60a08401524360c08401523461010084015260608301516080840151600091614487916148e4565b90508084610100015110156144af5760405163feced27f60e01b815260040160405180910390fd5b60016060840181905250828a60018111156144cc576144cc614cf1565b908160018111156144df576144df614cf1565b90525060985494506144f285600161521b565b6098556000858152609960209081526040808320875181546001600160a01b03199081166001600160a01b0392831617835589850151600180850180548416928516929092179091558a850151600285018054841691851691909117905560608b0151600385018054841691851691909117905560808b01516004850180549093169084161790915560a08a0151600584015560c08a0151600684015560e08a01516007840155610100808b015160088501556101208b0151600990940180546101408d01516001600160a81b0319909116951515610100600160a81b031916959095179490931602929092179055609a909252909120845181548693839160ff191690838181111561460757614607614cf1565b0217905550602082015181600101556040820151816002015560608201518160030160006101000a81548160ff0219169083600181111561464a5761464a614cf1565b021790555050609f546001600160a01b03161590506146c857609f54604051631ecd829960e01b81526001600160a01b0390911690631ecd829990614695908890869060040161576d565b600060405180830381600087803b1580156146af57600080fd5b505af11580156146c3573d6000803e3d6000fd5b505050505b8460008051602061588c83398151915285856040516146e8929190615786565b60405180910390a250505050979650505050505050565b611a088363a9059cbb60e01b8484604051602401613d089291906154a8565b600081846001600160a01b031663dd62ed3e30866040518363ffffffff1660e01b815260040161474f929190615286565b602060405180830381865afa15801561476c573d6000803e3d6000fd5b505050506040513d601f19601f82011682018060405250810190614790919061548f565b61479a919061521b565b90506136d18463095ea7b360e01b8584604051602401613d089291906154a8565b6000614810826040518060400160405280602081526020017f5361666545524332303a206c6f772d6c6576656c2063616c6c206661696c6564815250856001600160a01b031661495c9092919063ffffffff16565b805190915015611a08578080602001905181019061482e919061543a565b611a085760405162461bcd60e51b815260206004820152602a60248201527f5361666545524332303a204552433230206f7065726174696f6e20646964206e6044820152691bdd081cdd58d8d9595960b21b6064820152608401610b0d565b600054610100900460ff166148b45760405162461bcd60e51b8152600401610b0d906155f9565b611585336134a5565b600054610100900460ff166133ea5760405162461bcd60e51b8152600401610b0d906155f9565b600080826001600160a01b0316846001600160a01b0316148061493557506097546001600160a01b03858116911614801561493557506001600160a01b0383166000805160206158ac833981519152145b9050806149515760a454609e5461494c919061521b565b61378a565b5050609e5492915050565b606061496b8484600085614973565b949350505050565b6060824710156149d45760405162461bcd60e51b815260206004820152602660248201527f416464726573733a20696e73756666696369656e742062616c616e636520666f6044820152651c8818d85b1b60d21b6064820152608401610b0d565b600080866001600160a01b031685876040516149f09190615549565b60006040518083038185875af1925050503d8060008114614a2d576040519150601f19603f3d011682016040523d82523d6000602084013e614a32565b606091505b5091509150611de58783838760608315614aab578251600003614aa457614a5885613d3f565b614aa45760405162461bcd60e51b815260206004820152601d60248201527f416464726573733a2063616c6c20746f206e6f6e2d636f6e74726163740000006044820152606401610b0d565b508161496b565b61496b8383815115614ac05781518083602001fd5b8060405162461bcd60e51b8152600401610b0d9190615878565b6040805161016081018252600080825260208201819052918101829052606081018290526080810182905260a0810182905260c0810182905260e081018290526101008101829052610120810182905261014081019190915290565b6040805160808101825260008082526020820181905291810182905290606082015290565b6001600160a01b038116811461146657600080fd5b60008060408385031215614b8357600080fd5b823591506020830135614b9581614b5b565b809150509250929050565b600080600060608486031215614bb557600080fd5b8335614bc081614b5b565b95602085013595506040909401359392505050565b604080825283519082018190526000906020906060840190828701845b82811015614c0e57815184529284019290840190600101614bf2565b50505092019290925292915050565b600060208284031215614c2f57600080fd5b8135613c5e81614b5b565b801515811461146657600080fd5b600080600080600060a08688031215614c6057600080fd5b853594506020860135935060408601359250606086013591506080860135614c8781614c3a565b809150509295509295909350565b6001600160a01b03169052565b6001600160a01b0391909116815260200190565b600060208284031215614cc857600080fd5b5035919050565b60008060408385031215614ce257600080fd5b50508035926020909101359150565b634e487b7160e01b600052602160045260246000fd5b6002811061146657634e487b7160e01b600052602160045260246000fd5b60808101614d3286614d07565b858252846020830152836040830152614d4a83614d07565b82606083015295945050505050565b60008060408385031215614d6c57600080fd5b8235614d7781614b5b565b946020939093013593505050565b60008083601f840112614d9757600080fd5b5081356001600160401b03811115614dae57600080fd5b6020830191508360208260051b8501011115614dc957600080fd5b9250929050565b60008060208385031215614de357600080fd5b82356001600160401b03811115614df957600080fd5b614e0585828601614d85565b90969095509350505050565b600080600080600080600060c0888a031215614e2c57600080fd5b87356001600160401b03811115614e4257600080fd5b614e4e8a828b01614d85565b9098509650506020880135614e6281614b5b565b94506040880135614e7281614b5b565b969995985093966060810135956080820135955060a0909101359350915050565b6002811061146657600080fd5b60008083601f840112614eb257600080fd5b5081356001600160401b03811115614ec957600080fd5b602083019150836020828501011115614dc957600080fd5b60008060008060008060008060006101008a8c031215614f0057600080fd5b8935614f0b81614b5b565b985060208a0135614f1b81614e93565b975060408a0135614f2b81614e93565b965060608a0135614f3b81614b5b565b955060808a0135614f4b81614b5b565b945060a08a0135614f5b81614e93565b935060c08a01356001600160401b03811115614f7657600080fd5b614f828c828d01614ea0565b9a9d999c50979a9699959894979660e00135949350505050565b60008060008060808587031215614fb257600080fd5b8435614fbd81614b5b565b93506020850135614fcd81614b5b565b9250604085013591506060850135614fe481614b5b565b939692955090935050565b60008060008060008060008060e0898b03121561500b57600080fd5b88356001600160401b0381111561502157600080fd5b61502d8b828c01614d85565b909950975050602089013561504181614b5b565b9550604089013561505181614b5b565b979a96995094976060810135966080820135965060a0820135955060c0909101359350915050565b615084828251614c95565b60208101516150966020840182614c95565b5060408101516150a96040840182614c95565b5060608101516150bc6060840182614c95565b5060808101516150cf6080840182614c95565b5060a081015160a083015260c081015160c083015260e081015160e08301526101008082015181840152506101208082015161510e8285018215159052565b5050610140808201516136d182850182614c95565b610160810161378e8284615079565b6000806000806000806000806000806101208b8d03121561515257600080fd5b8a3561515d81614b5b565b995060208b013561516d81614b5b565b985060408b013561517d81614e93565b975060608b013561518d81614e93565b965060808b013561519d81614b5b565b955060a08b01356151ad81614b5b565b945060c08b01356151bd81614e93565b935060e08b01356001600160401b038111156151d857600080fd5b6151e48d828e01614ea0565b915080945050809250506101008b013590509295989b9194979a5092959850565b634e487b7160e01b600052601160045260246000fd5b8082018082111561378e5761378e615205565b8181038181111561378e5761378e615205565b634e487b7160e01b600052604160045260246000fd5b634e487b7160e01b600052603260045260246000fd5b60006001820161527f5761527f615205565b5060010190565b6001600160a01b0392831681529116602082015260400190565b6001600160a01b031690565b60ff8154166152ba81614d07565b82526001810154602083015260028101546040830152600381015460ff166152e181614d07565b806060840152505050565b60006101e0820190506153088261530386546152a0565b614c95565b61531560018501546152a0565b6153226020840182614c95565b5061533060028501546152a0565b61533d6040840182614c95565b5061534b60038501546152a0565b6153586060840182614c95565b5061536660048501546152a0565b6153736080840182614c95565b50600584015460a0830152600684015460c0830152600784015460e08301526008840154610100830152600984015460ff811615156101208401526153c96101408401600883901c6001600160a01b0316614c95565b50613c5e6101608301846152ac565b80516153e381614d07565b80835250602081015160208301526040810151604083015260608101516152e181614d07565b61022081016154188287615079565b6154266101608301866153d8565b6101e0820193909352610200015292915050565b60006020828403121561544c57600080fd5b8151613c5e81614c3a565b6001600160a01b038581168252841660208201526080810161547884614d07565b836040830152821515606083015295945050505050565b6000602082840312156154a157600080fd5b5051919050565b6001600160a01b03929092168252602082015260400190565b6001600160a01b0395861681526020810194909452604084019290925283166060830152909116608082015260a00190565b6001600160a01b0395861681529385166020850152604084019290925283166060830152909116608082015260a00190565b60005b83811015615540578181015183820152602001615528565b50506000910152565b6000825161555b818460208701615525565b9190910192915050565b6001600160a01b0386811682528581166020830152841660408201526060810183905260a0810161559583614d07565b8260808301529695505050505050565b6001600160a01b03888116825287811660208301528681166040830152606082018690526080820185905260e08201906155de85614d07565b8460a084015280841660c08401525098975050505050505050565b6020808252602b908201527f496e697469616c697a61626c653a20636f6e7472616374206973206e6f74206960408201526a6e697469616c697a696e6760a81b606082015260800190565b600082601f83011261565557600080fd5b81516001600160401b038082111561566f5761566f615241565b604051601f8301601f19908116603f0116810190828211818310171561569757615697615241565b816040528381528660208588010111156156b057600080fd5b6156c1846020830160208901615525565b9695505050505050565b60008060008060008060c087890312156156e457600080fd5b8651955060208701516156f681614b5b565b6040880151606089015160808a015160a08b0151939850919650945092506001600160401b0381111561572857600080fd5b61573489828a01615644565b9150509295509295509295565b60008151808452615759816020860160208601615525565b601f01601f19169290920160200192915050565b82815260406020820152600061496b6040830184615741565b6101e081016157958285615079565b613c5e6101608301846153d8565b600080600080600060a086880312156157bb57600080fd5b8551945060208601516157cd81614b5b565b60408701516060880151608089015192965090945092506001600160401b038111156157f857600080fd5b61580488828901615644565b9150509295509295909350565b60008060008060008060c0878903121561582a57600080fd5b86519550602087015161583c81614c3a565b604088015190955061584d81614b5b565b6060880151608089015160a08a015192965090945092506001600160401b0381111561572857600080fd5b602081526000613c5e602083018461574156fe0edb3312775cb6dd3d39a170889b6efbb4dbbe502fcb6515ff995cd6faf53dbb000000000000000000000000eeeeeeeeeeeeeeeeeeeeeeeeeeeeeeeeeeeeeeeea2646970667358221220e191fd64c6ca0b7f0ff2c206cc5a87ebd8f6209404c1783aeb89ec2f1f64710264736f6c63430008130033",
    "linkReferences": {}
  },
  "methodIdentifiers": {
    "ORDER_VERSION()": "6d5d0070",
    "VERSION()": "ffa1ad74",
    "addPool(address)": "d914cd4b",
    "baseLp()": "4380dd3b",
    "cancelMultipleOrders(uint256[])": "98011ac8",
    "cancelMultipleSwapOrders(uint256[])": "96bad07c",
    "cancelOrder(uint256)": "514fcac7",
    "cancelSwapOrder(uint256)": "f882ac07",
    "ethUnwrapper()": "724cd1f3",
    "executeOrder(uint256,address)": "7e498c81",
    "executeSwapOrder(uint256,address)": "04358662",
    "executor()": "c34c08e5",
    "getOrder(uint256)": "d09ef241",
    "getOrders(address,uint256,uint256)": "27b62ad9",
    "getSwapOrders(address,uint256,uint256)": "18073771",
    "initialize(address,address,uint256,address)": "be203094",
    "minPerpetualExecutionFee()": "21c5cb5c",
    "minSwapExecutionFee()": "a7b6442f",
    "nextOrderId()": "2a58b330",
    "nextSwapOrderId()": "c22259d0",
    "operator()": "570ca735",
    "oracle()": "7dc0d1d0",
    "orderHook()": "a554b2aa",
    "orderVersions(uint256)": "c02c2d6c",
    "orders(uint256)": "a85c38ef",
    "owner()": "8da5cb5b",
    "placeOrder(address,address,uint8,uint8,address,address,uint8,bytes,uint256)": "f02a9dff",
    "placeOrder(address,uint8,uint8,address,address,uint8,bytes,uint256)": "b3c3e157",
    "placeSwapOrder(address[],address,address,uint256,uint256,uint256,uint256)": "c7e7820d",
    "pools(address)": "a4063dbc",
    "referralRegistry()": "4e627e62",
    "removePool(address)": "3b7d0946",
    "renounceOwnership()": "715018a6",
    "requests(uint256)": "81d12c58",
    "setBaseLp(address)": "ff9fd0b6",
    "setExecutor(address)": "1c3c0ea8",
    "setMinExecutionFee(uint256,uint256)": "d6ffc331",
    "setOperator(address)": "b3ab15fb",
    "setOracle(address)": "7adbf973",
    "setOrderHook(address)": "2c8edd98",
    "setReferralRegistry(address)": "6a79115f",
    "swap(address[],address,address,uint256,uint256,uint256)": "aff4764b",
    "swap2Orders(uint256)": "85fdea3c",
    "transferOwnership(address)": "f2fde38b",
    "updateOrder(uint256,uint256,uint256,uint256,bool)": "33849763",
    "updateSwapOrder(uint256,uint256)": "5a1fcadd",
    "userOrders(address,uint256)": "856652e9",
    "userSwapOrders(address,uint256)": "9aa2aa59",
    "weth()": "3fc8cef3"
  },
  "id": 64
}