{
  "abi": [
    {
      "inputs": [],
      "stateMutability": "nonpayable",
      "type": "constructor"
    },
    {
      "inputs": [
        {
          "internalType": "address",
          "name": "token",
          "type": "address"
        }
      ],
      "name": "AssetNotListed",
      "type": "error"
    },
    {
      "inputs": [
        {
          "internalType": "address",
          "name": "token",
          "type": "address"
        }
      ],
      "name": "DuplicateToken",
      "type": "error"
    },
    {
      "inputs": [],
      "name": "FeeDistributorOnly",
      "type": "error"
    },
    {
      "inputs": [
        {
          "internalType": "address",
          "name": "token",
          "type": "address"
        }
      ],
      "name": "InsufficientPoolAmount",
      "type": "error"
    },
    {
      "inputs": [],
      "name": "InvalidInterval",
      "type": "error"
    },
    {
      "inputs": [
        {
          "internalType": "uint256",
          "name": "size",
          "type": "uint256"
        },
        {
          "internalType": "uint256",
          "name": "margin",
          "type": "uint256"
        },
        {
          "internalType": "uint256",
          "name": "maxLeverage",
          "type": "uint256"
        }
      ],
      "name": "InvalidLeverage",
      "type": "error"
    },
    {
      "inputs": [],
      "name": "InvalidMaxLeverage",
      "type": "error"
    },
    {
      "inputs": [],
      "name": "InvalidPositionSize",
      "type": "error"
    },
    {
      "inputs": [
        {
          "internalType": "address",
          "name": "index",
          "type": "address"
        },
        {
          "internalType": "address",
          "name": "collateral",
          "type": "address"
        }
      ],
      "name": "InvalidTokenPair",
      "type": "error"
    },
    {
      "inputs": [
        {
          "internalType": "address",
          "name": "token",
          "type": "address"
        },
        {
          "internalType": "uint256",
          "name": "globalShortSize",
          "type": "uint256"
        }
      ],
      "name": "MaxGlobalShortSizeExceeded",
      "type": "error"
    },
    {
      "inputs": [],
      "name": "MaxLiquidityReach",
      "type": "error"
    },
    {
      "inputs": [],
      "name": "NotApplicableForStableCoin",
      "type": "error"
    },
    {
      "inputs": [
        {
          "internalType": "address",
          "name": "user",
          "type": "address"
        }
      ],
      "name": "NotOperator",
      "type": "error"
    },
    {
      "inputs": [],
      "name": "OrderManagerOnly",
      "type": "error"
    },
    {
      "inputs": [
        {
          "internalType": "address",
          "name": "owner",
          "type": "address"
        },
        {
          "internalType": "address",
          "name": "indexToken",
          "type": "address"
        },
        {
          "internalType": "address",
          "name": "collateralToken",
          "type": "address"
        },
        {
          "internalType": "enum Side",
          "name": "side",
          "type": "uint8"
        }
      ],
      "name": "PositionNotExists",
      "type": "error"
    },
    {
      "inputs": [
        {
          "internalType": "bytes32",
          "name": "key",
          "type": "bytes32"
        }
      ],
      "name": "PositionNotLiquidated",
      "type": "error"
    },
    {
      "inputs": [],
      "name": "RequireAllTokens",
      "type": "error"
    },
    {
      "inputs": [
        {
          "internalType": "address",
          "name": "token",
          "type": "address"
        }
      ],
      "name": "ReserveReduceTooMuch",
      "type": "error"
    },
    {
      "inputs": [
        {
          "internalType": "address",
          "name": "token",
          "type": "address"
        }
      ],
      "name": "SameTokenSwap",
      "type": "error"
    },
    {
      "inputs": [],
      "name": "SlippageExceeded",
      "type": "error"
    },
    {
      "inputs": [
        {
          "internalType": "uint256",
          "name": "number",
          "type": "uint256"
        },
        {
          "internalType": "uint256",
          "name": "max",
          "type": "uint256"
        }
      ],
      "name": "TooManyTokenAdded",
      "type": "error"
    },
    {
      "inputs": [
        {
          "internalType": "address",
          "name": "token",
          "type": "address"
        }
      ],
      "name": "UnknownToken",
      "type": "error"
    },
    {
      "inputs": [],
      "name": "UpdateCauseLiquidation",
      "type": "error"
    },
    {
      "inputs": [
        {
          "internalType": "uint256",
          "name": "maxValue",
          "type": "uint256"
        }
      ],
      "name": "ValueTooHigh",
      "type": "error"
    },
    {
      "inputs": [],
      "name": "ZeroAddress",
      "type": "error"
    },
    {
      "inputs": [],
      "name": "ZeroAmount",
      "type": "error"
    },
    {
      "anonymous": false,
      "inputs": [
        {
          "indexed": false,
          "internalType": "uint256",
          "name": "value",
          "type": "uint256"
        }
      ],
      "name": "AddRemoveLiquidityFeeSet",
      "type": "event"
    },
    {
      "anonymous": false,
      "inputs": [
        {
          "indexed": true,
          "internalType": "address",
          "name": "owner",
          "type": "address"
        },
        {
          "indexed": true,
          "internalType": "address",
          "name": "spender",
          "type": "address"
        },
        {
          "indexed": false,
          "internalType": "uint256",
          "name": "value",
          "type": "uint256"
        }
      ],
      "name": "Approval",
      "type": "event"
    },
    {
      "anonymous": false,
      "inputs": [
        {
          "indexed": true,
          "internalType": "bytes32",
          "name": "key",
          "type": "bytes32"
        },
        {
          "indexed": false,
          "internalType": "uint256",
          "name": "size",
          "type": "uint256"
        },
        {
          "indexed": false,
          "internalType": "uint256",
          "name": "collateralValue",
          "type": "uint256"
        },
        {
          "indexed": false,
          "internalType": "uint256",
          "name": "entryPrice",
          "type": "uint256"
        },
        {
          "indexed": false,
          "internalType": "uint256",
          "name": "entryInterestRate",
          "type": "uint256"
        },
        {
          "indexed": false,
          "internalType": "uint256",
          "name": "reserveAmount",
          "type": "uint256"
        }
      ],
      "name": "ClosePosition",
      "type": "event"
    },
    {
      "anonymous": false,
      "inputs": [
        {
          "indexed": false,
          "internalType": "address",
          "name": "_treasure",
          "type": "address"
        },
        {
          "indexed": false,
          "internalType": "uint256",
          "name": "_ratio",
          "type": "uint256"
        }
      ],
      "name": "CompFeeSet",
      "type": "event"
    },
    {
      "anonymous": false,
      "inputs": [
        {
          "indexed": false,
          "internalType": "address",
          "name": "_token",
          "type": "address"
        },
        {
          "indexed": false,
          "internalType": "uint256",
          "name": "_feeAmount",
          "type": "uint256"
        },
        {
          "indexed": false,
          "internalType": "uint256",
          "name": "reserveAmount",
          "type": "uint256"
        },
        {
          "indexed": false,
          "internalType": "uint256",
          "name": "compFeeAmount",
          "type": "uint256"
        },
        {
          "indexed": false,
          "internalType": "uint256",
          "name": "compLpAmount",
          "type": "uint256"
        }
      ],
      "name": "DaoFeeDistribution",
      "type": "event"
    },
    {
      "anonymous": false,
      "inputs": [
        {
          "indexed": true,
          "internalType": "address",
          "name": "token",
          "type": "address"
        },
        {
          "indexed": false,
          "internalType": "uint256",
          "name": "amount",
          "type": "uint256"
        }
      ],
      "name": "DaoFeeReduced",
      "type": "event"
    },
    {
      "anonymous": false,
      "inputs": [
        {
          "indexed": false,
          "internalType": "uint256",
          "name": "value",
          "type": "uint256"
        }
      ],
      "name": "DaoFeeSet",
      "type": "event"
    },
    {
      "anonymous": false,
      "inputs": [
        {
          "indexed": true,
          "internalType": "address",
          "name": "token",
          "type": "address"
        },
        {
          "indexed": false,
          "internalType": "address",
          "name": "recipient",
          "type": "address"
        },
        {
          "indexed": false,
          "internalType": "uint256",
          "name": "amount",
          "type": "uint256"
        }
      ],
      "name": "DaoFeeWithdrawn",
      "type": "event"
    },
    {
      "anonymous": false,
      "inputs": [
        {
          "indexed": true,
          "internalType": "bytes32",
          "name": "key",
          "type": "bytes32"
        },
        {
          "indexed": false,
          "internalType": "address",
          "name": "account",
          "type": "address"
        },
        {
          "indexed": false,
          "internalType": "address",
          "name": "collateralToken",
          "type": "address"
        },
        {
          "indexed": false,
          "internalType": "address",
          "name": "indexToken",
          "type": "address"
        },
        {
          "indexed": false,
          "internalType": "uint256",
          "name": "collateralChanged",
          "type": "uint256"
        },
        {
          "indexed": false,
          "internalType": "uint256",
          "name": "sizeChanged",
          "type": "uint256"
        },
        {
          "indexed": false,
          "internalType": "enum Side",
          "name": "side",
          "type": "uint8"
        },
        {
          "indexed": false,
          "internalType": "uint256",
          "name": "indexPrice",
          "type": "uint256"
        },
        {
          "indexed": false,
          "internalType": "uint256",
          "name": "collateralPrice",
          "type": "uint256"
        },
        {
          "components": [
            {
              "internalType": "uint256",
              "name": "sig",
              "type": "uint256"
            },
            {
              "internalType": "uint256",
              "name": "abs",
              "type": "uint256"
            }
          ],
          "indexed": false,
          "internalType": "struct SignedInt",
          "name": "pnl",
          "type": "tuple"
        },
        {
          "indexed": false,
          "internalType": "uint256",
          "name": "feeValue",
          "type": "uint256"
        }
      ],
      "name": "DecreasePosition",
      "type": "event"
    },
    {
      "anonymous": false,
      "inputs": [
        {
          "indexed": true,
          "internalType": "address",
          "name": "feeDistributor",
          "type": "address"
        }
      ],
      "name": "FeeDistributorSet",
      "type": "event"
    },
    {
      "anonymous": false,
      "inputs": [
        {
          "indexed": true,
          "internalType": "bytes32",
          "name": "key",
          "type": "bytes32"
        },
        {
          "indexed": false,
          "internalType": "address",
          "name": "account",
          "type": "address"
        },
        {
          "indexed": false,
          "internalType": "address",
          "name": "collateralToken",
          "type": "address"
        },
        {
          "indexed": false,
          "internalType": "address",
          "name": "indexToken",
          "type": "address"
        },
        {
          "indexed": false,
          "internalType": "uint256",
          "name": "collateralValue",
          "type": "uint256"
        },
        {
          "indexed": false,
          "internalType": "uint256",
          "name": "sizeChanged",
          "type": "uint256"
        },
        {
          "indexed": false,
          "internalType": "enum Side",
          "name": "side",
          "type": "uint8"
        },
        {
          "indexed": false,
          "internalType": "uint256",
          "name": "indexPrice",
          "type": "uint256"
        },
        {
          "indexed": false,
          "internalType": "uint256",
          "name": "collateralPrice",
          "type": "uint256"
        },
        {
          "indexed": false,
          "internalType": "uint256",
          "name": "feeValue",
          "type": "uint256"
        }
      ],
      "name": "IncreasePosition",
      "type": "event"
    },
    {
      "anonymous": false,
      "inputs": [
        {
          "indexed": false,
          "internalType": "uint8",
          "name": "version",
          "type": "uint8"
        }
      ],
      "name": "Initialized",
      "type": "event"
    },
    {
      "anonymous": false,
      "inputs": [
        {
          "indexed": true,
          "internalType": "address",
          "name": "token",
          "type": "address"
        },
        {
          "indexed": false,
          "internalType": "uint256",
          "name": "borrowIndex",
          "type": "uint256"
        }
      ],
      "name": "InterestAccrued",
      "type": "event"
    },
    {
      "anonymous": false,
      "inputs": [
        {
          "indexed": false,
          "internalType": "uint256",
          "name": "interestRate",
          "type": "uint256"
        },
        {
          "indexed": false,
          "internalType": "uint256",
          "name": "interval",
          "type": "uint256"
        }
      ],
      "name": "InterestRateSet",
      "type": "event"
    },
    {
      "anonymous": false,
      "inputs": [
        {
          "indexed": true,
          "internalType": "bytes32",
          "name": "key",
          "type": "bytes32"
        },
        {
          "indexed": false,
          "internalType": "address",
          "name": "account",
          "type": "address"
        },
        {
          "indexed": false,
          "internalType": "address",
          "name": "collateralToken",
          "type": "address"
        },
        {
          "indexed": false,
          "internalType": "address",
          "name": "indexToken",
          "type": "address"
        },
        {
          "indexed": false,
          "internalType": "enum Side",
          "name": "side",
          "type": "uint8"
        },
        {
          "indexed": false,
          "internalType": "uint256",
          "name": "size",
          "type": "uint256"
        },
        {
          "indexed": false,
          "internalType": "uint256",
          "name": "collateralValue",
          "type": "uint256"
        },
        {
          "indexed": false,
          "internalType": "uint256",
          "name": "reserveAmount",
          "type": "uint256"
        },
        {
          "indexed": false,
          "internalType": "uint256",
          "name": "indexPrice",
          "type": "uint256"
        },
        {
          "indexed": false,
          "internalType": "uint256",
          "name": "collateralPrice",
          "type": "uint256"
        },
        {
          "components": [
            {
              "internalType": "uint256",
              "name": "sig",
              "type": "uint256"
            },
            {
              "internalType": "uint256",
              "name": "abs",
              "type": "uint256"
            }
          ],
          "indexed": false,
          "internalType": "struct SignedInt",
          "name": "pnl",
          "type": "tuple"
        },
        {
          "indexed": false,
          "internalType": "uint256",
          "name": "feeValue",
          "type": "uint256"
        },
        {
          "indexed": false,
          "internalType": "uint256",
          "name": "payout",
          "type": "uint256"
        }
      ],
      "name": "LiquidatePosition",
      "type": "event"
    },
    {
      "anonymous": false,
      "inputs": [
        {
          "indexed": true,
          "internalType": "address",
          "name": "tranche",
          "type": "address"
        },
        {
          "indexed": true,
          "internalType": "address",
          "name": "sender",
          "type": "address"
        },
        {
          "indexed": false,
          "internalType": "address",
          "name": "token",
          "type": "address"
        },
        {
          "indexed": false,
          "internalType": "uint256",
          "name": "amount",
          "type": "uint256"
        },
        {
          "indexed": false,
          "internalType": "uint256",
          "name": "lpAmount",
          "type": "uint256"
        },
        {
          "indexed": false,
          "internalType": "uint256",
          "name": "fee",
          "type": "uint256"
        }
      ],
      "name": "LiquidityAdded",
      "type": "event"
    },
    {
      "anonymous": false,
      "inputs": [
        {
          "indexed": true,
          "internalType": "address",
          "name": "tranche",
          "type": "address"
        },
        {
          "indexed": true,
          "internalType": "address",
          "name": "sender",
          "type": "address"
        },
        {
          "indexed": false,
          "internalType": "address",
          "name": "token",
          "type": "address"
        },
        {
          "indexed": false,
          "internalType": "uint256",
          "name": "lpAmount",
          "type": "uint256"
        },
        {
          "indexed": false,
          "internalType": "uint256",
          "name": "amountOut",
          "type": "uint256"
        },
        {
          "indexed": false,
          "internalType": "uint256",
          "name": "fee",
          "type": "uint256"
        }
      ],
      "name": "LiquidityRemoved",
      "type": "event"
    },
    {
      "anonymous": false,
      "inputs": [
        {
          "indexed": true,
          "internalType": "address",
          "name": "token",
          "type": "address"
        },
        {
          "indexed": false,
          "internalType": "address",
          "name": "recipient",
          "type": "address"
        },
        {
          "indexed": false,
          "internalType": "uint256",
          "name": "amount",
          "type": "uint256"
        }
      ],
      "name": "LpFeeWithdrawn",
      "type": "event"
    },
    {
      "anonymous": false,
      "inputs": [
        {
          "indexed": false,
          "internalType": "uint256",
          "name": "ratio",
          "type": "uint256"
        }
      ],
      "name": "MaintenanceMarginChanged",
      "type": "event"
    },
    {
      "anonymous": false,
      "inputs": [
        {
          "indexed": true,
          "internalType": "address",
          "name": "token",
          "type": "address"
        },
        {
          "indexed": false,
          "internalType": "uint256",
          "name": "max",
          "type": "uint256"
        }
      ],
      "name": "MaxGlobalLongSizeRatioSet",
      "type": "event"
    },
    {
      "anonymous": false,
      "inputs": [
        {
          "indexed": true,
          "internalType": "address",
          "name": "token",
          "type": "address"
        },
        {
          "indexed": false,
          "internalType": "uint256",
          "name": "max",
          "type": "uint256"
        }
      ],
      "name": "MaxGlobalShortSizeSet",
      "type": "event"
    },
    {
      "anonymous": false,
      "inputs": [
        {
          "indexed": false,
          "internalType": "uint256",
          "name": "maxLeverage",
          "type": "uint256"
        }
      ],
      "name": "MaxLeverageChanged",
      "type": "event"
    },
    {
      "anonymous": false,
      "inputs": [
        {
          "indexed": false,
          "internalType": "address",
          "name": "token",
          "type": "address"
        },
        {
          "indexed": false,
          "internalType": "uint256",
          "name": "maxLiquidity",
          "type": "uint256"
        }
      ],
      "name": "MaxLiquiditySet",
      "type": "event"
    },
    {
      "anonymous": false,
      "inputs": [
        {
          "indexed": false,
          "internalType": "uint256",
          "name": "maxPositionSize",
          "type": "uint256"
        }
      ],
      "name": "MaxPositionSizeSet",
      "type": "event"
    },
    {
      "anonymous": false,
      "inputs": [
        {
          "indexed": true,
          "internalType": "address",
          "name": "operator",
          "type": "address"
        }
      ],
      "name": "OperatorSet",
      "type": "event"
    },
    {
      "anonymous": false,
      "inputs": [
        {
          "indexed": true,
          "internalType": "address",
          "name": "oldOracle",
          "type": "address"
        },
        {
          "indexed": true,
          "internalType": "address",
          "name": "newOracle",
          "type": "address"
        }
      ],
      "name": "OracleChanged",
      "type": "event"
    },
    {
      "anonymous": false,
      "inputs": [
        {
          "indexed": true,
          "internalType": "address",
          "name": "previousOwner",
          "type": "address"
        },
        {
          "indexed": true,
          "internalType": "address",
          "name": "newOwner",
          "type": "address"
        }
      ],
      "name": "OwnershipTransferred",
      "type": "event"
    },
    {
      "anonymous": false,
      "inputs": [
        {
          "indexed": true,
          "internalType": "address",
          "name": "asset",
          "type": "address"
        },
        {
          "indexed": true,
          "internalType": "address",
          "name": "tranche",
          "type": "address"
        },
        {
          "indexed": false,
          "internalType": "uint256",
          "name": "amount",
          "type": "uint256"
        },
        {
          "indexed": false,
          "internalType": "bool",
          "name": "hasProfit",
          "type": "bool"
        }
      ],
      "name": "PnLDistributed",
      "type": "event"
    },
    {
      "anonymous": false,
      "inputs": [
        {
          "indexed": true,
          "internalType": "address",
          "name": "hook",
          "type": "address"
        }
      ],
      "name": "PoolHookChanged",
      "type": "event"
    },
    {
      "anonymous": false,
      "inputs": [
        {
          "indexed": false,
          "internalType": "uint256",
          "name": "positionFee",
          "type": "uint256"
        },
        {
          "indexed": false,
          "internalType": "uint256",
          "name": "liquidationFee",
          "type": "uint256"
        }
      ],
      "name": "PositionFeeSet",
      "type": "event"
    },
    {
      "anonymous": false,
      "inputs": [
        {
          "indexed": true,
          "internalType": "address",
          "name": "treasure",
          "type": "address"
        }
      ],
      "name": "ReferralFeeSet",
      "type": "event"
    },
    {
      "anonymous": false,
      "inputs": [
        {
          "indexed": true,
          "internalType": "address",
          "name": "orderManager",
          "type": "address"
        }
      ],
      "name": "SetOrderManager",
      "type": "event"
    },
    {
      "anonymous": false,
      "inputs": [
        {
          "indexed": true,
          "internalType": "address",
          "name": "sender",
          "type": "address"
        },
        {
          "indexed": false,
          "internalType": "address",
          "name": "tokenIn",
          "type": "address"
        },
        {
          "indexed": false,
          "internalType": "address",
          "name": "tokenOut",
          "type": "address"
        },
        {
          "indexed": false,
          "internalType": "uint256",
          "name": "amountIn",
          "type": "uint256"
        },
        {
          "indexed": false,
          "internalType": "uint256",
          "name": "amountOut",
          "type": "uint256"
        },
        {
          "indexed": false,
          "internalType": "uint256",
          "name": "fee",
          "type": "uint256"
        }
      ],
      "name": "Swap",
      "type": "event"
    },
    {
      "anonymous": false,
      "inputs": [
        {
          "indexed": false,
          "internalType": "uint256",
          "name": "baseSwapFee",
          "type": "uint256"
        },
        {
          "indexed": false,
          "internalType": "uint256",
          "name": "taxBasisPoint",
          "type": "uint256"
        },
        {
          "indexed": false,
          "internalType": "uint256",
          "name": "stableCoinBaseSwapFee",
          "type": "uint256"
        },
        {
          "indexed": false,
          "internalType": "uint256",
          "name": "stableCoinTaxBasisPoint",
          "type": "uint256"
        }
      ],
      "name": "SwapFeeSet",
      "type": "event"
    },
    {
      "anonymous": false,
      "inputs": [
        {
          "indexed": true,
          "internalType": "address",
          "name": "token",
          "type": "address"
        }
      ],
      "name": "TokenDelisted",
      "type": "event"
    },
    {
      "anonymous": false,
      "inputs": [
        {
          "indexed": true,
          "internalType": "address",
          "name": "token",
          "type": "address"
        }
      ],
      "name": "TokenRiskFactorUpdated",
      "type": "event"
    },
    {
      "anonymous": false,
      "inputs": [
        {
          "components": [
            {
              "internalType": "address",
              "name": "token",
              "type": "address"
            },
            {
              "internalType": "uint256",
              "name": "weight",
              "type": "uint256"
            }
          ],
          "indexed": false,
          "internalType": "struct TokenWeight[]",
          "name": "",
          "type": "tuple[]"
        }
      ],
      "name": "TokenWeightSet",
      "type": "event"
    },
    {
      "anonymous": false,
      "inputs": [
        {
          "indexed": true,
          "internalType": "address",
          "name": "token",
          "type": "address"
        }
      ],
      "name": "TokenWhitelisted",
      "type": "event"
    },
    {
      "anonymous": false,
      "inputs": [
        {
          "indexed": true,
          "internalType": "address",
          "name": "lpToken",
          "type": "address"
        }
      ],
      "name": "TrancheAdded",
      "type": "event"
    },
    {
      "anonymous": false,
      "inputs": [
        {
          "indexed": true,
          "internalType": "address",
          "name": "from",
          "type": "address"
        },
        {
          "indexed": true,
          "internalType": "address",
          "name": "to",
          "type": "address"
        },
        {
          "indexed": false,
          "internalType": "uint256",
          "name": "value",
          "type": "uint256"
        }
      ],
      "name": "Transfer",
      "type": "event"
    },
    {
      "anonymous": false,
      "inputs": [
        {
          "indexed": true,
          "internalType": "bytes32",
          "name": "key",
          "type": "bytes32"
        },
        {
          "indexed": false,
          "internalType": "uint256",
          "name": "size",
          "type": "uint256"
        },
        {
          "indexed": false,
          "internalType": "uint256",
          "name": "collateralValue",
          "type": "uint256"
        },
        {
          "indexed": false,
          "internalType": "uint256",
          "name": "entryPrice",
          "type": "uint256"
        },
        {
          "indexed": false,
          "internalType": "uint256",
          "name": "entryInterestRate",
          "type": "uint256"
        },
        {
          "indexed": false,
          "internalType": "uint256",
          "name": "reserveAmount",
          "type": "uint256"
        },
        {
          "indexed": false,
          "internalType": "uint256",
          "name": "indexPrice",
          "type": "uint256"
        }
      ],
      "name": "UpdatePosition",
      "type": "event"
    },
    {
      "inputs": [],
      "name": "accrualInterval",
      "outputs": [
        {
          "internalType": "uint256",
          "name": "",
          "type": "uint256"
        }
      ],
      "stateMutability": "view",
      "type": "function"
    },
    {
      "inputs": [
        {
          "internalType": "address",
          "name": "_token",
          "type": "address"
        },
        {
          "internalType": "uint256",
          "name": "_amountIn",
          "type": "uint256"
        },
        {
          "internalType": "uint256",
          "name": "_minLpAmount",
          "type": "uint256"
        },
        {
          "internalType": "address",
          "name": "_to",
          "type": "address"
        }
      ],
      "name": "addLiquidity",
      "outputs": [],
      "stateMutability": "nonpayable",
      "type": "function"
    },
    {
      "inputs": [
        {
          "internalType": "address",
          "name": "_token",
          "type": "address"
        },
        {
          "internalType": "uint256",
          "name": "_amountIn",
          "type": "uint256"
        },
        {
          "internalType": "uint256",
          "name": "_minLpAmount",
          "type": "uint256"
        },
        {
          "internalType": "address",
          "name": "_to",
          "type": "address"
        },
        {
          "internalType": "address",
          "name": "_origTrader",
          "type": "address"
        }
      ],
      "name": "addLiquidity",
      "outputs": [],
      "stateMutability": "nonpayable",
      "type": "function"
    },
    {
      "inputs": [],
      "name": "addRemoveLiquidityFee",
      "outputs": [
        {
          "internalType": "uint256",
          "name": "",
          "type": "uint256"
        }
      ],
      "stateMutability": "view",
      "type": "function"
    },
    {
      "inputs": [
        {
          "internalType": "address",
          "name": "_token",
          "type": "address"
        },
        {
          "internalType": "bool",
          "name": "_isStableCoin",
          "type": "bool"
        },
        {
          "internalType": "bool",
          "name": "_isPool",
          "type": "bool"
        }
      ],
      "name": "addToken",
      "outputs": [],
      "stateMutability": "nonpayable",
      "type": "function"
    },
    {
      "inputs": [
        {
          "internalType": "uint256",
          "name": "",
          "type": "uint256"
        }
      ],
      "name": "allAssets",
      "outputs": [
        {
          "internalType": "address",
          "name": "",
          "type": "address"
        }
      ],
      "stateMutability": "view",
      "type": "function"
    },
    {
      "inputs": [
        {
          "internalType": "address",
          "name": "owner",
          "type": "address"
        },
        {
          "internalType": "address",
          "name": "spender",
          "type": "address"
        }
      ],
      "name": "allowance",
      "outputs": [
        {
          "internalType": "uint256",
          "name": "",
          "type": "uint256"
        }
      ],
      "stateMutability": "view",
      "type": "function"
    },
    {
      "inputs": [
        {
          "internalType": "address",
          "name": "spender",
          "type": "address"
        },
        {
          "internalType": "uint256",
          "name": "amount",
          "type": "uint256"
        }
      ],
      "name": "approve",
      "outputs": [
        {
          "internalType": "bool",
          "name": "",
          "type": "bool"
        }
      ],
      "stateMutability": "nonpayable",
      "type": "function"
    },
    {
      "inputs": [
        {
          "internalType": "address",
          "name": "",
          "type": "address"
        }
      ],
      "name": "assets",
      "outputs": [
        {
          "internalType": "uint256",
          "name": "feeReserve",
          "type": "uint256"
        },
        {
          "internalType": "uint256",
          "name": "poolBalance",
          "type": "uint256"
        },
        {
          "internalType": "uint256",
          "name": "lastAccrualTimestamp",
          "type": "uint256"
        },
        {
          "internalType": "uint256",
          "name": "borrowIndex",
          "type": "uint256"
        },
        {
          "internalType": "uint256",
          "name": "averageShortPrice",
          "type": "uint256"
        },
        {
          "internalType": "uint256",
          "name": "poolAmount",
          "type": "uint256"
        },
        {
          "internalType": "uint256",
          "name": "reservedAmount",
          "type": "uint256"
        },
        {
          "internalType": "uint256",
          "name": "guaranteedValue",
          "type": "uint256"
        },
        {
          "internalType": "uint256",
          "name": "totalShortSize",
          "type": "uint256"
        }
      ],
      "stateMutability": "view",
      "type": "function"
    },
    {
      "inputs": [
        {
          "internalType": "address",
          "name": "account",
          "type": "address"
        }
      ],
      "name": "balanceOf",
      "outputs": [
        {
          "internalType": "uint256",
          "name": "",
          "type": "uint256"
        }
      ],
      "stateMutability": "view",
      "type": "function"
    },
    {
      "inputs": [
        {
          "internalType": "uint256",
          "name": "amount",
          "type": "uint256"
        }
      ],
      "name": "burn",
      "outputs": [],
      "stateMutability": "nonpayable",
      "type": "function"
    },
    {
      "inputs": [
        {
          "internalType": "address",
          "name": "account",
          "type": "address"
        },
        {
          "internalType": "uint256",
          "name": "amount",
          "type": "uint256"
        }
      ],
      "name": "burnFrom",
      "outputs": [],
      "stateMutability": "nonpayable",
      "type": "function"
    },
    {
      "inputs": [
        {
          "internalType": "address",
          "name": "_token",
          "type": "address"
        },
        {
          "internalType": "uint256",
          "name": "_amountIn",
          "type": "uint256"
        }
      ],
      "name": "calcAddLiquidity",
      "outputs": [
        {
          "internalType": "uint256",
          "name": "amountInAfterFee",
          "type": "uint256"
        },
        {
          "internalType": "uint256",
          "name": "daoFee",
          "type": "uint256"
        },
        {
          "internalType": "uint256",
          "name": "lpAmount",
          "type": "uint256"
        }
      ],
      "stateMutability": "view",
      "type": "function"
    },
    {
      "inputs": [
        {
          "internalType": "address",
          "name": "_tokenOut",
          "type": "address"
        },
        {
          "internalType": "uint256",
          "name": "_lpAmount",
          "type": "uint256"
        }
      ],
      "name": "calcRemoveLiquidity",
      "outputs": [
        {
          "internalType": "uint256",
          "name": "outAmount",
          "type": "uint256"
        },
        {
          "internalType": "uint256",
          "name": "outAmountAfterFee",
          "type": "uint256"
        },
        {
          "internalType": "uint256",
          "name": "feeAmount",
          "type": "uint256"
        }
      ],
      "stateMutability": "view",
      "type": "function"
    },
    {
      "inputs": [
        {
          "internalType": "address",
          "name": "_tokenIn",
          "type": "address"
        },
        {
          "internalType": "address",
          "name": "_tokenOut",
          "type": "address"
        },
        {
          "internalType": "uint256",
          "name": "_amountIn",
          "type": "uint256"
        }
      ],
      "name": "calcSwapOutput",
      "outputs": [
        {
          "internalType": "uint256",
          "name": "amountOut",
          "type": "uint256"
        },
        {
          "internalType": "uint256",
          "name": "feeAmount",
          "type": "uint256"
        }
      ],
      "stateMutability": "view",
      "type": "function"
    },
    {
      "inputs": [],
      "name": "compensationFee",
      "outputs": [
        {
          "internalType": "address",
          "name": "treasure",
          "type": "address"
        },
        {
          "internalType": "uint256",
          "name": "ratio",
          "type": "uint256"
        }
      ],
      "stateMutability": "view",
      "type": "function"
    },
    {
      "inputs": [],
      "name": "decimals",
      "outputs": [
        {
          "internalType": "uint8",
          "name": "",
          "type": "uint8"
        }
      ],
      "stateMutability": "view",
      "type": "function"
    },
    {
      "inputs": [
        {
          "internalType": "address",
          "name": "spender",
          "type": "address"
        },
        {
          "internalType": "uint256",
          "name": "subtractedValue",
          "type": "uint256"
        }
      ],
      "name": "decreaseAllowance",
      "outputs": [
        {
          "internalType": "bool",
          "name": "",
          "type": "bool"
        }
      ],
      "stateMutability": "nonpayable",
      "type": "function"
    },
    {
      "inputs": [
        {
          "internalType": "address",
          "name": "_owner",
          "type": "address"
        },
        {
          "internalType": "address",
          "name": "_indexToken",
          "type": "address"
        },
        {
          "internalType": "address",
          "name": "_collateralToken",
          "type": "address"
        },
        {
          "internalType": "uint256",
          "name": "_collateralChanged",
          "type": "uint256"
        },
        {
          "internalType": "uint256",
          "name": "_sizeChanged",
          "type": "uint256"
        },
        {
          "internalType": "enum Side",
          "name": "_side",
          "type": "uint8"
        },
        {
          "internalType": "address",
          "name": "_receiver",
          "type": "address"
        }
      ],
      "name": "decreasePosition",
      "outputs": [],
      "stateMutability": "nonpayable",
      "type": "function"
    },
    {
      "inputs": [
        {
          "internalType": "address",
          "name": "_token",
          "type": "address"
        }
      ],
      "name": "delistToken",
      "outputs": [],
      "stateMutability": "nonpayable",
      "type": "function"
    },
    {
      "inputs": [],
      "name": "fee",
      "outputs": [
        {
          "internalType": "uint256",
          "name": "positionFee",
          "type": "uint256"
        },
        {
          "internalType": "uint256",
          "name": "liquidationFee",
          "type": "uint256"
        },
        {
          "internalType": "uint256",
          "name": "baseSwapFee",
          "type": "uint256"
        },
        {
          "internalType": "uint256",
          "name": "taxBasisPoint",
          "type": "uint256"
        },
        {
          "internalType": "uint256",
          "name": "stableCoinBaseSwapFee",
          "type": "uint256"
        },
        {
          "internalType": "uint256",
          "name": "stableCoinTaxBasisPoint",
          "type": "uint256"
        },
        {
          "internalType": "uint256",
          "name": "daoFee",
          "type": "uint256"
        }
      ],
      "stateMutability": "view",
      "type": "function"
    },
    {
      "inputs": [],
      "name": "feeDistributor",
      "outputs": [
        {
          "internalType": "address",
          "name": "",
          "type": "address"
        }
      ],
      "stateMutability": "view",
      "type": "function"
    },
    {
      "inputs": [
        {
          "internalType": "address",
          "name": "_token",
          "type": "address"
        }
      ],
      "name": "getAsset",
      "outputs": [
        {
          "components": [
            {
              "internalType": "uint256",
              "name": "feeReserve",
              "type": "uint256"
            },
            {
              "internalType": "uint256",
              "name": "poolBalance",
              "type": "uint256"
            },
            {
              "internalType": "uint256",
              "name": "lastAccrualTimestamp",
              "type": "uint256"
            },
            {
              "internalType": "uint256",
              "name": "borrowIndex",
              "type": "uint256"
            },
            {
              "internalType": "uint256",
              "name": "averageShortPrice",
              "type": "uint256"
            },
            {
              "internalType": "uint256",
              "name": "poolAmount",
              "type": "uint256"
            },
            {
              "internalType": "uint256",
              "name": "reservedAmount",
              "type": "uint256"
            },
            {
              "internalType": "uint256",
              "name": "guaranteedValue",
              "type": "uint256"
            },
            {
              "internalType": "uint256",
              "name": "totalShortSize",
              "type": "uint256"
            }
          ],
          "internalType": "struct AssetInfo",
          "name": "",
          "type": "tuple"
        }
      ],
      "stateMutability": "view",
      "type": "function"
    },
    {
      "inputs": [
        {
          "internalType": "bool",
          "name": "_max",
          "type": "bool"
        }
      ],
      "name": "getPoolPrice",
      "outputs": [
        {
          "internalType": "uint256",
          "name": "price",
          "type": "uint256"
        }
      ],
      "stateMutability": "view",
      "type": "function"
    },
    {
      "inputs": [
        {
          "internalType": "bool",
          "name": "_max",
          "type": "bool"
        }
      ],
      "name": "getPoolValue",
      "outputs": [
        {
          "internalType": "uint256",
          "name": "",
          "type": "uint256"
        }
      ],
      "stateMutability": "view",
      "type": "function"
    },
    {
      "inputs": [
        {
          "internalType": "address",
          "name": "_token",
          "type": "address"
        },
        {
          "internalType": "bool",
          "name": "_max",
          "type": "bool"
        }
      ],
      "name": "getPrice",
      "outputs": [
        {
          "internalType": "uint256",
          "name": "",
          "type": "uint256"
        }
      ],
      "stateMutability": "view",
      "type": "function"
    },
    {
      "inputs": [
        {
          "internalType": "address",
          "name": "spender",
          "type": "address"
        },
        {
          "internalType": "uint256",
          "name": "addedValue",
          "type": "uint256"
        }
      ],
      "name": "increaseAllowance",
      "outputs": [
        {
          "internalType": "bool",
          "name": "",
          "type": "bool"
        }
      ],
      "stateMutability": "nonpayable",
      "type": "function"
    },
    {
      "inputs": [
        {
          "internalType": "address",
          "name": "_owner",
          "type": "address"
        },
        {
          "internalType": "address",
          "name": "_indexToken",
          "type": "address"
        },
        {
          "internalType": "address",
          "name": "_collateralToken",
          "type": "address"
        },
        {
          "internalType": "uint256",
          "name": "_sizeChanged",
          "type": "uint256"
        },
        {
          "internalType": "enum Side",
          "name": "_side",
          "type": "uint8"
        }
      ],
      "name": "increasePosition",
      "outputs": [],
      "stateMutability": "nonpayable",
      "type": "function"
    },
    {
      "inputs": [
        {
          "internalType": "uint256",
          "name": "_maxLeverage",
          "type": "uint256"
        },
        {
          "internalType": "uint256",
          "name": "_positionFee",
          "type": "uint256"
        },
        {
          "internalType": "uint256",
          "name": "_liquidationFee",
          "type": "uint256"
        },
        {
          "internalType": "uint256",
          "name": "_interestRate",
          "type": "uint256"
        },
        {
          "internalType": "uint256",
          "name": "_accrualInterval",
          "type": "uint256"
        },
        {
          "internalType": "uint256",
          "name": "_maintainanceMargin",
          "type": "uint256"
        }
      ],
      "name": "initialize",
      "outputs": [],
      "stateMutability": "nonpayable",
      "type": "function"
    },
    {
      "inputs": [],
      "name": "interestRate",
      "outputs": [
        {
          "internalType": "uint256",
          "name": "",
          "type": "uint256"
        }
      ],
      "stateMutability": "view",
      "type": "function"
    },
    {
      "inputs": [
        {
          "internalType": "address",
          "name": "",
          "type": "address"
        }
      ],
      "name": "isAsset",
      "outputs": [
        {
          "internalType": "bool",
          "name": "",
          "type": "bool"
        }
      ],
      "stateMutability": "view",
      "type": "function"
    },
    {
      "inputs": [
        {
          "internalType": "address",
          "name": "",
          "type": "address"
        }
      ],
      "name": "isListed",
      "outputs": [
        {
          "internalType": "bool",
          "name": "",
          "type": "bool"
        }
      ],
      "stateMutability": "view",
      "type": "function"
    },
    {
      "inputs": [
        {
          "internalType": "address",
          "name": "",
          "type": "address"
        }
      ],
      "name": "isPool",
      "outputs": [
        {
          "internalType": "bool",
          "name": "",
          "type": "bool"
        }
      ],
      "stateMutability": "view",
      "type": "function"
    },
    {
      "inputs": [
        {
          "internalType": "address",
          "name": "",
          "type": "address"
        }
      ],
      "name": "isStableCoin",
      "outputs": [
        {
          "internalType": "bool",
          "name": "",
          "type": "bool"
        }
      ],
      "stateMutability": "view",
      "type": "function"
    },
    {
      "inputs": [
        {
          "internalType": "address",
          "name": "_account",
          "type": "address"
        },
        {
          "internalType": "address",
          "name": "_indexToken",
          "type": "address"
        },
        {
          "internalType": "address",
          "name": "_collateralToken",
          "type": "address"
        },
        {
          "internalType": "enum Side",
          "name": "_side",
          "type": "uint8"
        },
        {
          "internalType": "address payable",
          "name": "_feeTo",
          "type": "address"
        }
      ],
      "name": "liquidatePosition",
      "outputs": [],
      "stateMutability": "nonpayable",
      "type": "function"
    },
    {
      "inputs": [],
      "name": "maintenanceMargin",
      "outputs": [
        {
          "internalType": "uint256",
          "name": "",
          "type": "uint256"
        }
      ],
      "stateMutability": "view",
      "type": "function"
    },
    {
      "inputs": [
        {
          "internalType": "address",
          "name": "",
          "type": "address"
        }
      ],
      "name": "maxGlobalLongSizeRatios",
      "outputs": [
        {
          "internalType": "uint256",
          "name": "",
          "type": "uint256"
        }
      ],
      "stateMutability": "view",
      "type": "function"
    },
    {
      "inputs": [
        {
          "internalType": "address",
          "name": "",
          "type": "address"
        }
      ],
      "name": "maxGlobalShortSizes",
      "outputs": [
        {
          "internalType": "uint256",
          "name": "",
          "type": "uint256"
        }
      ],
      "stateMutability": "view",
      "type": "function"
    },
    {
      "inputs": [],
      "name": "maxLeverage",
      "outputs": [
        {
          "internalType": "uint256",
          "name": "",
          "type": "uint256"
        }
      ],
      "stateMutability": "view",
      "type": "function"
    },
    {
      "inputs": [
        {
          "internalType": "address",
          "name": "",
          "type": "address"
        }
      ],
      "name": "maxLiquidity",
      "outputs": [
        {
          "internalType": "uint256",
          "name": "",
          "type": "uint256"
        }
      ],
      "stateMutability": "view",
      "type": "function"
    },
    {
      "inputs": [],
      "name": "name",
      "outputs": [
        {
          "internalType": "string",
          "name": "",
          "type": "string"
        }
      ],
      "stateMutability": "view",
      "type": "function"
    },
    {
      "inputs": [],
      "name": "operator",
      "outputs": [
        {
          "internalType": "address",
          "name": "",
          "type": "address"
        }
      ],
      "stateMutability": "view",
      "type": "function"
    },
    {
      "inputs": [],
      "name": "oracle",
      "outputs": [
        {
          "internalType": "contract ILevelOracle",
          "name": "",
          "type": "address"
        }
      ],
      "stateMutability": "view",
      "type": "function"
    },
    {
      "inputs": [],
      "name": "orderManager",
      "outputs": [
        {
          "internalType": "address",
          "name": "",
          "type": "address"
        }
      ],
      "stateMutability": "view",
      "type": "function"
    },
    {
      "inputs": [],
      "name": "owner",
      "outputs": [
        {
          "internalType": "address",
          "name": "",
          "type": "address"
        }
      ],
      "stateMutability": "view",
      "type": "function"
    },
    {
      "inputs": [],
      "name": "poolHook",
      "outputs": [
        {
          "internalType": "contract IPoolHook",
          "name": "",
          "type": "address"
        }
      ],
      "stateMutability": "view",
      "type": "function"
    },
    {
      "inputs": [
        {
          "internalType": "bytes32",
          "name": "",
          "type": "bytes32"
        }
      ],
      "name": "positions",
      "outputs": [
        {
          "internalType": "uint256",
          "name": "size",
          "type": "uint256"
        },
        {
          "internalType": "uint256",
          "name": "collateralValue",
          "type": "uint256"
        },
        {
          "internalType": "uint256",
          "name": "reserveAmount",
          "type": "uint256"
        },
        {
          "internalType": "uint256",
          "name": "entryPrice",
          "type": "uint256"
        },
        {
          "internalType": "uint256",
          "name": "borrowIndex",
          "type": "uint256"
        }
      ],
      "stateMutability": "view",
      "type": "function"
    },
    {
      "inputs": [],
      "name": "refreshVirtualPoolValue",
      "outputs": [],
      "stateMutability": "nonpayable",
      "type": "function"
    },
    {
      "inputs": [
        {
          "internalType": "address",
          "name": "_tokenOut",
          "type": "address"
        },
        {
          "internalType": "uint256",
          "name": "_lpAmount",
          "type": "uint256"
        },
        {
          "internalType": "uint256",
          "name": "_minOut",
          "type": "uint256"
        },
        {
          "internalType": "address",
          "name": "_to",
          "type": "address"
        },
        {
          "internalType": "address",
          "name": "_origTrader",
          "type": "address"
        }
      ],
      "name": "removeLiquidity",
      "outputs": [
        {
          "internalType": "uint256",
          "name": "",
          "type": "uint256"
        }
      ],
      "stateMutability": "nonpayable",
      "type": "function"
    },
    {
      "inputs": [
        {
          "internalType": "address",
          "name": "_tokenOut",
          "type": "address"
        },
        {
          "internalType": "uint256",
          "name": "_lpAmount",
          "type": "uint256"
        },
        {
          "internalType": "uint256",
          "name": "_minOut",
          "type": "uint256"
        },
        {
          "internalType": "address",
          "name": "_to",
          "type": "address"
        }
      ],
      "name": "removeLiquidity",
      "outputs": [
        {
          "internalType": "uint256",
          "name": "",
          "type": "uint256"
        }
      ],
      "stateMutability": "nonpayable",
      "type": "function"
    },
    {
      "inputs": [],
      "name": "renounceOwnership",
      "outputs": [],
      "stateMutability": "nonpayable",
      "type": "function"
    },
    {
      "inputs": [],
      "name": "reservedFeeLpAmount",
      "outputs": [
        {
          "internalType": "uint256",
          "name": "",
          "type": "uint256"
        }
      ],
      "stateMutability": "view",
      "type": "function"
    },
    {
      "inputs": [
        {
          "internalType": "uint256",
          "name": "_value",
          "type": "uint256"
        }
      ],
      "name": "setAddRemoveLiquidityFee",
      "outputs": [],
      "stateMutability": "nonpayable",
      "type": "function"
    },
    {
      "inputs": [
        {
          "internalType": "address",
          "name": "_treasure",
          "type": "address"
        },
        {
          "internalType": "uint256",
          "name": "_ratio",
          "type": "uint256"
        }
      ],
      "name": "setCompFee",
      "outputs": [],
      "stateMutability": "nonpayable",
      "type": "function"
    },
    {
      "inputs": [
        {
          "internalType": "uint256",
          "name": "_daoFee",
          "type": "uint256"
        }
      ],
      "name": "setDaoFee",
      "outputs": [],
      "stateMutability": "nonpayable",
      "type": "function"
    },
    {
      "inputs": [
        {
          "internalType": "address",
          "name": "_feeDistributor",
          "type": "address"
        }
      ],
      "name": "setFeeDistributor",
      "outputs": [],
      "stateMutability": "nonpayable",
      "type": "function"
    },
    {
      "inputs": [
        {
          "internalType": "uint256",
          "name": "_interestRate",
          "type": "uint256"
        },
        {
          "internalType": "uint256",
          "name": "_accrualInterval",
          "type": "uint256"
        }
      ],
      "name": "setInterestRate",
      "outputs": [],
      "stateMutability": "nonpayable",
      "type": "function"
    },
    {
      "inputs": [
        {
          "internalType": "uint256",
          "name": "_margin",
          "type": "uint256"
        }
      ],
      "name": "setMaintenanceMargin",
      "outputs": [],
      "stateMutability": "nonpayable",
      "type": "function"
    },
    {
      "inputs": [
        {
          "internalType": "address",
          "name": "_token",
          "type": "address"
        },
        {
          "internalType": "uint256",
          "name": "_ratio",
          "type": "uint256"
        }
      ],
      "name": "setMaxGlobalLongSizeRatio",
      "outputs": [],
      "stateMutability": "nonpayable",
      "type": "function"
    },
    {
      "inputs": [
        {
          "internalType": "address",
          "name": "_token",
          "type": "address"
        },
        {
          "internalType": "uint256",
          "name": "_value",
          "type": "uint256"
        }
      ],
      "name": "setMaxGlobalShortSize",
      "outputs": [],
      "stateMutability": "nonpayable",
      "type": "function"
    },
    {
      "inputs": [
        {
          "internalType": "uint256",
          "name": "_maxLeverage",
          "type": "uint256"
        }
      ],
      "name": "setMaxLeverage",
      "outputs": [],
      "stateMutability": "nonpayable",
      "type": "function"
    },
    {
      "inputs": [
        {
          "internalType": "address",
          "name": "_asset",
          "type": "address"
        },
        {
          "internalType": "uint256",
          "name": "_value",
          "type": "uint256"
        }
      ],
      "name": "setMaxLiquidity",
      "outputs": [],
      "stateMutability": "nonpayable",
      "type": "function"
    },
    {
      "inputs": [
        {
          "internalType": "address",
          "name": "_operator",
          "type": "address"
        }
      ],
      "name": "setOperator",
      "outputs": [],
      "stateMutability": "nonpayable",
      "type": "function"
    },
    {
      "inputs": [
        {
          "internalType": "address",
          "name": "_oracle",
          "type": "address"
        }
      ],
      "name": "setOracle",
      "outputs": [],
      "stateMutability": "nonpayable",
      "type": "function"
    },
    {
      "inputs": [
        {
          "internalType": "address",
          "name": "_orderManager",
          "type": "address"
        }
      ],
      "name": "setOrderManager",
      "outputs": [],
      "stateMutability": "nonpayable",
      "type": "function"
    },
    {
      "inputs": [
        {
          "internalType": "address",
          "name": "_hook",
          "type": "address"
        }
      ],
      "name": "setPoolHook",
      "outputs": [],
      "stateMutability": "nonpayable",
      "type": "function"
    },
    {
      "inputs": [
        {
          "internalType": "uint256",
          "name": "_positionFee",
          "type": "uint256"
        },
        {
          "internalType": "uint256",
          "name": "_liquidationFee",
          "type": "uint256"
        }
      ],
      "name": "setPositionFee",
      "outputs": [],
      "stateMutability": "nonpayable",
      "type": "function"
    },
    {
      "inputs": [
        {
          "internalType": "uint256",
          "name": "_baseSwapFee",
          "type": "uint256"
        },
        {
          "internalType": "uint256",
          "name": "_taxBasisPoint",
          "type": "uint256"
        },
        {
          "internalType": "uint256",
          "name": "_stableCoinBaseSwapFee",
          "type": "uint256"
        },
        {
          "internalType": "uint256",
          "name": "_stableCoinTaxBasisPoint",
          "type": "uint256"
        }
      ],
      "name": "setSwapFee",
      "outputs": [],
      "stateMutability": "nonpayable",
      "type": "function"
    },
    {
      "inputs": [
        {
          "components": [
            {
              "internalType": "address",
              "name": "token",
              "type": "address"
            },
            {
              "internalType": "uint256",
              "name": "weight",
              "type": "uint256"
            }
          ],
          "internalType": "struct TokenWeight[]",
          "name": "tokens",
          "type": "tuple[]"
        }
      ],
      "name": "setTargetWeight",
      "outputs": [],
      "stateMutability": "nonpayable",
      "type": "function"
    },
    {
      "inputs": [
        {
          "internalType": "address",
          "name": "_tokenIn",
          "type": "address"
        },
        {
          "internalType": "address",
          "name": "_tokenOut",
          "type": "address"
        },
        {
          "internalType": "uint256",
          "name": "_minOut",
          "type": "uint256"
        },
        {
          "internalType": "address",
          "name": "_to",
          "type": "address"
        },
        {
          "internalType": "address",
          "name": "_origTrader",
          "type": "address"
        }
      ],
      "name": "swap",
      "outputs": [
        {
          "internalType": "uint256",
          "name": "amountOutAfterFee",
          "type": "uint256"
        }
      ],
      "stateMutability": "nonpayable",
      "type": "function"
    },
    {
      "inputs": [
        {
          "internalType": "address",
          "name": "_tokenIn",
          "type": "address"
        },
        {
          "internalType": "address",
          "name": "_tokenOut",
          "type": "address"
        },
        {
          "internalType": "uint256",
          "name": "_minOut",
          "type": "uint256"
        },
        {
          "internalType": "address",
          "name": "_to",
          "type": "address"
        }
      ],
      "name": "swap",
      "outputs": [
        {
          "internalType": "uint256",
          "name": "amountOutAfterFee",
          "type": "uint256"
        }
      ],
      "stateMutability": "nonpayable",
      "type": "function"
    },
    {
      "inputs": [],
      "name": "symbol",
      "outputs": [
        {
          "internalType": "string",
          "name": "",
          "type": "string"
        }
      ],
      "stateMutability": "view",
      "type": "function"
    },
    {
      "inputs": [
        {
          "internalType": "address",
          "name": "",
          "type": "address"
        }
      ],
      "name": "targetWeights",
      "outputs": [
        {
          "internalType": "uint256",
          "name": "",
          "type": "uint256"
        }
      ],
      "stateMutability": "view",
      "type": "function"
    },
    {
      "inputs": [],
      "name": "totalSupply",
      "outputs": [
        {
          "internalType": "uint256",
          "name": "",
          "type": "uint256"
        }
      ],
      "stateMutability": "view",
      "type": "function"
    },
    {
      "inputs": [],
      "name": "totalWeight",
      "outputs": [
        {
          "internalType": "uint256",
          "name": "",
          "type": "uint256"
        }
      ],
      "stateMutability": "view",
      "type": "function"
    },
    {
      "inputs": [
        {
          "internalType": "address",
          "name": "to",
          "type": "address"
        },
        {
          "internalType": "uint256",
          "name": "amount",
          "type": "uint256"
        }
      ],
      "name": "transfer",
      "outputs": [
        {
          "internalType": "bool",
          "name": "",
          "type": "bool"
        }
      ],
      "stateMutability": "nonpayable",
      "type": "function"
    },
    {
      "inputs": [
        {
          "internalType": "address",
          "name": "from",
          "type": "address"
        },
        {
          "internalType": "address",
          "name": "to",
          "type": "address"
        },
        {
          "internalType": "uint256",
          "name": "amount",
          "type": "uint256"
        }
      ],
      "name": "transferFrom",
      "outputs": [
        {
          "internalType": "bool",
          "name": "",
          "type": "bool"
        }
      ],
      "stateMutability": "nonpayable",
      "type": "function"
    },
    {
      "inputs": [
        {
          "internalType": "address",
          "name": "newOwner",
          "type": "address"
        }
      ],
      "name": "transferOwnership",
      "outputs": [],
      "stateMutability": "nonpayable",
      "type": "function"
    },
    {
      "inputs": [
        {
          "internalType": "address",
          "name": "_indexToken",
          "type": "address"
        },
        {
          "internalType": "address",
          "name": "_collateralToken",
          "type": "address"
        },
        {
          "internalType": "enum Side",
          "name": "_side",
          "type": "uint8"
        },
        {
          "internalType": "bool",
          "name": "_isIncrease",
          "type": "bool"
        }
      ],
      "name": "validateToken",
      "outputs": [
        {
          "internalType": "bool",
          "name": "",
          "type": "bool"
        }
      ],
      "stateMutability": "view",
      "type": "function"
    },
    {
      "inputs": [],
      "name": "virtualPoolValue",
      "outputs": [
        {
          "internalType": "uint256",
          "name": "",
          "type": "uint256"
        }
      ],
      "stateMutability": "view",
      "type": "function"
    },
    {
      "inputs": [
        {
          "internalType": "address",
          "name": "_recipient",
          "type": "address"
        }
      ],
      "name": "withdrawFeeLp",
      "outputs": [],
      "stateMutability": "nonpayable",
      "type": "function"
    }
  ],
  "bytecode": {
    "object": "0x60806040523480156200001157600080fd5b506200001c62000022565b620000e4565b600054610100900460ff16156200008f5760405162461bcd60e51b815260206004820152602760248201527f496e697469616c697a61626c653a20636f6e747261637420697320696e697469604482015266616c697a696e6760c81b606482015260840160405180910390fd5b60005460ff9081161015620000e2576000805460ff191660ff9081179091556040519081527f7f26b83ff96e1f2b6a682f133852f6798a09c465da95921460cefb38474024989060200160405180910390a15b565b615f3280620000f46000396000f3fe608060405234801561001057600080fd5b50600436106103ab5760003560e01c80637c3a00fd116101f25780637c3a00fd146107ac5780637dc0d1d0146107b65780637e12cdc9146107ca5780638da5cb5b146107dd5780638fed0b2c146107e557806395d89b41146107f85780639698d25a1461080057806396c82e5714610821578063a2359b7e1461082b578063a26960d91461083e578063a457c2d714610851578063a9059cbb14610864578063ab5770d314610877578063abffc9ac1461088a578063ae3302c21461089d578063b14a25a8146108a7578063b3ab15fb146108ba578063b45e670a146108cd578063bab3e9e6146108ee578063bc97c95e14610901578063c0da840d14610922578063c790281814610935578063c87fa42a14610948578063cb2d23ba1461096c578063ccfc2e8d14610974578063cd0446c014610987578063cf77c87b1461099a578063d07cb657146109ad578063d3127e63146109c0578063d5eb0581146109d3578063dd62ed3e146109dd578063ddc88817146109f0578063ddca3f43146109fa578063e1f3a41114610a53578063efa10a6e14610a74578063f11b818814610a87578063f2fde38b14610b28578063f794062e14610b3b578063f9891ad914610b5f578063f9b6117f14610b86578063ffceee3014610b9a57600080fd5b806306fdde03146103b0578063095ea7b3146103ce5780630a51f5f0146103f15780630c2bd929146104205780630d43e8ad1461043357806312fef69214610454578063137cc04d1461046957806313f104591461047357806318160ddd1461049557806322660a681461049d57806322c53fa5146104b057806323b872dd146104ba5780632d7aa82b146104cd57806330b8b2c6146104e0578063313ce56714610560578063323dd24c1461056f5780633545c789146105825780633950935114610596578063403093ff146105a957806342966c68146105bc57806344c133e2146105cf578063514ea4bf146105e257806355a0c97114610631578063570ca73514610655578063578e5c221461066957806357b24eb51461067c5780635b16ebb71461068f5780635b9dac89146106b35780635d8048db146106c6578063699bda90146106d95780636afe51a9146106ec5780636c3e7379146106ff5780636dcaaf97146107095780636e81221c1461071c57806370a082311461072f578063715018a61461075857806373b736d01461076057806376d697601461077357806379cc6790146107865780637adbf97314610799575b600080fd5b6103b8610bad565b6040516103c59190615111565b60405180910390f35b6103e16103dc366004615139565b610c3f565b60405190151581526020016103c5565b6104126103ff366004615165565b6101156020526000908152604090205481565b6040519081526020016103c5565b61041261042e366004615190565b610c59565b61010254610447906001600160a01b031681565b6040516103c591906151ad565b6104676104623660046151c1565b610c8e565b005b61041261011b5481565b610486610481366004615139565b610ca1565b6040516103c59392919061520b565b609954610412565b6104126104ab366004615221565b610cbf565b6104126101135481565b6103e16104c8366004615280565b610dc3565b6104676104db3660046152c1565b610de7565b6104f36104ee366004615165565b610f82565b6040516103c59190600061012082019050825182526020830151602083015260408301516040830152606083015160608301526080830151608083015260a083015160a083015260c083015160c083015260e083015160e083015261010080840151818401525092915050565b604051601281526020016103c5565b61046761057d366004615313565b611054565b61011054610447906001600160a01b031681565b6103e16105a4366004615139565b6112d9565b6104866105b7366004615139565b6112fb565b6104676105ca366004615364565b611318565b6104126105dd36600461537d565b611325565b6106206105f0366004615364565b61010f60205260009081526040902080546001820154600283015460038401546004909401549293919290919085565b6040516103c59594939291906153c7565b6103e161063f366004615165565b6101086020526000908152604090205460ff1681565b61011a54610447906001600160a01b031681565b610447610677366004615364565b611533565b61046761068a366004615139565b61155e565b6103e161069d366004615165565b6101166020526000908152604090205460ff1681565b6104676106c13660046153ea565b611604565b6104676106d436600461540c565b611640565b6104676106e7366004615139565b611994565b6104676106fa366004615470565b611a27565b61041261010c5481565b610467610717366004615165565b611af0565b61041261072a3660046154a2565b611b78565b61041261073d366004615165565b6001600160a01b031660009081526097602052604090205490565b610467611b92565b61046761076e366004615221565b611ba6565b6104126107813660046154ea565b611cd8565b610467610794366004615139565b611ceb565b6104676107a7366004615165565b611d00565b61041261010b5481565b61010354610447906001600160a01b031681565b6104676107d8366004615364565b611d64565b610447611ddd565b6104126107f33660046151c1565b611dec565b6103b8611dfb565b61041261080e366004615165565b6101146020526000908152604090205481565b61041261010d5481565b610467610839366004615364565b611e0a565b61046761084c366004615523565b611e41565b6103e161085f366004615139565b611fd7565b6103e1610872366004615139565b612052565b61046761088536600461556e565b612060565b610467610898366004615165565b6123eb565b61041261010e5481565b6104676108b5366004615364565b6124e1565b6104676108c8366004615165565b612554565b6104126108db366004615165565b6101176020526000908152604090205481565b6104126108fc366004615190565b6125b0565b61041261090f366004615165565b6101096020526000908152604090205481565b610467610930366004615165565b6125bb565b6103e16109433660046155f0565b612617565b6103e1610956366004615165565b6101056020526000908152604090205460ff1681565b610467612625565b610467610982366004615165565b612655565b6104676109953660046156ad565b6126b1565b6104676109a8366004615165565b612802565b6104676109bb3660046153ea565b612855565b6104676109ce366004615364565b61288d565b6104126101115481565b6104126109eb366004615777565b6128c4565b6104126101125481565b60fb5460fc5460fd5460fe5460ff546101005461010154610a1e9695949392919087565b604080519788526020880196909652948601939093526060850191909152608084015260a083015260c082015260e0016103c5565b610a66610a61366004615280565b6128ef565b6040516103c59291906157a5565b610467610a82366004615139565b612909565b610ae4610a95366004615165565b61010a6020528060005260406000206000915090508060000154908060010154908060020154908060030154908060040154908060050154908060060154908060070154908060080154905089565b60408051998a5260208a0198909852968801959095526060870193909352608086019190915260a085015260c084015260e0830152610100820152610120016103c5565b610467610b36366004615165565b6129d7565b6103e1610b49366004615165565b6101076020526000908152604090205460ff1681565b6101185461011954610b78916001600160a01b03169082565b6040516103c59291906157b3565b61010454610447906001600160a01b031681565b610467610ba8366004615139565b612a4d565b6060609a8054610bbc906157cc565b80601f0160208091040260200160405190810160405280929190818152602001828054610be8906157cc565b8015610c355780601f10610c0a57610100808354040283529160200191610c35565b820191906000526020600020905b815481529060010190602001808311610c1857829003601f168201915b5050505050905090565b600033610c4d818585612b1d565b60019150505b92915050565b6000610c6460995490565b610c6d83612c41565b610c779190615832565b905080600003610c8957610c89615846565b919050565b610c9b8484848433611ba6565b50505050565b6000806000610cb08585612d93565b50919790965090945092505050565b6000610cc9612e5d565b85610cd381612eb6565b610cdc87612ef2565b50610ce68661303b565b506000806000610cf68a8a612d93565b9350935093505087831015610d1e57604051638199f5f360e01b815260040160405180910390fd5b610d288a83613062565b610d3c8a610d36848661585c565b836130cd565b610d44612625565b610d4e338a613157565b610d598a8885613279565b856001600160a01b0316306001600160a01b03167fd765e08eef31c0983ecca03ecd166297ac485ecd5dd69e291c848f0a020333c18c8c8787604051610da29493929190615874565b60405180910390a3509092505050610dba6001606555565b95945050505050565b600033610dd185828561332b565b610ddc85858561339f565b506001949350505050565b600054610100900460ff1615808015610e075750600054600160ff909116105b80610e285750610e1630613538565b158015610e28575060005460ff166001145b610e905760405162461bcd60e51b815260206004820152602e60248201527f496e697469616c697a61626c653a20636f6e747261637420697320616c72656160448201526d191e481a5b9a5d1a585b1a5e995960921b60648201526084015b60405180910390fd5b6000805460ff191660011790558015610eb3576000805461ff0019166101001790555b610ebb613547565b610ec3613576565b610f036040518060400160405280600381526020016204c4c560ec1b8152506040518060400160405280600381526020016204c4c560ec1b8152506135a5565b610f0c876135d6565b610f16868661362d565b610f20848461368d565b610f29826136fa565b6402540be400610101558015610f79576000805461ff0019169055604051600181527f7f26b83ff96e1f2b6a682f133852f6798a09c465da95921460cefb38474024989060200160405180910390a15b50505050505050565b610fd16040518061012001604052806000815260200160008152602001600081526020016000815260200160008152602001600081526020016000815260200160008152602001600081525090565b506001600160a01b0316600090815261010a6020908152604091829020825161012081018452815481526001820154928101929092526002810154928201929092526003820154606082015260048201546080820152600582015460a0820152600682015460c0820152600782015460e082015260089091015461010082015290565b611061848484600061373e565b6001600160a01b03811661107757611077615846565b600061108284612ef2565b905060006110928787878761377a565b600081815261010f60209081526040808320815160a08101835281548152600182015493810193909352600281015491830191909152600381015460608301526004015460808201529192506110e98887836137b3565b90506110f7828783876137d6565b6111175760405163be12177560e01b815260048101849052602401610e87565b6000611131838a8a8a87600001518860200151600161387c565b905061113f818a8a8a613b5f565b837fb8dde91808abfbf7ad77119efebf6d85920c6a48dd403b135ea9c0b8e2b216888b8a8c8b886000015187608001518a6020015161117e919061589a565b8a6040015189604001518a6060015161119b8c6101200151613bbd565b8c60c001518d61010001516040516111be9c9b9a999897969594939291906158e9565b60405180910390a2600084815261010f60205260408120818155600181018290556002810182905560038101829055600401556101008101516112049089908c90613279565b6112238887836060015160fb6001015461121e9190615832565b613279565b610110546001600160a01b0316156112cd576101105483516020808601516040516001600160a01b03909416936388a494ff938f938f938f938f9361126b93909291016157a5565b6040516020818303038152906040526040518663ffffffff1660e01b815260040161129a95949392919061596a565b600060405180830381600087803b1580156112b457600080fd5b505af11580156112c8573d6000803e3d6000fd5b505050505b50505050505050505050565b600033610c4d8185856112ec83836128c4565b6112f6919061585c565b612b1d565b600080600061130a8585613c04565b919790965090945092505050565b6113223382613157565b50565b600061132f612e5d565b8561133981613c8a565b8561134381612eb6565b866001600160a01b0316886001600160a01b03160361137757876040516369ed396360e01b8152600401610e8791906151ad565b61138088612ef2565b5061138a87612ef2565b50600061139e6113998a613cc6565b61303b565b905060006113ad8a8a84613d82565b9095509050878510156113d357604051638199f5f360e01b815260040160405180910390fd5b60006113de82613e4c565b5090506113eb8b82613062565b6114008b6113f9838661589a565b8c89613e77565b6114098b613edf565b6114148a8988613279565b604080516001600160a01b038d811682528c811660208301529181018590526060810188905260808101849052908816907fd6d34547c69c5ee3d2667625c188acf1006abb93e0ee7cf03925c67cf77604139060a00160405180910390a2610110546001600160a01b03161561152457610110546040805160208101869052908101889052606081018490526001600160a01b03898116608083015290911690638857560b908a908e908e9060a0016040516020818303038152906040526040518563ffffffff1660e01b81526004016114f194939291906159a9565b600060405180830381600087803b15801561150b57600080fd5b505af115801561151f573d6000803e3d6000fd5b505050505b5050505050610dba6001606555565b610106818154811061154457600080fd5b6000918252602090912001546001600160a01b0316905081565b61011a546001600160a01b0316331461158c5733604051633b63649d60e11b8152600401610e8791906151ad565b61159b816402540be400613f43565b6115a482613f67565b61011981905561011880546001600160a01b0319166001600160a01b0384161790556040517fa4a7f0364248f32b8a0382908a465e9b5a54772914ebf839dc08c7e40aa1dbdc906115f890849084906157b3565b60405180910390a15050565b61011a546001600160a01b031633146116325733604051633b63649d60e11b8152600401610e8791906151ad565b61163c828261368d565b5050565b611648613f8e565b611655848483600161373e565b6116a46040518061012001604052806000815260200160008152602001600081526020016000815260200160008152602001600081526020016000815260200160008152602001600081525090565b6116b061139985613cc6565b602082015260006116c2856001613fba565b90508160200151816116d491906159dd565b604083015260006116e486612ef2565b905060006116f48989898861377a565b9050600061010f60008381526020019081526020016000206040518060a0016040529081600082015481526020016001820154815260200160028201548152602001600382015481526020016004820154815250509050611757898760016137b3565b60a086015260c0850187905261176e818885613fc7565b60608601819052611780908590615832565b60e0860181905261179090613e4c565b610100870152608086015260c08501516117ab908590615832565b8552805160c08601516117d59188916117c4908261585c565b84606001518960a001516000614034565b6060820152604085015160208201516117fb916117f19161585c565b86606001516140e6565b602082015260c08501518151611811919061585c565b815260808101839052845160408201805161182d90839061585c565b9150818152505061184681898860018960a001516140fc565b611852858a8a896141c8565b8061010f60008481526020019081526020016000206000820151816000015560208201518160010155604082015181600201556060820151816003015560808201518160040155905050817f229e054f63a87c5e16b19d88ab9e4456cc20893a00bf28101287d80723a91c158b8a8c89602001518a60c001518c8c60a001518c8e606001516040516118ec999897969594939291906159fc565b60405180910390a281600080516020615edd833981519152826000015183602001518460600151856080015186604001518b60a0015160405161193496959493929190615a59565b60405180910390a2610110546001600160a01b0316156112cd5761011060009054906101000a90046001600160a01b03166001600160a01b03166305c317db8b8b8b8a8c8b604001518c6060015160405160200161126b9392919061520b565b61011a546001600160a01b031633146119c25733604051633b63649d60e11b8152600401610e8791906151ad565b816119cc81612eb6565b6001600160a01b0383166000908152610117602052604090819020839055517fec9c3848c23eb795e26ef442f3f0e8ad494b031391184de31defd2d0ca7a294090611a1a90859085906157b3565b60405180910390a1505050565b61011a546001600160a01b03163314611a555733604051633b63649d60e11b8152600401610e8791906151ad565b611a63846305f5e100613f43565b611a71826305f5e100613f43565b611a7f836305f5e100613f43565b611a8d816305f5e100613f43565b60fd84905560fe83905560ff8290556101008190556040805185815260208101859052908101839052606081018290527ffb4f6c9f69eb638af090e017e45b53c84e9abf3ef2a5e4310560fa2e11e3e0409060800160405180910390a150505050565b610102546001600160a01b03163314611b1c5760405163a4cdd60360e01b815260040160405180910390fd5b61011b80546000909155611b3130838361339f565b306001600160a01b03167f9cec4df91fcf7578f3dd3ecfd210c1090b3fb935d2b3697d97342b61ffdd13358383604051611b6c9291906157b3565b60405180910390a25050565b6000611b878585858533611325565b90505b949350505050565b611b9a6142f5565b611ba46000614354565b565b611bae612e5d565b84611bb881613c8a565b611bc186612ef2565b50611bd76001600160a01b0387163330886143a6565b611be361139987613cc6565b94506000806000611bf48989613c04565b92509250925086811015611c1b57604051638199f5f360e01b815260040160405180910390fd5b611c258983613062565b6001600160a01b038916600090815261010a602052604081206005018054859290611c5190849061585c565b90915550611c60905089613edf565b611c68612625565b611c728682614411565b846001600160a01b0316306001600160a01b03167f43c967b388d3a4ccad3f7ab80167852e322e5a3fde9893f530252281b2ae8b708b8b8587604051611cbb9493929190615874565b60405180910390a350505050611cd16001606555565b5050505050565b6000611ce483836144c0565b9392505050565b611cf682338361332b565b61163c8282613157565b611d086142f5565b611d1181613f67565b61010380546001600160a01b038381166001600160a01b0319831681179093556040519116919082907f05cd89403c6bdeac21c2ff33de395121a31fa1bc2bf3adf4825f1f86e79969dd90600090a35050565b61011a546001600160a01b03163314611d925733604051633b63649d60e11b8152600401610e8791906151ad565b611da0816305f5e100613f43565b6101128190556040518181527f9e3c23537384ee5eb18669bc07bf9f95f857ba260a27e565e5cab56b5cd325d9906020015b60405180910390a150565b6033546001600160a01b031690565b6000611b878585858533610cbf565b6060609b8054610bbc906157cc565b61011a546001600160a01b03163314611e385733604051633b63649d60e11b8152600401610e8791906151ad565b611322816136fa565b611e496142f5565b6001600160a01b0383166000908152610105602052604090205460ff16611f5c576001600160a01b0383166000818152610105602090815260408083208054600160ff19918216811790925561010784528285208054821683179055610106805492830181557fc9ef9fceea91e87b2c84ea400a44fde78842aae8aa24cd4b502ce5fb4d91e63b90920180546001600160a01b03191690961790955561010883528184208054861688151517905561011690925290912080549092168315151790915554600a1015611f35576101065460405162d063d760e11b8152610e879190600a906004016157a5565b6040516001600160a01b03841690600080516020615e9d83398151915290600090a2505050565b6001600160a01b0383166000908152610107602052604090205460ff1615611f9957826040516308ab912560e21b8152600401610e8791906151ad565b6001600160a01b03831660008181526101076020526040808220805460ff1916600117905551600080516020615e9d8339815191529190a25b505050565b60003381611fe582866128c4565b9050838110156120455760405162461bcd60e51b815260206004820152602560248201527f45524332303a2064656372656173656420616c6c6f77616e63652062656c6f77604482015264207a65726f60d81b6064820152608401610e87565b610ddc8286868403612b1d565b600033610c4d81858561339f565b612068613f8e565b612075868684600061373e565b600061208086612ef2565b905060006120908989898761377a565b600081815261010f60209081526040808320815160a0810183528154808252600183015494820194909452600282015492810192909252600381015460608301526004015460808201529293509003612104578989898760405163c00d27c360e01b8152600401610e879493929190615a81565b6000612116828b8b898b8d600061387c565b90508060800151826020015161212c919061589a565b815261213a818b8b89613b5f565b6020810151825161214b919061589a565b82526080820184905260a08101516040830151612168919061589a565b8260400181815250508060800151826020018181525050612191828a88600085604001516140fc565b827f0576a5a9bea59359e57724903d9614925a0f7442d79b2047999a70fe4f78490a8c8b8d856000015186602001518c886040015189606001516121d98b6101200151613bbd565b8b60c001516040516121f49a99989796959493929190615aae565b60405180910390a2815160000361228957827f57646b4faf64a91c1ad76512fe716b11edf1056115e03bd65877e0640570ffb5836000015184602001518560600151866080015187604001516040516122519594939291906153c7565b60405180910390a2600083815261010f6020526040812081815560018101829055600281018290556003810182905560040155612310565b82600080516020615edd8339815191528360000151846020015185606001518660800151876040015187604001516040516122c996959493929190615a59565b60405180910390a2600083815261010f6020908152604091829020845181559084015160018201559083015160028201556060830151600382015560808301516004909101555b6123208986836101000151613279565b610110546001600160a01b0316156123de5761011060009054906101000a90046001600160a01b03166001600160a01b031663fd19608d8c8c8c8a866020015187600001518860c0015160405160200161237c9392919061520b565b6040516020818303038152906040526040518663ffffffff1660e01b81526004016123ab95949392919061596a565b600060405180830381600087803b1580156123c557600080fd5b505af11580156123d9573d6000803e3d6000fd5b505050505b5050505050505050505050565b61011a546001600160a01b031633146124195733604051633b63649d60e11b8152600401610e8791906151ad565b6001600160a01b0381166000908152610107602052604090205460ff16612455578060405163d0957f1f60e01b8152600401610e8791906151ad565b6001600160a01b038116600090815261010760209081526040808320805460ff1916905561010990915281205461010d80549192839261249690849061589a565b90915550506001600160a01b03821660008181526101096020526040808220829055517f6621c4efc5efa31320394260425b7d14cbb9d7e3754b2c98c04af66b1cbf315b9190a25050565b61011a546001600160a01b0316331461250f5733604051633b63649d60e11b8152600401610e8791906151ad565b61251e816402540be400613f43565b6101018190556040518181527fb9a82b487887e54d10e6a4a2103a6ec77857215769dcec41f850ee467fd2896090602001611dd2565b61255c6142f5565b61256581613f67565b61011a80546001600160a01b0319166001600160a01b0383169081179091556040517f99d737e0adf2c449d71890b86772885ec7959b152ddb265f76325b6e68e105d390600090a250565b6000610c5382612c41565b6125c36142f5565b6125cc81613f67565b61010480546001600160a01b0319166001600160a01b0383169081179091556040517f3ca8ff425d27ae390700aab4fc3bd68ad54292e65f04097717a261f0c633acc890600090a250565b6000611b8785858585614649565b60026126316000612c41565b61263b6001612c41565b612645919061585c565b61264f9190615832565b61011355565b61265d6142f5565b61266681613f67565b61010280546001600160a01b0319166001600160a01b0383169081179091556040517fc567a7e76455af13dfa1d15455b235923c14ccb050c95473d8341b6bafcc1a5390600090a250565b61011a546001600160a01b031633146126df5733604051633b63649d60e11b8152600401610e8791906151ad565b805161010654811461270457604051630c527ca960e01b815260040160405180910390fd5b6000805b828110156127cb57600084828151811061272457612724615b24565b60209081029190910181015180516001600160a01b0316600090815261010590925260409091205490915060ff1661275e5761275e615846565b80516001600160a01b03166000908152610107602052604081205460ff1661278757600061278d565b81602001515b82516001600160a01b031660009081526101096020526040902081905590506127b6818561585c565b93505050806127c490615b3a565b9050612708565b5061010d8190556040517fdae284678809492c8bd664cadead2a0f413eafac1b7f0739bd92e1b8013155fa90611a1a908590615b53565b61280a6142f5565b61011080546001600160a01b0319166001600160a01b0383169081179091556040517f19bb300333f90fa8a2a80005c472841eb92c400ff856f1741188b2e27a8d072e90600090a250565b61011a546001600160a01b031633146128835733604051633b63649d60e11b8152600401610e8791906151ad565b61163c828261362d565b61011a546001600160a01b031633146128bb5733604051633b63649d60e11b8152600401610e8791906151ad565b611322816135d6565b6001600160a01b03918216600090815260986020908152604080832093909416825291909152205490565b6000806128fd858585613d82565b91509150935093915050565b61011a546001600160a01b031633146129375733604051633b63649d60e11b8152600401610e8791906151ad565b8161294181612eb6565b6001600160a01b0383166000908152610108602052604090205460ff161561297c5760405163464f5bbf60e11b815260040160405180910390fd5b6001600160a01b0383166000818152610114602052604090819020849055517faf0bd2f15075ba3d6f77aac90d32686473de962c7d9b66f43bd123130a7f4aec906129ca9085815260200190565b60405180910390a2505050565b6129df6142f5565b6001600160a01b038116612a445760405162461bcd60e51b815260206004820152602660248201527f4f776e61626c653a206e6577206f776e657220697320746865207a65726f206160448201526564647265737360d01b6064820152608401610e87565b61132281614354565b61011a546001600160a01b03163314612a7b5733604051633b63649d60e11b8152600401610e8791906151ad565b81612a8581612eb6565b6001600160a01b0383166000908152610108602052604090205460ff1615612ac05760405163464f5bbf60e11b815260040160405180910390fd5b612acf826402540be400613f43565b6001600160a01b0383166000818152610115602052604090819020849055517fb0ee0037ef675289515ce80dc845f238b3d117d1fed520ca69c0df95c7f3c0f8906129ca9085815260200190565b6001600160a01b038316612b7f5760405162461bcd60e51b8152602060048201526024808201527f45524332303a20617070726f76652066726f6d20746865207a65726f206164646044820152637265737360e01b6064820152608401610e87565b6001600160a01b038216612be05760405162461bcd60e51b815260206004820152602260248201527f45524332303a20617070726f766520746f20746865207a65726f206164647265604482015261737360f01b6064820152608401610e87565b6001600160a01b0383811660008181526098602090815260408083209487168084529482529182902085905590518481527f8c5be1e5ebec7d5bd14f71427d1e84f3dd0314c0f7b2291e5b200ac8c7c3b925910160405180910390a3505050565b60008060005b61010654811015612d895760006101068281548110612c6857612c68615b24565b60009182526020808320909101546001600160a01b031680835261010590915260409091205490915060ff16612ca057612ca0615846565b6001600160a01b038116600090815261010a6020526040812090612cc483886144c0565b6001600160a01b0384166000908152610108602052604090205490915060ff1615612d1257612d01826005015482612cfc91906159dd565b614764565b612d0b9086615bab565b9450612d7b565b6000826004015490506000612d2e6001856008015484866147ce565b905080612d6285600701548587600601548860050154612d4e919061589a565b612d5891906159dd565b612cfc919061585c565b612d6c9089615bab565b612d769190615bec565b965050505b836001019350505050612c47565b50611ce48161485e565b600080600080612da48660016144c0565b90506000612db26000612c41565b90506000612dbf60995490565b612dc983896159dd565b612dd39190615832565b90506000612dee8985846101125460fb6003015460006148b0565b905083612dfa60995490565b612e04858b6159dd565b612e0e9190615832565b612e189190615832565b9650612e3887612e2d836402540be40061589a565b6402540be400614a07565b9550612e4c612e47878961589a565b613e4c565b508095505050505092959194509250565b600260655403612eaf5760405162461bcd60e51b815260206004820152601f60248201527f5265656e7472616e637947756172643a207265656e7472616e742063616c6c006044820152606401610e87565b6002606555565b6001600160a01b0381166000908152610105602052604090205460ff1661132257806040516340d1d8df60e11b8152600401610e8791906151ad565b6001600160a01b038116600090815261010a60205260408120600281015442901580612f2057506005820154155b15612f475761010c54612f338183615832565b612f3d91906159dd565b6002830155612fe9565b600061010c54836002015483612f5d919061589a565b612f679190615832565b905080600003612f7d5750506003015492915050565b6005830154600684015461010b54612f9590846159dd565b612f9f91906159dd565b612fa99190615832565b836003016000828254612fbc919061585c565b909155505061010c54612fcf90826159dd565b836002016000828254612fe2919061585c565b9091555050505b836001600160a01b03167f5e804d42ae3b860f881d11cb44a4bb1f2f0d5b3d081f5539a32d6f97b629d978836003015460405161302891815260200190565b60405180910390a2506003015492915050565b60008160000361305e57604051631f2a200560e01b815260040160405180910390fd5b5090565b600061306e8383614a1e565b90508060000361307d57505050565b610118546001600160a01b0316156130a65761011854611fd2906001600160a01b031682614411565b6130b03082614411565b8061011b60008282546130c3919061585c565b9091555050505050565b6001600160a01b038316600090815261010a60205260408120600581018054919285926130fb90849061589a565b909155505060068101546005820154101561312b578360405163503e811160e11b8152600401610e8791906151ad565b6001600160a01b0384166000908152610108602052604090205460ff16610c9b57610c9b848284614a82565b6001600160a01b0382166131b75760405162461bcd60e51b815260206004820152602160248201527f45524332303a206275726e2066726f6d20746865207a65726f206164647265736044820152607360f81b6064820152608401610e87565b6001600160a01b0382166000908152609760205260409020548181101561322b5760405162461bcd60e51b815260206004820152602260248201527f45524332303a206275726e20616d6f756e7420657863656564732062616c616e604482015261636560f01b6064820152608401610e87565b6001600160a01b0383166000818152609760209081526040808320868603905560998054879003905551858152919291600080516020615ebd833981519152910160405180910390a3505050565b8015611fd257826132946001600160a01b0382168484614ad6565b6040516370a0823160e01b81526001600160a01b038216906370a08231906132c09030906004016151ad565b602060405180830381865afa1580156132dd573d6000803e3d6000fd5b505050506040513d601f19601f820116820180604052508101906133019190615c2b565b6001600160a01b038516600090815261010a602052604090206001015550505050565b6001606555565b600061333784846128c4565b90506000198114610c9b57818110156133925760405162461bcd60e51b815260206004820152601d60248201527f45524332303a20696e73756666696369656e7420616c6c6f77616e63650000006044820152606401610e87565b610c9b8484848403612b1d565b6001600160a01b0383166134035760405162461bcd60e51b815260206004820152602560248201527f45524332303a207472616e736665722066726f6d20746865207a65726f206164604482015264647265737360d81b6064820152608401610e87565b6001600160a01b0382166134655760405162461bcd60e51b815260206004820152602360248201527f45524332303a207472616e7366657220746f20746865207a65726f206164647260448201526265737360e81b6064820152608401610e87565b6001600160a01b038316600090815260976020526040902054818110156134dd5760405162461bcd60e51b815260206004820152602660248201527f45524332303a207472616e7366657220616d6f756e7420657863656564732062604482015265616c616e636560d01b6064820152608401610e87565b6001600160a01b038085166000818152609760205260408082208686039055928616808252908390208054860190559151600080516020615ebd8339815191529061352b9086815260200190565b60405180910390a3610c9b565b6001600160a01b03163b151590565b600054610100900460ff1661356e5760405162461bcd60e51b8152600401610e8790615c44565b611ba4614af5565b600054610100900460ff1661359d5760405162461bcd60e51b8152600401610e8790615c44565b611ba4614b25565b600054610100900460ff166135cc5760405162461bcd60e51b8152600401610e8790615c44565b61163c8282614b4c565b806000036135f757604051633af35be560e11b815260040160405180910390fd5b61010e8190556040518181527f629b53ebf66271b592438aa954e367dad37de9cd1c1a2b9dc4acade7e1ff9f4090602001611dd2565b61363b826305f5e100613f43565b6136518168fc6f7c40458122964d601f1b613f43565b60fb82905560fc8190556040517f1c22ce892d949604d8532ddac8cca2e0199a1168487d121893beb4d2739700f9906115f890849084906157a5565b60018110156136af576040516305fabb6160e41b815260040160405180910390fd5b6136bc8262989680613f43565b61010b82905561010c8190556040517f1291737bc1f130247bdde7cb11d5ed967988c2052a47a007b5a2a862ef6048e8906115f890849084906157a5565b61370881631dcd6500613f43565b6101118190556040518181527f361f687df539664645c65434f6ac8ca100a42a2411ee76fac9e2fbeeb07f335090602001611dd2565b61374a84848484614649565b610c9b5760405163ec998d1d60e01b81526001600160a01b03808616600483015284166024820152604401610e87565b6000848484846040516020016137939493929190615a81565b604051602081830303815290604052805190602001209050949350505050565b6000611b8a84828560018111156137cc576137cc6158b1565b14841515146144c0565b835160009081036137e957506000611b8a565b60006137fa86876000015185613fc7565b905060006138128688600001518960600151886147ce565b905060006138238860200151614764565b61382d9083615bab565b9050600081128061385a575061011154885161384991906159dd565b6138586402540be400836159dd565b105b80613870575060fc5461386d908461585c565b81105b98975050505050505050565b6138e06040518061018001604052806000815260200160008152602001600081526020016000815260200160008152602001600081526020016000815260200160008152602001600081526020016000815260200160008152602001600081525090565b87516138ec9085614b8c565b816020018181525050828860200151108061390b575060208101518851145b613915578261391b565b87602001515b8152613929878660006137b3565b6040820152613939866000613fba565b60608201528751602082015160408a015161395491906159dd565b61395e9190615832565b8160a001818152505061397f8582602001518a6060015184604001516147ce565b6101208201526020808201516001600160a01b038816600090815261010a9092526040909120600301546139b4918a91613fc7565b60c082018190526000906139c790614764565b82516139d290614764565b8361012001516139e29190615bab565b6139ec9190615bec565b90508215613a0d5760fc54613a0090614764565b613a0a9082615bec565b90505b6000613a2683600001518b60200151612cfc919061589a565b90506000821215613a4257613a3b8282615bab565b9050600091505b6000613a518460600151614764565b9050613a5d8184615c8f565b6101008501526101208401516000831215613aa85785613a9057604051636108ecc160e01b815260040160405180910390fd5b613a9a8382615bec565b600060808701529050613ab0565b608085018390525b6000896001811115613ac457613ac46158b1565b03613ae5578451613ad490614764565b613ade9082615bab565b9050613b1d565b6000811215613b1d57613b1a613b138d6020015160fb600101548860c00151613b0e919061585c565b6140e6565b8290614ba2565b90505b613b278282615c8f565b610140860152606085015160c0860151613b4491612e4791615832565b61016087015260e086015250929a9950505050505050505050565b6001600160a01b038216600090815261010a6020526040902060a085015160068201541015613ba35782604051632333878560e01b8152600401610e8791906151ad565b613bb1838660e00151613062565b611cd185858585614bce565b6040805180820190915260008082526020820152604051806040016040528060008412613beb576001613bee565b60005b8152602001613bfc84614ce7565b905292915050565b600080600080613c158660006144c0565b90506000613c2382876159dd565b90506000613c3e8884846101125460fb6003015460016148b0565b90506000613c5588612e2d846402540be40061589a565b9050613c64612e47828a61589a565b509550613c71868961589a565b9650613c7d8982614a1e565b9450505050509250925092565b6001600160a01b0381166000908152610107602052604090205460ff16611322578060405163d0957f1f60e01b8152600401610e8791906151ad565b600080826001600160a01b03166370a08231306040518263ffffffff1660e01b8152600401613cf591906151ad565b602060405180830381865afa158015613d12573d6000803e3d6000fd5b505050506040513d601f19601f82011682018060405250810190613d369190615c2b565b6001600160a01b038416600090815261010a6020526040902060010154909150613d60908261589a565b6001600160a01b03909316600090815261010a60205260409020600101555090565b6000806000613d928660006144c0565b90506000613da18660016144c0565b90506000613daf83876159dd565b90506000613dc08985846001614cff565b90506000613dd18985856000614cff565b90506000818311613de25781613de4565b825b90506402540be40085613df7838361589a565b613e0190876159dd565b613e0b9190615832565b613e159190615832565b97506402540be40086613e2883876159dd565b613e329190615832565b613e3c9190615832565b9650505050505050935093915050565b600080613e648360fb600601546402540be400614a07565b9150613e70828461589a565b9050915091565b6001600160a01b038216600090815261010a602052604081206005018054839290613ea390849061589a565b90915550506001600160a01b038416600090815261010a602052604081206005018054859290613ed490849061585c565b909155505050505050565b6001600160a01b0381166000908152610117602052604081205490819003613f05575050565b6001600160a01b038216600090815261010a602052604090206005015480821015611fd25760405163eae579c360e01b815260040160405180910390fd5b8082111561163c57604051630a253bc760e41b815260048101829052602401610e87565b6001600160a01b0381166113225760405163d92e233d60e01b815260040160405180910390fd5b610104546001600160a01b03163314611ba45760405163cd44c14b60e01b815260040160405180910390fd5b6000611ce48383156144c0565b6000806402540be4008560000151866080015185613fe5919061589a565b613fef91906159dd565b613ff99190615832565b905060006402540be40060fb600001548661401491906159dd565b61401e9190615832565b905061402a818361585c565b9695505050505050565b6000846000036140465750600061402a565b8560000361405557508161402a565b600082614064898988886147ce565b61406e9190615bec565b9050600061407b87614764565b90506000808a6001811115614092576140926158b1565b146140a6576140a18383615bec565b6140b0565b6140b08383615bab565b905060008113156140d557806140c6878a6159dd565b6140d09190615832565b6140d8565b60005b9a9950505050505050505050565b60008183116140f6576000611ce4565b50900390565b81801561410857508451155b1561412657604051631ee7bc0160e21b815260040160405180910390fd5b6001600160a01b038416600090815261010a6020908152604090912060030154908601518651108061416a575061010e54866020015161416691906159dd565b8651115b15614196578551602087015161010e5460405163488da99360e11b8152610e879392919060040161520b565b6141a2868584846137d6565b156141c057604051636108ecc160e01b815260040160405180910390fd5b505050505050565b6001600160a01b038216600090815261010a60205260408120600581015490918360018111156141fa576141fa6158b1565b03614238576001600160a01b0385166000908152610115602052604090205480156142325761422f82826402540be400614a07565b91505b506142a8565b6001600160a01b0385166000908152610114602090815260408083205460c08a015161010a909352908320600801549092916142739161585c565b9050811580159061428357508082105b156142a5578681604051631bf137fb60e31b8152600401610e879291906157b3565b50505b8551600683015482916142ba9161585c565b11156142db578360405163503e811160e11b8152600401610e8791906151ad565b6142e9848760800151613062565b6141c086868686614d54565b336142fe611ddd565b6001600160a01b031614611ba45760405162461bcd60e51b815260206004820181905260248201527f4f776e61626c653a2063616c6c6572206973206e6f7420746865206f776e65726044820152606401610e87565b603380546001600160a01b038381166001600160a01b0319831681179093556040519116919082907f8be0079c531659141344cd1fd0a4f28419497f9722a3daafe3b4186f6b6457e090600090a35050565b6040516001600160a01b0380851660248301528316604482015260648101829052610c9b9085906323b872dd60e01b906084015b60408051601f198184030181529190526020810180516001600160e01b03166001600160e01b031990931692909217909152614e5d565b6001600160a01b0382166144675760405162461bcd60e51b815260206004820152601f60248201527f45524332303a206d696e7420746f20746865207a65726f2061646472657373006044820152606401610e87565b8060996000828254614479919061585c565b90915550506001600160a01b038216600081815260976020908152604080832080548601905551848152600080516020615ebd833981519152910160405180910390a35050565b6001600160a01b0382166000908152610116602052604081205460ff16156145bf57826001600160a01b03166318160ddd6040518163ffffffff1660e01b8152600401602060405180830381865afa158015614520573d6000803e3d6000fd5b505050506040513d601f19601f820116820180604052508101906145449190615c2b565b604051635d59f4f360e11b815283151560048201526001600160a01b0385169063bab3e9e690602401602060405180830381865afa15801561458a573d6000803e3d6000fd5b505050506040513d601f19601f820116820180604052508101906145ae9190615c2b565b6145b89190615832565b9050614639565b610103546040516303b6b4bb60e51b81526001600160a01b0385811660048301528415156024830152909116906376d6976090604401602060405180830381865afa158015614612573d6000803e3d6000fd5b505050506040513d601f19601f820116820180604052508101906146369190615c2b565b90505b80600003610c5357610c53615846565b6001600160a01b0384166000908152610105602052604081205460ff16158061468c57506001600160a01b0384166000908152610105602052604090205460ff16155b1561469957506000611b8a565b8180156146e457506001600160a01b0385166000908152610107602052604090205460ff1615806146e457506001600160a01b0384166000908152610107602052604090205460ff16155b156146f157506000611b8a565b6000836001811115614705576147056158b1565b14614750576001600160a01b0384166000908152610108602052604090205460ff168061474b57506001600160a01b0384166000908152610116602052604090205460ff165b611b87565b5050506001600160a01b0391821691161490565b60006001600160ff1b0382111561305e5760405162461bcd60e51b815260206004820152602860248201527f53616665436173743a2076616c756520646f65736e27742066697420696e2061604482015267371034b73a191a9b60c11b6064820152608401610e87565b60008315806147db575082155b156147e857506000611b8a565b60006147f384614764565b9050600061480086614764565b9050600061480d85614764565b90506000886001811115614823576148236158b1565b036148525782826148348284615bec565b61483e9190615cbd565b6148489190615c8f565b9350505050611b8a565b82826148348383615bec565b60008082121561305e5760405162461bcd60e51b815260206004820181905260248201527f53616665436173743a2076616c7565206d75737420626520706f7369746976656044820152606401610e87565b60008061010d546000146148f95761010d54610113546001600160a01b038a16600090815261010960205260409020546148ea91906159dd565b6148f49190615832565b6148fc565b60005b90508060000361490f578491505061402a565b6001600160a01b038816600090815261010a602052604081206005015461493690896159dd565b905060008461494e57614949888361589a565b614958565b614958888361585c565b905060006149668385614f2f565b905060006149748386614f2f565b9050818110156149ae5760008561498b848b6159dd565b6149959190615832565b90506149a18a826140e6565b965050505050505061402a565b600060026149bc838561585c565b6149c69190615832565b905060008682116149eb57866149dc838c6159dd565b6149e69190615832565b6149ed565b895b90506149f9818c61585c565b97505050505050505061402a565b600081614a1484866159dd565b611b8a9190615832565b600080614a2c8460006144c0565b90506000614a3a6001612c41565b905080600003614a5b57614a54848364e8d4a51000614a07565b9250614a7a565b614a77614a6760995490565b614a7184876159dd565b83614a07565b92505b505092915050565b816008015482600701548284600601548560050154614aa1919061589a565b614aab91906159dd565b614ab5919061585c565b1015611fd2578260405163503e811160e11b8152600401610e8791906151ad565b611fd28363a9059cbb60e01b84846040516024016143da9291906157b3565b600054610100900460ff16614b1c5760405162461bcd60e51b8152600401610e8790615c44565b611ba433614354565b600054610100900460ff166133245760405162461bcd60e51b8152600401610e8790615c44565b600054610100900460ff16614b735760405162461bcd60e51b8152600401610e8790615c44565b609a614b7f8382615d88565b50609b611fd28282615d88565b6000818310614b9b5781611ce4565b5090919050565b600080614bae83614764565b614bb790615e47565b9050808413614bc65780611b8a565b509192915050565b6001600160a01b038216600090815261010a6020526040812060a086015160068201805492939192909190614c0490849061589a565b92505081905550614c3b856101400151614c2c8761016001518460050154612cfc919061585c565b614c369190615bec565b61485e565b60058201556000826001811115614c5457614c546158b1565b03614c8357602085015185516007830154614c6f919061585c565b614c79919061589a565b6007820155611cd1565b614c9e84866020015160008860400151896101200151614f40565b846020015161010a6000866001600160a01b03166001600160a01b031681526020019081526020016000206008016000828254614cdb919061589a565b90915550505050505050565b6000808212614cf65781610c53565b610c5382615e47565b6001600160a01b038416600090815261010860205260408120548190819060ff16614d2f5760fd5460fe54614d37565b60ff54610100545b91509150614d498787878585896148b0565b979650505050505050565b6001600160a01b038216600090815261010a60205260408120855160068201805492939192909190614d8790849061585c565b9091555050610100850151600582018054600090614da690849061585c565b9091555060009050826001811115614dc057614dc06158b1565b03614e15578460e0015185602001518260050154614dde919061585c565b614de8919061589a565b60058201556040850151606086015160c08701516007840154614e0b919061585c565b614c6f919061585c565b614e2c848660c0015160018860a001516000614f40565b60c08501516001600160a01b038516600090815261010a602052604081206008018054909190614cdb90849061585c565b6000614eb2826040518060400160405280602081526020017f5361666545524332303a206c6f772d6c6576656c2063616c6c206661696c6564815250856001600160a01b0316614fa89092919063ffffffff16565b805190915015611fd25780806020019051810190614ed09190615e63565b611fd25760405162461bcd60e51b815260206004820152602a60248201527f5361666545524332303a204552433230206f7065726174696f6e20646964206e6044820152691bdd081cdd58d8d9595960b21b6064820152608401610e87565b60008183116140f657828203611ce4565b6001600160a01b038516600090815261010a602052604081206008810154909185614f7457614f6f82886140e6565b614f7e565b614f7e878361585c565b6004840154909150614f9560018484848a8a614034565b8460040181905550505050505050505050565b6060611b8a848460008585600080866001600160a01b03168587604051614fcf9190615e80565b60006040518083038185875af1925050503d806000811461500c576040519150601f19603f3d011682016040523d82523d6000602084013e615011565b606091505b5091509150614d49878383876060831561508a5782516000036150835761503785613538565b6150835760405162461bcd60e51b815260206004820152601d60248201527f416464726573733a2063616c6c20746f206e6f6e2d636f6e74726163740000006044820152606401610e87565b5081611b8a565b611b8a838381511561509f5781518083602001fd5b8060405162461bcd60e51b8152600401610e879190615111565b60005b838110156150d45781810151838201526020016150bc565b83811115610c9b5750506000910152565b600081518084526150fd8160208601602086016150b9565b601f01601f19169290920160200192915050565b602081526000611ce460208301846150e5565b6001600160a01b038116811461132257600080fd5b6000806040838503121561514c57600080fd5b823561515781615124565b946020939093013593505050565b60006020828403121561517757600080fd5b8135611ce481615124565b801515811461132257600080fd5b6000602082840312156151a257600080fd5b8135611ce481615182565b6001600160a01b0391909116815260200190565b600080600080608085870312156151d757600080fd5b84356151e281615124565b93506020850135925060408501359150606085013561520081615124565b939692955090935050565b9283526020830191909152604082015260600190565b600080600080600060a0868803121561523957600080fd5b853561524481615124565b94506020860135935060408601359250606086013561526281615124565b9150608086013561527281615124565b809150509295509295909350565b60008060006060848603121561529557600080fd5b83356152a081615124565b925060208401356152b081615124565b929592945050506040919091013590565b60008060008060008060c087890312156152da57600080fd5b505084359660208601359650604086013595606081013595506080810135945060a0013592509050565b803560028110610c8957600080fd5b600080600080600060a0868803121561532b57600080fd5b853561533681615124565b9450602086013561534681615124565b9350604086013561535681615124565b925061526260608701615304565b60006020828403121561537657600080fd5b5035919050565b600080600080600060a0868803121561539557600080fd5b85356153a081615124565b945060208601356153b081615124565b935060408601359250606086013561526281615124565b948552602085019390935260408401919091526060830152608082015260a00190565b600080604083850312156153fd57600080fd5b50508035926020909101359150565b600080600080600060a0868803121561542457600080fd5b853561542f81615124565b9450602086013561543f81615124565b9350604086013561544f81615124565b92506060860135915061546460808701615304565b90509295509295909350565b6000806000806080858703121561548657600080fd5b5050823594602084013594506040840135936060013592509050565b600080600080608085870312156154b857600080fd5b84356154c381615124565b935060208501356154d381615124565b925060408501359150606085013561520081615124565b600080604083850312156154fd57600080fd5b823561550881615124565b9150602083013561551881615182565b809150509250929050565b60008060006060848603121561553857600080fd5b833561554381615124565b9250602084013561555381615182565b9150604084013561556381615182565b809150509250925092565b600080600080600080600060e0888a03121561558957600080fd5b873561559481615124565b965060208801356155a481615124565b955060408801356155b481615124565b945060608801359350608088013592506155d060a08901615304565b915060c08801356155e081615124565b8091505092959891949750929550565b6000806000806080858703121561560657600080fd5b843561561181615124565b9350602085013561562181615124565b925061562f60408601615304565b9150606085013561520081615182565b634e487b7160e01b600052604160045260246000fd5b604080519081016001600160401b03811182821017156156775761567761563f565b60405290565b604051601f8201601f191681016001600160401b03811182821017156156a5576156a561563f565b604052919050565b600060208083850312156156c057600080fd5b82356001600160401b03808211156156d757600080fd5b818501915085601f8301126156eb57600080fd5b8135818111156156fd576156fd61563f565b61570b848260051b0161567d565b818152848101925060069190911b83018401908782111561572b57600080fd5b928401925b81841015614d4957604084890312156157495760008081fd5b615751615655565b843561575c81615124565b81528486013586820152835260409093019291840191615730565b6000806040838503121561578a57600080fd5b823561579581615124565b9150602083013561551881615124565b918252602082015260400190565b6001600160a01b03929092168252602082015260400190565b600181811c908216806157e057607f821691505b60208210810361580057634e487b7160e01b600052602260045260246000fd5b50919050565b634e487b7160e01b600052601260045260246000fd5b634e487b7160e01b600052601160045260246000fd5b60008261584157615841615806565b500490565b634e487b7160e01b600052600160045260246000fd5b6000821982111561586f5761586f61581c565b500190565b6001600160a01b0394909416845260208401929092526040830152606082015260800190565b6000828210156158ac576158ac61581c565b500390565b634e487b7160e01b600052602160045260246000fd5b600281106158e557634e487b7160e01b600052602160045260246000fd5b9052565b6001600160a01b038d811682528c811660208301528b1660408201526101a08101615917606083018c6158c7565b8960808301528860a08301528760c08301528660e08301528561010083015261594e61012083018680518252602090810151910152565b61016082019390935261018001529a9950505050505050505050565b6001600160a01b038681168252858116602083015284166040820152600061599560608301856158c7565b60a06080830152614d4960a08301846150e5565b6001600160a01b03858116825284811660208301528316604082015260806060820181905260009061402a908301846150e5565b60008160001904831182151516156159f7576159f761581c565b500290565b6001600160a01b038a8116825289811660208301528816604082015260608101879052608081018690526101208101615a3860a08301876158c7565b8460c08301528360e0830152826101008301529a9950505050505050505050565b958652602086019490945260408501929092526060840152608083015260a082015260c00190565b6001600160a01b03858116825284811660208301528316604082015260808101610dba60608301846158c7565b6001600160a01b038b811682528a811660208301528916604082015260608101889052608081018790526101608101615aea60a08301886158c7565b8560c08301528460e0830152615b0e61010083018580518252602090810151910152565b826101408301529b9a5050505050505050505050565b634e487b7160e01b600052603260045260246000fd5b600060018201615b4c57615b4c61581c565b5060010190565b602080825282518282018190526000919060409081850190868401855b82811015615b9e57815180516001600160a01b03168552860151868501529284019290850190600101615b70565b5091979650505050505050565b600080821280156001600160ff1b0384900385131615615bcd57615bcd61581c565b600160ff1b8390038412811615615be657615be661581c565b50500190565b60008083128015600160ff1b850184121615615c0a57615c0a61581c565b6001600160ff1b0384018313811615615c2557615c2561581c565b50500390565b600060208284031215615c3d57600080fd5b5051919050565b6020808252602b908201527f496e697469616c697a61626c653a20636f6e7472616374206973206e6f74206960408201526a6e697469616c697a696e6760a81b606082015260800190565b600082615c9e57615c9e615806565b600160ff1b821460001984141615615cb857615cb861581c565b500590565b60006001600160ff1b0381841382841380821686840486111615615ce357615ce361581c565b600160ff1b6000871282811687830589121615615d0257615d0261581c565b60008712925087820587128484161615615d1e57615d1e61581c565b87850587128184161615615d3457615d3461581c565b505050929093029392505050565b601f821115611fd257600081815260208120601f850160051c81016020861015615d695750805b601f850160051c820191505b818110156141c057828155600101615d75565b81516001600160401b03811115615da157615da161563f565b615db581615daf84546157cc565b84615d42565b602080601f831160018114615dea5760008415615dd25750858301515b600019600386901b1c1916600185901b1785556141c0565b600085815260208120601f198616915b82811015615e1957888601518255948401946001909101908401615dfa565b5085821015615e375787850151600019600388901b60f8161c191681555b5050505050600190811b01905550565b6000600160ff1b8201615e5c57615e5c61581c565b5060000390565b600060208284031215615e7557600080fd5b8151611ce481615182565b60008251615e928184602087016150b9565b919091019291505056fe6a65f90b1a644d2faac467a21e07e50e3f8fa5846e26231d30ae79a417d3d262ddf252ad1be2c89b69c2b068fc378daa952ba7f163c4a11628f55a4df523b3ef569f4ef16f93b9d0b6625dcd44e8eb6e6ca8db330ee738654cd9fd57461499c7a2646970667358221220751a6bbe45a74b2736e135f025871208cd939d980bbbf1440b379f0a6b7a653664736f6c634300080f0033",
    "linkReferences": {}
  },
  "methodIdentifiers": {
    "accrualInterval()": "6c3e7379",
    "addLiquidity(address,uint256,uint256,address)": "12fef692",
    "addLiquidity(address,uint256,uint256,address,address)": "73b736d0",
    "addRemoveLiquidityFee()": "ddc88817",
    "addToken(address,bool,bool)": "a26960d9",
    "allAssets(uint256)": "578e5c22",
    "allowance(address,address)": "dd62ed3e",
    "approve(address,uint256)": "095ea7b3",
    "assets(address)": "f11b8188",
    "balanceOf(address)": "70a08231",
    "burn(uint256)": "42966c68",
    "burnFrom(address,uint256)": "79cc6790",
    "calcAddLiquidity(address,uint256)": "403093ff",
    "calcRemoveLiquidity(address,uint256)": "13f10459",
    "calcSwapOutput(address,address,uint256)": "e1f3a411",
    "compensationFee()": "f9891ad9",
    "decimals()": "313ce567",
    "decreaseAllowance(address,uint256)": "a457c2d7",
    "decreasePosition(address,address,address,uint256,uint256,uint8,address)": "ab5770d3",
    "delistToken(address)": "abffc9ac",
    "fee()": "ddca3f43",
    "feeDistributor()": "0d43e8ad",
    "getAsset(address)": "30b8b2c6",
    "getPoolPrice(bool)": "0c2bd929",
    "getPoolValue(bool)": "bab3e9e6",
    "getPrice(address,bool)": "76d69760",
    "increaseAllowance(address,uint256)": "39509351",
    "increasePosition(address,address,address,uint256,uint8)": "5d8048db",
    "initialize(uint256,uint256,uint256,uint256,uint256,uint256)": "2d7aa82b",
    "interestRate()": "7c3a00fd",
    "isAsset(address)": "c87fa42a",
    "isListed(address)": "f794062e",
    "isPool(address)": "5b16ebb7",
    "isStableCoin(address)": "55a0c971",
    "liquidatePosition(address,address,address,uint8,address)": "323dd24c",
    "maintenanceMargin()": "d5eb0581",
    "maxGlobalLongSizeRatios(address)": "0a51f5f0",
    "maxGlobalShortSizes(address)": "9698d25a",
    "maxLeverage()": "ae3302c2",
    "maxLiquidity(address)": "b45e670a",
    "name()": "06fdde03",
    "operator()": "570ca735",
    "oracle()": "7dc0d1d0",
    "orderManager()": "f9b6117f",
    "owner()": "8da5cb5b",
    "poolHook()": "3545c789",
    "positions(bytes32)": "514ea4bf",
    "refreshVirtualPoolValue()": "cb2d23ba",
    "removeLiquidity(address,uint256,uint256,address)": "8fed0b2c",
    "removeLiquidity(address,uint256,uint256,address,address)": "22660a68",
    "renounceOwnership()": "715018a6",
    "reservedFeeLpAmount()": "137cc04d",
    "setAddRemoveLiquidityFee(uint256)": "7e12cdc9",
    "setCompFee(address,uint256)": "57b24eb5",
    "setDaoFee(uint256)": "b14a25a8",
    "setFeeDistributor(address)": "ccfc2e8d",
    "setInterestRate(uint256,uint256)": "5b9dac89",
    "setMaintenanceMargin(uint256)": "a2359b7e",
    "setMaxGlobalLongSizeRatio(address,uint256)": "ffceee30",
    "setMaxGlobalShortSize(address,uint256)": "efa10a6e",
    "setMaxLeverage(uint256)": "d3127e63",
    "setMaxLiquidity(address,uint256)": "699bda90",
    "setOperator(address)": "b3ab15fb",
    "setOracle(address)": "7adbf973",
    "setOrderManager(address)": "c0da840d",
    "setPoolHook(address)": "cf77c87b",
    "setPositionFee(uint256,uint256)": "d07cb657",
    "setSwapFee(uint256,uint256,uint256,uint256)": "6afe51a9",
    "setTargetWeight((address,uint256)[])": "cd0446c0",
    "swap(address,address,uint256,address)": "6e81221c",
    "swap(address,address,uint256,address,address)": "44c133e2",
    "symbol()": "95d89b41",
    "targetWeights(address)": "bc97c95e",
    "totalSupply()": "18160ddd",
    "totalWeight()": "96c82e57",
    "transfer(address,uint256)": "a9059cbb",
    "transferFrom(address,address,uint256)": "23b872dd",
    "transferOwnership(address)": "f2fde38b",
    "validateToken(address,address,uint8,bool)": "c7902818",
    "virtualPoolValue()": "22c53fa5",
    "withdrawFeeLp(address)": "6dcaaf97"
  },
  "id": 109
}