{
  "abi": [
    {
      "inputs": [],
      "stateMutability": "nonpayable",
      "type": "constructor"
    },
    {
      "inputs": [
        {
          "internalType": "address",
          "name": "token",
          "type": "address"
        }
      ],
      "name": "AssetNotListed",
      "type": "error"
    },
    {
      "inputs": [
        {
          "internalType": "address",
          "name": "token",
          "type": "address"
        }
      ],
      "name": "DuplicateToken",
      "type": "error"
    },
    {
      "inputs": [],
      "name": "FeeDistributorOnly",
      "type": "error"
    },
    {
      "inputs": [
        {
          "internalType": "address",
          "name": "token",
          "type": "address"
        }
      ],
      "name": "InsufficientPoolAmount",
      "type": "error"
    },
    {
      "inputs": [],
      "name": "InvalidInterval",
      "type": "error"
    },
    {
      "inputs": [
        {
          "internalType": "uint256",
          "name": "size",
          "type": "uint256"
        },
        {
          "internalType": "uint256",
          "name": "margin",
          "type": "uint256"
        },
        {
          "internalType": "uint256",
          "name": "maxLeverage",
          "type": "uint256"
        }
      ],
      "name": "InvalidLeverage",
      "type": "error"
    },
    {
      "inputs": [],
      "name": "InvalidMaxLeverage",
      "type": "error"
    },
    {
      "inputs": [],
      "name": "InvalidPositionSize",
      "type": "error"
    },
    {
      "inputs": [
        {
          "internalType": "address",
          "name": "index",
          "type": "address"
        },
        {
          "internalType": "address",
          "name": "collateral",
          "type": "address"
        }
      ],
      "name": "InvalidTokenPair",
      "type": "error"
    },
    {
      "inputs": [
        {
          "internalType": "address",
          "name": "token",
          "type": "address"
        },
        {
          "internalType": "uint256",
          "name": "globalShortSize",
          "type": "uint256"
        }
      ],
      "name": "MaxGlobalShortSizeExceeded",
      "type": "error"
    },
    {
      "inputs": [],
      "name": "MaxLiquidityReach",
      "type": "error"
    },
    {
      "inputs": [],
      "name": "NotApplicableForStableCoin",
      "type": "error"
    },
    {
      "inputs": [
        {
          "internalType": "address",
          "name": "user",
          "type": "address"
        }
      ],
      "name": "NotOperator",
      "type": "error"
    },
    {
      "inputs": [],
      "name": "OrderManagerOnly",
      "type": "error"
    },
    {
      "inputs": [
        {
          "internalType": "address",
          "name": "owner",
          "type": "address"
        },
        {
          "internalType": "address",
          "name": "indexToken",
          "type": "address"
        },
        {
          "internalType": "address",
          "name": "collateralToken",
          "type": "address"
        },
        {
          "internalType": "enum Side",
          "name": "side",
          "type": "uint8"
        }
      ],
      "name": "PositionNotExists",
      "type": "error"
    },
    {
      "inputs": [
        {
          "internalType": "bytes32",
          "name": "key",
          "type": "bytes32"
        }
      ],
      "name": "PositionNotLiquidated",
      "type": "error"
    },
    {
      "inputs": [],
      "name": "RequireAllTokens",
      "type": "error"
    },
    {
      "inputs": [
        {
          "internalType": "address",
          "name": "token",
          "type": "address"
        }
      ],
      "name": "ReserveReduceTooMuch",
      "type": "error"
    },
    {
      "inputs": [
        {
          "internalType": "address",
          "name": "token",
          "type": "address"
        }
      ],
      "name": "SameTokenSwap",
      "type": "error"
    },
    {
      "inputs": [],
      "name": "SlippageExceeded",
      "type": "error"
    },
    {
      "inputs": [
        {
          "internalType": "uint256",
          "name": "number",
          "type": "uint256"
        },
        {
          "internalType": "uint256",
          "name": "max",
          "type": "uint256"
        }
      ],
      "name": "TooManyTokenAdded",
      "type": "error"
    },
    {
      "inputs": [
        {
          "internalType": "address",
          "name": "token",
          "type": "address"
        }
      ],
      "name": "UnknownToken",
      "type": "error"
    },
    {
      "inputs": [],
      "name": "UpdateCauseLiquidation",
      "type": "error"
    },
    {
      "inputs": [
        {
          "internalType": "uint256",
          "name": "maxValue",
          "type": "uint256"
        }
      ],
      "name": "ValueTooHigh",
      "type": "error"
    },
    {
      "inputs": [],
      "name": "ZeroAddress",
      "type": "error"
    },
    {
      "inputs": [],
      "name": "ZeroAmount",
      "type": "error"
    },
    {
      "anonymous": false,
      "inputs": [
        {
          "indexed": false,
          "internalType": "uint256",
          "name": "value",
          "type": "uint256"
        }
      ],
      "name": "AddRemoveLiquidityFeeSet",
      "type": "event"
    },
    {
      "anonymous": false,
      "inputs": [
        {
          "indexed": true,
          "internalType": "address",
          "name": "owner",
          "type": "address"
        },
        {
          "indexed": true,
          "internalType": "address",
          "name": "spender",
          "type": "address"
        },
        {
          "indexed": false,
          "internalType": "uint256",
          "name": "value",
          "type": "uint256"
        }
      ],
      "name": "Approval",
      "type": "event"
    },
    {
      "anonymous": false,
      "inputs": [
        {
          "indexed": true,
          "internalType": "bytes32",
          "name": "key",
          "type": "bytes32"
        },
        {
          "indexed": false,
          "internalType": "uint256",
          "name": "size",
          "type": "uint256"
        },
        {
          "indexed": false,
          "internalType": "uint256",
          "name": "collateralValue",
          "type": "uint256"
        },
        {
          "indexed": false,
          "internalType": "uint256",
          "name": "entryPrice",
          "type": "uint256"
        },
        {
          "indexed": false,
          "internalType": "uint256",
          "name": "entryInterestRate",
          "type": "uint256"
        },
        {
          "indexed": false,
          "internalType": "uint256",
          "name": "reserveAmount",
          "type": "uint256"
        }
      ],
      "name": "ClosePosition",
      "type": "event"
    },
    {
      "anonymous": false,
      "inputs": [
        {
          "indexed": false,
          "internalType": "address",
          "name": "_treasure",
          "type": "address"
        },
        {
          "indexed": false,
          "internalType": "uint256",
          "name": "_ratio",
          "type": "uint256"
        }
      ],
      "name": "CompFeeSet",
      "type": "event"
    },
    {
      "anonymous": false,
      "inputs": [
        {
          "indexed": false,
          "internalType": "address",
          "name": "_token",
          "type": "address"
        },
        {
          "indexed": false,
          "internalType": "uint256",
          "name": "_feeAmount",
          "type": "uint256"
        },
        {
          "indexed": false,
          "internalType": "uint256",
          "name": "reserveAmount",
          "type": "uint256"
        },
        {
          "indexed": false,
          "internalType": "uint256",
          "name": "compFeeAmount",
          "type": "uint256"
        },
        {
          "indexed": false,
          "internalType": "uint256",
          "name": "compLpAmount",
          "type": "uint256"
        }
      ],
      "name": "DaoFeeDistribution",
      "type": "event"
    },
    {
      "anonymous": false,
      "inputs": [
        {
          "indexed": true,
          "internalType": "address",
          "name": "token",
          "type": "address"
        },
        {
          "indexed": false,
          "internalType": "uint256",
          "name": "amount",
          "type": "uint256"
        }
      ],
      "name": "DaoFeeReduced",
      "type": "event"
    },
    {
      "anonymous": false,
      "inputs": [
        {
          "indexed": false,
          "internalType": "uint256",
          "name": "value",
          "type": "uint256"
        }
      ],
      "name": "DaoFeeSet",
      "type": "event"
    },
    {
      "anonymous": false,
      "inputs": [
        {
          "indexed": true,
          "internalType": "address",
          "name": "token",
          "type": "address"
        },
        {
          "indexed": false,
          "internalType": "address",
          "name": "recipient",
          "type": "address"
        },
        {
          "indexed": false,
          "internalType": "uint256",
          "name": "amount",
          "type": "uint256"
        }
      ],
      "name": "DaoFeeWithdrawn",
      "type": "event"
    },
    {
      "anonymous": false,
      "inputs": [
        {
          "indexed": true,
          "internalType": "bytes32",
          "name": "key",
          "type": "bytes32"
        },
        {
          "indexed": false,
          "internalType": "address",
          "name": "account",
          "type": "address"
        },
        {
          "indexed": false,
          "internalType": "address",
          "name": "collateralToken",
          "type": "address"
        },
        {
          "indexed": false,
          "internalType": "address",
          "name": "indexToken",
          "type": "address"
        },
        {
          "indexed": false,
          "internalType": "uint256",
          "name": "collateralChanged",
          "type": "uint256"
        },
        {
          "indexed": false,
          "internalType": "uint256",
          "name": "sizeChanged",
          "type": "uint256"
        },
        {
          "indexed": false,
          "internalType": "enum Side",
          "name": "side",
          "type": "uint8"
        },
        {
          "indexed": false,
          "internalType": "uint256",
          "name": "indexPrice",
          "type": "uint256"
        },
        {
          "indexed": false,
          "internalType": "uint256",
          "name": "collateralPrice",
          "type": "uint256"
        },
        {
          "components": [
            {
              "internalType": "uint256",
              "name": "sig",
              "type": "uint256"
            },
            {
              "internalType": "uint256",
              "name": "abs",
              "type": "uint256"
            }
          ],
          "indexed": false,
          "internalType": "struct SignedInt",
          "name": "pnl",
          "type": "tuple"
        },
        {
          "indexed": false,
          "internalType": "uint256",
          "name": "feeValue",
          "type": "uint256"
        }
      ],
      "name": "DecreasePosition",
      "type": "event"
    },
    {
      "anonymous": false,
      "inputs": [],
      "name": "DistributeFeeHook",
      "type": "event"
    },
    {
      "anonymous": false,
      "inputs": [
        {
          "indexed": true,
          "internalType": "address",
          "name": "feeDistributor",
          "type": "address"
        }
      ],
      "name": "FeeDistributorSet",
      "type": "event"
    },
    {
      "anonymous": false,
      "inputs": [
        {
          "indexed": true,
          "internalType": "bytes32",
          "name": "key",
          "type": "bytes32"
        },
        {
          "indexed": false,
          "internalType": "address",
          "name": "account",
          "type": "address"
        },
        {
          "indexed": false,
          "internalType": "address",
          "name": "collateralToken",
          "type": "address"
        },
        {
          "indexed": false,
          "internalType": "address",
          "name": "indexToken",
          "type": "address"
        },
        {
          "indexed": false,
          "internalType": "uint256",
          "name": "collateralValue",
          "type": "uint256"
        },
        {
          "indexed": false,
          "internalType": "uint256",
          "name": "sizeChanged",
          "type": "uint256"
        },
        {
          "indexed": false,
          "internalType": "enum Side",
          "name": "side",
          "type": "uint8"
        },
        {
          "indexed": false,
          "internalType": "uint256",
          "name": "indexPrice",
          "type": "uint256"
        },
        {
          "indexed": false,
          "internalType": "uint256",
          "name": "collateralPrice",
          "type": "uint256"
        },
        {
          "indexed": false,
          "internalType": "uint256",
          "name": "feeValue",
          "type": "uint256"
        }
      ],
      "name": "IncreasePosition",
      "type": "event"
    },
    {
      "anonymous": false,
      "inputs": [
        {
          "indexed": false,
          "internalType": "uint8",
          "name": "version",
          "type": "uint8"
        }
      ],
      "name": "Initialized",
      "type": "event"
    },
    {
      "anonymous": false,
      "inputs": [
        {
          "indexed": true,
          "internalType": "address",
          "name": "token",
          "type": "address"
        },
        {
          "indexed": false,
          "internalType": "uint256",
          "name": "borrowIndex",
          "type": "uint256"
        }
      ],
      "name": "InterestAccrued",
      "type": "event"
    },
    {
      "anonymous": false,
      "inputs": [
        {
          "indexed": false,
          "internalType": "uint256",
          "name": "interestRate",
          "type": "uint256"
        },
        {
          "indexed": false,
          "internalType": "uint256",
          "name": "interval",
          "type": "uint256"
        }
      ],
      "name": "InterestRateSet",
      "type": "event"
    },
    {
      "anonymous": false,
      "inputs": [
        {
          "indexed": true,
          "internalType": "bytes32",
          "name": "key",
          "type": "bytes32"
        },
        {
          "indexed": false,
          "internalType": "address",
          "name": "account",
          "type": "address"
        },
        {
          "indexed": false,
          "internalType": "address",
          "name": "collateralToken",
          "type": "address"
        },
        {
          "indexed": false,
          "internalType": "address",
          "name": "indexToken",
          "type": "address"
        },
        {
          "indexed": false,
          "internalType": "enum Side",
          "name": "side",
          "type": "uint8"
        },
        {
          "indexed": false,
          "internalType": "uint256",
          "name": "size",
          "type": "uint256"
        },
        {
          "indexed": false,
          "internalType": "uint256",
          "name": "collateralValue",
          "type": "uint256"
        },
        {
          "indexed": false,
          "internalType": "uint256",
          "name": "reserveAmount",
          "type": "uint256"
        },
        {
          "indexed": false,
          "internalType": "uint256",
          "name": "indexPrice",
          "type": "uint256"
        },
        {
          "indexed": false,
          "internalType": "uint256",
          "name": "collateralPrice",
          "type": "uint256"
        },
        {
          "components": [
            {
              "internalType": "uint256",
              "name": "sig",
              "type": "uint256"
            },
            {
              "internalType": "uint256",
              "name": "abs",
              "type": "uint256"
            }
          ],
          "indexed": false,
          "internalType": "struct SignedInt",
          "name": "pnl",
          "type": "tuple"
        },
        {
          "indexed": false,
          "internalType": "uint256",
          "name": "feeValue",
          "type": "uint256"
        },
        {
          "indexed": false,
          "internalType": "uint256",
          "name": "payout",
          "type": "uint256"
        }
      ],
      "name": "LiquidatePosition",
      "type": "event"
    },
    {
      "anonymous": false,
      "inputs": [
        {
          "indexed": true,
          "internalType": "address",
          "name": "tranche",
          "type": "address"
        },
        {
          "indexed": true,
          "internalType": "address",
          "name": "sender",
          "type": "address"
        },
        {
          "indexed": false,
          "internalType": "address",
          "name": "token",
          "type": "address"
        },
        {
          "indexed": false,
          "internalType": "uint256",
          "name": "amount",
          "type": "uint256"
        },
        {
          "indexed": false,
          "internalType": "uint256",
          "name": "lpAmount",
          "type": "uint256"
        },
        {
          "indexed": false,
          "internalType": "uint256",
          "name": "fee",
          "type": "uint256"
        }
      ],
      "name": "LiquidityAdded",
      "type": "event"
    },
    {
      "anonymous": false,
      "inputs": [
        {
          "indexed": true,
          "internalType": "address",
          "name": "tranche",
          "type": "address"
        },
        {
          "indexed": true,
          "internalType": "address",
          "name": "sender",
          "type": "address"
        },
        {
          "indexed": false,
          "internalType": "address",
          "name": "token",
          "type": "address"
        },
        {
          "indexed": false,
          "internalType": "uint256",
          "name": "lpAmount",
          "type": "uint256"
        },
        {
          "indexed": false,
          "internalType": "uint256",
          "name": "amountOut",
          "type": "uint256"
        },
        {
          "indexed": false,
          "internalType": "uint256",
          "name": "fee",
          "type": "uint256"
        }
      ],
      "name": "LiquidityRemoved",
      "type": "event"
    },
    {
      "anonymous": false,
      "inputs": [
        {
          "indexed": false,
          "internalType": "uint256",
          "name": "ratio",
          "type": "uint256"
        }
      ],
      "name": "MaintenanceMarginChanged",
      "type": "event"
    },
    {
      "anonymous": false,
      "inputs": [
        {
          "indexed": true,
          "internalType": "address",
          "name": "token",
          "type": "address"
        },
        {
          "indexed": false,
          "internalType": "uint256",
          "name": "max",
          "type": "uint256"
        }
      ],
      "name": "MaxGlobalLongSizeRatioSet",
      "type": "event"
    },
    {
      "anonymous": false,
      "inputs": [
        {
          "indexed": true,
          "internalType": "address",
          "name": "token",
          "type": "address"
        },
        {
          "indexed": false,
          "internalType": "uint256",
          "name": "max",
          "type": "uint256"
        }
      ],
      "name": "MaxGlobalShortSizeSet",
      "type": "event"
    },
    {
      "anonymous": false,
      "inputs": [
        {
          "indexed": false,
          "internalType": "uint256",
          "name": "maxLeverage",
          "type": "uint256"
        }
      ],
      "name": "MaxLeverageChanged",
      "type": "event"
    },
    {
      "anonymous": false,
      "inputs": [
        {
          "indexed": false,
          "internalType": "address",
          "name": "token",
          "type": "address"
        },
        {
          "indexed": false,
          "internalType": "uint256",
          "name": "maxLiquidity",
          "type": "uint256"
        }
      ],
      "name": "MaxLiquiditySet",
      "type": "event"
    },
    {
      "anonymous": false,
      "inputs": [
        {
          "indexed": false,
          "internalType": "uint256",
          "name": "maxPositionSize",
          "type": "uint256"
        }
      ],
      "name": "MaxPositionSizeSet",
      "type": "event"
    },
    {
      "anonymous": false,
      "inputs": [
        {
          "indexed": true,
          "internalType": "address",
          "name": "operator",
          "type": "address"
        }
      ],
      "name": "OperatorSet",
      "type": "event"
    },
    {
      "anonymous": false,
      "inputs": [
        {
          "indexed": true,
          "internalType": "address",
          "name": "oldOracle",
          "type": "address"
        },
        {
          "indexed": true,
          "internalType": "address",
          "name": "newOracle",
          "type": "address"
        }
      ],
      "name": "OracleChanged",
      "type": "event"
    },
    {
      "anonymous": false,
      "inputs": [
        {
          "indexed": true,
          "internalType": "address",
          "name": "previousOwner",
          "type": "address"
        },
        {
          "indexed": true,
          "internalType": "address",
          "name": "newOwner",
          "type": "address"
        }
      ],
      "name": "OwnershipTransferred",
      "type": "event"
    },
    {
      "anonymous": false,
      "inputs": [
        {
          "indexed": true,
          "internalType": "address",
          "name": "asset",
          "type": "address"
        },
        {
          "indexed": true,
          "internalType": "address",
          "name": "tranche",
          "type": "address"
        },
        {
          "indexed": false,
          "internalType": "uint256",
          "name": "amount",
          "type": "uint256"
        },
        {
          "indexed": false,
          "internalType": "bool",
          "name": "hasProfit",
          "type": "bool"
        }
      ],
      "name": "PnLDistributed",
      "type": "event"
    },
    {
      "anonymous": false,
      "inputs": [
        {
          "indexed": true,
          "internalType": "address",
          "name": "hook",
          "type": "address"
        }
      ],
      "name": "PoolHookChanged",
      "type": "event"
    },
    {
      "anonymous": false,
      "inputs": [
        {
          "indexed": false,
          "internalType": "uint256",
          "name": "positionFee",
          "type": "uint256"
        },
        {
          "indexed": false,
          "internalType": "uint256",
          "name": "liquidationFee",
          "type": "uint256"
        }
      ],
      "name": "PositionFeeSet",
      "type": "event"
    },
    {
      "anonymous": false,
      "inputs": [
        {
          "indexed": true,
          "internalType": "address",
          "name": "treasure",
          "type": "address"
        }
      ],
      "name": "ReferralFeeSet",
      "type": "event"
    },
    {
      "anonymous": false,
      "inputs": [
        {
          "indexed": true,
          "internalType": "address",
          "name": "orderManager",
          "type": "address"
        }
      ],
      "name": "SetOrderManager",
      "type": "event"
    },
    {
      "anonymous": false,
      "inputs": [
        {
          "indexed": true,
          "internalType": "address",
          "name": "sender",
          "type": "address"
        },
        {
          "indexed": false,
          "internalType": "address",
          "name": "tokenIn",
          "type": "address"
        },
        {
          "indexed": false,
          "internalType": "address",
          "name": "tokenOut",
          "type": "address"
        },
        {
          "indexed": false,
          "internalType": "uint256",
          "name": "amountIn",
          "type": "uint256"
        },
        {
          "indexed": false,
          "internalType": "uint256",
          "name": "amountOut",
          "type": "uint256"
        },
        {
          "indexed": false,
          "internalType": "uint256",
          "name": "fee",
          "type": "uint256"
        }
      ],
      "name": "Swap",
      "type": "event"
    },
    {
      "anonymous": false,
      "inputs": [
        {
          "indexed": false,
          "internalType": "uint256",
          "name": "baseSwapFee",
          "type": "uint256"
        },
        {
          "indexed": false,
          "internalType": "uint256",
          "name": "taxBasisPoint",
          "type": "uint256"
        },
        {
          "indexed": false,
          "internalType": "uint256",
          "name": "stableCoinBaseSwapFee",
          "type": "uint256"
        },
        {
          "indexed": false,
          "internalType": "uint256",
          "name": "stableCoinTaxBasisPoint",
          "type": "uint256"
        }
      ],
      "name": "SwapFeeSet",
      "type": "event"
    },
    {
      "anonymous": false,
      "inputs": [
        {
          "indexed": true,
          "internalType": "address",
          "name": "token",
          "type": "address"
        }
      ],
      "name": "TokenDelisted",
      "type": "event"
    },
    {
      "anonymous": false,
      "inputs": [
        {
          "indexed": true,
          "internalType": "address",
          "name": "token",
          "type": "address"
        }
      ],
      "name": "TokenRiskFactorUpdated",
      "type": "event"
    },
    {
      "anonymous": false,
      "inputs": [
        {
          "components": [
            {
              "internalType": "address",
              "name": "token",
              "type": "address"
            },
            {
              "internalType": "uint256",
              "name": "weight",
              "type": "uint256"
            }
          ],
          "indexed": false,
          "internalType": "struct TokenWeight[]",
          "name": "",
          "type": "tuple[]"
        }
      ],
      "name": "TokenWeightSet",
      "type": "event"
    },
    {
      "anonymous": false,
      "inputs": [
        {
          "indexed": true,
          "internalType": "address",
          "name": "token",
          "type": "address"
        }
      ],
      "name": "TokenWhitelisted",
      "type": "event"
    },
    {
      "anonymous": false,
      "inputs": [
        {
          "indexed": true,
          "internalType": "address",
          "name": "lpToken",
          "type": "address"
        }
      ],
      "name": "TrancheAdded",
      "type": "event"
    },
    {
      "anonymous": false,
      "inputs": [
        {
          "indexed": true,
          "internalType": "address",
          "name": "from",
          "type": "address"
        },
        {
          "indexed": true,
          "internalType": "address",
          "name": "to",
          "type": "address"
        },
        {
          "indexed": false,
          "internalType": "uint256",
          "name": "value",
          "type": "uint256"
        }
      ],
      "name": "Transfer",
      "type": "event"
    },
    {
      "anonymous": false,
      "inputs": [
        {
          "indexed": true,
          "internalType": "bytes32",
          "name": "key",
          "type": "bytes32"
        },
        {
          "indexed": false,
          "internalType": "uint256",
          "name": "size",
          "type": "uint256"
        },
        {
          "indexed": false,
          "internalType": "uint256",
          "name": "collateralValue",
          "type": "uint256"
        },
        {
          "indexed": false,
          "internalType": "uint256",
          "name": "entryPrice",
          "type": "uint256"
        },
        {
          "indexed": false,
          "internalType": "uint256",
          "name": "entryInterestRate",
          "type": "uint256"
        },
        {
          "indexed": false,
          "internalType": "uint256",
          "name": "reserveAmount",
          "type": "uint256"
        },
        {
          "indexed": false,
          "internalType": "uint256",
          "name": "indexPrice",
          "type": "uint256"
        }
      ],
      "name": "UpdatePosition",
      "type": "event"
    },
    {
      "inputs": [],
      "name": "accrualInterval",
      "outputs": [
        {
          "internalType": "uint256",
          "name": "",
          "type": "uint256"
        }
      ],
      "stateMutability": "view",
      "type": "function"
    },
    {
      "inputs": [
        {
          "internalType": "address",
          "name": "_token",
          "type": "address"
        },
        {
          "internalType": "uint256",
          "name": "_amountIn",
          "type": "uint256"
        },
        {
          "internalType": "uint256",
          "name": "_minLpAmount",
          "type": "uint256"
        },
        {
          "internalType": "address",
          "name": "_to",
          "type": "address"
        }
      ],
      "name": "addLiquidity",
      "outputs": [],
      "stateMutability": "nonpayable",
      "type": "function"
    },
    {
      "inputs": [
        {
          "internalType": "address",
          "name": "_token",
          "type": "address"
        },
        {
          "internalType": "uint256",
          "name": "_amountIn",
          "type": "uint256"
        },
        {
          "internalType": "uint256",
          "name": "_minLpAmount",
          "type": "uint256"
        },
        {
          "internalType": "address",
          "name": "_to",
          "type": "address"
        },
        {
          "internalType": "address",
          "name": "_origTrader",
          "type": "address"
        }
      ],
      "name": "addLiquidity",
      "outputs": [],
      "stateMutability": "nonpayable",
      "type": "function"
    },
    {
      "inputs": [],
      "name": "addRemoveLiquidityFee",
      "outputs": [
        {
          "internalType": "uint256",
          "name": "",
          "type": "uint256"
        }
      ],
      "stateMutability": "view",
      "type": "function"
    },
    {
      "inputs": [
        {
          "internalType": "address",
          "name": "_token",
          "type": "address"
        },
        {
          "internalType": "bool",
          "name": "_isStableCoin",
          "type": "bool"
        },
        {
          "internalType": "bool",
          "name": "_isPool",
          "type": "bool"
        }
      ],
      "name": "addToken",
      "outputs": [],
      "stateMutability": "nonpayable",
      "type": "function"
    },
    {
      "inputs": [
        {
          "internalType": "uint256",
          "name": "",
          "type": "uint256"
        }
      ],
      "name": "allAssets",
      "outputs": [
        {
          "internalType": "address",
          "name": "",
          "type": "address"
        }
      ],
      "stateMutability": "view",
      "type": "function"
    },
    {
      "inputs": [
        {
          "internalType": "address",
          "name": "owner",
          "type": "address"
        },
        {
          "internalType": "address",
          "name": "spender",
          "type": "address"
        }
      ],
      "name": "allowance",
      "outputs": [
        {
          "internalType": "uint256",
          "name": "",
          "type": "uint256"
        }
      ],
      "stateMutability": "view",
      "type": "function"
    },
    {
      "inputs": [
        {
          "internalType": "address",
          "name": "spender",
          "type": "address"
        },
        {
          "internalType": "uint256",
          "name": "amount",
          "type": "uint256"
        }
      ],
      "name": "approve",
      "outputs": [
        {
          "internalType": "bool",
          "name": "",
          "type": "bool"
        }
      ],
      "stateMutability": "nonpayable",
      "type": "function"
    },
    {
      "inputs": [
        {
          "internalType": "address",
          "name": "",
          "type": "address"
        }
      ],
      "name": "assets",
      "outputs": [
        {
          "internalType": "uint256",
          "name": "feeReserve",
          "type": "uint256"
        },
        {
          "internalType": "uint256",
          "name": "poolBalance",
          "type": "uint256"
        },
        {
          "internalType": "uint256",
          "name": "lastAccrualTimestamp",
          "type": "uint256"
        },
        {
          "internalType": "uint256",
          "name": "borrowIndex",
          "type": "uint256"
        },
        {
          "internalType": "uint256",
          "name": "averageShortPrice",
          "type": "uint256"
        },
        {
          "internalType": "uint256",
          "name": "poolAmount",
          "type": "uint256"
        },
        {
          "internalType": "uint256",
          "name": "reservedAmount",
          "type": "uint256"
        },
        {
          "internalType": "uint256",
          "name": "guaranteedValue",
          "type": "uint256"
        },
        {
          "internalType": "uint256",
          "name": "totalShortSize",
          "type": "uint256"
        }
      ],
      "stateMutability": "view",
      "type": "function"
    },
    {
      "inputs": [
        {
          "internalType": "address",
          "name": "account",
          "type": "address"
        }
      ],
      "name": "balanceOf",
      "outputs": [
        {
          "internalType": "uint256",
          "name": "",
          "type": "uint256"
        }
      ],
      "stateMutability": "view",
      "type": "function"
    },
    {
      "inputs": [
        {
          "internalType": "uint256",
          "name": "amount",
          "type": "uint256"
        }
      ],
      "name": "burn",
      "outputs": [],
      "stateMutability": "nonpayable",
      "type": "function"
    },
    {
      "inputs": [
        {
          "internalType": "address",
          "name": "account",
          "type": "address"
        },
        {
          "internalType": "uint256",
          "name": "amount",
          "type": "uint256"
        }
      ],
      "name": "burnFrom",
      "outputs": [],
      "stateMutability": "nonpayable",
      "type": "function"
    },
    {
      "inputs": [
        {
          "internalType": "address",
          "name": "_token",
          "type": "address"
        },
        {
          "internalType": "uint256",
          "name": "_amountIn",
          "type": "uint256"
        }
      ],
      "name": "calcAddLiquidity",
      "outputs": [
        {
          "internalType": "uint256",
          "name": "amountInAfterFee",
          "type": "uint256"
        },
        {
          "internalType": "uint256",
          "name": "daoFee",
          "type": "uint256"
        },
        {
          "internalType": "uint256",
          "name": "lpAmount",
          "type": "uint256"
        }
      ],
      "stateMutability": "view",
      "type": "function"
    },
    {
      "inputs": [
        {
          "internalType": "address",
          "name": "_tokenOut",
          "type": "address"
        },
        {
          "internalType": "uint256",
          "name": "_lpAmount",
          "type": "uint256"
        }
      ],
      "name": "calcRemoveLiquidity",
      "outputs": [
        {
          "internalType": "uint256",
          "name": "outAmount",
          "type": "uint256"
        },
        {
          "internalType": "uint256",
          "name": "outAmountAfterFee",
          "type": "uint256"
        },
        {
          "internalType": "uint256",
          "name": "feeAmount",
          "type": "uint256"
        }
      ],
      "stateMutability": "view",
      "type": "function"
    },
    {
      "inputs": [
        {
          "internalType": "address",
          "name": "_tokenIn",
          "type": "address"
        },
        {
          "internalType": "address",
          "name": "_tokenOut",
          "type": "address"
        },
        {
          "internalType": "uint256",
          "name": "_amountIn",
          "type": "uint256"
        }
      ],
      "name": "calcSwapOutput",
      "outputs": [
        {
          "internalType": "uint256",
          "name": "amountOut",
          "type": "uint256"
        },
        {
          "internalType": "uint256",
          "name": "feeAmount",
          "type": "uint256"
        }
      ],
      "stateMutability": "view",
      "type": "function"
    },
    {
      "inputs": [],
      "name": "decimals",
      "outputs": [
        {
          "internalType": "uint8",
          "name": "",
          "type": "uint8"
        }
      ],
      "stateMutability": "view",
      "type": "function"
    },
    {
      "inputs": [
        {
          "internalType": "address",
          "name": "spender",
          "type": "address"
        },
        {
          "internalType": "uint256",
          "name": "subtractedValue",
          "type": "uint256"
        }
      ],
      "name": "decreaseAllowance",
      "outputs": [
        {
          "internalType": "bool",
          "name": "",
          "type": "bool"
        }
      ],
      "stateMutability": "nonpayable",
      "type": "function"
    },
    {
      "inputs": [
        {
          "internalType": "address",
          "name": "_owner",
          "type": "address"
        },
        {
          "internalType": "address",
          "name": "_indexToken",
          "type": "address"
        },
        {
          "internalType": "address",
          "name": "_collateralToken",
          "type": "address"
        },
        {
          "internalType": "uint256",
          "name": "_collateralChanged",
          "type": "uint256"
        },
        {
          "internalType": "uint256",
          "name": "_sizeChanged",
          "type": "uint256"
        },
        {
          "internalType": "enum Side",
          "name": "_side",
          "type": "uint8"
        },
        {
          "internalType": "address",
          "name": "_receiver",
          "type": "address"
        }
      ],
      "name": "decreasePosition",
      "outputs": [],
      "stateMutability": "nonpayable",
      "type": "function"
    },
    {
      "inputs": [
        {
          "internalType": "address",
          "name": "_token",
          "type": "address"
        }
      ],
      "name": "delistToken",
      "outputs": [],
      "stateMutability": "nonpayable",
      "type": "function"
    },
    {
      "inputs": [],
      "name": "fee",
      "outputs": [
        {
          "internalType": "uint256",
          "name": "positionFee",
          "type": "uint256"
        },
        {
          "internalType": "uint256",
          "name": "liquidationFee",
          "type": "uint256"
        },
        {
          "internalType": "uint256",
          "name": "baseSwapFee",
          "type": "uint256"
        },
        {
          "internalType": "uint256",
          "name": "taxBasisPoint",
          "type": "uint256"
        },
        {
          "internalType": "uint256",
          "name": "stableCoinBaseSwapFee",
          "type": "uint256"
        },
        {
          "internalType": "uint256",
          "name": "stableCoinTaxBasisPoint",
          "type": "uint256"
        },
        {
          "internalType": "uint256",
          "name": "daoFee",
          "type": "uint256"
        }
      ],
      "stateMutability": "view",
      "type": "function"
    },
    {
      "inputs": [],
      "name": "feeDistributor",
      "outputs": [
        {
          "internalType": "address",
          "name": "",
          "type": "address"
        }
      ],
      "stateMutability": "view",
      "type": "function"
    },
    {
      "inputs": [
        {
          "internalType": "address",
          "name": "_token",
          "type": "address"
        }
      ],
      "name": "getAsset",
      "outputs": [
        {
          "components": [
            {
              "internalType": "uint256",
              "name": "feeReserve",
              "type": "uint256"
            },
            {
              "internalType": "uint256",
              "name": "poolBalance",
              "type": "uint256"
            },
            {
              "internalType": "uint256",
              "name": "lastAccrualTimestamp",
              "type": "uint256"
            },
            {
              "internalType": "uint256",
              "name": "borrowIndex",
              "type": "uint256"
            },
            {
              "internalType": "uint256",
              "name": "averageShortPrice",
              "type": "uint256"
            },
            {
              "internalType": "uint256",
              "name": "poolAmount",
              "type": "uint256"
            },
            {
              "internalType": "uint256",
              "name": "reservedAmount",
              "type": "uint256"
            },
            {
              "internalType": "uint256",
              "name": "guaranteedValue",
              "type": "uint256"
            },
            {
              "internalType": "uint256",
              "name": "totalShortSize",
              "type": "uint256"
            }
          ],
          "internalType": "struct AssetInfo",
          "name": "",
          "type": "tuple"
        }
      ],
      "stateMutability": "view",
      "type": "function"
    },
    {
      "inputs": [
        {
          "internalType": "bool",
          "name": "_max",
          "type": "bool"
        }
      ],
      "name": "getPoolPrice",
      "outputs": [
        {
          "internalType": "uint256",
          "name": "price",
          "type": "uint256"
        }
      ],
      "stateMutability": "view",
      "type": "function"
    },
    {
      "inputs": [
        {
          "internalType": "bool",
          "name": "_max",
          "type": "bool"
        }
      ],
      "name": "getPoolValue",
      "outputs": [
        {
          "internalType": "uint256",
          "name": "",
          "type": "uint256"
        }
      ],
      "stateMutability": "view",
      "type": "function"
    },
    {
      "inputs": [
        {
          "internalType": "address",
          "name": "_token",
          "type": "address"
        },
        {
          "internalType": "bool",
          "name": "_max",
          "type": "bool"
        }
      ],
      "name": "getPrice",
      "outputs": [
        {
          "internalType": "uint256",
          "name": "",
          "type": "uint256"
        }
      ],
      "stateMutability": "view",
      "type": "function"
    },
    {
      "inputs": [
        {
          "internalType": "address",
          "name": "spender",
          "type": "address"
        },
        {
          "internalType": "uint256",
          "name": "addedValue",
          "type": "uint256"
        }
      ],
      "name": "increaseAllowance",
      "outputs": [
        {
          "internalType": "bool",
          "name": "",
          "type": "bool"
        }
      ],
      "stateMutability": "nonpayable",
      "type": "function"
    },
    {
      "inputs": [
        {
          "internalType": "address",
          "name": "_owner",
          "type": "address"
        },
        {
          "internalType": "address",
          "name": "_indexToken",
          "type": "address"
        },
        {
          "internalType": "address",
          "name": "_collateralToken",
          "type": "address"
        },
        {
          "internalType": "uint256",
          "name": "_sizeChanged",
          "type": "uint256"
        },
        {
          "internalType": "enum Side",
          "name": "_side",
          "type": "uint8"
        }
      ],
      "name": "increasePosition",
      "outputs": [],
      "stateMutability": "nonpayable",
      "type": "function"
    },
    {
      "inputs": [
        {
          "internalType": "uint256",
          "name": "_maxLeverage",
          "type": "uint256"
        },
        {
          "internalType": "uint256",
          "name": "_positionFee",
          "type": "uint256"
        },
        {
          "internalType": "uint256",
          "name": "_liquidationFee",
          "type": "uint256"
        },
        {
          "internalType": "uint256",
          "name": "_interestRate",
          "type": "uint256"
        },
        {
          "internalType": "uint256",
          "name": "_accrualInterval",
          "type": "uint256"
        },
        {
          "internalType": "uint256",
          "name": "_maintainanceMargin",
          "type": "uint256"
        }
      ],
      "name": "initialize",
      "outputs": [],
      "stateMutability": "nonpayable",
      "type": "function"
    },
    {
      "inputs": [],
      "name": "interestRate",
      "outputs": [
        {
          "internalType": "uint256",
          "name": "",
          "type": "uint256"
        }
      ],
      "stateMutability": "view",
      "type": "function"
    },
    {
      "inputs": [
        {
          "internalType": "address",
          "name": "",
          "type": "address"
        }
      ],
      "name": "isAsset",
      "outputs": [
        {
          "internalType": "bool",
          "name": "",
          "type": "bool"
        }
      ],
      "stateMutability": "view",
      "type": "function"
    },
    {
      "inputs": [
        {
          "internalType": "address",
          "name": "",
          "type": "address"
        }
      ],
      "name": "isListed",
      "outputs": [
        {
          "internalType": "bool",
          "name": "",
          "type": "bool"
        }
      ],
      "stateMutability": "view",
      "type": "function"
    },
    {
      "inputs": [
        {
          "internalType": "address",
          "name": "",
          "type": "address"
        }
      ],
      "name": "isPool",
      "outputs": [
        {
          "internalType": "bool",
          "name": "",
          "type": "bool"
        }
      ],
      "stateMutability": "view",
      "type": "function"
    },
    {
      "inputs": [
        {
          "internalType": "address",
          "name": "",
          "type": "address"
        }
      ],
      "name": "isStableCoin",
      "outputs": [
        {
          "internalType": "bool",
          "name": "",
          "type": "bool"
        }
      ],
      "stateMutability": "view",
      "type": "function"
    },
    {
      "inputs": [],
      "name": "lastDistributeTimestamp",
      "outputs": [
        {
          "internalType": "uint256",
          "name": "",
          "type": "uint256"
        }
      ],
      "stateMutability": "view",
      "type": "function"
    },
    {
      "inputs": [
        {
          "internalType": "address",
          "name": "_account",
          "type": "address"
        },
        {
          "internalType": "address",
          "name": "_indexToken",
          "type": "address"
        },
        {
          "internalType": "address",
          "name": "_collateralToken",
          "type": "address"
        },
        {
          "internalType": "enum Side",
          "name": "_side",
          "type": "uint8"
        },
        {
          "internalType": "address payable",
          "name": "_feeTo",
          "type": "address"
        }
      ],
      "name": "liquidatePosition",
      "outputs": [],
      "stateMutability": "nonpayable",
      "type": "function"
    },
    {
      "inputs": [],
      "name": "maintenanceMargin",
      "outputs": [
        {
          "internalType": "uint256",
          "name": "",
          "type": "uint256"
        }
      ],
      "stateMutability": "view",
      "type": "function"
    },
    {
      "inputs": [
        {
          "internalType": "address",
          "name": "",
          "type": "address"
        }
      ],
      "name": "maxGlobalLongSizeRatios",
      "outputs": [
        {
          "internalType": "uint256",
          "name": "",
          "type": "uint256"
        }
      ],
      "stateMutability": "view",
      "type": "function"
    },
    {
      "inputs": [
        {
          "internalType": "address",
          "name": "",
          "type": "address"
        }
      ],
      "name": "maxGlobalShortSizes",
      "outputs": [
        {
          "internalType": "uint256",
          "name": "",
          "type": "uint256"
        }
      ],
      "stateMutability": "view",
      "type": "function"
    },
    {
      "inputs": [],
      "name": "maxLeverage",
      "outputs": [
        {
          "internalType": "uint256",
          "name": "",
          "type": "uint256"
        }
      ],
      "stateMutability": "view",
      "type": "function"
    },
    {
      "inputs": [
        {
          "internalType": "address",
          "name": "",
          "type": "address"
        }
      ],
      "name": "maxLiquidity",
      "outputs": [
        {
          "internalType": "uint256",
          "name": "",
          "type": "uint256"
        }
      ],
      "stateMutability": "view",
      "type": "function"
    },
    {
      "inputs": [],
      "name": "name",
      "outputs": [
        {
          "internalType": "string",
          "name": "",
          "type": "string"
        }
      ],
      "stateMutability": "view",
      "type": "function"
    },
    {
      "inputs": [],
      "name": "operator",
      "outputs": [
        {
          "internalType": "address",
          "name": "",
          "type": "address"
        }
      ],
      "stateMutability": "view",
      "type": "function"
    },
    {
      "inputs": [],
      "name": "oracle",
      "outputs": [
        {
          "internalType": "contract ILevelOracle",
          "name": "",
          "type": "address"
        }
      ],
      "stateMutability": "view",
      "type": "function"
    },
    {
      "inputs": [],
      "name": "orderManager",
      "outputs": [
        {
          "internalType": "address",
          "name": "",
          "type": "address"
        }
      ],
      "stateMutability": "view",
      "type": "function"
    },
    {
      "inputs": [],
      "name": "owner",
      "outputs": [
        {
          "internalType": "address",
          "name": "",
          "type": "address"
        }
      ],
      "stateMutability": "view",
      "type": "function"
    },
    {
      "inputs": [],
      "name": "poolHook",
      "outputs": [
        {
          "internalType": "contract IPoolHook",
          "name": "",
          "type": "address"
        }
      ],
      "stateMutability": "view",
      "type": "function"
    },
    {
      "inputs": [
        {
          "internalType": "bytes32",
          "name": "",
          "type": "bytes32"
        }
      ],
      "name": "positions",
      "outputs": [
        {
          "internalType": "uint256",
          "name": "size",
          "type": "uint256"
        },
        {
          "internalType": "uint256",
          "name": "collateralValue",
          "type": "uint256"
        },
        {
          "internalType": "uint256",
          "name": "reserveAmount",
          "type": "uint256"
        },
        {
          "internalType": "uint256",
          "name": "entryPrice",
          "type": "uint256"
        },
        {
          "internalType": "uint256",
          "name": "borrowIndex",
          "type": "uint256"
        }
      ],
      "stateMutability": "view",
      "type": "function"
    },
    {
      "inputs": [],
      "name": "refreshVirtualPoolValue",
      "outputs": [],
      "stateMutability": "nonpayable",
      "type": "function"
    },
    {
      "inputs": [
        {
          "internalType": "address",
          "name": "_tokenOut",
          "type": "address"
        },
        {
          "internalType": "uint256",
          "name": "_lpAmount",
          "type": "uint256"
        },
        {
          "internalType": "uint256",
          "name": "_minOut",
          "type": "uint256"
        },
        {
          "internalType": "address",
          "name": "_to",
          "type": "address"
        },
        {
          "internalType": "address",
          "name": "_origTrader",
          "type": "address"
        }
      ],
      "name": "removeLiquidity",
      "outputs": [
        {
          "internalType": "uint256",
          "name": "",
          "type": "uint256"
        }
      ],
      "stateMutability": "nonpayable",
      "type": "function"
    },
    {
      "inputs": [
        {
          "internalType": "address",
          "name": "_tokenOut",
          "type": "address"
        },
        {
          "internalType": "uint256",
          "name": "_lpAmount",
          "type": "uint256"
        },
        {
          "internalType": "uint256",
          "name": "_minOut",
          "type": "uint256"
        },
        {
          "internalType": "address",
          "name": "_to",
          "type": "address"
        }
      ],
      "name": "removeLiquidity",
      "outputs": [
        {
          "internalType": "uint256",
          "name": "",
          "type": "uint256"
        }
      ],
      "stateMutability": "nonpayable",
      "type": "function"
    },
    {
      "inputs": [],
      "name": "renounceOwnership",
      "outputs": [],
      "stateMutability": "nonpayable",
      "type": "function"
    },
    {
      "inputs": [
        {
          "internalType": "uint256",
          "name": "_value",
          "type": "uint256"
        }
      ],
      "name": "setAddRemoveLiquidityFee",
      "outputs": [],
      "stateMutability": "nonpayable",
      "type": "function"
    },
    {
      "inputs": [
        {
          "internalType": "uint256",
          "name": "_daoFee",
          "type": "uint256"
        }
      ],
      "name": "setDaoFee",
      "outputs": [],
      "stateMutability": "nonpayable",
      "type": "function"
    },
    {
      "inputs": [
        {
          "internalType": "address",
          "name": "_feeDistributor",
          "type": "address"
        }
      ],
      "name": "setFeeDistributor",
      "outputs": [],
      "stateMutability": "nonpayable",
      "type": "function"
    },
    {
      "inputs": [
        {
          "internalType": "uint256",
          "name": "_interestRate",
          "type": "uint256"
        },
        {
          "internalType": "uint256",
          "name": "_accrualInterval",
          "type": "uint256"
        }
      ],
      "name": "setInterestRate",
      "outputs": [],
      "stateMutability": "nonpayable",
      "type": "function"
    },
    {
      "inputs": [
        {
          "internalType": "uint256",
          "name": "_margin",
          "type": "uint256"
        }
      ],
      "name": "setMaintenanceMargin",
      "outputs": [],
      "stateMutability": "nonpayable",
      "type": "function"
    },
    {
      "inputs": [
        {
          "internalType": "address",
          "name": "_token",
          "type": "address"
        },
        {
          "internalType": "uint256",
          "name": "_ratio",
          "type": "uint256"
        }
      ],
      "name": "setMaxGlobalLongSizeRatio",
      "outputs": [],
      "stateMutability": "nonpayable",
      "type": "function"
    },
    {
      "inputs": [
        {
          "internalType": "address",
          "name": "_token",
          "type": "address"
        },
        {
          "internalType": "uint256",
          "name": "_value",
          "type": "uint256"
        }
      ],
      "name": "setMaxGlobalShortSize",
      "outputs": [],
      "stateMutability": "nonpayable",
      "type": "function"
    },
    {
      "inputs": [
        {
          "internalType": "uint256",
          "name": "_maxLeverage",
          "type": "uint256"
        }
      ],
      "name": "setMaxLeverage",
      "outputs": [],
      "stateMutability": "nonpayable",
      "type": "function"
    },
    {
      "inputs": [
        {
          "internalType": "address",
          "name": "_asset",
          "type": "address"
        },
        {
          "internalType": "uint256",
          "name": "_value",
          "type": "uint256"
        }
      ],
      "name": "setMaxLiquidity",
      "outputs": [],
      "stateMutability": "nonpayable",
      "type": "function"
    },
    {
      "inputs": [
        {
          "internalType": "address",
          "name": "_operator",
          "type": "address"
        }
      ],
      "name": "setOperator",
      "outputs": [],
      "stateMutability": "nonpayable",
      "type": "function"
    },
    {
      "inputs": [
        {
          "internalType": "address",
          "name": "_oracle",
          "type": "address"
        }
      ],
      "name": "setOracle",
      "outputs": [],
      "stateMutability": "nonpayable",
      "type": "function"
    },
    {
      "inputs": [
        {
          "internalType": "address",
          "name": "_orderManager",
          "type": "address"
        }
      ],
      "name": "setOrderManager",
      "outputs": [],
      "stateMutability": "nonpayable",
      "type": "function"
    },
    {
      "inputs": [
        {
          "internalType": "address",
          "name": "_hook",
          "type": "address"
        }
      ],
      "name": "setPoolHook",
      "outputs": [],
      "stateMutability": "nonpayable",
      "type": "function"
    },
    {
      "inputs": [
        {
          "internalType": "uint256",
          "name": "_positionFee",
          "type": "uint256"
        },
        {
          "internalType": "uint256",
          "name": "_liquidationFee",
          "type": "uint256"
        }
      ],
      "name": "setPositionFee",
      "outputs": [],
      "stateMutability": "nonpayable",
      "type": "function"
    },
    {
      "inputs": [
        {
          "internalType": "uint256",
          "name": "_baseSwapFee",
          "type": "uint256"
        },
        {
          "internalType": "uint256",
          "name": "_taxBasisPoint",
          "type": "uint256"
        },
        {
          "internalType": "uint256",
          "name": "_stableCoinBaseSwapFee",
          "type": "uint256"
        },
        {
          "internalType": "uint256",
          "name": "_stableCoinTaxBasisPoint",
          "type": "uint256"
        }
      ],
      "name": "setSwapFee",
      "outputs": [],
      "stateMutability": "nonpayable",
      "type": "function"
    },
    {
      "inputs": [
        {
          "components": [
            {
              "internalType": "address",
              "name": "token",
              "type": "address"
            },
            {
              "internalType": "uint256",
              "name": "weight",
              "type": "uint256"
            }
          ],
          "internalType": "struct TokenWeight[]",
          "name": "tokens",
          "type": "tuple[]"
        }
      ],
      "name": "setTargetWeight",
      "outputs": [],
      "stateMutability": "nonpayable",
      "type": "function"
    },
    {
      "inputs": [
        {
          "internalType": "address",
          "name": "_tokenIn",
          "type": "address"
        },
        {
          "internalType": "address",
          "name": "_tokenOut",
          "type": "address"
        },
        {
          "internalType": "uint256",
          "name": "_minOut",
          "type": "uint256"
        },
        {
          "internalType": "address",
          "name": "_to",
          "type": "address"
        },
        {
          "internalType": "address",
          "name": "_origTrader",
          "type": "address"
        }
      ],
      "name": "swap",
      "outputs": [
        {
          "internalType": "uint256",
          "name": "amountOutAfterFee",
          "type": "uint256"
        }
      ],
      "stateMutability": "nonpayable",
      "type": "function"
    },
    {
      "inputs": [
        {
          "internalType": "address",
          "name": "_tokenIn",
          "type": "address"
        },
        {
          "internalType": "address",
          "name": "_tokenOut",
          "type": "address"
        },
        {
          "internalType": "uint256",
          "name": "_minOut",
          "type": "uint256"
        },
        {
          "internalType": "address",
          "name": "_to",
          "type": "address"
        }
      ],
      "name": "swap",
      "outputs": [
        {
          "internalType": "uint256",
          "name": "amountOutAfterFee",
          "type": "uint256"
        }
      ],
      "stateMutability": "nonpayable",
      "type": "function"
    },
    {
      "inputs": [],
      "name": "symbol",
      "outputs": [
        {
          "internalType": "string",
          "name": "",
          "type": "string"
        }
      ],
      "stateMutability": "view",
      "type": "function"
    },
    {
      "inputs": [
        {
          "internalType": "address",
          "name": "",
          "type": "address"
        }
      ],
      "name": "targetWeights",
      "outputs": [
        {
          "internalType": "uint256",
          "name": "",
          "type": "uint256"
        }
      ],
      "stateMutability": "view",
      "type": "function"
    },
    {
      "inputs": [],
      "name": "totalSupply",
      "outputs": [
        {
          "internalType": "uint256",
          "name": "",
          "type": "uint256"
        }
      ],
      "stateMutability": "view",
      "type": "function"
    },
    {
      "inputs": [],
      "name": "totalWeight",
      "outputs": [
        {
          "internalType": "uint256",
          "name": "",
          "type": "uint256"
        }
      ],
      "stateMutability": "view",
      "type": "function"
    },
    {
      "inputs": [
        {
          "internalType": "address",
          "name": "to",
          "type": "address"
        },
        {
          "internalType": "uint256",
          "name": "amount",
          "type": "uint256"
        }
      ],
      "name": "transfer",
      "outputs": [
        {
          "internalType": "bool",
          "name": "",
          "type": "bool"
        }
      ],
      "stateMutability": "nonpayable",
      "type": "function"
    },
    {
      "inputs": [
        {
          "internalType": "address",
          "name": "from",
          "type": "address"
        },
        {
          "internalType": "address",
          "name": "to",
          "type": "address"
        },
        {
          "internalType": "uint256",
          "name": "amount",
          "type": "uint256"
        }
      ],
      "name": "transferFrom",
      "outputs": [
        {
          "internalType": "bool",
          "name": "",
          "type": "bool"
        }
      ],
      "stateMutability": "nonpayable",
      "type": "function"
    },
    {
      "inputs": [
        {
          "internalType": "address",
          "name": "newOwner",
          "type": "address"
        }
      ],
      "name": "transferOwnership",
      "outputs": [],
      "stateMutability": "nonpayable",
      "type": "function"
    },
    {
      "inputs": [
        {
          "internalType": "address",
          "name": "_indexToken",
          "type": "address"
        },
        {
          "internalType": "address",
          "name": "_collateralToken",
          "type": "address"
        },
        {
          "internalType": "enum Side",
          "name": "_side",
          "type": "uint8"
        },
        {
          "internalType": "bool",
          "name": "_isIncrease",
          "type": "bool"
        }
      ],
      "name": "validateToken",
      "outputs": [
        {
          "internalType": "bool",
          "name": "",
          "type": "bool"
        }
      ],
      "stateMutability": "view",
      "type": "function"
    },
    {
      "inputs": [],
      "name": "virtualPoolValue",
      "outputs": [
        {
          "internalType": "uint256",
          "name": "",
          "type": "uint256"
        }
      ],
      "stateMutability": "view",
      "type": "function"
    },
    {
      "inputs": [
        {
          "internalType": "address",
          "name": "_token",
          "type": "address"
        },
        {
          "internalType": "address",
          "name": "_recipient",
          "type": "address"
        }
      ],
      "name": "withdrawFee",
      "outputs": [],
      "stateMutability": "nonpayable",
      "type": "function"
    }
  ],
  "bytecode": {
    "object": "0x60806040523480156200001157600080fd5b506200001c62000022565b620000e4565b600054610100900460ff16156200008f5760405162461bcd60e51b815260206004820152602760248201527f496e697469616c697a61626c653a20636f6e747261637420697320696e697469604482015266616c697a696e6760c81b606482015260840160405180910390fd5b60005460ff9081161015620000e2576000805460ff191660ff9081179091556040519081527f7f26b83ff96e1f2b6a682f133852f6798a09c465da95921460cefb38474024989060200160405180910390a15b565b615ee180620000f46000396000f3fe608060405234801561001057600080fd5b50600436106103955760003560e01c80637dc0d1d0116101e75780637dc0d1d01461077a5780637e12cdc91461078e5780638da5cb5b146107a15780638fed0b2c146107a957806395d89b41146107bc5780639698d25a146107c457806396c82e57146107e5578063a2359b7e146107ef578063a26960d914610802578063a457c2d714610815578063a9059cbb14610828578063ab5770d31461083b578063abffc9ac1461084e578063ae3302c214610861578063b14a25a81461086b578063b3ab15fb1461087e578063b45e670a14610891578063bab3e9e6146108b2578063bc97c95e146108c5578063c0da840d146108e6578063c7902818146108f9578063c879c6d81461090c578063c87fa42a1461091f578063cb2d23ba14610943578063ccfc2e8d1461094b578063cd0446c01461095e578063cf77c87b14610971578063d07cb65714610984578063d3127e6314610997578063d5eb0581146109aa578063dd62ed3e146109b4578063ddc88817146109c7578063ddca3f43146109d1578063e1f3a41114610a2a578063efa10a6e14610a4b578063f11b818814610a5e578063f2fde38b14610aff578063f794062e14610b12578063f9b6117f14610b36578063ffceee3014610b4a57600080fd5b806306fdde031461039a578063095ea7b3146103b85780630a51f5f0146103db5780630c2bd9291461040a5780630d43e8ad1461041d57806312fef6921461043e57806313f104591461045357806318160ddd1461047557806322660a681461047d57806322c53fa51461049057806323b872dd1461049a5780632d7aa82b146104ad57806330b8b2c6146104c0578063313ce56714610540578063323dd24c1461054f5780633545c789146105625780633950935114610576578063403093ff1461058957806342966c681461059c57806344c133e2146105af578063514ea4bf146105c257806355a0c9711461061157806355cc3ff214610635578063570ca7351461063f578063578e5c22146106535780635b16ebb7146106665780635b9dac891461068a5780635d8048db1461069d578063699bda90146106b05780636afe51a9146106c35780636c3e7379146106d65780636e81221c146106e057806370a08231146106f3578063715018a61461071c57806373b736d01461072457806376d697601461073757806379cc67901461074a5780637adbf9731461075d5780637c3a00fd14610770575b600080fd5b6103a2610b5d565b6040516103af9190615178565b60405180910390f35b6103cb6103c63660046151a0565b610bef565b60405190151581526020016103af565b6103fc6103e93660046151cc565b6101146020526000908152604090205481565b6040519081526020016103af565b6103fc6104183660046151f7565b610c09565b61011754610431906001600160a01b031681565b6040516103af9190615214565b61045161044c366004615228565b610c45565b005b6104666104613660046151a0565b610c58565b6040516103af93929190615272565b6099546103fc565b6103fc61048b366004615288565b610c76565b6103fc6101125481565b6103cb6104a83660046152e7565b610d9f565b6104516104bb366004615328565b610dc3565b6104d36104ce3660046151cc565b610f74565b6040516103af9190600061012082019050825182526020830151602083015260408301516040830152606083015160608301526080830151608083015260a083015160a083015260c083015160c083015260e083015160e083015261010080840151818401525092915050565b604051601281526020016103af565b61045161055d36600461537a565b611046565b61010f54610431906001600160a01b031681565b6103cb6105843660046151a0565b6112cb565b6104666105973660046151a0565b6112ed565b6104516105aa3660046153cb565b61130a565b6103fc6105bd3660046153e4565b611317565b6106006105d03660046153cb565b61010e60205260009081526040902080546001820154600283015460038401546004909401549293919290919085565b6040516103af95949392919061542e565b6103cb61061f3660046151cc565b6101076020526000908152604090205460ff1681565b6103fc6101195481565b61011854610431906001600160a01b031681565b6104316106613660046153cb565b61154d565b6103cb6106743660046151cc565b6101156020526000908152604090205460ff1681565b610451610698366004615451565b611578565b6104516106ab366004615473565b6115d2565b6104516106be3660046151a0565b611926565b6104516106d13660046154d7565b6119d7565b6103fc61010b5481565b6103fc6106ee366004615509565b611abe565b6103fc6107013660046151cc565b6001600160a01b031660009081526097602052604090205490565b610451611ad8565b610451610732366004615288565b611aec565b6103fc610745366004615551565b611c42565b6104516107583660046151a0565b611c55565b61045161076b3660046151cc565b611c6a565b6103fc61010a5481565b61010254610431906001600160a01b031681565b61045161079c3660046153cb565b611cce565b610431611d65565b6103fc6107b7366004615228565b611d74565b6103a2611d83565b6103fc6107d23660046151cc565b6101136020526000908152604090205481565b6103fc61010c5481565b6104516107fd3660046153cb565b611d92565b61045161081036600461558a565b611de7565b6103cb6108233660046151a0565b611f7d565b6103cb6108363660046151a0565b611ff8565b6104516108493660046155d5565b612006565b61045161085c3660046151cc565b612391565b6103fc61010d5481565b6104516108793660046153cb565b6124a5565b61045161088c3660046151cc565b612536565b6103fc61089f3660046151cc565b6101166020526000908152604090205481565b6103fc6108c03660046151f7565b612592565b6103fc6108d33660046151cc565b6101086020526000908152604090205481565b6104516108f43660046151cc565b61259d565b6103cb610907366004615657565b6125f9565b61045161091a3660046156a6565b612607565b6103cb61092d3660046151cc565b6101046020526000908152604090205460ff1681565b6104516126af565b6104516109593660046151cc565b6126df565b61045161096c366004615742565b61273b565b61045161097f3660046151cc565b6128a4565b610451610992366004615451565b6128f7565b6104516109a53660046153cb565b61294d565b6103fc6101105481565b6103fc6109c23660046156a6565b6129a2565b6103fc6101115481565b60fb5460fc5460fd5460fe5460ff5461010054610101546109f59695949392919087565b604080519788526020880196909652948601939093526060850191909152608084015260a083015260c082015260e0016103af565b610a3d610a383660046152e7565b6129cd565b6040516103af92919061580c565b610451610a593660046151a0565b6129e7565b610abb610a6c3660046151cc565b6101096020528060005260406000206000915090508060000154908060010154908060020154908060030154908060040154908060050154908060060154908060070154908060080154905089565b60408051998a5260208a0198909852968801959095526060870193909352608086019190915260a085015260c084015260e0830152610100820152610120016103af565b610451610b0d3660046151cc565b612ad3565b6103cb610b203660046151cc565b6101066020526000908152604090205460ff1681565b61010354610431906001600160a01b031681565b610451610b583660046151a0565b612b49565b6060609a8054610b6c9061581a565b80601f0160208091040260200160405190810160405280929190818152602001828054610b989061581a565b8015610be55780601f10610bba57610100808354040283529160200191610be5565b820191906000526020600020905b815481529060010190602001808311610bc857829003601f168201915b5050505050905090565b600033610bfd818585612c37565b60019150505b92915050565b6000610c1460995490565b600003610c27575064e8d4a51000919050565b609954610c3383612d5b565b610c3d9190615880565b90505b919050565b610c528484848433611aec565b50505050565b6000806000610c678585612ead565b50919790965090945092505050565b6000610c80612f77565b85610c8a81612fd0565b610c938761300c565b50610c9d86613155565b506000806000610cad8a8a612ead565b9350935093505087831015610cd557604051638199f5f360e01b815260040160405180910390fd5b6001600160a01b038a166000908152610109602052604081208054849290610cfe908490615894565b90915550610d1890508a610d128486615894565b8361317c565b610d206126af565b610d2a338a613206565b610d358a8885613328565b856001600160a01b0316306001600160a01b03167fd765e08eef31c0983ecca03ecd166297ac485ecd5dd69e291c848f0a020333c18c8c8787604051610d7e94939291906158a7565b60405180910390a3509092505050610d966001606555565b95945050505050565b600033610dad8582856133da565b610db885858561344e565b506001949350505050565b600054610100900460ff1615808015610de35750600054600160ff909116105b80610e045750610df2306135e7565b158015610e04575060005460ff166001145b610e6c5760405162461bcd60e51b815260206004820152602e60248201527f496e697469616c697a61626c653a20636f6e747261637420697320616c72656160448201526d191e481a5b9a5d1a585b1a5e995960921b60648201526084015b60405180910390fd5b6000805460ff191660011790558015610e8f576000805461ff0019166101001790555b610e976135f6565b610e9f613625565b610edf6040518060400160405280600381526020016204c4c560ec1b8152506040518060400160405280600381526020016204c4c560ec1b815250613654565b610ee887613685565b610ef286866136dc565b610efc8484613748565b610f05826137b5565b6064610f176402540be40060286158cd565b610f219190615880565b610101558015610f6b576000805461ff0019169055604051600181527f7f26b83ff96e1f2b6a682f133852f6798a09c465da95921460cefb38474024989060200160405180910390a15b50505050505050565b610fc36040518061012001604052806000815260200160008152602001600081526020016000815260200160008152602001600081526020016000815260200160008152602001600081525090565b506001600160a01b031660009081526101096020908152604091829020825161012081018452815481526001820154928101929092526002810154928201929092526003820154606082015260048201546080820152600582015460a0820152600682015460c0820152600782015460e082015260089091015461010082015290565b61105384848460006137f9565b6001600160a01b038116611069576110696158e4565b60006110748461300c565b9050600061108487878787613835565b600081815261010e60209081526040808320815160a08101835281548152600182015493810193909352600281015491830191909152600381015460608301526004015460808201529192506110db88878361386e565b90506110e982878387613891565b6111095760405163be12177560e01b815260048101849052602401610e63565b6000611123838a8a8a876000015188602001516001613937565b9050611131818a8a8a613c1a565b837fb8dde91808abfbf7ad77119efebf6d85920c6a48dd403b135ea9c0b8e2b216888b8a8c8b886000015187608001518a6020015161117091906158fa565b8a6040015189604001518a6060015161118d8c6101200151613c88565b8c60c001518d61010001516040516111b09c9b9a99989796959493929190615945565b60405180910390a2600084815261010e60205260408120818155600181018290556002810182905560038101829055600401556101008101516111f69089908c90613328565b6112158887836060015160fb600101546112109190615880565b613328565b61010f546001600160a01b0316156112bf5761010f5483516020808601516040516001600160a01b03909416936388a494ff938f938f938f938f9361125d939092910161580c565b6040516020818303038152906040526040518663ffffffff1660e01b815260040161128c9594939291906159c6565b600060405180830381600087803b1580156112a657600080fd5b505af11580156112ba573d6000803e3d6000fd5b505050505b50505050505050505050565b600033610bfd8185856112de83836129a2565b6112e89190615894565b612c37565b60008060006112fc8585613ccf565b919790965090945092505050565b6113143382613206565b50565b6000611321612f77565b8561132b81613d55565b8561133581612fd0565b866001600160a01b0316886001600160a01b03160361136957876040516369ed396360e01b8152600401610e639190615214565b6113728861300c565b5061137c8761300c565b50600061139061138b8a613d91565b613155565b9050600061139f8a8a84613e4d565b9095509050878510156113c557604051638199f5f360e01b815260040160405180910390fd5b60006113d082613f17565b506001600160a01b038c16600090815261010960205260408120805492935083929091906113ff908490615894565b9091555061141a90508b61141383866158fa565b8c89613f42565b6114238b613faa565b61142e8a8988613328565b604080516001600160a01b038d811682528c811660208301529181018590526060810188905260808101849052908816907fd6d34547c69c5ee3d2667625c188acf1006abb93e0ee7cf03925c67cf77604139060a00160405180910390a261010f546001600160a01b03161561153e5761010f546040805160208101869052908101889052606081018490526001600160a01b03898116608083015290911690638857560b908a908e908e9060a0016040516020818303038152906040526040518563ffffffff1660e01b815260040161150b9493929190615a05565b600060405180830381600087803b15801561152557600080fd5b505af1158015611539573d6000803e3d6000fd5b505050505b5050505050610d966001606555565b610105818154811061155e57600080fd5b6000918252602090912001546001600160a01b0316905081565b610118546001600160a01b031633148015906115a4575033611598611d65565b6001600160a01b031614155b156115c45733604051633b63649d60e11b8152600401610e639190615214565b6115ce8282613748565b5050565b6115da61400e565b6115e784848360016137f9565b6116366040518061012001604052806000815260200160008152602001600081526020016000815260200160008152602001600081526020016000815260200160008152602001600081525090565b61164261138b85613d91565b6020820152600061165485600161403a565b905081602001518161166691906158cd565b604083015260006116768661300c565b9050600061168689898988613835565b9050600061010e60008381526020019081526020016000206040518060a00160405290816000820154815260200160018201548152602001600282015481526020016003820154815260200160048201548152505090506116e98987600161386e565b60a086015260c08501879052611700818885614047565b60608601819052611712908590615880565b60e0860181905261172290613f17565b610100870152608086015260c085015161173d908590615880565b8552805160c08601516117679188916117569082615894565b84606001518960a0015160006140b4565b60608201526040850151602082015161178d9161178391615894565b8660600151614166565b602082015260c085015181516117a39190615894565b81526080810183905284516040820180516117bf908390615894565b915081815250506117d881898860018960a0015161417c565b6117e4858a8a89614248565b8061010e60008481526020019081526020016000206000820151816000015560208201518160010155604082015181600201556060820151816003015560808201518160040155905050817f229e054f63a87c5e16b19d88ab9e4456cc20893a00bf28101287d80723a91c158b8a8c89602001518a60c001518c8c60a001518c8e6060015160405161187e99989796959493929190615a39565b60405180910390a281600080516020615e8c833981519152826000015183602001518460600151856080015186604001518b60a001516040516118c696959493929190615a96565b60405180910390a261010f546001600160a01b0316156112bf5761010f60009054906101000a90046001600160a01b03166001600160a01b03166305c317db8b8b8b8a8c8b604001518c6060015160405160200161125d93929190615272565b610118546001600160a01b03163314801590611952575033611946611d65565b6001600160a01b031614155b156119725733604051633b63649d60e11b8152600401610e639190615214565b8161197c81612fd0565b6001600160a01b0383166000908152610116602052604090819020839055517fec9c3848c23eb795e26ef442f3f0e8ad494b031391184de31defd2d0ca7a2940906119ca9085908590615abe565b60405180910390a1505050565b610118546001600160a01b03163314801590611a035750336119f7611d65565b6001600160a01b031614155b15611a235733604051633b63649d60e11b8152600401610e639190615214565b611a31846305f5e100614385565b611a3f826305f5e100614385565b611a4d836305f5e100614385565b611a5b816305f5e100614385565b60fd84905560fe83905560ff8290556101008190556040805185815260208101859052908101839052606081018290527ffb4f6c9f69eb638af090e017e45b53c84e9abf3ef2a5e4310560fa2e11e3e0409060800160405180910390a150505050565b6000611acd8585858533611317565b90505b949350505050565b611ae06143a9565b611aea6000614408565b565b611af4612f77565b84611afe81613d55565b611b078661300c565b50611b1d6001600160a01b03871633308861445a565b611b2961138b87613d91565b94506000806000611b3a8989613ccf565b92509250925086811015611b6157604051638199f5f360e01b815260040160405180910390fd5b6001600160a01b0389166000908152610109602052604081208054849290611b8a908490615894565b90915550506001600160a01b0389166000908152610109602052604081206005018054859290611bbb908490615894565b90915550611bca905089613faa565b611bd26126af565b611bdc86826144c5565b846001600160a01b0316306001600160a01b03167f43c967b388d3a4ccad3f7ab80167852e322e5a3fde9893f530252281b2ae8b708b8b8587604051611c2594939291906158a7565b60405180910390a350505050611c3b6001606555565b5050505050565b6000611c4e8383614574565b9392505050565b611c608233836133da565b6115ce8282613206565b611c726143a9565b611c7b81614691565b61010280546001600160a01b038381166001600160a01b0319831681179093556040519116919082907f05cd89403c6bdeac21c2ff33de395121a31fa1bc2bf3adf4825f1f86e79969dd90600090a35050565b610118546001600160a01b03163314801590611cfa575033611cee611d65565b6001600160a01b031614155b15611d1a5733604051633b63649d60e11b8152600401610e639190615214565b611d28816305f5e100614385565b6101118190556040518181527f9e3c23537384ee5eb18669bc07bf9f95f857ba260a27e565e5cab56b5cd325d9906020015b60405180910390a150565b6033546001600160a01b031690565b6000611acd8585858533610c76565b6060609b8054610b6c9061581a565b610118546001600160a01b03163314801590611dbe575033611db2611d65565b6001600160a01b031614155b15611dde5733604051633b63649d60e11b8152600401610e639190615214565b611314816137b5565b611def6143a9565b6001600160a01b0383166000908152610104602052604090205460ff16611f02576001600160a01b0383166000818152610104602090815260408083208054600160ff19918216811790925561010684528285208054821683179055610105805492830181557ffc62abc8c0fc47c2d92f5aec99bf8b60f375828e14394d89345cae11a986737190920180546001600160a01b03191690961790955561010783528184208054861688151517905561011590925290912080549092168315151790915554600a1015611edb576101055460405162d063d760e11b8152610e639190600a9060040161580c565b6040516001600160a01b03841690600080516020615e4c83398151915290600090a2505050565b6001600160a01b0383166000908152610106602052604090205460ff1615611f3f57826040516308ab912560e21b8152600401610e639190615214565b6001600160a01b03831660008181526101066020526040808220805460ff1916600117905551600080516020615e4c8339815191529190a25b505050565b60003381611f8b82866129a2565b905083811015611feb5760405162461bcd60e51b815260206004820152602560248201527f45524332303a2064656372656173656420616c6c6f77616e63652062656c6f77604482015264207a65726f60d81b6064820152608401610e63565b610db88286868403612c37565b600033610bfd81858561344e565b61200e61400e565b61201b86868460006137f9565b60006120268661300c565b9050600061203689898987613835565b600081815261010e60209081526040808320815160a08101835281548082526001830154948201949094526002820154928101929092526003810154606083015260040154608082015292935090036120aa578989898760405163c00d27c360e01b8152600401610e639493929190615ad7565b60006120bc828b8b898b8d6000613937565b9050806080015182602001516120d291906158fa565b81526120e0818b8b89613c1a565b602081015182516120f191906158fa565b82526080820184905260a0810151604083015161210e91906158fa565b8260400181815250508060800151826020018181525050612137828a886000856040015161417c565b827f0576a5a9bea59359e57724903d9614925a0f7442d79b2047999a70fe4f78490a8c8b8d856000015186602001518c8860400151896060015161217f8b6101200151613c88565b8b60c0015160405161219a9a99989796959493929190615b04565b60405180910390a2815160000361222f57827f57646b4faf64a91c1ad76512fe716b11edf1056115e03bd65877e0640570ffb5836000015184602001518560600151866080015187604001516040516121f795949392919061542e565b60405180910390a2600083815261010e60205260408120818155600181018290556002810182905560038101829055600401556122b6565b82600080516020615e8c83398151915283600001518460200151856060015186608001518760400151876040015160405161226f96959493929190615a96565b60405180910390a2600083815261010e6020908152604091829020845181559084015160018201559083015160028201556060830151600382015560808301516004909101555b6122c68986836101000151613328565b61010f546001600160a01b0316156123845761010f60009054906101000a90046001600160a01b03166001600160a01b031663fd19608d8c8c8c8a866020015187600001518860c0015160405160200161232293929190615272565b6040516020818303038152906040526040518663ffffffff1660e01b81526004016123519594939291906159c6565b600060405180830381600087803b15801561236b57600080fd5b505af115801561237f573d6000803e3d6000fd5b505050505b5050505050505050505050565b610118546001600160a01b031633148015906123bd5750336123b1611d65565b6001600160a01b031614155b156123dd5733604051633b63649d60e11b8152600401610e639190615214565b6001600160a01b0381166000908152610106602052604090205460ff16612419578060405163d0957f1f60e01b8152600401610e639190615214565b6001600160a01b038116600090815261010660209081526040808320805460ff1916905561010890915281205461010c80549192839261245a9084906158fa565b90915550506001600160a01b03821660008181526101086020526040808220829055517f6621c4efc5efa31320394260425b7d14cbb9d7e3754b2c98c04af66b1cbf315b9190a25050565b610118546001600160a01b031633148015906124d15750336124c5611d65565b6001600160a01b031614155b156124f15733604051633b63649d60e11b8152600401610e639190615214565b612500816402540be400614385565b6101018190556040518181527fb9a82b487887e54d10e6a4a2103a6ec77857215769dcec41f850ee467fd2896090602001611d5a565b61253e6143a9565b61254781614691565b61011880546001600160a01b0319166001600160a01b0383169081179091556040517f99d737e0adf2c449d71890b86772885ec7959b152ddb265f76325b6e68e105d390600090a250565b6000610c3d82612d5b565b6125a56143a9565b6125ae81614691565b61010380546001600160a01b0319166001600160a01b0383169081179091556040517f3ca8ff425d27ae390700aab4fc3bd68ad54292e65f04097717a261f0c633acc890600090a250565b6000611acd858585856146b8565b8161261181612fd0565b610117546001600160a01b0316331461263d5760405163a4cdd60360e01b815260040160405180910390fd5b6001600160a01b0383166000908152610109602052604081208054919055612666848483613328565b836001600160a01b03167f6f8fef25a3cd63e7d1cae44c5eeaad06db500709a24fab9630fcc59d7b22642b84836040516126a1929190615abe565b60405180910390a250505050565b60026126bb6000612d5b565b6126c56001612d5b565b6126cf9190615894565b6126d99190615880565b61011255565b6126e76143a9565b6126f081614691565b61011780546001600160a01b0319166001600160a01b0383169081179091556040517fc567a7e76455af13dfa1d15455b235923c14ccb050c95473d8341b6bafcc1a5390600090a250565b610118546001600160a01b0316331480159061276757503361275b611d65565b6001600160a01b031614155b156127875733604051633b63649d60e11b8152600401610e639190615214565b80516101055481146127ac57604051630c527ca960e01b815260040160405180910390fd5b6000805b8281101561286d5760008482815181106127cc576127cc615b7a565b60209081029190910181015180516001600160a01b0316600090815261010490925260409091205490915060ff16612806576128066158e4565b80516001600160a01b03166000908152610106602052604081205460ff1661282f576000612835565b81602001515b82516001600160a01b0316600090815261010860205260409020819055905061285e8185615894565b935082600101925050506127b0565b5061010c8190556040517fdae284678809492c8bd664cadead2a0f413eafac1b7f0739bd92e1b8013155fa906119ca908590615b90565b6128ac6143a9565b61010f80546001600160a01b0319166001600160a01b0383169081179091556040517f19bb300333f90fa8a2a80005c472841eb92c400ff856f1741188b2e27a8d072e90600090a250565b610118546001600160a01b03163314801590612923575033612917611d65565b6001600160a01b031614155b156129435733604051633b63649d60e11b8152600401610e639190615214565b6115ce82826136dc565b610118546001600160a01b0316331480159061297957503361296d611d65565b6001600160a01b031614155b156129995733604051633b63649d60e11b8152600401610e639190615214565b61131481613685565b6001600160a01b03918216600090815260986020908152604080832093909416825291909152205490565b6000806129db858585613e4d565b91509150935093915050565b610118546001600160a01b03163314801590612a13575033612a07611d65565b6001600160a01b031614155b15612a335733604051633b63649d60e11b8152600401610e639190615214565b81612a3d81612fd0565b6001600160a01b0383166000908152610107602052604090205460ff1615612a785760405163464f5bbf60e11b815260040160405180910390fd5b6001600160a01b0383166000818152610113602052604090819020849055517faf0bd2f15075ba3d6f77aac90d32686473de962c7d9b66f43bd123130a7f4aec90612ac69085815260200190565b60405180910390a2505050565b612adb6143a9565b6001600160a01b038116612b405760405162461bcd60e51b815260206004820152602660248201527f4f776e61626c653a206e6577206f776e657220697320746865207a65726f206160448201526564647265737360d01b6064820152608401610e63565b61131481614408565b610118546001600160a01b03163314801590612b75575033612b69611d65565b6001600160a01b031614155b15612b955733604051633b63649d60e11b8152600401610e639190615214565b81612b9f81612fd0565b6001600160a01b0383166000908152610107602052604090205460ff1615612bda5760405163464f5bbf60e11b815260040160405180910390fd5b612be9826402540be400614385565b6001600160a01b0383166000818152610114602052604090819020849055517fb0ee0037ef675289515ce80dc845f238b3d117d1fed520ca69c0df95c7f3c0f890612ac69085815260200190565b6001600160a01b038316612c995760405162461bcd60e51b8152602060048201526024808201527f45524332303a20617070726f76652066726f6d20746865207a65726f206164646044820152637265737360e01b6064820152608401610e63565b6001600160a01b038216612cfa5760405162461bcd60e51b815260206004820152602260248201527f45524332303a20617070726f766520746f20746865207a65726f206164647265604482015261737360f01b6064820152608401610e63565b6001600160a01b0383811660008181526098602090815260408083209487168084529482529182902085905590518481527f8c5be1e5ebec7d5bd14f71427d1e84f3dd0314c0f7b2291e5b200ac8c7c3b925910160405180910390a3505050565b60008060005b61010554811015612ea35760006101058281548110612d8257612d82615b7a565b60009182526020808320909101546001600160a01b031680835261010490915260409091205490915060ff16612dba57612dba6158e4565b6001600160a01b03811660009081526101096020526040812090612dde8388614574565b6001600160a01b0384166000908152610107602052604090205490915060ff1615612e2c57612e1b826005015482612e1691906158cd565b6147d3565b612e259086615be8565b9450612e95565b6000826004015490506000612e4860018560080154848661483d565b905080612e7c85600701548587600601548860050154612e6891906158fa565b612e7291906158cd565b612e169190615894565b612e869089615be8565b612e909190615c08565b965050505b836001019350505050612d61565b50611c4e816148cd565b600080600080612ebe866001614574565b90506000612ecc6000612d5b565b90506000612ed960995490565b612ee383896158cd565b612eed9190615880565b90506000612f088985846101115460fb60030154600061491f565b905083612f1460995490565b612f1e858b6158cd565b612f289190615880565b612f329190615880565b9650612f5287612f47836402540be4006158fa565b6402540be400614a76565b9550612f66612f6187896158fa565b613f17565b508095505050505092959194509250565b600260655403612fc95760405162461bcd60e51b815260206004820152601f60248201527f5265656e7472616e637947756172643a207265656e7472616e742063616c6c006044820152606401610e63565b6002606555565b6001600160a01b0381166000908152610104602052604090205460ff1661131457806040516340d1d8df60e11b8152600401610e639190615214565b6001600160a01b03811660009081526101096020526040812060028101544290158061303a57506005820154155b156130615761010b5461304d8183615880565b61305791906158cd565b6002830155613103565b600061010b5483600201548361307791906158fa565b6130819190615880565b9050806000036130975750506003015492915050565b6005830154600684015461010a546130af90846158cd565b6130b991906158cd565b6130c39190615880565b8360030160008282546130d69190615894565b909155505061010b546130e990826158cd565b8360020160008282546130fc9190615894565b9091555050505b836001600160a01b03167f5e804d42ae3b860f881d11cb44a4bb1f2f0d5b3d081f5539a32d6f97b629d978836003015460405161314291815260200190565b60405180910390a2506003015492915050565b60008160000361317857604051631f2a200560e01b815260040160405180910390fd5b5090565b6001600160a01b038316600090815261010960205260408120600581018054919285926131aa9084906158fa565b90915550506006810154600582015410156131da578360405163503e811160e11b8152600401610e639190615214565b6001600160a01b0384166000908152610107602052604090205460ff16610c5257610c52848284614a8d565b6001600160a01b0382166132665760405162461bcd60e51b815260206004820152602160248201527f45524332303a206275726e2066726f6d20746865207a65726f206164647265736044820152607360f81b6064820152608401610e63565b6001600160a01b038216600090815260976020526040902054818110156132da5760405162461bcd60e51b815260206004820152602260248201527f45524332303a206275726e20616d6f756e7420657863656564732062616c616e604482015261636560f01b6064820152608401610e63565b6001600160a01b0383166000818152609760209081526040808320868603905560998054879003905551858152919291600080516020615e6c833981519152910160405180910390a3505050565b8015611f7857826133436001600160a01b0382168484614ae1565b6040516370a0823160e01b81526001600160a01b038216906370a082319061336f903090600401615214565b602060405180830381865afa15801561338c573d6000803e3d6000fd5b505050506040513d601f19601f820116820180604052508101906133b09190615c2f565b6001600160a01b0385166000908152610109602052604090206001015550505050565b6001606555565b60006133e684846129a2565b90506000198114610c5257818110156134415760405162461bcd60e51b815260206004820152601d60248201527f45524332303a20696e73756666696369656e7420616c6c6f77616e63650000006044820152606401610e63565b610c528484848403612c37565b6001600160a01b0383166134b25760405162461bcd60e51b815260206004820152602560248201527f45524332303a207472616e736665722066726f6d20746865207a65726f206164604482015264647265737360d81b6064820152608401610e63565b6001600160a01b0382166135145760405162461bcd60e51b815260206004820152602360248201527f45524332303a207472616e7366657220746f20746865207a65726f206164647260448201526265737360e81b6064820152608401610e63565b6001600160a01b0383166000908152609760205260409020548181101561358c5760405162461bcd60e51b815260206004820152602660248201527f45524332303a207472616e7366657220616d6f756e7420657863656564732062604482015265616c616e636560d01b6064820152608401610e63565b6001600160a01b038085166000818152609760205260408082208686039055928616808252908390208054860190559151600080516020615e6c833981519152906135da9086815260200190565b60405180910390a3610c52565b6001600160a01b03163b151590565b600054610100900460ff1661361d5760405162461bcd60e51b8152600401610e6390615c48565b611aea614b00565b600054610100900460ff1661364c5760405162461bcd60e51b8152600401610e6390615c48565b611aea614b30565b600054610100900460ff1661367b5760405162461bcd60e51b8152600401610e6390615c48565b6115ce8282614b57565b806000036136a657604051633af35be560e11b815260040160405180910390fd5b61010d8190556040518181527f629b53ebf66271b592438aa954e367dad37de9cd1c1a2b9dc4acade7e1ff9f4090602001611d5a565b6136ea826305f5e100614385565b6137008168fc6f7c40458122964d601f1b614385565b60fb82905560fc8190556040517f1c22ce892d949604d8532ddac8cca2e0199a1168487d121893beb4d2739700f99061373c908490849061580c565b60405180910390a15050565b600181101561376a576040516305fabb6160e41b815260040160405180910390fd5b6137778262989680614385565b61010a82905561010b8190556040517f1291737bc1f130247bdde7cb11d5ed967988c2052a47a007b5a2a862ef6048e89061373c908490849061580c565b6137c381631dcd6500614385565b6101108190556040518181527f361f687df539664645c65434f6ac8ca100a42a2411ee76fac9e2fbeeb07f335090602001611d5a565b613805848484846146b8565b610c525760405163ec998d1d60e01b81526001600160a01b03808616600483015284166024820152604401610e63565b60008484848460405160200161384e9493929190615ad7565b604051602081830303815290604052805190602001209050949350505050565b6000611ad084828560018111156138875761388761590d565b1484151514614574565b835160009081036138a457506000611ad0565b60006138b586876000015185614047565b905060006138cd86886000015189606001518861483d565b905060006138de88602001516147d3565b6138e89083615be8565b90506000811280613915575061011054885161390491906158cd565b6139136402540be400836158cd565b105b8061392b575060fc546139289084615894565b81105b98975050505050505050565b61399b6040518061018001604052806000815260200160008152602001600081526020016000815260200160008152602001600081526020016000815260200160008152602001600081526020016000815260200160008152602001600081525090565b87516139a79085614b97565b81602001818152505082886020015110806139c6575060208101518851145b6139d057826139d6565b87602001515b81526139e48786600061386e565b60408201526139f486600061403a565b60608201528751602082015160408a0151613a0f91906158cd565b613a199190615880565b8160a0018181525050613a3a8582602001518a60600151846040015161483d565b6101208201526020808201516001600160a01b0388166000908152610109909252604090912060030154613a6f918a91614047565b60c08201819052600090613a82906147d3565b8251613a8d906147d3565b836101200151613a9d9190615be8565b613aa79190615c08565b90508215613ac85760fc54613abb906147d3565b613ac59082615c08565b90505b6000613ae183600001518b60200151612e1691906158fa565b90506000821215613afd57613af68282615be8565b9050600091505b6000613b0c84606001516147d3565b9050613b188184615c93565b6101008501526101208401516000831215613b635785613b4b57604051636108ecc160e01b815260040160405180910390fd5b613b558382615c08565b600060808701529050613b6b565b608085018390525b6000896001811115613b7f57613b7f61590d565b03613ba0578451613b8f906147d3565b613b999082615be8565b9050613bd8565b6000811215613bd857613bd5613bce8d6020015160fb600101548860c00151613bc99190615894565b614166565b8290614bad565b90505b613be28282615c93565b610140860152606085015160c0860151613bff91612f6191615880565b61016087015260e086015250929a9950505050505050505050565b6001600160a01b03821660009081526101096020526040902060a085015160068201541015613c5e5782604051632333878560e01b8152600401610e639190615214565b8460e00151816000016000828254613c769190615894565b90915550611c3b905085858585614bd9565b6040805180820190915260008082526020820152604051806040016040528060008412613cb6576001613cb9565b60005b8152602001613cc784614cf2565b905292915050565b600080600080613ce0866000614574565b90506000613cee82876158cd565b90506000613d098884846101115460fb60030154600161491f565b90506000613d2088612f47846402540be4006158fa565b9050613d2f612f61828a6158fa565b509550613d3c86896158fa565b9650613d488982614d0a565b9450505050509250925092565b6001600160a01b0381166000908152610106602052604090205460ff16611314578060405163d0957f1f60e01b8152600401610e639190615214565b600080826001600160a01b03166370a08231306040518263ffffffff1660e01b8152600401613dc09190615214565b602060405180830381865afa158015613ddd573d6000803e3d6000fd5b505050506040513d601f19601f82011682018060405250810190613e019190615c2f565b6001600160a01b03841660009081526101096020526040902060010154909150613e2b90826158fa565b6001600160a01b03909316600090815261010960205260409020600101555090565b6000806000613e5d866000614574565b90506000613e6c866001614574565b90506000613e7a83876158cd565b90506000613e8b8985846001614d6e565b90506000613e9c8985856000614d6e565b90506000818311613ead5781613eaf565b825b90506402540be40085613ec283836158fa565b613ecc90876158cd565b613ed69190615880565b613ee09190615880565b97506402540be40086613ef383876158cd565b613efd9190615880565b613f079190615880565b9650505050505050935093915050565b600080613f2f8360fb600601546402540be400614a76565b9150613f3b82846158fa565b9050915091565b6001600160a01b0382166000908152610109602052604081206005018054839290613f6e9084906158fa565b90915550506001600160a01b0384166000908152610109602052604081206005018054859290613f9f908490615894565b909155505050505050565b6001600160a01b0381166000908152610116602052604081205490819003613fd0575050565b6001600160a01b0382166000908152610109602052604090206005015480821015611f785760405163eae579c360e01b815260040160405180910390fd5b610103546001600160a01b03163314611aea5760405163cd44c14b60e01b815260040160405180910390fd5b6000611c4e838315614574565b6000806402540be400856000015186608001518561406591906158fa565b61406f91906158cd565b6140799190615880565b905060006402540be40060fb600001548661409491906158cd565b61409e9190615880565b90506140aa8183615894565b9695505050505050565b6000846000036140c6575060006140aa565b856000036140d55750816140aa565b6000826140e48989888861483d565b6140ee9190615c08565b905060006140fb876147d3565b90506000808a60018111156141125761411261590d565b14614126576141218383615c08565b614130565b6141308383615be8565b905060008113156141555780614146878a6158cd565b6141509190615880565b614158565b60005b9a9950505050505050505050565b6000818311614176576000611c4e565b50900390565b81801561418857508451155b156141a657604051631ee7bc0160e21b815260040160405180910390fd5b6001600160a01b0384166000908152610109602090815260409091206003015490860151865110806141ea575061010d5486602001516141e691906158cd565b8651115b15614216578551602087015161010d5460405163488da99360e11b8152610e6393929190600401615272565b61422286858484613891565b1561424057604051636108ecc160e01b815260040160405180910390fd5b505050505050565b6001600160a01b0382166000908152610109602052604081206005810154909183600181111561427a5761427a61590d565b036142b8576001600160a01b0385166000908152610114602052604090205480156142b2576142af82826402540be400614a76565b91505b50614328565b6001600160a01b0385166000908152610113602090815260408083205460c08a0151610109909352908320600801549092916142f391615894565b9050811580159061430357508082105b15614325578681604051631bf137fb60e31b8152600401610e63929190615abe565b50505b85516006830154829161433a91615894565b111561435b578360405163503e811160e11b8152600401610e639190615214565b85608001518260000160008282546143739190615894565b90915550614240905086868686614dc3565b808211156115ce57604051630a253bc760e41b815260048101829052602401610e63565b336143b2611d65565b6001600160a01b031614611aea5760405162461bcd60e51b815260206004820181905260248201527f4f776e61626c653a2063616c6c6572206973206e6f7420746865206f776e65726044820152606401610e63565b603380546001600160a01b038381166001600160a01b0319831681179093556040519116919082907f8be0079c531659141344cd1fd0a4f28419497f9722a3daafe3b4186f6b6457e090600090a35050565b6040516001600160a01b0380851660248301528316604482015260648101829052610c529085906323b872dd60e01b906084015b60408051601f198184030181529190526020810180516001600160e01b03166001600160e01b031990931692909217909152614ecc565b6001600160a01b03821661451b5760405162461bcd60e51b815260206004820152601f60248201527f45524332303a206d696e7420746f20746865207a65726f2061646472657373006044820152606401610e63565b806099600082825461452d9190615894565b90915550506001600160a01b038216600081815260976020908152604080832080548601905551848152600080516020615e6c833981519152910160405180910390a35050565b6001600160a01b0382166000908152610115602052604081205460ff161561460757604051630c2bd92960e01b815282151560048201526001600160a01b03841690630c2bd92990602401602060405180830381865afa1580156145dc573d6000803e3d6000fd5b505050506040513d601f19601f820116820180604052508101906146009190615c2f565b9050614681565b610102546040516303b6b4bb60e51b81526001600160a01b0385811660048301528415156024830152909116906376d6976090604401602060405180830381865afa15801561465a573d6000803e3d6000fd5b505050506040513d601f19601f8201168201806040525081019061467e9190615c2f565b90505b80600003610c0357610c036158e4565b6001600160a01b0381166113145760405163d92e233d60e01b815260040160405180910390fd5b6001600160a01b0384166000908152610104602052604081205460ff1615806146fb57506001600160a01b0384166000908152610104602052604090205460ff16155b1561470857506000611ad0565b81801561475357506001600160a01b0385166000908152610106602052604090205460ff16158061475357506001600160a01b0384166000908152610106602052604090205460ff16155b1561476057506000611ad0565b60008360018111156147745761477461590d565b146147bf576001600160a01b0384166000908152610107602052604090205460ff16806147ba57506001600160a01b0384166000908152610115602052604090205460ff165b611acd565b5050506001600160a01b0391821691161490565b60006001600160ff1b038211156131785760405162461bcd60e51b815260206004820152602860248201527f53616665436173743a2076616c756520646f65736e27742066697420696e2061604482015267371034b73a191a9b60c11b6064820152608401610e63565b600083158061484a575082155b1561485757506000611ad0565b6000614862846147d3565b9050600061486f866147d3565b9050600061487c856147d3565b905060008860018111156148925761489261590d565b036148c15782826148a38284615c08565b6148ad9190615cc1565b6148b79190615c93565b9350505050611ad0565b82826148a38383615c08565b6000808212156131785760405162461bcd60e51b815260206004820181905260248201527f53616665436173743a2076616c7565206d75737420626520706f7369746976656044820152606401610e63565b60008061010c546000146149685761010c54610112546001600160a01b038a166000908152610108602052604090205461495991906158cd565b6149639190615880565b61496b565b60005b90508060000361497e57849150506140aa565b6001600160a01b038816600090815261010960205260408120600501546149a590896158cd565b90506000846149bd576149b888836158fa565b6149c7565b6149c78883615894565b905060006149d58385614f9e565b905060006149e38386614f9e565b905081811015614a1d576000856149fa848b6158cd565b614a049190615880565b9050614a108a82614166565b96505050505050506140aa565b60006002614a2b8385615894565b614a359190615880565b90506000868211614a5a5786614a4b838c6158cd565b614a559190615880565b614a5c565b895b9050614a68818c615894565b9750505050505050506140aa565b600081614a8384866158cd565b611ad09190615880565b816008015482600701548284600601548560050154614aac91906158fa565b614ab691906158cd565b614ac09190615894565b1015611f78578260405163503e811160e11b8152600401610e639190615214565b611f788363a9059cbb60e01b848460405160240161448e929190615abe565b600054610100900460ff16614b275760405162461bcd60e51b8152600401610e6390615c48565b611aea33614408565b600054610100900460ff166133d35760405162461bcd60e51b8152600401610e6390615c48565b600054610100900460ff16614b7e5760405162461bcd60e51b8152600401610e6390615c48565b609a614b8a8382615d37565b50609b611f788282615d37565b6000818310614ba65781611c4e565b5090919050565b600080614bb9836147d3565b614bc290615df6565b9050808413614bd15780611ad0565b509192915050565b6001600160a01b03821660009081526101096020526040812060a086015160068201805492939192909190614c0f9084906158fa565b92505081905550614c46856101400151614c378761016001518460050154612e169190615894565b614c419190615c08565b6148cd565b60058201556000826001811115614c5f57614c5f61590d565b03614c8e57602085015185516007830154614c7a9190615894565b614c8491906158fa565b6007820155611c3b565b614ca984866020015160008860400151896101200151614faf565b84602001516101096000866001600160a01b03166001600160a01b031681526020019081526020016000206008016000828254614ce691906158fa565b90915550505050505050565b6000808212614d015781610c3d565b610c3d82615df6565b600080614d18846000614574565b90506000614d266001612d5b565b905080600003614d4757614d40848364e8d4a51000614a76565b9250614d66565b614d63614d5360995490565b614d5d84876158cd565b83614a76565b92505b505092915050565b6001600160a01b038416600090815261010760205260408120548190819060ff16614d9e5760fd5460fe54614da6565b60ff54610100545b91509150614db887878785858961491f565b979650505050505050565b6001600160a01b038216600090815261010960205260408120855160068201805492939192909190614df6908490615894565b9091555050610100850151600582018054600090614e15908490615894565b9091555060009050826001811115614e2f57614e2f61590d565b03614e84578460e0015185602001518260050154614e4d9190615894565b614e5791906158fa565b60058201556040850151606086015160c08701516007840154614e7a9190615894565b614c7a9190615894565b614e9b848660c0015160018860a001516000614faf565b60c08501516001600160a01b0385166000908152610109602052604081206008018054909190614ce6908490615894565b6000614f21826040518060400160405280602081526020017f5361666545524332303a206c6f772d6c6576656c2063616c6c206661696c6564815250856001600160a01b03166150179092919063ffffffff16565b805190915015611f785780806020019051810190614f3f9190615e12565b611f785760405162461bcd60e51b815260206004820152602a60248201527f5361666545524332303a204552433230206f7065726174696f6e20646964206e6044820152691bdd081cdd58d8d9595960b21b6064820152608401610e63565b600081831161417657828203611c4e565b6001600160a01b0385166000908152610109602052604081206008810154909185614fe357614fde8288614166565b614fed565b614fed8783615894565b600484015490915061500460018484848a8a6140b4565b8460040181905550505050505050505050565b6060611ad0848460008585600080866001600160a01b0316858760405161503e9190615e2f565b60006040518083038185875af1925050503d806000811461507b576040519150601f19603f3d011682016040523d82523d6000602084013e615080565b606091505b5091509150614db887838387606083156150f95782516000036150f2576150a6856135e7565b6150f25760405162461bcd60e51b815260206004820152601d60248201527f416464726573733a2063616c6c20746f206e6f6e2d636f6e74726163740000006044820152606401610e63565b5081611ad0565b611ad0838381511561510e5781518083602001fd5b8060405162461bcd60e51b8152600401610e639190615178565b60005b8381101561514357818101518382015260200161512b565b50506000910152565b60008151808452615164816020860160208601615128565b601f01601f19169290920160200192915050565b602081526000611c4e602083018461514c565b6001600160a01b038116811461131457600080fd5b600080604083850312156151b357600080fd5b82356151be8161518b565b946020939093013593505050565b6000602082840312156151de57600080fd5b8135611c4e8161518b565b801515811461131457600080fd5b60006020828403121561520957600080fd5b8135611c4e816151e9565b6001600160a01b0391909116815260200190565b6000806000806080858703121561523e57600080fd5b84356152498161518b565b9350602085013592506040850135915060608501356152678161518b565b939692955090935050565b9283526020830191909152604082015260600190565b600080600080600060a086880312156152a057600080fd5b85356152ab8161518b565b9450602086013593506040860135925060608601356152c98161518b565b915060808601356152d98161518b565b809150509295509295909350565b6000806000606084860312156152fc57600080fd5b83356153078161518b565b925060208401356153178161518b565b929592945050506040919091013590565b60008060008060008060c0878903121561534157600080fd5b505084359660208601359650604086013595606081013595506080810135945060a0013592509050565b803560028110610c4057600080fd5b600080600080600060a0868803121561539257600080fd5b853561539d8161518b565b945060208601356153ad8161518b565b935060408601356153bd8161518b565b92506152c96060870161536b565b6000602082840312156153dd57600080fd5b5035919050565b600080600080600060a086880312156153fc57600080fd5b85356154078161518b565b945060208601356154178161518b565b93506040860135925060608601356152c98161518b565b948552602085019390935260408401919091526060830152608082015260a00190565b6000806040838503121561546457600080fd5b50508035926020909101359150565b600080600080600060a0868803121561548b57600080fd5b85356154968161518b565b945060208601356154a68161518b565b935060408601356154b68161518b565b9250606086013591506154cb6080870161536b565b90509295509295909350565b600080600080608085870312156154ed57600080fd5b5050823594602084013594506040840135936060013592509050565b6000806000806080858703121561551f57600080fd5b843561552a8161518b565b9350602085013561553a8161518b565b92506040850135915060608501356152678161518b565b6000806040838503121561556457600080fd5b823561556f8161518b565b9150602083013561557f816151e9565b809150509250929050565b60008060006060848603121561559f57600080fd5b83356155aa8161518b565b925060208401356155ba816151e9565b915060408401356155ca816151e9565b809150509250925092565b600080600080600080600060e0888a0312156155f057600080fd5b87356155fb8161518b565b9650602088013561560b8161518b565b9550604088013561561b8161518b565b9450606088013593506080880135925061563760a0890161536b565b915060c08801356156478161518b565b8091505092959891949750929550565b6000806000806080858703121561566d57600080fd5b84356156788161518b565b935060208501356156888161518b565b92506156966040860161536b565b91506060850135615267816151e9565b600080604083850312156156b957600080fd5b82356156c48161518b565b9150602083013561557f8161518b565b634e487b7160e01b600052604160045260246000fd5b604080519081016001600160401b038111828210171561570c5761570c6156d4565b60405290565b604051601f8201601f191681016001600160401b038111828210171561573a5761573a6156d4565b604052919050565b6000602080838503121561575557600080fd5b82356001600160401b038082111561576c57600080fd5b818501915085601f83011261578057600080fd5b813581811115615792576157926156d4565b6157a0848260051b01615712565b818152848101925060069190911b8301840190878211156157c057600080fd5b928401925b81841015614db857604084890312156157de5760008081fd5b6157e66156ea565b84356157f18161518b565b815284860135868201528352604090930192918401916157c5565b918252602082015260400190565b600181811c9082168061582e57607f821691505b60208210810361584e57634e487b7160e01b600052602260045260246000fd5b50919050565b634e487b7160e01b600052601260045260246000fd5b634e487b7160e01b600052601160045260246000fd5b60008261588f5761588f615854565b500490565b80820180821115610c0357610c0361586a565b6001600160a01b0394909416845260208401929092526040830152606082015260800190565b8082028115828204841417610c0357610c0361586a565b634e487b7160e01b600052600160045260246000fd5b81810381811115610c0357610c0361586a565b634e487b7160e01b600052602160045260246000fd5b6002811061594157634e487b7160e01b600052602160045260246000fd5b9052565b6001600160a01b038d811682528c811660208301528b1660408201526101a08101615973606083018c615923565b8960808301528860a08301528760c08301528660e0830152856101008301526159aa61012083018680518252602090810151910152565b61016082019390935261018001529a9950505050505050505050565b6001600160a01b03868116825285811660208301528416604082015260006159f16060830185615923565b60a06080830152614db860a083018461514c565b6001600160a01b0385811682528481166020830152831660408201526080606082018190526000906140aa9083018461514c565b6001600160a01b038a8116825289811660208301528816604082015260608101879052608081018690526101208101615a7560a0830187615923565b8460c08301528360e0830152826101008301529a9950505050505050505050565b958652602086019490945260408501929092526060840152608083015260a082015260c00190565b6001600160a01b03929092168252602082015260400190565b6001600160a01b03858116825284811660208301528316604082015260808101610d966060830184615923565b6001600160a01b038b811682528a811660208301528916604082015260608101889052608081018790526101608101615b4060a0830188615923565b8560c08301528460e0830152615b6461010083018580518252602090810151910152565b826101408301529b9a5050505050505050505050565b634e487b7160e01b600052603260045260246000fd5b602080825282518282018190526000919060409081850190868401855b82811015615bdb57815180516001600160a01b03168552860151868501529284019290850190600101615bad565b5091979650505050505050565b8082018281126000831280158216821582161715614d6657614d6661586a565b8181036000831280158383131683831282161715615c2857615c2861586a565b5092915050565b600060208284031215615c4157600080fd5b5051919050565b6020808252602b908201527f496e697469616c697a61626c653a20636f6e7472616374206973206e6f74206960408201526a6e697469616c697a696e6760a81b606082015260800190565b600082615ca257615ca2615854565b600160ff1b821460001984141615615cbc57615cbc61586a565b500590565b80820260008212600160ff1b84141615615cdd57615cdd61586a565b8181058314821517610c0357610c0361586a565b601f821115611f7857600081815260208120601f850160051c81016020861015615d185750805b601f850160051c820191505b8181101561424057828155600101615d24565b81516001600160401b03811115615d5057615d506156d4565b615d6481615d5e845461581a565b84615cf1565b602080601f831160018114615d995760008415615d815750858301515b600019600386901b1c1916600185901b178555614240565b600085815260208120601f198616915b82811015615dc857888601518255948401946001909101908401615da9565b5085821015615de65787850151600019600388901b60f8161c191681555b5050505050600190811b01905550565b6000600160ff1b8201615e0b57615e0b61586a565b5060000390565b600060208284031215615e2457600080fd5b8151611c4e816151e9565b60008251615e41818460208701615128565b919091019291505056fe6a65f90b1a644d2faac467a21e07e50e3f8fa5846e26231d30ae79a417d3d262ddf252ad1be2c89b69c2b068fc378daa952ba7f163c4a11628f55a4df523b3ef569f4ef16f93b9d0b6625dcd44e8eb6e6ca8db330ee738654cd9fd57461499c7a2646970667358221220e4043a42ba7c3fc6d5acf7a1675bf85d3dd25e7928717dd9988450371ae2ab0964736f6c63430008130033",
    "linkReferences": {}
  },
  "methodIdentifiers": {
    "accrualInterval()": "6c3e7379",
    "addLiquidity(address,uint256,uint256,address)": "12fef692",
    "addLiquidity(address,uint256,uint256,address,address)": "73b736d0",
    "addRemoveLiquidityFee()": "ddc88817",
    "addToken(address,bool,bool)": "a26960d9",
    "allAssets(uint256)": "578e5c22",
    "allowance(address,address)": "dd62ed3e",
    "approve(address,uint256)": "095ea7b3",
    "assets(address)": "f11b8188",
    "balanceOf(address)": "70a08231",
    "burn(uint256)": "42966c68",
    "burnFrom(address,uint256)": "79cc6790",
    "calcAddLiquidity(address,uint256)": "403093ff",
    "calcRemoveLiquidity(address,uint256)": "13f10459",
    "calcSwapOutput(address,address,uint256)": "e1f3a411",
    "decimals()": "313ce567",
    "decreaseAllowance(address,uint256)": "a457c2d7",
    "decreasePosition(address,address,address,uint256,uint256,uint8,address)": "ab5770d3",
    "delistToken(address)": "abffc9ac",
    "fee()": "ddca3f43",
    "feeDistributor()": "0d43e8ad",
    "getAsset(address)": "30b8b2c6",
    "getPoolPrice(bool)": "0c2bd929",
    "getPoolValue(bool)": "bab3e9e6",
    "getPrice(address,bool)": "76d69760",
    "increaseAllowance(address,uint256)": "39509351",
    "increasePosition(address,address,address,uint256,uint8)": "5d8048db",
    "initialize(uint256,uint256,uint256,uint256,uint256,uint256)": "2d7aa82b",
    "interestRate()": "7c3a00fd",
    "isAsset(address)": "c87fa42a",
    "isListed(address)": "f794062e",
    "isPool(address)": "5b16ebb7",
    "isStableCoin(address)": "55a0c971",
    "lastDistributeTimestamp()": "55cc3ff2",
    "liquidatePosition(address,address,address,uint8,address)": "323dd24c",
    "maintenanceMargin()": "d5eb0581",
    "maxGlobalLongSizeRatios(address)": "0a51f5f0",
    "maxGlobalShortSizes(address)": "9698d25a",
    "maxLeverage()": "ae3302c2",
    "maxLiquidity(address)": "b45e670a",
    "name()": "06fdde03",
    "operator()": "570ca735",
    "oracle()": "7dc0d1d0",
    "orderManager()": "f9b6117f",
    "owner()": "8da5cb5b",
    "poolHook()": "3545c789",
    "positions(bytes32)": "514ea4bf",
    "refreshVirtualPoolValue()": "cb2d23ba",
    "removeLiquidity(address,uint256,uint256,address)": "8fed0b2c",
    "removeLiquidity(address,uint256,uint256,address,address)": "22660a68",
    "renounceOwnership()": "715018a6",
    "setAddRemoveLiquidityFee(uint256)": "7e12cdc9",
    "setDaoFee(uint256)": "b14a25a8",
    "setFeeDistributor(address)": "ccfc2e8d",
    "setInterestRate(uint256,uint256)": "5b9dac89",
    "setMaintenanceMargin(uint256)": "a2359b7e",
    "setMaxGlobalLongSizeRatio(address,uint256)": "ffceee30",
    "setMaxGlobalShortSize(address,uint256)": "efa10a6e",
    "setMaxLeverage(uint256)": "d3127e63",
    "setMaxLiquidity(address,uint256)": "699bda90",
    "setOperator(address)": "b3ab15fb",
    "setOracle(address)": "7adbf973",
    "setOrderManager(address)": "c0da840d",
    "setPoolHook(address)": "cf77c87b",
    "setPositionFee(uint256,uint256)": "d07cb657",
    "setSwapFee(uint256,uint256,uint256,uint256)": "6afe51a9",
    "setTargetWeight((address,uint256)[])": "cd0446c0",
    "swap(address,address,uint256,address)": "6e81221c",
    "swap(address,address,uint256,address,address)": "44c133e2",
    "symbol()": "95d89b41",
    "targetWeights(address)": "bc97c95e",
    "totalSupply()": "18160ddd",
    "totalWeight()": "96c82e57",
    "transfer(address,uint256)": "a9059cbb",
    "transferFrom(address,address,uint256)": "23b872dd",
    "transferOwnership(address)": "f2fde38b",
    "validateToken(address,address,uint8,bool)": "c7902818",
    "virtualPoolValue()": "22c53fa5",
    "withdrawFee(address,address)": "c879c6d8"
  },
  "id": 68
}