{
    "abi": [
        {
            "inputs": [
                {
                    "internalType": "address",
                    "name": "_oracle",
                    "type": "address"
                },
                {
                    "internalType": "address",
                    "name": "_orderManager",
                    "type": "address"
                }
            ],
            "stateMutability": "nonpayable",
            "type": "constructor"
        },
        {
            "anonymous": false,
            "inputs": [
                {
                    "indexed": false,
                    "internalType": "uint256",
                    "name": "orderId",
                    "type": "uint256"
                },
                {
                    "indexed": false,
                    "internalType": "address[]",
                    "name": "tokens",
                    "type": "address[]"
                },
                {
                    "indexed": false,
                    "internalType": "uint256[]",
                    "name": "prices",
                    "type": "uint256[]"
                }
            ],
            "name": "OrderExecutionFailedAndCancelled",
            "type": "event"
        },
        {
            "anonymous": false,
            "inputs": [
                {
                    "indexed": true,
                    "internalType": "address",
                    "name": "previousOwner",
                    "type": "address"
                },
                {
                    "indexed": true,
                    "internalType": "address",
                    "name": "newOwner",
                    "type": "address"
                }
            ],
            "name": "OwnershipTransferred",
            "type": "event"
        },
        {
            "anonymous": false,
            "inputs": [
                {
                    "indexed": true,
                    "internalType": "address",
                    "name": "reporter",
                    "type": "address"
                }
            ],
            "name": "ReporterAdd",
            "type": "event"
        },
        {
            "anonymous": false,
            "inputs": [
                {
                    "indexed": true,
                    "internalType": "address",
                    "name": "reporter",
                    "type": "address"
                }
            ],
            "name": "ReporterRemove",
            "type": "event"
        },
        {
            "inputs": [
                {
                    "internalType": "address",
                    "name": "reporter",
                    "type": "address"
                }
            ],
            "name": "addReporter",
            "outputs": [],
            "stateMutability": "nonpayable",
            "type": "function"
        },
        {
            "inputs": [
                {
                    "internalType": "uint256",
                    "name": "orderId",
                    "type": "uint256"
                }
            ],
            "name": "executeSwapOrder",
            "outputs": [],
            "stateMutability": "nonpayable",
            "type": "function"
        },
        {
            "inputs": [
                {
                    "internalType": "uint256[]",
                    "name": "orders",
                    "type": "uint256[]"
                }
            ],
            "name": "executeSwapOrders",
            "outputs": [],
            "stateMutability": "nonpayable",
            "type": "function"
        },
        {
            "inputs": [
                {
                    "internalType": "address",
                    "name": "",
                    "type": "address"
                }
            ],
            "name": "isReporter",
            "outputs": [
                {
                    "internalType": "bool",
                    "name": "",
                    "type": "bool"
                }
            ],
            "stateMutability": "view",
            "type": "function"
        },
        {
            "inputs": [],
            "name": "owner",
            "outputs": [
                {
                    "internalType": "address",
                    "name": "",
                    "type": "address"
                }
            ],
            "stateMutability": "view",
            "type": "function"
        },
        {
            "inputs": [
                {
                    "internalType": "address[]",
                    "name": "tokens",
                    "type": "address[]"
                },
                {
                    "internalType": "uint256[]",
                    "name": "prices",
                    "type": "uint256[]"
                },
                {
                    "internalType": "uint256",
                    "name": "orderId",
                    "type": "uint256"
                }
            ],
            "name": "postPriceAndExecuteOrder",
            "outputs": [],
            "stateMutability": "nonpayable",
            "type": "function"
        },
        {
            "inputs": [
                {
                    "internalType": "address[]",
                    "name": "tokens",
                    "type": "address[]"
                },
                {
                    "internalType": "uint256[]",
                    "name": "prices",
                    "type": "uint256[]"
                },
                {
                    "internalType": "uint256[]",
                    "name": "orders",
                    "type": "uint256[]"
                }
            ],
            "name": "postPriceAndExecuteOrders",
            "outputs": [],
            "stateMutability": "nonpayable",
            "type": "function"
        },
        {
            "inputs": [
                {
                    "internalType": "address",
                    "name": "reporter",
                    "type": "address"
                }
            ],
            "name": "removeReporter",
            "outputs": [],
            "stateMutability": "nonpayable",
            "type": "function"
        },
        {
            "inputs": [],
            "name": "renounceOwnership",
            "outputs": [],
            "stateMutability": "nonpayable",
            "type": "function"
        },
        {
            "inputs": [
                {
                    "internalType": "uint256",
                    "name": "",
                    "type": "uint256"
                }
            ],
            "name": "reporters",
            "outputs": [
                {
                    "internalType": "address",
                    "name": "",
                    "type": "address"
                }
            ],
            "stateMutability": "view",
            "type": "function"
        },
        {
            "inputs": [
                {
                    "internalType": "address",
                    "name": "newOwner",
                    "type": "address"
                }
            ],
            "name": "transferOwnership",
            "outputs": [],
            "stateMutability": "nonpayable",
            "type": "function"
        }
    ],
    "bytecode": {
        "object": "0x60c060405234801561001057600080fd5b5060405161112438038061112483398101604081905261002f91610178565b6100383361010c565b6001600160a01b0382166100935760405162461bcd60e51b815260206004820152601b60248201527f50726963655265706f727465723a696e76616c69644f7261636c65000000000060448201526064015b60405180910390fd5b6001600160a01b0381166100f55760405162461bcd60e51b8152602060048201526024808201527f50726963655265706f727465723a696e76616c6964506f736974696f6e4d616e60448201526330b3b2b960e11b606482015260840161008a565b6001600160a01b039182166080521660a0526101ab565b600080546001600160a01b038381166001600160a01b0319831681178455604051919092169283917f8be0079c531659141344cd1fd0a4f28419497f9722a3daafe3b4186f6b6457e09190a35050565b80516001600160a01b038116811461017357600080fd5b919050565b6000806040838503121561018b57600080fd5b6101948361015c565b91506101a26020840161015c565b90509250929050565b60805160a051610f316101f3600039600081816101e30152818161034b015281816103e00152818161072f01526109cf0152600081816102d1015261094d0152610f316000f3fe608060405234801561001057600080fd5b50600436106100995760003560e01c8063044ad7be1461009e57806307b99f37146100d65780635bf9ac5b146100eb5780635de5c212146100fe5780635e02cb7d14610111578063715018a61461013c5780637b02f3a6146101445780638da5cb5b14610157578063dd8755f21461015f578063e3cb59d114610172578063f2fde38b14610185575b600080fd5b6100c16100ac366004610b85565b60016020526000908152604090205460ff1681565b60405190151581526020015b60405180910390f35b6100e96100e4366004610bf2565b610198565b005b6100e96100f9366004610c33565b61028b565b6100e961010c366004610b85565b6104dd565b61012461011f366004610ccc565b6106ab565b6040516001600160a01b0390911681526020016100cd565b6100e96106d5565b6100e9610152366004610ccc565b6106e9565b61012461079b565b6100e961016d366004610b85565b6107aa565b6100e9610180366004610ce5565b610907565b6100e9610193366004610b85565b610a41565b3360009081526001602052604090205460ff166101d05760405162461bcd60e51b81526004016101c790610d58565b60405180910390fd5b80156102875760005b81811015610285577f00000000000000000000000000000000000000000000000000000000000000006001600160a01b0316630435866284848481811061022257610222610d8c565b90506020020135336040518363ffffffff1660e01b8152600401610247929190610da2565b600060405180830381600087803b15801561026157600080fd5b505af1925050508015610272575060015b508061027d81610dcf565b9150506101d9565b505b5050565b3360009081526001602052604090205460ff166102ba5760405162461bcd60e51b81526004016101c790610d58565b604051631736d65760e21b81526001600160a01b037f00000000000000000000000000000000000000000000000000000000000000001690635cdb595c9061030c908990899089908990600401610e61565b600060405180830381600087803b15801561032657600080fd5b505af115801561033a573d6000803e3d6000fd5b5050505060005b818110156104d4577f00000000000000000000000000000000000000000000000000000000000000006001600160a01b0316637e498c8184848481811061038a5761038a610d8c565b90506020020135336040518363ffffffff1660e01b81526004016103af929190610da2565b600060405180830381600087803b1580156103c957600080fd5b505af19250505080156103da575060015b6104cc577f00000000000000000000000000000000000000000000000000000000000000006001600160a01b031663514fcac784848481811061041f5761041f610d8c565b905060200201356040518263ffffffff1660e01b815260040161044491815260200190565b600060405180830381600087803b15801561045e57600080fd5b505af192505050801561046f575060015b156104cc577fb60c7a99f296b5fecb9afeb5bfc95e0c7cbf48c7cd83b05e6b448be494831a968383838181106104a7576104a7610d8c565b90506020020135888888886040516104c3959493929190610e93565b60405180910390a15b600101610341565b50505050505050565b6104e5610aba565b6001600160a01b03811660009081526001602052604090205460ff1661054d5760405162461bcd60e51b815260206004820152601f60248201527f50726963655265706f727465723a7265706f727465724e6f744578697374730060448201526064016101c7565b6001600160a01b0381166000908152600160205260408120805460ff191690555b60025481101561064057816001600160a01b03166002828154811061059557610595610d8c565b6000918252602090912001546001600160a01b03160361062e57600280546105bf90600190610ecc565b815481106105cf576105cf610d8c565b600091825260209091200154600280546001600160a01b0390921691839081106105fb576105fb610d8c565b9060005260206000200160006101000a8154816001600160a01b0302191690836001600160a01b03160217905550610640565b8061063881610dcf565b91505061056e565b50600280548061065257610652610ee5565b600082815260208120820160001990810180546001600160a01b03191690559091019091556040516001600160a01b038316917fd95322f3ef3364dd02cdd6173d58f81d4afcd3f3173cd811309f76524626b6eb91a250565b600281815481106106bb57600080fd5b6000918252602090912001546001600160a01b0316905081565b6106dd610aba565b6106e76000610b19565b565b3360009081526001602052604090205460ff166107185760405162461bcd60e51b81526004016101c790610d58565b60405163021ac33160e11b81526001600160a01b037f000000000000000000000000000000000000000000000000000000000000000016906304358662906107669084903390600401610da2565b600060405180830381600087803b15801561078057600080fd5b505af1158015610794573d6000803e3d6000fd5b5050505050565b6000546001600160a01b031690565b6107b2610aba565b6001600160a01b0381166108075760405162461bcd60e51b815260206004820152601c60248201527b50726963655265706f727465723a696e76616c69644164647265737360201b60448201526064016101c7565b6001600160a01b03811660009081526001602052604090205460ff161561087b5760405162461bcd60e51b815260206004820152602260248201527f50726963655265706f727465723a7265706f72746572416c7265616479416464604482015261195960f21b60648201526084016101c7565b6001600160a01b0381166000818152600160208190526040808320805460ff19168317905560028054928301815583527f405787fa12a823e0f2b7631cc41b3ba8828b3321ca811111fa75cd3aa3bb5ace90910180546001600160a01b03191684179055517f38c92712f1724861862c97a35dc2288853c11f11ab875d44e726632ab48399269190a250565b3360009081526001602052604090205460ff166109365760405162461bcd60e51b81526004016101c790610d58565b604051631736d65760e21b81526001600160a01b037f00000000000000000000000000000000000000000000000000000000000000001690635cdb595c90610988908890889088908890600401610e61565b600060405180830381600087803b1580156109a257600080fd5b505af11580156109b6573d6000803e3d6000fd5b5050604051637e498c8160e01b81526001600160a01b037f0000000000000000000000000000000000000000000000000000000000000000169250637e498c819150610a089084903390600401610da2565b600060405180830381600087803b158015610a2257600080fd5b505af1158015610a36573d6000803e3d6000fd5b505050505050505050565b610a49610aba565b6001600160a01b038116610aae5760405162461bcd60e51b815260206004820152602660248201527f4f776e61626c653a206e6577206f776e657220697320746865207a65726f206160448201526564647265737360d01b60648201526084016101c7565b610ab781610b19565b50565b33610ac361079b565b6001600160a01b0316146106e75760405162461bcd60e51b815260206004820181905260248201527f4f776e61626c653a2063616c6c6572206973206e6f7420746865206f776e657260448201526064016101c7565b600080546001600160a01b038381166001600160a01b0319831681178455604051919092169283917f8be0079c531659141344cd1fd0a4f28419497f9722a3daafe3b4186f6b6457e09190a35050565b80356001600160a01b0381168114610b8057600080fd5b919050565b600060208284031215610b9757600080fd5b610ba082610b69565b9392505050565b60008083601f840112610bb957600080fd5b5081356001600160401b03811115610bd057600080fd5b6020830191508360208260051b8501011115610beb57600080fd5b9250929050565b60008060208385031215610c0557600080fd5b82356001600160401b03811115610c1b57600080fd5b610c2785828601610ba7565b90969095509350505050565b60008060008060008060608789031215610c4c57600080fd5b86356001600160401b0380821115610c6357600080fd5b610c6f8a838b01610ba7565b90985096506020890135915080821115610c8857600080fd5b610c948a838b01610ba7565b90965094506040890135915080821115610cad57600080fd5b50610cba89828a01610ba7565b979a9699509497509295939492505050565b600060208284031215610cde57600080fd5b5035919050565b600080600080600060608688031215610cfd57600080fd5b85356001600160401b0380821115610d1457600080fd5b610d2089838a01610ba7565b90975095506020880135915080821115610d3957600080fd5b50610d4688828901610ba7565b96999598509660400135949350505050565b6020808252601a9082015279141c9a58d954995c1bdc9d195c8e9d5b985d5d1a1bdc9a5e995960321b604082015260600190565b634e487b7160e01b600052603260045260246000fd5b9182526001600160a01b0316602082015260400190565b634e487b7160e01b600052601160045260246000fd5b600060018201610de157610de1610db9565b5060010190565b8183526000602080850194508260005b85811015610e24576001600160a01b03610e1183610b69565b1687529582019590820190600101610df8565b509495945050505050565b81835260006001600160fb1b03831115610e4857600080fd5b8260051b80836020870137939093016020019392505050565b604081526000610e75604083018688610de8565b8281036020840152610e88818587610e2f565b979650505050505050565b858152606060208201526000610ead606083018688610de8565b8281036040840152610ec0818587610e2f565b98975050505050505050565b81810381811115610edf57610edf610db9565b92915050565b634e487b7160e01b600052603160045260246000fdfea264697066735822122025b36fd69c44d6885706b56d317d79dc7c41caaaba92da80f63fdb66b8655ab064736f6c63430008130033",
        "linkReferences": {}
    },
    "methodIdentifiers": {
        "addReporter(address)": "dd8755f2",
        "executeSwapOrder(uint256)": "7b02f3a6",
        "executeSwapOrders(uint256[])": "07b99f37",
        "isReporter(address)": "044ad7be",
        "owner()": "8da5cb5b",
        "postPriceAndExecuteOrder(address[],uint256[],uint256)": "e3cb59d1",
        "postPriceAndExecuteOrders(address[],uint256[],uint256[])": "5bf9ac5b",
        "removeReporter(address)": "5de5c212",
        "renounceOwnership()": "715018a6",
        "reporters(uint256)": "5e02cb7d",
        "transferOwnership(address)": "f2fde38b"
    },
    "id": 66
}