{
  "abi": [
    {
      "inputs": [],
      "stateMutability": "nonpayable",
      "type": "constructor"
    },
    {
      "inputs": [],
      "name": "AddressZero",
      "type": "error"
    },
    {
      "inputs": [
        {
          "internalType": "bytes32",
          "name": "",
          "type": "bytes32"
        },
        {
          "internalType": "address",
          "name": "",
          "type": "address"
        }
      ],
      "name": "AlreadyClaimed",
      "type": "error"
    },
    {
      "inputs": [],
      "name": "InvalidProof",
      "type": "error"
    },
    {
      "inputs": [],
      "name": "OverRewarded",
      "type": "error"
    },
    {
      "inputs": [],
      "name": "TransferNotAllowed",
      "type": "error"
    },
    {
      "inputs": [],
      "name": "ZeroAddress",
      "type": "error"
    },
    {
      "anonymous": false,
      "inputs": [
        {
          "indexed": false,
          "internalType": "uint8",
          "name": "version",
          "type": "uint8"
        }
      ],
      "name": "Initialized",
      "type": "event"
    },
    {
      "anonymous": false,
      "inputs": [
        {
          "indexed": true,
          "internalType": "address",
          "name": "previousOwner",
          "type": "address"
        },
        {
          "indexed": true,
          "internalType": "address",
          "name": "newOwner",
          "type": "address"
        }
      ],
      "name": "OwnershipTransferred",
      "type": "event"
    },
    {
      "anonymous": false,
      "inputs": [
        {
          "indexed": true,
          "internalType": "address",
          "name": "pool",
          "type": "address"
        },
        {
          "indexed": false,
          "internalType": "bytes32",
          "name": "root",
          "type": "bytes32"
        },
        {
          "indexed": false,
          "internalType": "uint256",
          "name": "amount",
          "type": "uint256"
        }
      ],
      "name": "ReferralRewardsAdded",
      "type": "event"
    },
    {
      "anonymous": false,
      "inputs": [
        {
          "indexed": true,
          "internalType": "address",
          "name": "pool",
          "type": "address"
        },
        {
          "indexed": true,
          "internalType": "address",
          "name": "user",
          "type": "address"
        },
        {
          "indexed": false,
          "internalType": "uint256",
          "name": "claimed",
          "type": "uint256"
        },
        {
          "indexed": false,
          "internalType": "uint256",
          "name": "userTotal",
          "type": "uint256"
        }
      ],
      "name": "ReferralRewardsClaimed",
      "type": "event"
    },
    {
      "anonymous": false,
      "inputs": [
        {
          "indexed": true,
          "internalType": "address",
          "name": "_executor",
          "type": "address"
        }
      ],
      "name": "ReferralRewardsExecutorSet",
      "type": "event"
    },
    {
      "inputs": [
        {
          "internalType": "address",
          "name": "vault",
          "type": "address"
        },
        {
          "internalType": "address",
          "name": "pool",
          "type": "address"
        },
        {
          "internalType": "bytes32",
          "name": "newRoot",
          "type": "bytes32"
        },
        {
          "internalType": "uint256",
          "name": "newRewardsAmount",
          "type": "uint256"
        }
      ],
      "name": "addRewards",
      "outputs": [],
      "stateMutability": "nonpayable",
      "type": "function"
    },
    {
      "inputs": [
        {
          "internalType": "bytes32[]",
          "name": "proof",
          "type": "bytes32[]"
        },
        {
          "internalType": "address",
          "name": "pool",
          "type": "address"
        },
        {
          "internalType": "uint256",
          "name": "userRewards",
          "type": "uint256"
        },
        {
          "internalType": "address",
          "name": "_recipient",
          "type": "address"
        }
      ],
      "name": "claim",
      "outputs": [
        {
          "internalType": "uint256",
          "name": "claimable",
          "type": "uint256"
        }
      ],
      "stateMutability": "nonpayable",
      "type": "function"
    },
    {
      "inputs": [
        {
          "internalType": "bytes[]",
          "name": "proofs",
          "type": "bytes[]"
        },
        {
          "internalType": "address[]",
          "name": "pools",
          "type": "address[]"
        },
        {
          "internalType": "uint256[]",
          "name": "userTotalRewards",
          "type": "uint256[]"
        }
      ],
      "name": "claimAll",
      "outputs": [],
      "stateMutability": "nonpayable",
      "type": "function"
    },
    {
      "inputs": [],
      "name": "executor",
      "outputs": [
        {
          "internalType": "address",
          "name": "",
          "type": "address"
        }
      ],
      "stateMutability": "view",
      "type": "function"
    },
    {
      "inputs": [],
      "name": "initialize",
      "outputs": [],
      "stateMutability": "nonpayable",
      "type": "function"
    },
    {
      "inputs": [],
      "name": "owner",
      "outputs": [
        {
          "internalType": "address",
          "name": "",
          "type": "address"
        }
      ],
      "stateMutability": "view",
      "type": "function"
    },
    {
      "inputs": [],
      "name": "renounceOwnership",
      "outputs": [],
      "stateMutability": "nonpayable",
      "type": "function"
    },
    {
      "inputs": [
        {
          "internalType": "address",
          "name": "",
          "type": "address"
        },
        {
          "internalType": "address",
          "name": "",
          "type": "address"
        }
      ],
      "name": "rewards",
      "outputs": [
        {
          "internalType": "uint256",
          "name": "lastUpdateBlock",
          "type": "uint256"
        },
        {
          "internalType": "uint256",
          "name": "claimed",
          "type": "uint256"
        }
      ],
      "stateMutability": "view",
      "type": "function"
    },
    {
      "inputs": [
        {
          "internalType": "address",
          "name": "",
          "type": "address"
        }
      ],
      "name": "rewardsRoots",
      "outputs": [
        {
          "internalType": "bytes32",
          "name": "",
          "type": "bytes32"
        }
      ],
      "stateMutability": "view",
      "type": "function"
    },
    {
      "inputs": [
        {
          "internalType": "address",
          "name": "_executor",
          "type": "address"
        }
      ],
      "name": "setExecutor",
      "outputs": [],
      "stateMutability": "nonpayable",
      "type": "function"
    },
    {
      "inputs": [
        {
          "internalType": "address",
          "name": "",
          "type": "address"
        }
      ],
      "name": "totalClaimedRewards",
      "outputs": [
        {
          "internalType": "uint256",
          "name": "",
          "type": "uint256"
        }
      ],
      "stateMutability": "view",
      "type": "function"
    },
    {
      "inputs": [
        {
          "internalType": "address",
          "name": "",
          "type": "address"
        }
      ],
      "name": "totalDistributedRewards",
      "outputs": [
        {
          "internalType": "uint256",
          "name": "",
          "type": "uint256"
        }
      ],
      "stateMutability": "view",
      "type": "function"
    },
    {
      "inputs": [
        {
          "internalType": "address",
          "name": "newOwner",
          "type": "address"
        }
      ],
      "name": "transferOwnership",
      "outputs": [],
      "stateMutability": "nonpayable",
      "type": "function"
    }
  ],
  "bytecode": {
    "object": "0x608060405234801561001057600080fd5b5061001961001e565b6100de565b600054610100900460ff161561008a5760405162461bcd60e51b815260206004820152602760248201527f496e697469616c697a61626c653a20636f6e747261637420697320696e697469604482015266616c697a696e6760c81b606482015260840160405180910390fd5b60005460ff90811610156100dc576000805460ff191660ff9081179091556040519081527f7f26b83ff96e1f2b6a682f133852f6798a09c465da95921460cefb38474024989060200160405180910390a15b565b6112c6806100ed6000396000f3fe608060405234801561001057600080fd5b50600436106100af5760003560e01c806316436c06146100b45780631c3c0ea8146100e75780634d17bd52146100fc578063715018a61461010f5780638129fc1c1461011757806385e491ef1461011f5780638da5cb5b1461013f578063a110b93f1461015f578063ae9901bd1461017f578063c34c08e514610192578063e568fb48146101a5578063e70b9e27146101b8578063f2fde38b146101ff575b600080fd5b6100d46100c2366004610d2b565b60686020526000908152604090205481565b6040519081526020015b60405180910390f35b6100fa6100f5366004610d2b565b610212565b005b6100fa61010a366004610e7c565b61028b565b6100fa61030c565b6100fa610320565b6100d461012d366004610d2b565b60666020526000908152604090205481565b61014761043d565b6040516001600160a01b0390911681526020016100de565b6100d461016d366004610d2b565b60676020526000908152604090205481565b6100d461018d366004610fc8565b61044c565b606954610147906001600160a01b031681565b6100fa6101b3366004611084565b610636565b6101ea6101c63660046110c6565b60656020908152600092835260408084209091529082529020805460019091015482565b604080519283526020830191909152016100de565b6100fa61020d366004610d2b565b6106dd565b61021a610753565b6001600160a01b0381166102415760405163d92e233d60e01b815260040160405180910390fd5b606980546001600160a01b0319166001600160a01b0383169081179091556040517fb5d19092000ecf60c460e72dc32658ad21cbcf2af2d3dabb7c4dd849c946b79b90600090a250565b60005b82518110156103065760006102bb8583815181106102ae576102ae6110f9565b60200260200101516107b2565b90506102fc818584815181106102d3576102d36110f9565b60200260200101518585815181106102ed576102ed6110f9565b602002602001015161018d3390565b505060010161028e565b50505050565b610314610753565b61031e600061086b565b565b600054610100900460ff16158080156103405750600054600160ff909116105b80610361575061034f306108bd565b158015610361575060005460ff166001145b6103c95760405162461bcd60e51b815260206004820152602e60248201527f496e697469616c697a61626c653a20636f6e747261637420697320616c72656160448201526d191e481a5b9a5d1a585b1a5e995960921b60648201526084015b60405180910390fd5b6000805460ff1916600117905580156103ec576000805461ff0019166101001790555b6103f46108cc565b801561043a576000805461ff0019169055604051600181527f7f26b83ff96e1f2b6a682f133852f6798a09c465da95921460cefb38474024989060200160405180910390a15b50565b6033546001600160a01b031690565b6001600160a01b03831660009081526068602090815260408083205490519091839161047c91869188910161110f565b6040516020818303038152906040528051906020012090506104c78783836040516020016104ac91815260200190565b604051602081830303815290604052805190602001206108fb565b6104e4576040516309bde33960e01b815260040160405180910390fd5b6001600160a01b0380871660009081526065602090815260408083209388168352929052206001810154610518908761113e565b93508360000361054d5760405163546511c760e11b8152600481018490526001600160a01b03861660248201526044016103c0565b6001600160a01b03871660009081526067602052604081208054869290610575908490611155565b90915550506001600160a01b03871660009081526066602090815260408083205460679092529091205411156105be5760405163fde0fd1760e01b815260040160405180910390fd5b6105c9878686610911565b838160010160008282546105dd9190611155565b909155505060408051858152602081018890526001600160a01b0380881692908a16917f7ee1a43bd8e3ec993cfb5e2950871a1c3efe255a4959bd91874093344beafa96910160405180910390a3505050949350505050565b61063f3361096c565b6001600160a01b0383166000818152606860205260409020839055610666908530846109c8565b6001600160a01b0383166000908152606660205260408120805483929061068e908490611155565b909155505060408051838152602081018390526001600160a01b038516917fddc02309fef9237dd718a80277d8a593f1fa4d3e764fadfd30b9bfe46827d38c910160405180910390a250505050565b6106e5610753565b6001600160a01b03811661074a5760405162461bcd60e51b815260206004820152602660248201527f4f776e61626c653a206e6577206f776e657220697320746865207a65726f206160448201526564647265737360d01b60648201526084016103c0565b61043a8161086b565b3361075c61043d565b6001600160a01b03161461031e5760405162461bcd60e51b815260206004820181905260248201527f4f776e61626c653a2063616c6c6572206973206e6f7420746865206f776e657260448201526064016103c0565b60606000602083516107c4919061116d565b90506000816001600160401b038111156107e0576107e0610d46565b604051908082528060200260200182016040528015610809578160200160208202803683370190505b509050600060205b8551811161086157600081870151905080848481518110610834576108346110f9565b6020908102919091010152826108498161118f565b9350505080602061085a9190611155565b9050610811565b5090949350505050565b603380546001600160a01b038381166001600160a01b0319831681179093556040519116919082907f8be0079c531659141344cd1fd0a4f28419497f9722a3daafe3b4186f6b6457e090600090a35050565b6001600160a01b03163b151590565b600054610100900460ff166108f35760405162461bcd60e51b81526004016103c0906111a8565b61031e610a00565b6000826109088584610a30565b14949350505050565b6109678363a9059cbb60e01b848460405160240161093092919061110f565b60408051601f198184030181529190526020810180516001600160e01b03166001600160e01b031990931692909217909152610a7d565b505050565b6069546001600160a01b0382811691161461043a5760405162461bcd60e51b815260206004820152601c60248201527b2932b332b93930b62932bbb0b932399d37b7363ca2bc32b1baba37b960211b60448201526064016103c0565b6040516001600160a01b03808516602483015283166044820152606481018290526103069085906323b872dd60e01b90608401610930565b600054610100900460ff16610a275760405162461bcd60e51b81526004016103c0906111a8565b61031e3361086b565b600081815b8451811015610a7557610a6182868381518110610a5457610a546110f9565b6020026020010151610b4f565b915080610a6d8161118f565b915050610a35565b509392505050565b6000610ad2826040518060400160405280602081526020017f5361666545524332303a206c6f772d6c6576656c2063616c6c206661696c6564815250856001600160a01b0316610b819092919063ffffffff16565b8051909150156109675780806020019051810190610af091906111f3565b6109675760405162461bcd60e51b815260206004820152602a60248201527f5361666545524332303a204552433230206f7065726174696f6e20646964206e6044820152691bdd081cdd58d8d9595960b21b60648201526084016103c0565b6000818310610b6b576000828152602084905260409020610b7a565b60008381526020839052604090205b9392505050565b6060610b908484600085610b98565b949350505050565b606082471015610bf95760405162461bcd60e51b815260206004820152602660248201527f416464726573733a20696e73756666696369656e742062616c616e636520666f6044820152651c8818d85b1b60d21b60648201526084016103c0565b600080866001600160a01b03168587604051610c159190611241565b60006040518083038185875af1925050503d8060008114610c52576040519150601f19603f3d011682016040523d82523d6000602084013e610c57565b606091505b5091509150610c6887838387610c73565b979650505050505050565b60608315610ce0578251600003610cd957610c8d856108bd565b610cd95760405162461bcd60e51b815260206004820152601d60248201527f416464726573733a2063616c6c20746f206e6f6e2d636f6e747261637400000060448201526064016103c0565b5081610b90565b610b908383815115610cf55781518083602001fd5b8060405162461bcd60e51b81526004016103c0919061125d565b80356001600160a01b0381168114610d2657600080fd5b919050565b600060208284031215610d3d57600080fd5b610b7a82610d0f565b634e487b7160e01b600052604160045260246000fd5b604051601f8201601f191681016001600160401b0381118282101715610d8457610d84610d46565b604052919050565b60006001600160401b03821115610da557610da5610d46565b5060051b60200190565b600082601f830112610dc057600080fd5b81356020610dd5610dd083610d8c565b610d5c565b82815260059290921b84018101918181019086841115610df457600080fd5b8286015b84811015610e1657610e0981610d0f565b8352918301918301610df8565b509695505050505050565b600082601f830112610e3257600080fd5b81356020610e42610dd083610d8c565b82815260059290921b84018101918181019086841115610e6157600080fd5b8286015b84811015610e165780358352918301918301610e65565b600080600060608486031215610e9157600080fd5b83356001600160401b0380821115610ea857600080fd5b818601915086601f830112610ebc57600080fd5b81356020610ecc610dd083610d8c565b82815260059290921b8401810191818101908a841115610eeb57600080fd5b8286015b84811015610f7857803586811115610f075760008081fd5b8701603f81018d13610f195760008081fd5b84810135604088821115610f2f57610f2f610d46565b610f41601f8301601f19168801610d5c565b8281528f82848601011115610f565760008081fd5b8282850189830137600092810188019290925250845250918301918301610eef565b5097505087013592505080821115610f8f57600080fd5b610f9b87838801610daf565b93506040860135915080821115610fb157600080fd5b50610fbe86828701610e21565b9150509250925092565b60008060008060808587031215610fde57600080fd5b84356001600160401b03811115610ff457600080fd5b8501601f8101871361100557600080fd5b80356020611015610dd083610d8c565b82815260059290921b8301810191818101908a84111561103457600080fd5b938201935b8385101561105257843582529382019390820190611039565b97506110619050888201610d0f565b95505050506040850135915061107960608601610d0f565b905092959194509250565b6000806000806080858703121561109a57600080fd5b6110a385610d0f565b93506110b160208601610d0f565b93969395505050506040820135916060013590565b600080604083850312156110d957600080fd5b6110e283610d0f565b91506110f060208401610d0f565b90509250929050565b634e487b7160e01b600052603260045260246000fd5b6001600160a01b03929092168252602082015260400190565b634e487b7160e01b600052601160045260246000fd5b60008282101561115057611150611128565b500390565b6000821982111561116857611168611128565b500190565b60008261118a57634e487b7160e01b600052601260045260246000fd5b500490565b6000600182016111a1576111a1611128565b5060010190565b6020808252602b908201527f496e697469616c697a61626c653a20636f6e7472616374206973206e6f74206960408201526a6e697469616c697a696e6760a81b606082015260800190565b60006020828403121561120557600080fd5b81518015158114610b7a57600080fd5b60005b83811015611230578181015183820152602001611218565b838111156103065750506000910152565b60008251611253818460208701611215565b9190910192915050565b602081526000825180602084015261127c816040850160208701611215565b601f01601f1916919091016040019291505056fea26469706673582212200f850c397ce0f5b7e601e595c27e939d94623ba7d1c513f03e8c96d5db54342c64736f6c634300080f0033",
    "linkReferences": {}
  },
  "methodIdentifiers": {
    "addRewards(address,address,bytes32,uint256)": "e568fb48",
    "claim(bytes32[],address,uint256,address)": "ae9901bd",
    "claimAll(bytes[],address[],uint256[])": "4d17bd52",
    "executor()": "c34c08e5",
    "initialize()": "8129fc1c",
    "owner()": "8da5cb5b",
    "renounceOwnership()": "715018a6",
    "rewards(address,address)": "e70b9e27",
    "rewardsRoots(address)": "16436c06",
    "setExecutor(address)": "1c3c0ea8",
    "totalClaimedRewards(address)": "a110b93f",
    "totalDistributedRewards(address)": "85e491ef",
    "transferOwnership(address)": "f2fde38b"
  },
  "id": 113
}