{
  "abi": [
    {
      "inputs": [],
      "stateMutability": "nonpayable",
      "type": "constructor"
    },
    {
      "anonymous": false,
      "inputs": [
        {
          "indexed": false,
          "internalType": "uint8",
          "name": "version",
          "type": "uint8"
        }
      ],
      "name": "Initialized",
      "type": "event"
    },
    {
      "anonymous": false,
      "inputs": [
        {
          "indexed": true,
          "internalType": "address",
          "name": "previousOwner",
          "type": "address"
        },
        {
          "indexed": true,
          "internalType": "address",
          "name": "newOwner",
          "type": "address"
        }
      ],
      "name": "OwnershipTransferred",
      "type": "event"
    },
    {
      "anonymous": false,
      "inputs": [
        {
          "indexed": true,
          "internalType": "address",
          "name": "sender",
          "type": "address"
        },
        {
          "indexed": true,
          "internalType": "uint256",
          "name": "referralCode",
          "type": "uint256"
        }
      ],
      "name": "ReferralCodeRegister",
      "type": "event"
    },
    {
      "anonymous": false,
      "inputs": [
        {
          "indexed": true,
          "internalType": "address",
          "name": "reporter",
          "type": "address"
        }
      ],
      "name": "ReporterAdd",
      "type": "event"
    },
    {
      "anonymous": false,
      "inputs": [
        {
          "indexed": true,
          "internalType": "address",
          "name": "reporter",
          "type": "address"
        }
      ],
      "name": "ReporterRemove",
      "type": "event"
    },
    {
      "anonymous": false,
      "inputs": [
        {
          "indexed": true,
          "internalType": "address",
          "name": "reporter",
          "type": "address"
        },
        {
          "indexed": true,
          "internalType": "address",
          "name": "trader",
          "type": "address"
        },
        {
          "indexed": true,
          "internalType": "uint256",
          "name": "referralId",
          "type": "uint256"
        }
      ],
      "name": "TransactionRegister",
      "type": "event"
    },
    {
      "inputs": [
        {
          "internalType": "address",
          "name": "_reporter",
          "type": "address"
        }
      ],
      "name": "addReporter",
      "outputs": [],
      "stateMutability": "nonpayable",
      "type": "function"
    },
    {
      "inputs": [
        {
          "internalType": "address",
          "name": "",
          "type": "address"
        }
      ],
      "name": "addr2ReferralCode",
      "outputs": [
        {
          "internalType": "uint256",
          "name": "",
          "type": "uint256"
        }
      ],
      "stateMutability": "view",
      "type": "function"
    },
    {
      "inputs": [],
      "name": "initialize",
      "outputs": [],
      "stateMutability": "nonpayable",
      "type": "function"
    },
    {
      "inputs": [
        {
          "internalType": "address",
          "name": "",
          "type": "address"
        }
      ],
      "name": "isReporter",
      "outputs": [
        {
          "internalType": "bool",
          "name": "",
          "type": "bool"
        }
      ],
      "stateMutability": "view",
      "type": "function"
    },
    {
      "inputs": [],
      "name": "owner",
      "outputs": [
        {
          "internalType": "address",
          "name": "",
          "type": "address"
        }
      ],
      "stateMutability": "view",
      "type": "function"
    },
    {
      "inputs": [
        {
          "internalType": "uint256",
          "name": "",
          "type": "uint256"
        }
      ],
      "name": "referralCode2Addr",
      "outputs": [
        {
          "internalType": "address",
          "name": "",
          "type": "address"
        }
      ],
      "stateMutability": "view",
      "type": "function"
    },
    {
      "inputs": [
        {
          "internalType": "address",
          "name": "",
          "type": "address"
        }
      ],
      "name": "referrals",
      "outputs": [
        {
          "internalType": "uint256",
          "name": "",
          "type": "uint256"
        }
      ],
      "stateMutability": "view",
      "type": "function"
    },
    {
      "inputs": [
        {
          "internalType": "uint256",
          "name": "_referralCode",
          "type": "uint256"
        }
      ],
      "name": "registerReferralCode",
      "outputs": [],
      "stateMutability": "nonpayable",
      "type": "function"
    },
    {
      "inputs": [
        {
          "internalType": "address",
          "name": "_trader",
          "type": "address"
        },
        {
          "internalType": "uint256",
          "name": "_referralId",
          "type": "uint256"
        }
      ],
      "name": "registerTransaction",
      "outputs": [],
      "stateMutability": "nonpayable",
      "type": "function"
    },
    {
      "inputs": [
        {
          "internalType": "address",
          "name": "_reporter",
          "type": "address"
        }
      ],
      "name": "removeReporter",
      "outputs": [],
      "stateMutability": "nonpayable",
      "type": "function"
    },
    {
      "inputs": [],
      "name": "renounceOwnership",
      "outputs": [],
      "stateMutability": "nonpayable",
      "type": "function"
    },
    {
      "inputs": [
        {
          "internalType": "uint256",
          "name": "",
          "type": "uint256"
        }
      ],
      "name": "reporters",
      "outputs": [
        {
          "internalType": "address",
          "name": "",
          "type": "address"
        }
      ],
      "stateMutability": "view",
      "type": "function"
    },
    {
      "inputs": [
        {
          "internalType": "address",
          "name": "newOwner",
          "type": "address"
        }
      ],
      "name": "transferOwnership",
      "outputs": [],
      "stateMutability": "nonpayable",
      "type": "function"
    }
  ],
  "bytecode": {
    "object": "0x608060405234801561001057600080fd5b5061001961001e565b6100de565b600054610100900460ff161561008a5760405162461bcd60e51b815260206004820152602760248201527f496e697469616c697a61626c653a20636f6e747261637420697320696e697469604482015266616c697a696e6760c81b606482015260840160405180910390fd5b60005460ff90811610156100dc576000805460ff191660ff9081179091556040519081527f7f26b83ff96e1f2b6a682f133852f6798a09c465da95921460cefb38474024989060200160405180910390a15b565b610c05806100ed6000396000f3fe608060405234801561001057600080fd5b50600436106100af5760003560e01c8063044ad7be146100b4578063101c500c146100ec5780631f9506a3146101015780632a621e251461012f5780635de5c212146101705780635e02cb7d14610183578063715018a6146101965780638129fc1c1461019e5780638da5cb5b146101a65780639ca423b3146101ae578063a0214635146101ce578063dd8755f2146101e1578063f2fde38b146101f4575b600080fd5b6100d76100c2366004610aad565b60666020526000908152604090205460ff1681565b60405190151581526020015b60405180910390f35b6100ff6100fa366004610acf565b610207565b005b61012161010f366004610aad565b60686020526000908152604090205481565b6040519081526020016100e3565b61015861013d366004610acf565b6069602052600090815260409020546001600160a01b031681565b6040516001600160a01b0390911681526020016100e3565b6100ff61017e366004610aad565b6103a1565b610158610191366004610acf565b61057a565b6100ff6105a4565b6100ff6105b8565b6101586106c9565b6101216101bc366004610aad565b60656020526000908152604090205481565b6100ff6101dc366004610ae8565b6106d8565b6100ff6101ef366004610aad565b6107a3565b6100ff610202366004610aad565b610910565b806000036102685760405162461bcd60e51b8152602060048201526024808201527f526566657272616c52656769737472793a496e76616c6964526566657272616c604482015263436f646560e01b60648201526084015b60405180910390fd5b33600090815260686020526040902054156102d15760405162461bcd60e51b8152602060048201526024808201527f526566657272616c52656769737472793a55736572416c72656164795265676960448201526339ba32b960e11b606482015260840161025f565b6000818152606960205260409020546001600160a01b0316156103475760405162461bcd60e51b815260206004820152602860248201527f526566657272616c52656769737472793a526566657272616c436f6465416c726044820152671958591e555cd95960c21b606482015260840161025f565b336000818152606860209081526040808320859055848352606990915280822080546001600160a01b03191684179055518392917fe563500657ca78104c74966e7dab4d53eb7329b654aaaed0b4abd61131128a5c91a350565b6103a9610986565b6001600160a01b03811660009081526066602052604090205460ff1661041c5760405162461bcd60e51b815260206004820152602260248201527f526566657272616c52656769737472793a72656769737465724e6f7445786973604482015261747360f01b606482015260840161025f565b6001600160a01b0381166000908152606660205260408120805460ff191690555b60675481101561050f57816001600160a01b03166067828154811061046457610464610b12565b6000918252602090912001546001600160a01b0316036104fd576067805461048e90600190610b3e565b8154811061049e5761049e610b12565b600091825260209091200154606780546001600160a01b0390921691839081106104ca576104ca610b12565b9060005260206000200160006101000a8154816001600160a01b0302191690836001600160a01b0316021790555061050f565b8061050781610b55565b91505061043d565b50606780548061052157610521610b6e565b600082815260208120820160001990810180546001600160a01b03191690559091019091556040516001600160a01b038316917fd95322f3ef3364dd02cdd6173d58f81d4afcd3f3173cd811309f76524626b6eb91a250565b6067818154811061058a57600080fd5b6000918252602090912001546001600160a01b0316905081565b6105ac610986565b6105b660006109e5565b565b600054610100900460ff16158080156105d85750600054600160ff909116105b806105f25750303b1580156105f2575060005460ff166001145b6106555760405162461bcd60e51b815260206004820152602e60248201527f496e697469616c697a61626c653a20636f6e747261637420697320616c72656160448201526d191e481a5b9a5d1a585b1a5e995960921b606482015260840161025f565b6000805460ff191660011790558015610678576000805461ff0019166101001790555b610680610a37565b80156106c6576000805461ff0019169055604051600181527f7f26b83ff96e1f2b6a682f133852f6798a09c465da95921460cefb38474024989060200160405180910390a15b50565b6033546001600160a01b031690565b3360009081526066602052604090205460ff166107375760405162461bcd60e51b815260206004820152601d60248201527f526566657272616c52656769737472793a6f6e6c794578656375746f72000000604482015260640161025f565b6001600160a01b03821660009081526065602052604090205415610759575050565b6001600160a01b0382166000818152606560205260408082208490555183929133917ff6d2fcb67db5e4722c493c21dbe95bf007625493857044ceb2dd9e7a0046f35d9190a45050565b6107ab610986565b6001600160a01b03811661080d5760405162461bcd60e51b8152602060048201526024808201527f526566657272616c52656769737472793a7a65726f52656769737465724164646044820152637265737360e01b606482015260840161025f565b6001600160a01b03811660009081526066602052604090205460ff16156108845760405162461bcd60e51b815260206004820152602560248201527f526566657272616c52656769737472793a7265676973746572416c7265616479604482015264105919195960da1b606482015260840161025f565b6001600160a01b038116600081815260666020526040808220805460ff1916600190811790915560678054918201815583527f9787eeb91fe3101235e4a76063c7023ecb40f923f97916639c598592fa30d6ae0180546001600160a01b03191684179055517f38c92712f1724861862c97a35dc2288853c11f11ab875d44e726632ab48399269190a250565b610918610986565b6001600160a01b03811661097d5760405162461bcd60e51b815260206004820152602660248201527f4f776e61626c653a206e6577206f776e657220697320746865207a65726f206160448201526564647265737360d01b606482015260840161025f565b6106c6816109e5565b3361098f6106c9565b6001600160a01b0316146105b65760405162461bcd60e51b815260206004820181905260248201527f4f776e61626c653a2063616c6c6572206973206e6f7420746865206f776e6572604482015260640161025f565b603380546001600160a01b038381166001600160a01b0319831681179093556040519116919082907f8be0079c531659141344cd1fd0a4f28419497f9722a3daafe3b4186f6b6457e090600090a35050565b600054610100900460ff16610a5e5760405162461bcd60e51b815260040161025f90610b84565b6105b6600054610100900460ff16610a885760405162461bcd60e51b815260040161025f90610b84565b6105b6336109e5565b80356001600160a01b0381168114610aa857600080fd5b919050565b600060208284031215610abf57600080fd5b610ac882610a91565b9392505050565b600060208284031215610ae157600080fd5b5035919050565b60008060408385031215610afb57600080fd5b610b0483610a91565b946020939093013593505050565b634e487b7160e01b600052603260045260246000fd5b634e487b7160e01b600052601160045260246000fd5b600082821015610b5057610b50610b28565b500390565b600060018201610b6757610b67610b28565b5060010190565b634e487b7160e01b600052603160045260246000fd5b6020808252602b908201527f496e697469616c697a61626c653a20636f6e7472616374206973206e6f74206960408201526a6e697469616c697a696e6760a81b60608201526080019056fea2646970667358221220a43054690277c78498c1d30c5b273f24912f0fd265044b435efea2b698090fb364736f6c634300080f0033",
    "linkReferences": {}
  },
  "methodIdentifiers": {
    "addReporter(address)": "dd8755f2",
    "addr2ReferralCode(address)": "1f9506a3",
    "initialize()": "8129fc1c",
    "isReporter(address)": "044ad7be",
    "owner()": "8da5cb5b",
    "referralCode2Addr(uint256)": "2a621e25",
    "referrals(address)": "9ca423b3",
    "registerReferralCode(uint256)": "101c500c",
    "registerTransaction(address,uint256)": "a0214635",
    "removeReporter(address)": "5de5c212",
    "renounceOwnership()": "715018a6",
    "reporters(uint256)": "5e02cb7d",
    "transferOwnership(address)": "f2fde38b"
  },
  "id": 81
}